{
	"contracts/3_enum.sol": {
		"ENUM": {
			"abi": [
				{
					"inputs": [],
					"name": "getABC",
					"outputs": [
						{
							"internalType": "enum ENUM.Food",
							"name": "",
							"type": "uint8"
						},
						{
							"internalType": "enum ENUM.Food",
							"name": "",
							"type": "uint8"
						},
						{
							"internalType": "enum ENUM.Food",
							"name": "",
							"type": "uint8"
						},
						{
							"internalType": "enum ENUM.Food",
							"name": "",
							"type": "uint8"
						}
					],
					"stateMutability": "view",
					"type": "function"
				},
				{
					"inputs": [],
					"name": "getABC2",
					"outputs": [
						{
							"internalType": "uint8",
							"name": "",
							"type": "uint8"
						},
						{
							"internalType": "uint8",
							"name": "",
							"type": "uint8"
						},
						{
							"internalType": "uint8",
							"name": "",
							"type": "uint8"
						},
						{
							"internalType": "uint8",
							"name": "",
							"type": "uint8"
						}
					],
					"stateMutability": "view",
					"type": "function"
				},
				{
					"inputs": [],
					"name": "setA",
					"outputs": [],
					"stateMutability": "nonpayable",
					"type": "function"
				},
				{
					"inputs": [],
					"name": "setB",
					"outputs": [],
					"stateMutability": "nonpayable",
					"type": "function"
				},
				{
					"inputs": [],
					"name": "setC",
					"outputs": [],
					"stateMutability": "nonpayable",
					"type": "function"
				},
				{
					"inputs": [],
					"name": "setD",
					"outputs": [],
					"stateMutability": "nonpayable",
					"type": "function"
				}
			],
			"devdoc": {
				"kind": "dev",
				"methods": {},
				"version": 1
			},
			"evm": {
				"assembly": "    /* \"contracts/3_enum.sol\":61:727  contract ENUM {... */\n  mstore(0x40, 0x80)\n  callvalue\n  dup1\n  iszero\n  tag_1\n  jumpi\n  0x00\n  dup1\n  revert\ntag_1:\n  pop\n  dataSize(sub_0)\n  dup1\n  dataOffset(sub_0)\n  0x00\n  codecopy\n  0x00\n  return\nstop\n\nsub_0: assembly {\n        /* \"contracts/3_enum.sol\":61:727  contract ENUM {... */\n      mstore(0x40, 0x80)\n      callvalue\n      dup1\n      iszero\n      tag_1\n      jumpi\n      0x00\n      dup1\n      revert\n    tag_1:\n      pop\n      jumpi(tag_2, lt(calldatasize, 0x04))\n      shr(0xe0, calldataload(0x00))\n      dup1\n      0x1fc376f7\n      eq\n      tag_3\n      jumpi\n      dup1\n      0x2b59115b\n      eq\n      tag_4\n      jumpi\n      dup1\n      0x2de647de\n      eq\n      tag_5\n      jumpi\n      dup1\n      0x73af6082\n      eq\n      tag_6\n      jumpi\n      dup1\n      0x87522f79\n      eq\n      tag_7\n      jumpi\n      dup1\n      0xd1f4ba82\n      eq\n      tag_8\n      jumpi\n    tag_2:\n      0x00\n      dup1\n      revert\n        /* \"contracts/3_enum.sol\":227:285  function setA() public {... */\n    tag_3:\n      tag_9\n      tag_10\n      jump\t// in\n    tag_9:\n      stop\n        /* \"contracts/3_enum.sol\":591:722  function getABC2() public view returns (uint8, uint8, uint8, uint8) {... */\n    tag_4:\n      tag_11\n      tag_12\n      jump\t// in\n    tag_11:\n      mload(0x40)\n      tag_13\n      swap5\n      swap4\n      swap3\n      swap2\n      swap1\n      tag_14\n      jump\t// in\n    tag_13:\n      mload(0x40)\n      dup1\n      swap2\n      sub\n      swap1\n      return\n        /* \"contracts/3_enum.sol\":421:477  function setD() public {... */\n    tag_5:\n      tag_15\n      tag_16\n      jump\t// in\n    tag_15:\n      stop\n        /* \"contracts/3_enum.sol\":357:413  function setC() public {... */\n    tag_6:\n      tag_17\n      tag_18\n      jump\t// in\n    tag_17:\n      stop\n        /* \"contracts/3_enum.sol\":485:583  function getABC() public view returns (Food, Food, Food, Food) {... */\n    tag_7:\n      tag_19\n      tag_20\n      jump\t// in\n    tag_19:\n      mload(0x40)\n      tag_21\n      swap5\n      swap4\n      swap3\n      swap2\n      swap1\n      tag_22\n      jump\t// in\n    tag_21:\n      mload(0x40)\n      dup1\n      swap2\n      sub\n      swap1\n      return\n        /* \"contracts/3_enum.sol\":293:349  function setB() public {... */\n    tag_8:\n      tag_23\n      tag_24\n      jump\t// in\n    tag_23:\n      stop\n        /* \"contracts/3_enum.sol\":227:285  function setA() public {... */\n    tag_10:\n        /* \"contracts/3_enum.sol\":265:277  Food.Chicken */\n      0x00\n        /* \"contracts/3_enum.sol\":261:262  a */\n      dup1\n      0x00\n        /* \"contracts/3_enum.sol\":261:277  a = Food.Chicken */\n      0x0100\n      exp\n      dup2\n      sload\n      dup2\n      0xff\n      mul\n      not\n      and\n      swap1\n      dup4\n      0x03\n      dup2\n      gt\n      iszero\n      tag_26\n      jumpi\n      tag_27\n      tag_28\n      jump\t// in\n    tag_27:\n    tag_26:\n      mul\n      or\n      swap1\n      sstore\n      pop\n        /* \"contracts/3_enum.sol\":227:285  function setA() public {... */\n      jump\t// out\n        /* \"contracts/3_enum.sol\":591:722  function getABC2() public view returns (uint8, uint8, uint8, uint8) {... */\n    tag_12:\n        /* \"contracts/3_enum.sol\":631:636  uint8 */\n      0x00\n        /* \"contracts/3_enum.sol\":638:643  uint8 */\n      dup1\n        /* \"contracts/3_enum.sol\":645:650  uint8 */\n      0x00\n        /* \"contracts/3_enum.sol\":652:657  uint8 */\n      dup1\n        /* \"contracts/3_enum.sol\":684:685  a */\n      0x00\n      dup1\n      sload\n      swap1\n      0x0100\n      exp\n      swap1\n      div\n      0xff\n      and\n        /* \"contracts/3_enum.sol\":678:686  uint8(a) */\n      0x03\n      dup2\n      gt\n      iszero\n      tag_30\n      jumpi\n      tag_31\n      tag_28\n      jump\t// in\n    tag_31:\n    tag_30:\n        /* \"contracts/3_enum.sol\":693:694  b */\n      0x00\n      0x01\n      swap1\n      sload\n      swap1\n      0x0100\n      exp\n      swap1\n      div\n      0xff\n      and\n        /* \"contracts/3_enum.sol\":687:695  uint8(b) */\n      0x03\n      dup2\n      gt\n      iszero\n      tag_32\n      jumpi\n      tag_33\n      tag_28\n      jump\t// in\n    tag_33:\n    tag_32:\n        /* \"contracts/3_enum.sol\":702:703  c */\n      0x00\n      0x02\n      swap1\n      sload\n      swap1\n      0x0100\n      exp\n      swap1\n      div\n      0xff\n      and\n        /* \"contracts/3_enum.sol\":696:704  uint8(c) */\n      0x03\n      dup2\n      gt\n      iszero\n      tag_34\n      jumpi\n      tag_35\n      tag_28\n      jump\t// in\n    tag_35:\n    tag_34:\n        /* \"contracts/3_enum.sol\":711:712  d */\n      0x00\n      0x03\n      swap1\n      sload\n      swap1\n      0x0100\n      exp\n      swap1\n      div\n      0xff\n      and\n        /* \"contracts/3_enum.sol\":705:713  uint8(d) */\n      0x03\n      dup2\n      gt\n      iszero\n      tag_36\n      jumpi\n      tag_37\n      tag_28\n      jump\t// in\n    tag_37:\n    tag_36:\n        /* \"contracts/3_enum.sol\":670:714  return (uint8(a),uint8(b),uint8(c),uint8(d)) */\n      swap4\n      pop\n      swap4\n      pop\n      swap4\n      pop\n      swap4\n      pop\n        /* \"contracts/3_enum.sol\":591:722  function getABC2() public view returns (uint8, uint8, uint8, uint8) {... */\n      swap1\n      swap2\n      swap3\n      swap4\n      jump\t// out\n        /* \"contracts/3_enum.sol\":421:477  function setD() public {... */\n    tag_16:\n        /* \"contracts/3_enum.sol\":459:469  Food.Pizza */\n      0x03\n        /* \"contracts/3_enum.sol\":455:456  d */\n      0x00\n      0x03\n        /* \"contracts/3_enum.sol\":455:469  d = Food.Pizza */\n      0x0100\n      exp\n      dup2\n      sload\n      dup2\n      0xff\n      mul\n      not\n      and\n      swap1\n      dup4\n      0x03\n      dup2\n      gt\n      iszero\n      tag_39\n      jumpi\n      tag_40\n      tag_28\n      jump\t// in\n    tag_40:\n    tag_39:\n      mul\n      or\n      swap1\n      sstore\n      pop\n        /* \"contracts/3_enum.sol\":421:477  function setD() public {... */\n      jump\t// out\n        /* \"contracts/3_enum.sol\":357:413  function setC() public {... */\n    tag_18:\n        /* \"contracts/3_enum.sol\":395:405  Food.Bread */\n      0x02\n        /* \"contracts/3_enum.sol\":391:392  c */\n      0x00\n      0x02\n        /* \"contracts/3_enum.sol\":391:405  c = Food.Bread */\n      0x0100\n      exp\n      dup2\n      sload\n      dup2\n      0xff\n      mul\n      not\n      and\n      swap1\n      dup4\n      0x03\n      dup2\n      gt\n      iszero\n      tag_42\n      jumpi\n      tag_43\n      tag_28\n      jump\t// in\n    tag_43:\n    tag_42:\n      mul\n      or\n      swap1\n      sstore\n      pop\n        /* \"contracts/3_enum.sol\":357:413  function setC() public {... */\n      jump\t// out\n        /* \"contracts/3_enum.sol\":485:583  function getABC() public view returns (Food, Food, Food, Food) {... */\n    tag_20:\n        /* \"contracts/3_enum.sol\":524:528  Food */\n      0x00\n        /* \"contracts/3_enum.sol\":530:534  Food */\n      dup1\n        /* \"contracts/3_enum.sol\":536:540  Food */\n      0x00\n        /* \"contracts/3_enum.sol\":542:546  Food */\n      dup1\n        /* \"contracts/3_enum.sol\":567:568  a */\n      0x00\n      dup1\n      sload\n      swap1\n      0x0100\n      exp\n      swap1\n      div\n      0xff\n      and\n        /* \"contracts/3_enum.sol\":569:570  b */\n      0x00\n      0x01\n      swap1\n      sload\n      swap1\n      0x0100\n      exp\n      swap1\n      div\n      0xff\n      and\n        /* \"contracts/3_enum.sol\":571:572  c */\n      0x00\n      0x02\n      swap1\n      sload\n      swap1\n      0x0100\n      exp\n      swap1\n      div\n      0xff\n      and\n        /* \"contracts/3_enum.sol\":573:574  d */\n      0x00\n      0x03\n      swap1\n      sload\n      swap1\n      0x0100\n      exp\n      swap1\n      div\n      0xff\n      and\n        /* \"contracts/3_enum.sol\":559:575  return (a,b,c,d) */\n      swap4\n      pop\n      swap4\n      pop\n      swap4\n      pop\n      swap4\n      pop\n        /* \"contracts/3_enum.sol\":485:583  function getABC() public view returns (Food, Food, Food, Food) {... */\n      swap1\n      swap2\n      swap3\n      swap4\n      jump\t// out\n        /* \"contracts/3_enum.sol\":293:349  function setB() public {... */\n    tag_24:\n        /* \"contracts/3_enum.sol\":331:341  Food.Sushi */\n      0x01\n        /* \"contracts/3_enum.sol\":327:328  b */\n      0x00\n      0x01\n        /* \"contracts/3_enum.sol\":327:341  b = Food.Sushi */\n      0x0100\n      exp\n      dup2\n      sload\n      dup2\n      0xff\n      mul\n      not\n      and\n      swap1\n      dup4\n      0x03\n      dup2\n      gt\n      iszero\n      tag_46\n      jumpi\n      tag_47\n      tag_28\n      jump\t// in\n    tag_47:\n    tag_46:\n      mul\n      or\n      swap1\n      sstore\n      pop\n        /* \"contracts/3_enum.sol\":293:349  function setB() public {... */\n      jump\t// out\n        /* \"#utility.yul\":7:93   */\n    tag_48:\n        /* \"#utility.yul\":42:49   */\n      0x00\n        /* \"#utility.yul\":82:86   */\n      0xff\n        /* \"#utility.yul\":75:80   */\n      dup3\n        /* \"#utility.yul\":71:87   */\n      and\n        /* \"#utility.yul\":60:87   */\n      swap1\n      pop\n        /* \"#utility.yul\":7:93   */\n      swap2\n      swap1\n      pop\n      jump\t// out\n        /* \"#utility.yul\":99:211   */\n    tag_49:\n        /* \"#utility.yul\":182:204   */\n      tag_57\n        /* \"#utility.yul\":198:203   */\n      dup2\n        /* \"#utility.yul\":182:204   */\n      tag_48\n      jump\t// in\n    tag_57:\n        /* \"#utility.yul\":177:180   */\n      dup3\n        /* \"#utility.yul\":170:205   */\n      mstore\n        /* \"#utility.yul\":99:211   */\n      pop\n      pop\n      jump\t// out\n        /* \"#utility.yul\":217:738   */\n    tag_14:\n        /* \"#utility.yul\":378:382   */\n      0x00\n        /* \"#utility.yul\":416:419   */\n      0x80\n        /* \"#utility.yul\":405:414   */\n      dup3\n        /* \"#utility.yul\":401:420   */\n      add\n        /* \"#utility.yul\":393:420   */\n      swap1\n      pop\n        /* \"#utility.yul\":430:497   */\n      tag_59\n        /* \"#utility.yul\":494:495   */\n      0x00\n        /* \"#utility.yul\":483:492   */\n      dup4\n        /* \"#utility.yul\":479:496   */\n      add\n        /* \"#utility.yul\":470:476   */\n      dup8\n        /* \"#utility.yul\":430:497   */\n      tag_49\n      jump\t// in\n    tag_59:\n        /* \"#utility.yul\":507:575   */\n      tag_60\n        /* \"#utility.yul\":571:573   */\n      0x20\n        /* \"#utility.yul\":560:569   */\n      dup4\n        /* \"#utility.yul\":556:574   */\n      add\n        /* \"#utility.yul\":547:553   */\n      dup7\n        /* \"#utility.yul\":507:575   */\n      tag_49\n      jump\t// in\n    tag_60:\n        /* \"#utility.yul\":585:653   */\n      tag_61\n        /* \"#utility.yul\":649:651   */\n      0x40\n        /* \"#utility.yul\":638:647   */\n      dup4\n        /* \"#utility.yul\":634:652   */\n      add\n        /* \"#utility.yul\":625:631   */\n      dup6\n        /* \"#utility.yul\":585:653   */\n      tag_49\n      jump\t// in\n    tag_61:\n        /* \"#utility.yul\":663:731   */\n      tag_62\n        /* \"#utility.yul\":727:729   */\n      0x60\n        /* \"#utility.yul\":716:725   */\n      dup4\n        /* \"#utility.yul\":712:730   */\n      add\n        /* \"#utility.yul\":703:709   */\n      dup5\n        /* \"#utility.yul\":663:731   */\n      tag_49\n      jump\t// in\n    tag_62:\n        /* \"#utility.yul\":217:738   */\n      swap6\n      swap5\n      pop\n      pop\n      pop\n      pop\n      pop\n      jump\t// out\n        /* \"#utility.yul\":744:924   */\n    tag_28:\n        /* \"#utility.yul\":792:869   */\n      0x4e487b7100000000000000000000000000000000000000000000000000000000\n        /* \"#utility.yul\":789:790   */\n      0x00\n        /* \"#utility.yul\":782:870   */\n      mstore\n        /* \"#utility.yul\":889:893   */\n      0x21\n        /* \"#utility.yul\":886:887   */\n      0x04\n        /* \"#utility.yul\":879:894   */\n      mstore\n        /* \"#utility.yul\":913:917   */\n      0x24\n        /* \"#utility.yul\":910:911   */\n      0x00\n        /* \"#utility.yul\":903:918   */\n      revert\n        /* \"#utility.yul\":930:1041   */\n    tag_50:\n        /* \"#utility.yul\":1009:1010   */\n      0x04\n        /* \"#utility.yul\":1002:1007   */\n      dup2\n        /* \"#utility.yul\":999:1011   */\n      lt\n        /* \"#utility.yul\":989:1035   */\n      tag_65\n      jumpi\n        /* \"#utility.yul\":1015:1033   */\n      tag_66\n      tag_28\n      jump\t// in\n    tag_66:\n        /* \"#utility.yul\":989:1035   */\n    tag_65:\n        /* \"#utility.yul\":930:1041   */\n      pop\n      jump\t// out\n        /* \"#utility.yul\":1047:1170   */\n    tag_51:\n        /* \"#utility.yul\":1090:1097   */\n      0x00\n        /* \"#utility.yul\":1119:1124   */\n      dup2\n        /* \"#utility.yul\":1108:1124   */\n      swap1\n      pop\n        /* \"#utility.yul\":1125:1164   */\n      tag_68\n        /* \"#utility.yul\":1158:1163   */\n      dup3\n        /* \"#utility.yul\":1125:1164   */\n      tag_50\n      jump\t// in\n    tag_68:\n        /* \"#utility.yul\":1047:1170   */\n      swap2\n      swap1\n      pop\n      jump\t// out\n        /* \"#utility.yul\":1176:1299   */\n    tag_52:\n        /* \"#utility.yul\":1230:1239   */\n      0x00\n        /* \"#utility.yul\":1263:1293   */\n      tag_70\n        /* \"#utility.yul\":1287:1292   */\n      dup3\n        /* \"#utility.yul\":1263:1293   */\n      tag_51\n      jump\t// in\n    tag_70:\n        /* \"#utility.yul\":1250:1293   */\n      swap1\n      pop\n        /* \"#utility.yul\":1176:1299   */\n      swap2\n      swap1\n      pop\n      jump\t// out\n        /* \"#utility.yul\":1305:1444   */\n    tag_53:\n        /* \"#utility.yul\":1396:1437   */\n      tag_72\n        /* \"#utility.yul\":1431:1436   */\n      dup2\n        /* \"#utility.yul\":1396:1437   */\n      tag_52\n      jump\t// in\n    tag_72:\n        /* \"#utility.yul\":1391:1394   */\n      dup3\n        /* \"#utility.yul\":1384:1438   */\n      mstore\n        /* \"#utility.yul\":1305:1444   */\n      pop\n      pop\n      jump\t// out\n        /* \"#utility.yul\":1450:2035   */\n    tag_22:\n        /* \"#utility.yul\":1643:1647   */\n      0x00\n        /* \"#utility.yul\":1681:1684   */\n      0x80\n        /* \"#utility.yul\":1670:1679   */\n      dup3\n        /* \"#utility.yul\":1666:1685   */\n      add\n        /* \"#utility.yul\":1658:1685   */\n      swap1\n      pop\n        /* \"#utility.yul\":1695:1770   */\n      tag_74\n        /* \"#utility.yul\":1767:1768   */\n      0x00\n        /* \"#utility.yul\":1756:1765   */\n      dup4\n        /* \"#utility.yul\":1752:1769   */\n      add\n        /* \"#utility.yul\":1743:1749   */\n      dup8\n        /* \"#utility.yul\":1695:1770   */\n      tag_53\n      jump\t// in\n    tag_74:\n        /* \"#utility.yul\":1780:1856   */\n      tag_75\n        /* \"#utility.yul\":1852:1854   */\n      0x20\n        /* \"#utility.yul\":1841:1850   */\n      dup4\n        /* \"#utility.yul\":1837:1855   */\n      add\n        /* \"#utility.yul\":1828:1834   */\n      dup7\n        /* \"#utility.yul\":1780:1856   */\n      tag_53\n      jump\t// in\n    tag_75:\n        /* \"#utility.yul\":1866:1942   */\n      tag_76\n        /* \"#utility.yul\":1938:1940   */\n      0x40\n        /* \"#utility.yul\":1927:1936   */\n      dup4\n        /* \"#utility.yul\":1923:1941   */\n      add\n        /* \"#utility.yul\":1914:1920   */\n      dup6\n        /* \"#utility.yul\":1866:1942   */\n      tag_53\n      jump\t// in\n    tag_76:\n        /* \"#utility.yul\":1952:2028   */\n      tag_77\n        /* \"#utility.yul\":2024:2026   */\n      0x60\n        /* \"#utility.yul\":2013:2022   */\n      dup4\n        /* \"#utility.yul\":2009:2027   */\n      add\n        /* \"#utility.yul\":2000:2006   */\n      dup5\n        /* \"#utility.yul\":1952:2028   */\n      tag_53\n      jump\t// in\n    tag_77:\n        /* \"#utility.yul\":1450:2035   */\n      swap6\n      swap5\n      pop\n      pop\n      pop\n      pop\n      pop\n      jump\t// out\n\n    auxdata: 0xa264697066735822122015572a73b3702c26dd9699330aba32f124b60a2173cd83e6e6c5126003b68f5d64736f6c63430008120033\n}\n",
				"bytecode": {
					"linkReferences": {},
					"object": "608060405234801561001057600080fd5b506103c3806100206000396000f3fe608060405234801561001057600080fd5b50600436106100625760003560e01c80631fc376f7146100675780632b59115b146100715780632de647de1461009257806373af60821461009c57806387522f79146100a6578063d1f4ba82146100c7575b600080fd5b61006f6100d1565b005b6100796100fd565b604051610089949392919061028c565b60405180910390f35b61009a610197565b005b6100a46101c4565b005b6100ae6101f1565b6040516100be9493929190610348565b60405180910390f35b6100cf610243565b005b60008060006101000a81548160ff021916908360038111156100f6576100f56102d1565b5b0217905550565b60008060008060008054906101000a900460ff166003811115610123576101226102d1565b5b600060019054906101000a900460ff166003811115610145576101446102d1565b5b600060029054906101000a900460ff166003811115610167576101666102d1565b5b600060039054906101000a900460ff166003811115610189576101886102d1565b5b935093509350935090919293565b6003600060036101000a81548160ff021916908360038111156101bd576101bc6102d1565b5b0217905550565b6002600060026101000a81548160ff021916908360038111156101ea576101e96102d1565b5b0217905550565b60008060008060008054906101000a900460ff16600060019054906101000a900460ff16600060029054906101000a900460ff16600060039054906101000a900460ff16935093509350935090919293565b6001600060016101000a81548160ff02191690836003811115610269576102686102d1565b5b0217905550565b600060ff82169050919050565b61028681610270565b82525050565b60006080820190506102a1600083018761027d565b6102ae602083018661027d565b6102bb604083018561027d565b6102c8606083018461027d565b95945050505050565b7f4e487b7100000000000000000000000000000000000000000000000000000000600052602160045260246000fd5b60048110610311576103106102d1565b5b50565b600081905061032282610300565b919050565b600061033282610314565b9050919050565b61034281610327565b82525050565b600060808201905061035d6000830187610339565b61036a6020830186610339565b6103776040830185610339565b6103846060830184610339565b9594505050505056fea264697066735822122015572a73b3702c26dd9699330aba32f124b60a2173cd83e6e6c5126003b68f5d64736f6c63430008120033",
					"opcodes": "PUSH1 0x80 PUSH1 0x40 MSTORE CALLVALUE DUP1 ISZERO PUSH2 0x10 JUMPI PUSH1 0x0 DUP1 REVERT JUMPDEST POP PUSH2 0x3C3 DUP1 PUSH2 0x20 PUSH1 0x0 CODECOPY PUSH1 0x0 RETURN INVALID PUSH1 0x80 PUSH1 0x40 MSTORE CALLVALUE DUP1 ISZERO PUSH2 0x10 JUMPI PUSH1 0x0 DUP1 REVERT JUMPDEST POP PUSH1 0x4 CALLDATASIZE LT PUSH2 0x62 JUMPI PUSH1 0x0 CALLDATALOAD PUSH1 0xE0 SHR DUP1 PUSH4 0x1FC376F7 EQ PUSH2 0x67 JUMPI DUP1 PUSH4 0x2B59115B EQ PUSH2 0x71 JUMPI DUP1 PUSH4 0x2DE647DE EQ PUSH2 0x92 JUMPI DUP1 PUSH4 0x73AF6082 EQ PUSH2 0x9C JUMPI DUP1 PUSH4 0x87522F79 EQ PUSH2 0xA6 JUMPI DUP1 PUSH4 0xD1F4BA82 EQ PUSH2 0xC7 JUMPI JUMPDEST PUSH1 0x0 DUP1 REVERT JUMPDEST PUSH2 0x6F PUSH2 0xD1 JUMP JUMPDEST STOP JUMPDEST PUSH2 0x79 PUSH2 0xFD JUMP JUMPDEST PUSH1 0x40 MLOAD PUSH2 0x89 SWAP5 SWAP4 SWAP3 SWAP2 SWAP1 PUSH2 0x28C JUMP JUMPDEST PUSH1 0x40 MLOAD DUP1 SWAP2 SUB SWAP1 RETURN JUMPDEST PUSH2 0x9A PUSH2 0x197 JUMP JUMPDEST STOP JUMPDEST PUSH2 0xA4 PUSH2 0x1C4 JUMP JUMPDEST STOP JUMPDEST PUSH2 0xAE PUSH2 0x1F1 JUMP JUMPDEST PUSH1 0x40 MLOAD PUSH2 0xBE SWAP5 SWAP4 SWAP3 SWAP2 SWAP1 PUSH2 0x348 JUMP JUMPDEST PUSH1 0x40 MLOAD DUP1 SWAP2 SUB SWAP1 RETURN JUMPDEST PUSH2 0xCF PUSH2 0x243 JUMP JUMPDEST STOP JUMPDEST PUSH1 0x0 DUP1 PUSH1 0x0 PUSH2 0x100 EXP DUP2 SLOAD DUP2 PUSH1 0xFF MUL NOT AND SWAP1 DUP4 PUSH1 0x3 DUP2 GT ISZERO PUSH2 0xF6 JUMPI PUSH2 0xF5 PUSH2 0x2D1 JUMP JUMPDEST JUMPDEST MUL OR SWAP1 SSTORE POP JUMP JUMPDEST PUSH1 0x0 DUP1 PUSH1 0x0 DUP1 PUSH1 0x0 DUP1 SLOAD SWAP1 PUSH2 0x100 EXP SWAP1 DIV PUSH1 0xFF AND PUSH1 0x3 DUP2 GT ISZERO PUSH2 0x123 JUMPI PUSH2 0x122 PUSH2 0x2D1 JUMP JUMPDEST JUMPDEST PUSH1 0x0 PUSH1 0x1 SWAP1 SLOAD SWAP1 PUSH2 0x100 EXP SWAP1 DIV PUSH1 0xFF AND PUSH1 0x3 DUP2 GT ISZERO PUSH2 0x145 JUMPI PUSH2 0x144 PUSH2 0x2D1 JUMP JUMPDEST JUMPDEST PUSH1 0x0 PUSH1 0x2 SWAP1 SLOAD SWAP1 PUSH2 0x100 EXP SWAP1 DIV PUSH1 0xFF AND PUSH1 0x3 DUP2 GT ISZERO PUSH2 0x167 JUMPI PUSH2 0x166 PUSH2 0x2D1 JUMP JUMPDEST JUMPDEST PUSH1 0x0 PUSH1 0x3 SWAP1 SLOAD SWAP1 PUSH2 0x100 EXP SWAP1 DIV PUSH1 0xFF AND PUSH1 0x3 DUP2 GT ISZERO PUSH2 0x189 JUMPI PUSH2 0x188 PUSH2 0x2D1 JUMP JUMPDEST JUMPDEST SWAP4 POP SWAP4 POP SWAP4 POP SWAP4 POP SWAP1 SWAP2 SWAP3 SWAP4 JUMP JUMPDEST PUSH1 0x3 PUSH1 0x0 PUSH1 0x3 PUSH2 0x100 EXP DUP2 SLOAD DUP2 PUSH1 0xFF MUL NOT AND SWAP1 DUP4 PUSH1 0x3 DUP2 GT ISZERO PUSH2 0x1BD JUMPI PUSH2 0x1BC PUSH2 0x2D1 JUMP JUMPDEST JUMPDEST MUL OR SWAP1 SSTORE POP JUMP JUMPDEST PUSH1 0x2 PUSH1 0x0 PUSH1 0x2 PUSH2 0x100 EXP DUP2 SLOAD DUP2 PUSH1 0xFF MUL NOT AND SWAP1 DUP4 PUSH1 0x3 DUP2 GT ISZERO PUSH2 0x1EA JUMPI PUSH2 0x1E9 PUSH2 0x2D1 JUMP JUMPDEST JUMPDEST MUL OR SWAP1 SSTORE POP JUMP JUMPDEST PUSH1 0x0 DUP1 PUSH1 0x0 DUP1 PUSH1 0x0 DUP1 SLOAD SWAP1 PUSH2 0x100 EXP SWAP1 DIV PUSH1 0xFF AND PUSH1 0x0 PUSH1 0x1 SWAP1 SLOAD SWAP1 PUSH2 0x100 EXP SWAP1 DIV PUSH1 0xFF AND PUSH1 0x0 PUSH1 0x2 SWAP1 SLOAD SWAP1 PUSH2 0x100 EXP SWAP1 DIV PUSH1 0xFF AND PUSH1 0x0 PUSH1 0x3 SWAP1 SLOAD SWAP1 PUSH2 0x100 EXP SWAP1 DIV PUSH1 0xFF AND SWAP4 POP SWAP4 POP SWAP4 POP SWAP4 POP SWAP1 SWAP2 SWAP3 SWAP4 JUMP JUMPDEST PUSH1 0x1 PUSH1 0x0 PUSH1 0x1 PUSH2 0x100 EXP DUP2 SLOAD DUP2 PUSH1 0xFF MUL NOT AND SWAP1 DUP4 PUSH1 0x3 DUP2 GT ISZERO PUSH2 0x269 JUMPI PUSH2 0x268 PUSH2 0x2D1 JUMP JUMPDEST JUMPDEST MUL OR SWAP1 SSTORE POP JUMP JUMPDEST PUSH1 0x0 PUSH1 0xFF DUP3 AND SWAP1 POP SWAP2 SWAP1 POP JUMP JUMPDEST PUSH2 0x286 DUP2 PUSH2 0x270 JUMP JUMPDEST DUP3 MSTORE POP POP JUMP JUMPDEST PUSH1 0x0 PUSH1 0x80 DUP3 ADD SWAP1 POP PUSH2 0x2A1 PUSH1 0x0 DUP4 ADD DUP8 PUSH2 0x27D JUMP JUMPDEST PUSH2 0x2AE PUSH1 0x20 DUP4 ADD DUP7 PUSH2 0x27D JUMP JUMPDEST PUSH2 0x2BB PUSH1 0x40 DUP4 ADD DUP6 PUSH2 0x27D JUMP JUMPDEST PUSH2 0x2C8 PUSH1 0x60 DUP4 ADD DUP5 PUSH2 0x27D JUMP JUMPDEST SWAP6 SWAP5 POP POP POP POP POP JUMP JUMPDEST PUSH32 0x4E487B7100000000000000000000000000000000000000000000000000000000 PUSH1 0x0 MSTORE PUSH1 0x21 PUSH1 0x4 MSTORE PUSH1 0x24 PUSH1 0x0 REVERT JUMPDEST PUSH1 0x4 DUP2 LT PUSH2 0x311 JUMPI PUSH2 0x310 PUSH2 0x2D1 JUMP JUMPDEST JUMPDEST POP JUMP JUMPDEST PUSH1 0x0 DUP2 SWAP1 POP PUSH2 0x322 DUP3 PUSH2 0x300 JUMP JUMPDEST SWAP2 SWAP1 POP JUMP JUMPDEST PUSH1 0x0 PUSH2 0x332 DUP3 PUSH2 0x314 JUMP JUMPDEST SWAP1 POP SWAP2 SWAP1 POP JUMP JUMPDEST PUSH2 0x342 DUP2 PUSH2 0x327 JUMP JUMPDEST DUP3 MSTORE POP POP JUMP JUMPDEST PUSH1 0x0 PUSH1 0x80 DUP3 ADD SWAP1 POP PUSH2 0x35D PUSH1 0x0 DUP4 ADD DUP8 PUSH2 0x339 JUMP JUMPDEST PUSH2 0x36A PUSH1 0x20 DUP4 ADD DUP7 PUSH2 0x339 JUMP JUMPDEST PUSH2 0x377 PUSH1 0x40 DUP4 ADD DUP6 PUSH2 0x339 JUMP JUMPDEST PUSH2 0x384 PUSH1 0x60 DUP4 ADD DUP5 PUSH2 0x339 JUMP JUMPDEST SWAP6 SWAP5 POP POP POP POP POP JUMP INVALID LOG2 PUSH5 0x6970667358 0x22 SLT KECCAK256 ISZERO JUMPI 0x2A PUSH20 0xB3702C26DD9699330ABA32F124B60A2173CD83E6 0xE6 0xC5 SLT PUSH1 0x3 0xB6 DUP16 0x5D PUSH5 0x736F6C6343 STOP ADDMOD SLT STOP CALLER "
				},
				"gasEstimates": {
					"creation": {
						"codeDepositCost": "192600",
						"executionCost": "238",
						"totalCost": "192838"
					},
					"external": {
						"getABC()": "infinite",
						"getABC2()": "infinite",
						"setA()": "24409",
						"setB()": "24569",
						"setC()": "24525",
						"setD()": "24503"
					}
				},
				"methodIdentifiers": {
					"getABC()": "87522f79",
					"getABC2()": "2b59115b",
					"setA()": "1fc376f7",
					"setB()": "d1f4ba82",
					"setC()": "73af6082",
					"setD()": "2de647de"
				}
			},
			"storageLayout": {
				"storage": [
					{
						"astId": 9,
						"contract": "contracts/3_enum.sol:ENUM",
						"label": "a",
						"offset": 0,
						"slot": "0",
						"type": "t_enum(Food)6"
					},
					{
						"astId": 12,
						"contract": "contracts/3_enum.sol:ENUM",
						"label": "b",
						"offset": 1,
						"slot": "0",
						"type": "t_enum(Food)6"
					},
					{
						"astId": 15,
						"contract": "contracts/3_enum.sol:ENUM",
						"label": "c",
						"offset": 2,
						"slot": "0",
						"type": "t_enum(Food)6"
					},
					{
						"astId": 18,
						"contract": "contracts/3_enum.sol:ENUM",
						"label": "d",
						"offset": 3,
						"slot": "0",
						"type": "t_enum(Food)6"
					}
				],
				"types": {
					"t_enum(Food)6": {
						"encoding": "inplace",
						"label": "enum ENUM.Food",
						"numberOfBytes": "1"
					}
				}
			},
			"userdoc": {
				"kind": "user",
				"methods": {},
				"version": 1
			}
		}
	}
}