{
	"contracts/2_if.sol": {
		"IF2": {
			"abi": [
				{
					"inputs": [],
					"name": "getStudents",
					"outputs": [
						{
							"components": [
								{
									"internalType": "uint256",
									"name": "number",
									"type": "uint256"
								},
								{
									"internalType": "string",
									"name": "name",
									"type": "string"
								},
								{
									"internalType": "uint256",
									"name": "score",
									"type": "uint256"
								},
								{
									"internalType": "string",
									"name": "credit",
									"type": "string"
								}
							],
							"internalType": "struct IF2.student[]",
							"name": "",
							"type": "tuple[]"
						}
					],
					"stateMutability": "view",
					"type": "function"
				},
				{
					"inputs": [],
					"name": "getStudentsABC",
					"outputs": [
						{
							"components": [
								{
									"internalType": "uint256",
									"name": "number",
									"type": "uint256"
								},
								{
									"internalType": "string",
									"name": "name",
									"type": "string"
								},
								{
									"internalType": "uint256",
									"name": "score",
									"type": "uint256"
								},
								{
									"internalType": "string",
									"name": "credit",
									"type": "string"
								}
							],
							"internalType": "struct IF2.student",
							"name": "",
							"type": "tuple"
						},
						{
							"components": [
								{
									"internalType": "uint256",
									"name": "number",
									"type": "uint256"
								},
								{
									"internalType": "string",
									"name": "name",
									"type": "string"
								},
								{
									"internalType": "uint256",
									"name": "score",
									"type": "uint256"
								},
								{
									"internalType": "string",
									"name": "credit",
									"type": "string"
								}
							],
							"internalType": "struct IF2.student",
							"name": "",
							"type": "tuple"
						},
						{
							"components": [
								{
									"internalType": "uint256",
									"name": "number",
									"type": "uint256"
								},
								{
									"internalType": "string",
									"name": "name",
									"type": "string"
								},
								{
									"internalType": "uint256",
									"name": "score",
									"type": "uint256"
								},
								{
									"internalType": "string",
									"name": "credit",
									"type": "string"
								}
							],
							"internalType": "struct IF2.student",
							"name": "",
							"type": "tuple"
						}
					],
					"stateMutability": "view",
					"type": "function"
				},
				{
					"inputs": [
						{
							"internalType": "uint256",
							"name": "_number",
							"type": "uint256"
						},
						{
							"internalType": "string",
							"name": "_name",
							"type": "string"
						},
						{
							"internalType": "uint256",
							"name": "_score",
							"type": "uint256"
						}
					],
					"name": "pushStudent",
					"outputs": [],
					"stateMutability": "nonpayable",
					"type": "function"
				},
				{
					"inputs": [
						{
							"internalType": "uint256",
							"name": "_number",
							"type": "uint256"
						},
						{
							"internalType": "string",
							"name": "_name",
							"type": "string"
						},
						{
							"internalType": "uint256",
							"name": "_score",
							"type": "uint256"
						}
					],
					"name": "pushStudent2",
					"outputs": [],
					"stateMutability": "nonpayable",
					"type": "function"
				},
				{
					"inputs": [
						{
							"internalType": "uint256",
							"name": "_number",
							"type": "uint256"
						},
						{
							"internalType": "string",
							"name": "_name",
							"type": "string"
						},
						{
							"internalType": "uint256",
							"name": "_score",
							"type": "uint256"
						}
					],
					"name": "setAlice",
					"outputs": [],
					"stateMutability": "nonpayable",
					"type": "function"
				},
				{
					"inputs": [
						{
							"internalType": "uint256",
							"name": "_number",
							"type": "uint256"
						},
						{
							"internalType": "string",
							"name": "_name",
							"type": "string"
						},
						{
							"internalType": "uint256",
							"name": "_score",
							"type": "uint256"
						}
					],
					"name": "setBob",
					"outputs": [],
					"stateMutability": "nonpayable",
					"type": "function"
				},
				{
					"inputs": [
						{
							"internalType": "uint256",
							"name": "_number",
							"type": "uint256"
						},
						{
							"internalType": "string",
							"name": "_name",
							"type": "string"
						},
						{
							"internalType": "uint256",
							"name": "_score",
							"type": "uint256"
						}
					],
					"name": "setCharlie",
					"outputs": [],
					"stateMutability": "nonpayable",
					"type": "function"
				},
				{
					"inputs": [
						{
							"internalType": "uint256",
							"name": "_score",
							"type": "uint256"
						}
					],
					"name": "setGrade",
					"outputs": [
						{
							"internalType": "string",
							"name": "",
							"type": "string"
						}
					],
					"stateMutability": "pure",
					"type": "function"
				}
			],
			"devdoc": {
				"kind": "dev",
				"methods": {},
				"version": 1
			},
			"evm": {
				"assembly": "    /* \"contracts/2_if.sol\":1235:3953  contract IF2 {... */\n  mstore(0x40, 0x80)\n  callvalue\n  dup1\n  iszero\n  tag_1\n  jumpi\n  0x00\n  dup1\n  revert\ntag_1:\n  pop\n  dataSize(sub_0)\n  dup1\n  dataOffset(sub_0)\n  0x00\n  codecopy\n  0x00\n  return\nstop\n\nsub_0: assembly {\n        /* \"contracts/2_if.sol\":1235:3953  contract IF2 {... */\n      mstore(0x40, 0x80)\n      callvalue\n      dup1\n      iszero\n      tag_1\n      jumpi\n      0x00\n      dup1\n      revert\n    tag_1:\n      pop\n      jumpi(tag_2, lt(calldatasize, 0x04))\n      shr(0xe0, calldataload(0x00))\n      dup1\n      0x9fec8626\n      gt\n      tag_11\n      jumpi\n      dup1\n      0x9fec8626\n      eq\n      tag_7\n      jumpi\n      dup1\n      0xad8364a4\n      eq\n      tag_8\n      jumpi\n      dup1\n      0xc731f947\n      eq\n      tag_9\n      jumpi\n      dup1\n      0xf1d064b3\n      eq\n      tag_10\n      jumpi\n      jump(tag_2)\n    tag_11:\n      dup1\n      0x3b4598b1\n      eq\n      tag_3\n      jumpi\n      dup1\n      0x448e1bed\n      eq\n      tag_4\n      jumpi\n      dup1\n      0x674271cd\n      eq\n      tag_5\n      jumpi\n      dup1\n      0x9db1e7da\n      eq\n      tag_6\n      jumpi\n    tag_2:\n      0x00\n      dup1\n      revert\n        /* \"contracts/2_if.sol\":2946:3369  function pushStudent(uint _number, string memory _name, uint _score) public {... */\n    tag_3:\n      tag_12\n      0x04\n      dup1\n      calldatasize\n      sub\n      dup2\n      add\n      swap1\n      tag_13\n      swap2\n      swap1\n      tag_14\n      jump\t// in\n    tag_13:\n      tag_15\n      jump\t// in\n    tag_12:\n      stop\n        /* \"contracts/2_if.sol\":2809:2938  function getStudentsABC() public view returns(student memory, student memory, student memory) {... */\n    tag_4:\n      tag_16\n      tag_17\n      jump\t// in\n    tag_16:\n      mload(0x40)\n      tag_18\n      swap4\n      swap3\n      swap2\n      swap1\n      tag_19\n      jump\t// in\n    tag_18:\n      mload(0x40)\n      dup1\n      swap2\n      sub\n      swap1\n      return\n        /* \"contracts/2_if.sol\":3648:3950  function setGrade(uint _score) public pure returns (string memory) {... */\n    tag_5:\n      tag_20\n      0x04\n      dup1\n      calldatasize\n      sub\n      dup2\n      add\n      swap1\n      tag_21\n      swap2\n      swap1\n      tag_22\n      jump\t// in\n    tag_21:\n      tag_23\n      jump\t// in\n    tag_20:\n      mload(0x40)\n      tag_24\n      swap2\n      swap1\n      tag_25\n      jump\t// in\n    tag_24:\n      mload(0x40)\n      dup1\n      swap2\n      sub\n      swap1\n      return\n        /* \"contracts/2_if.sol\":1975:2382  function setBob(uint _number, string memory _name, uint _score) public {... */\n    tag_6:\n      tag_26\n      0x04\n      dup1\n      calldatasize\n      sub\n      dup2\n      add\n      swap1\n      tag_27\n      swap2\n      swap1\n      tag_14\n      jump\t// in\n    tag_27:\n      tag_28\n      jump\t// in\n    tag_26:\n      stop\n        /* \"contracts/2_if.sol\":1558:1967  function setAlice(uint _number, string memory _name, uint _score) public {... */\n    tag_7:\n      tag_29\n      0x04\n      dup1\n      calldatasize\n      sub\n      dup2\n      add\n      swap1\n      tag_30\n      swap2\n      swap1\n      tag_14\n      jump\t// in\n    tag_30:\n      tag_31\n      jump\t// in\n    tag_29:\n      stop\n        /* \"contracts/2_if.sol\":2390:2801  function setCharlie(uint _number, string memory _name, uint _score) public {... */\n    tag_8:\n      tag_32\n      0x04\n      dup1\n      calldatasize\n      sub\n      dup2\n      add\n      swap1\n      tag_33\n      swap2\n      swap1\n      tag_14\n      jump\t// in\n    tag_33:\n      tag_34\n      jump\t// in\n    tag_32:\n      stop\n        /* \"contracts/2_if.sol\":3377:3537  function pushStudent2(uint _number, string memory _name, uint _score) public {... */\n    tag_9:\n      tag_35\n      0x04\n      dup1\n      calldatasize\n      sub\n      dup2\n      add\n      swap1\n      tag_36\n      swap2\n      swap1\n      tag_14\n      jump\t// in\n    tag_36:\n      tag_37\n      jump\t// in\n    tag_35:\n      stop\n        /* \"contracts/2_if.sol\":3545:3640  function getStudents() public view returns(student[] memory) {... */\n    tag_10:\n      tag_38\n      tag_39\n      jump\t// in\n    tag_38:\n      mload(0x40)\n      tag_40\n      swap2\n      swap1\n      tag_41\n      jump\t// in\n    tag_40:\n      mload(0x40)\n      dup1\n      swap2\n      sub\n      swap1\n      return\n        /* \"contracts/2_if.sol\":2946:3369  function pushStudent(uint _number, string memory _name, uint _score) public {... */\n    tag_15:\n        /* \"contracts/2_if.sol\":3033:3054  string memory _credit */\n      0x60\n        /* \"contracts/2_if.sol\":3078:3080  90 */\n      0x5a\n        /* \"contracts/2_if.sol\":3068:3074  _score */\n      dup3\n        /* \"contracts/2_if.sol\":3068:3080  _score >= 90 */\n      lt\n        /* \"contracts/2_if.sol\":3065:3294  if(_score >= 90) {... */\n      tag_43\n      jumpi\n        /* \"contracts/2_if.sol\":3097:3110  _credit = \"A\" */\n      mload(0x40)\n      dup1\n      0x40\n      add\n      0x40\n      mstore\n      dup1\n      0x01\n      dup2\n      mstore\n      0x20\n      add\n      0x4100000000000000000000000000000000000000000000000000000000000000\n      dup2\n      mstore\n      pop\n      swap1\n      pop\n        /* \"contracts/2_if.sol\":3065:3294  if(_score >= 90) {... */\n      jump(tag_44)\n    tag_43:\n        /* \"contracts/2_if.sol\":3141:3143  80 */\n      0x50\n        /* \"contracts/2_if.sol\":3131:3137  _score */\n      dup3\n        /* \"contracts/2_if.sol\":3131:3143  _score >= 80 */\n      lt\n        /* \"contracts/2_if.sol\":3128:3294  if(_score >= 80) {... */\n      tag_45\n      jumpi\n        /* \"contracts/2_if.sol\":3160:3173  _credit = \"B\" */\n      mload(0x40)\n      dup1\n      0x40\n      add\n      0x40\n      mstore\n      dup1\n      0x01\n      dup2\n      mstore\n      0x20\n      add\n      0x4200000000000000000000000000000000000000000000000000000000000000\n      dup2\n      mstore\n      pop\n      swap1\n      pop\n        /* \"contracts/2_if.sol\":3128:3294  if(_score >= 80) {... */\n      jump(tag_46)\n    tag_45:\n        /* \"contracts/2_if.sol\":3204:3206  70 */\n      0x46\n        /* \"contracts/2_if.sol\":3194:3200  _score */\n      dup3\n        /* \"contracts/2_if.sol\":3194:3206  _score >= 70 */\n      lt\n        /* \"contracts/2_if.sol\":3191:3294  if(_score >= 70) {... */\n      tag_47\n      jumpi\n        /* \"contracts/2_if.sol\":3223:3236  _credit = \"C\" */\n      mload(0x40)\n      dup1\n      0x40\n      add\n      0x40\n      mstore\n      dup1\n      0x01\n      dup2\n      mstore\n      0x20\n      add\n      0x4300000000000000000000000000000000000000000000000000000000000000\n      dup2\n      mstore\n      pop\n      swap1\n      pop\n        /* \"contracts/2_if.sol\":3191:3294  if(_score >= 70) {... */\n      jump(tag_48)\n    tag_47:\n        /* \"contracts/2_if.sol\":3269:3282  _credit = \"F\" */\n      mload(0x40)\n      dup1\n      0x40\n      add\n      0x40\n      mstore\n      dup1\n      0x01\n      dup2\n      mstore\n      0x20\n      add\n      0x4600000000000000000000000000000000000000000000000000000000000000\n      dup2\n      mstore\n      pop\n      swap1\n      pop\n        /* \"contracts/2_if.sol\":3191:3294  if(_score >= 70) {... */\n    tag_48:\n        /* \"contracts/2_if.sol\":3128:3294  if(_score >= 80) {... */\n    tag_46:\n        /* \"contracts/2_if.sol\":3065:3294  if(_score >= 90) {... */\n    tag_44:\n        /* \"contracts/2_if.sol\":3306:3314  Students */\n      0x0c\n        /* \"contracts/2_if.sol\":3320:3360  student(_number, _name, _score, _credit) */\n      mload(0x40)\n      dup1\n      0x80\n      add\n      0x40\n      mstore\n      dup1\n        /* \"contracts/2_if.sol\":3328:3335  _number */\n      dup7\n        /* \"contracts/2_if.sol\":3320:3360  student(_number, _name, _score, _credit) */\n      dup2\n      mstore\n      0x20\n      add\n        /* \"contracts/2_if.sol\":3337:3342  _name */\n      dup6\n        /* \"contracts/2_if.sol\":3320:3360  student(_number, _name, _score, _credit) */\n      dup2\n      mstore\n      0x20\n      add\n        /* \"contracts/2_if.sol\":3344:3350  _score */\n      dup5\n        /* \"contracts/2_if.sol\":3320:3360  student(_number, _name, _score, _credit) */\n      dup2\n      mstore\n      0x20\n      add\n        /* \"contracts/2_if.sol\":3352:3359  _credit */\n      dup4\n        /* \"contracts/2_if.sol\":3320:3360  student(_number, _name, _score, _credit) */\n      dup2\n      mstore\n      pop\n        /* \"contracts/2_if.sol\":3306:3361  Students.push(student(_number, _name, _score, _credit)) */\n      swap1\n      dup1\n      0x01\n      dup2\n      sload\n      add\n      dup1\n      dup3\n      sstore\n      dup1\n      swap2\n      pop\n      pop\n      0x01\n      swap1\n      sub\n      swap1\n      0x00\n      mstore\n      keccak256(0x00, 0x20)\n      swap1\n      0x04\n      mul\n      add\n      0x00\n      swap1\n      swap2\n      swap1\n      swap2\n      swap1\n      swap2\n      pop\n      0x00\n      dup3\n      add\n      mload\n      dup2\n      0x00\n      add\n      sstore\n      0x20\n      dup3\n      add\n      mload\n      dup2\n      0x01\n      add\n      swap1\n      dup2\n      tag_50\n      swap2\n      swap1\n      tag_51\n      jump\t// in\n    tag_50:\n      pop\n      0x40\n      dup3\n      add\n      mload\n      dup2\n      0x02\n      add\n      sstore\n      0x60\n      dup3\n      add\n      mload\n      dup2\n      0x03\n      add\n      swap1\n      dup2\n      tag_52\n      swap2\n      swap1\n      tag_51\n      jump\t// in\n    tag_52:\n      pop\n      pop\n      pop\n        /* \"contracts/2_if.sol\":3022:3369  {... */\n      pop\n        /* \"contracts/2_if.sol\":2946:3369  function pushStudent(uint _number, string memory _name, uint _score) public {... */\n      pop\n      pop\n      pop\n      jump\t// out\n        /* \"contracts/2_if.sol\":2809:2938  function getStudentsABC() public view returns(student memory, student memory, student memory) {... */\n    tag_17:\n        /* \"contracts/2_if.sol\":2855:2869  student memory */\n      tag_53\n      tag_54\n      jump\t// in\n    tag_53:\n        /* \"contracts/2_if.sol\":2871:2885  student memory */\n      tag_55\n      tag_54\n      jump\t// in\n    tag_55:\n        /* \"contracts/2_if.sol\":2887:2901  student memory */\n      tag_56\n      tag_54\n      jump\t// in\n    tag_56:\n        /* \"contracts/2_if.sol\":2922:2923  a */\n      0x00\n        /* \"contracts/2_if.sol\":2925:2926  b */\n      0x04\n        /* \"contracts/2_if.sol\":2928:2929  c */\n      0x08\n        /* \"contracts/2_if.sol\":2914:2930  return (a, b, c) */\n      dup3\n      mload(0x40)\n      dup1\n      0x80\n      add\n      0x40\n      mstore\n      swap1\n      dup2\n      0x00\n      dup3\n      add\n      sload\n      dup2\n      mstore\n      0x20\n      add\n      0x01\n      dup3\n      add\n      dup1\n      sload\n      tag_58\n      swap1\n      tag_59\n      jump\t// in\n    tag_58:\n      dup1\n      0x1f\n      add\n      0x20\n      dup1\n      swap2\n      div\n      mul\n      0x20\n      add\n      mload(0x40)\n      swap1\n      dup2\n      add\n      0x40\n      mstore\n      dup1\n      swap3\n      swap2\n      swap1\n      dup2\n      dup2\n      mstore\n      0x20\n      add\n      dup3\n      dup1\n      sload\n      tag_60\n      swap1\n      tag_59\n      jump\t// in\n    tag_60:\n      dup1\n      iszero\n      tag_61\n      jumpi\n      dup1\n      0x1f\n      lt\n      tag_62\n      jumpi\n      0x0100\n      dup1\n      dup4\n      sload\n      div\n      mul\n      dup4\n      mstore\n      swap2\n      0x20\n      add\n      swap2\n      jump(tag_61)\n    tag_62:\n      dup3\n      add\n      swap2\n      swap1\n      0x00\n      mstore\n      keccak256(0x00, 0x20)\n      swap1\n    tag_63:\n      dup2\n      sload\n      dup2\n      mstore\n      swap1\n      0x01\n      add\n      swap1\n      0x20\n      add\n      dup1\n      dup4\n      gt\n      tag_63\n      jumpi\n      dup3\n      swap1\n      sub\n      0x1f\n      and\n      dup3\n      add\n      swap2\n    tag_61:\n      pop\n      pop\n      pop\n      pop\n      pop\n      dup2\n      mstore\n      0x20\n      add\n      0x02\n      dup3\n      add\n      sload\n      dup2\n      mstore\n      0x20\n      add\n      0x03\n      dup3\n      add\n      dup1\n      sload\n      tag_64\n      swap1\n      tag_59\n      jump\t// in\n    tag_64:\n      dup1\n      0x1f\n      add\n      0x20\n      dup1\n      swap2\n      div\n      mul\n      0x20\n      add\n      mload(0x40)\n      swap1\n      dup2\n      add\n      0x40\n      mstore\n      dup1\n      swap3\n      swap2\n      swap1\n      dup2\n      dup2\n      mstore\n      0x20\n      add\n      dup3\n      dup1\n      sload\n      tag_65\n      swap1\n      tag_59\n      jump\t// in\n    tag_65:\n      dup1\n      iszero\n      tag_66\n      jumpi\n      dup1\n      0x1f\n      lt\n      tag_67\n      jumpi\n      0x0100\n      dup1\n      dup4\n      sload\n      div\n      mul\n      dup4\n      mstore\n      swap2\n      0x20\n      add\n      swap2\n      jump(tag_66)\n    tag_67:\n      dup3\n      add\n      swap2\n      swap1\n      0x00\n      mstore\n      keccak256(0x00, 0x20)\n      swap1\n    tag_68:\n      dup2\n      sload\n      dup2\n      mstore\n      swap1\n      0x01\n      add\n      swap1\n      0x20\n      add\n      dup1\n      dup4\n      gt\n      tag_68\n      jumpi\n      dup3\n      swap1\n      sub\n      0x1f\n      and\n      dup3\n      add\n      swap2\n    tag_66:\n      pop\n      pop\n      pop\n      pop\n      pop\n      dup2\n      mstore\n      pop\n      pop\n      swap3\n      pop\n      dup2\n      mload(0x40)\n      dup1\n      0x80\n      add\n      0x40\n      mstore\n      swap1\n      dup2\n      0x00\n      dup3\n      add\n      sload\n      dup2\n      mstore\n      0x20\n      add\n      0x01\n      dup3\n      add\n      dup1\n      sload\n      tag_69\n      swap1\n      tag_59\n      jump\t// in\n    tag_69:\n      dup1\n      0x1f\n      add\n      0x20\n      dup1\n      swap2\n      div\n      mul\n      0x20\n      add\n      mload(0x40)\n      swap1\n      dup2\n      add\n      0x40\n      mstore\n      dup1\n      swap3\n      swap2\n      swap1\n      dup2\n      dup2\n      mstore\n      0x20\n      add\n      dup3\n      dup1\n      sload\n      tag_70\n      swap1\n      tag_59\n      jump\t// in\n    tag_70:\n      dup1\n      iszero\n      tag_71\n      jumpi\n      dup1\n      0x1f\n      lt\n      tag_72\n      jumpi\n      0x0100\n      dup1\n      dup4\n      sload\n      div\n      mul\n      dup4\n      mstore\n      swap2\n      0x20\n      add\n      swap2\n      jump(tag_71)\n    tag_72:\n      dup3\n      add\n      swap2\n      swap1\n      0x00\n      mstore\n      keccak256(0x00, 0x20)\n      swap1\n    tag_73:\n      dup2\n      sload\n      dup2\n      mstore\n      swap1\n      0x01\n      add\n      swap1\n      0x20\n      add\n      dup1\n      dup4\n      gt\n      tag_73\n      jumpi\n      dup3\n      swap1\n      sub\n      0x1f\n      and\n      dup3\n      add\n      swap2\n    tag_71:\n      pop\n      pop\n      pop\n      pop\n      pop\n      dup2\n      mstore\n      0x20\n      add\n      0x02\n      dup3\n      add\n      sload\n      dup2\n      mstore\n      0x20\n      add\n      0x03\n      dup3\n      add\n      dup1\n      sload\n      tag_74\n      swap1\n      tag_59\n      jump\t// in\n    tag_74:\n      dup1\n      0x1f\n      add\n      0x20\n      dup1\n      swap2\n      div\n      mul\n      0x20\n      add\n      mload(0x40)\n      swap1\n      dup2\n      add\n      0x40\n      mstore\n      dup1\n      swap3\n      swap2\n      swap1\n      dup2\n      dup2\n      mstore\n      0x20\n      add\n      dup3\n      dup1\n      sload\n      tag_75\n      swap1\n      tag_59\n      jump\t// in\n    tag_75:\n      dup1\n      iszero\n      tag_76\n      jumpi\n      dup1\n      0x1f\n      lt\n      tag_77\n      jumpi\n      0x0100\n      dup1\n      dup4\n      sload\n      div\n      mul\n      dup4\n      mstore\n      swap2\n      0x20\n      add\n      swap2\n      jump(tag_76)\n    tag_77:\n      dup3\n      add\n      swap2\n      swap1\n      0x00\n      mstore\n      keccak256(0x00, 0x20)\n      swap1\n    tag_78:\n      dup2\n      sload\n      dup2\n      mstore\n      swap1\n      0x01\n      add\n      swap1\n      0x20\n      add\n      dup1\n      dup4\n      gt\n      tag_78\n      jumpi\n      dup3\n      swap1\n      sub\n      0x1f\n      and\n      dup3\n      add\n      swap2\n    tag_76:\n      pop\n      pop\n      pop\n      pop\n      pop\n      dup2\n      mstore\n      pop\n      pop\n      swap2\n      pop\n      dup1\n      mload(0x40)\n      dup1\n      0x80\n      add\n      0x40\n      mstore\n      swap1\n      dup2\n      0x00\n      dup3\n      add\n      sload\n      dup2\n      mstore\n      0x20\n      add\n      0x01\n      dup3\n      add\n      dup1\n      sload\n      tag_79\n      swap1\n      tag_59\n      jump\t// in\n    tag_79:\n      dup1\n      0x1f\n      add\n      0x20\n      dup1\n      swap2\n      div\n      mul\n      0x20\n      add\n      mload(0x40)\n      swap1\n      dup2\n      add\n      0x40\n      mstore\n      dup1\n      swap3\n      swap2\n      swap1\n      dup2\n      dup2\n      mstore\n      0x20\n      add\n      dup3\n      dup1\n      sload\n      tag_80\n      swap1\n      tag_59\n      jump\t// in\n    tag_80:\n      dup1\n      iszero\n      tag_81\n      jumpi\n      dup1\n      0x1f\n      lt\n      tag_82\n      jumpi\n      0x0100\n      dup1\n      dup4\n      sload\n      div\n      mul\n      dup4\n      mstore\n      swap2\n      0x20\n      add\n      swap2\n      jump(tag_81)\n    tag_82:\n      dup3\n      add\n      swap2\n      swap1\n      0x00\n      mstore\n      keccak256(0x00, 0x20)\n      swap1\n    tag_83:\n      dup2\n      sload\n      dup2\n      mstore\n      swap1\n      0x01\n      add\n      swap1\n      0x20\n      add\n      dup1\n      dup4\n      gt\n      tag_83\n      jumpi\n      dup3\n      swap1\n      sub\n      0x1f\n      and\n      dup3\n      add\n      swap2\n    tag_81:\n      pop\n      pop\n      pop\n      pop\n      pop\n      dup2\n      mstore\n      0x20\n      add\n      0x02\n      dup3\n      add\n      sload\n      dup2\n      mstore\n      0x20\n      add\n      0x03\n      dup3\n      add\n      dup1\n      sload\n      tag_84\n      swap1\n      tag_59\n      jump\t// in\n    tag_84:\n      dup1\n      0x1f\n      add\n      0x20\n      dup1\n      swap2\n      div\n      mul\n      0x20\n      add\n      mload(0x40)\n      swap1\n      dup2\n      add\n      0x40\n      mstore\n      dup1\n      swap3\n      swap2\n      swap1\n      dup2\n      dup2\n      mstore\n      0x20\n      add\n      dup3\n      dup1\n      sload\n      tag_85\n      swap1\n      tag_59\n      jump\t// in\n    tag_85:\n      dup1\n      iszero\n      tag_86\n      jumpi\n      dup1\n      0x1f\n      lt\n      tag_87\n      jumpi\n      0x0100\n      dup1\n      dup4\n      sload\n      div\n      mul\n      dup4\n      mstore\n      swap2\n      0x20\n      add\n      swap2\n      jump(tag_86)\n    tag_87:\n      dup3\n      add\n      swap2\n      swap1\n      0x00\n      mstore\n      keccak256(0x00, 0x20)\n      swap1\n    tag_88:\n      dup2\n      sload\n      dup2\n      mstore\n      swap1\n      0x01\n      add\n      swap1\n      0x20\n      add\n      dup1\n      dup4\n      gt\n      tag_88\n      jumpi\n      dup3\n      swap1\n      sub\n      0x1f\n      and\n      dup3\n      add\n      swap2\n    tag_86:\n      pop\n      pop\n      pop\n      pop\n      pop\n      dup2\n      mstore\n      pop\n      pop\n      swap1\n      pop\n      swap3\n      pop\n      swap3\n      pop\n      swap3\n      pop\n        /* \"contracts/2_if.sol\":2809:2938  function getStudentsABC() public view returns(student memory, student memory, student memory) {... */\n      swap1\n      swap2\n      swap3\n      jump\t// out\n        /* \"contracts/2_if.sol\":3648:3950  function setGrade(uint _score) public pure returns (string memory) {... */\n    tag_23:\n        /* \"contracts/2_if.sol\":3700:3713  string memory */\n      0x60\n        /* \"contracts/2_if.sol\":3739:3741  90 */\n      0x5a\n        /* \"contracts/2_if.sol\":3729:3735  _score */\n      dup3\n        /* \"contracts/2_if.sol\":3729:3741  _score >= 90 */\n      lt\n        /* \"contracts/2_if.sol\":3726:3943  if(_score >= 90) {... */\n      tag_90\n      jumpi\n        /* \"contracts/2_if.sol\":3758:3768  return \"A\" */\n      mload(0x40)\n      dup1\n      0x40\n      add\n      0x40\n      mstore\n      dup1\n      0x01\n      dup2\n      mstore\n      0x20\n      add\n      0x4100000000000000000000000000000000000000000000000000000000000000\n      dup2\n      mstore\n      pop\n      swap1\n      pop\n      jump(tag_89)\n        /* \"contracts/2_if.sol\":3726:3943  if(_score >= 90) {... */\n    tag_90:\n        /* \"contracts/2_if.sol\":3799:3801  80 */\n      0x50\n        /* \"contracts/2_if.sol\":3789:3795  _score */\n      dup3\n        /* \"contracts/2_if.sol\":3789:3801  _score >= 80 */\n      lt\n        /* \"contracts/2_if.sol\":3786:3943  if(_score >= 80) {... */\n      tag_92\n      jumpi\n        /* \"contracts/2_if.sol\":3818:3828  return \"B\" */\n      mload(0x40)\n      dup1\n      0x40\n      add\n      0x40\n      mstore\n      dup1\n      0x01\n      dup2\n      mstore\n      0x20\n      add\n      0x4200000000000000000000000000000000000000000000000000000000000000\n      dup2\n      mstore\n      pop\n      swap1\n      pop\n      jump(tag_89)\n        /* \"contracts/2_if.sol\":3786:3943  if(_score >= 80) {... */\n    tag_92:\n        /* \"contracts/2_if.sol\":3859:3861  70 */\n      0x46\n        /* \"contracts/2_if.sol\":3849:3855  _score */\n      dup3\n        /* \"contracts/2_if.sol\":3849:3861  _score >= 70 */\n      lt\n        /* \"contracts/2_if.sol\":3846:3943  if(_score >= 70) {... */\n      tag_94\n      jumpi\n        /* \"contracts/2_if.sol\":3878:3888  return \"C\" */\n      mload(0x40)\n      dup1\n      0x40\n      add\n      0x40\n      mstore\n      dup1\n      0x01\n      dup2\n      mstore\n      0x20\n      add\n      0x4300000000000000000000000000000000000000000000000000000000000000\n      dup2\n      mstore\n      pop\n      swap1\n      pop\n      jump(tag_89)\n        /* \"contracts/2_if.sol\":3846:3943  if(_score >= 70) {... */\n    tag_94:\n        /* \"contracts/2_if.sol\":3921:3931  return \"F\" */\n      mload(0x40)\n      dup1\n      0x40\n      add\n      0x40\n      mstore\n      dup1\n      0x01\n      dup2\n      mstore\n      0x20\n      add\n      0x4600000000000000000000000000000000000000000000000000000000000000\n      dup2\n      mstore\n      pop\n      swap1\n      pop\n        /* \"contracts/2_if.sol\":3648:3950  function setGrade(uint _score) public pure returns (string memory) {... */\n    tag_89:\n      swap2\n      swap1\n      pop\n      jump\t// out\n        /* \"contracts/2_if.sol\":1975:2382  function setBob(uint _number, string memory _name, uint _score) public {... */\n    tag_28:\n        /* \"contracts/2_if.sol\":2057:2078  string memory _credit */\n      0x60\n        /* \"contracts/2_if.sol\":2102:2104  90 */\n      0x5a\n        /* \"contracts/2_if.sol\":2092:2098  _score */\n      dup3\n        /* \"contracts/2_if.sol\":2092:2104  _score >= 90 */\n      lt\n        /* \"contracts/2_if.sol\":2089:2318  if(_score >= 90) {... */\n      tag_97\n      jumpi\n        /* \"contracts/2_if.sol\":2121:2134  _credit = \"A\" */\n      mload(0x40)\n      dup1\n      0x40\n      add\n      0x40\n      mstore\n      dup1\n      0x01\n      dup2\n      mstore\n      0x20\n      add\n      0x4100000000000000000000000000000000000000000000000000000000000000\n      dup2\n      mstore\n      pop\n      swap1\n      pop\n        /* \"contracts/2_if.sol\":2089:2318  if(_score >= 90) {... */\n      jump(tag_98)\n    tag_97:\n        /* \"contracts/2_if.sol\":2165:2167  80 */\n      0x50\n        /* \"contracts/2_if.sol\":2155:2161  _score */\n      dup3\n        /* \"contracts/2_if.sol\":2155:2167  _score >= 80 */\n      lt\n        /* \"contracts/2_if.sol\":2152:2318  if(_score >= 80) {... */\n      tag_99\n      jumpi\n        /* \"contracts/2_if.sol\":2184:2197  _credit = \"B\" */\n      mload(0x40)\n      dup1\n      0x40\n      add\n      0x40\n      mstore\n      dup1\n      0x01\n      dup2\n      mstore\n      0x20\n      add\n      0x4200000000000000000000000000000000000000000000000000000000000000\n      dup2\n      mstore\n      pop\n      swap1\n      pop\n        /* \"contracts/2_if.sol\":2152:2318  if(_score >= 80) {... */\n      jump(tag_100)\n    tag_99:\n        /* \"contracts/2_if.sol\":2228:2230  70 */\n      0x46\n        /* \"contracts/2_if.sol\":2218:2224  _score */\n      dup3\n        /* \"contracts/2_if.sol\":2218:2230  _score >= 70 */\n      lt\n        /* \"contracts/2_if.sol\":2215:2318  if(_score >= 70) {... */\n      tag_101\n      jumpi\n        /* \"contracts/2_if.sol\":2247:2260  _credit = \"C\" */\n      mload(0x40)\n      dup1\n      0x40\n      add\n      0x40\n      mstore\n      dup1\n      0x01\n      dup2\n      mstore\n      0x20\n      add\n      0x4300000000000000000000000000000000000000000000000000000000000000\n      dup2\n      mstore\n      pop\n      swap1\n      pop\n        /* \"contracts/2_if.sol\":2215:2318  if(_score >= 70) {... */\n      jump(tag_102)\n    tag_101:\n        /* \"contracts/2_if.sol\":2293:2306  _credit = \"F\" */\n      mload(0x40)\n      dup1\n      0x40\n      add\n      0x40\n      mstore\n      dup1\n      0x01\n      dup2\n      mstore\n      0x20\n      add\n      0x4600000000000000000000000000000000000000000000000000000000000000\n      dup2\n      mstore\n      pop\n      swap1\n      pop\n        /* \"contracts/2_if.sol\":2215:2318  if(_score >= 70) {... */\n    tag_102:\n        /* \"contracts/2_if.sol\":2152:2318  if(_score >= 80) {... */\n    tag_100:\n        /* \"contracts/2_if.sol\":2089:2318  if(_score >= 90) {... */\n    tag_98:\n        /* \"contracts/2_if.sol\":2334:2374  student(_number, _name, _score, _credit) */\n      mload(0x40)\n      dup1\n      0x80\n      add\n      0x40\n      mstore\n      dup1\n        /* \"contracts/2_if.sol\":2342:2349  _number */\n      dup6\n        /* \"contracts/2_if.sol\":2334:2374  student(_number, _name, _score, _credit) */\n      dup2\n      mstore\n      0x20\n      add\n        /* \"contracts/2_if.sol\":2351:2356  _name */\n      dup5\n        /* \"contracts/2_if.sol\":2334:2374  student(_number, _name, _score, _credit) */\n      dup2\n      mstore\n      0x20\n      add\n        /* \"contracts/2_if.sol\":2358:2364  _score */\n      dup4\n        /* \"contracts/2_if.sol\":2334:2374  student(_number, _name, _score, _credit) */\n      dup2\n      mstore\n      0x20\n      add\n        /* \"contracts/2_if.sol\":2366:2373  _credit */\n      dup3\n        /* \"contracts/2_if.sol\":2334:2374  student(_number, _name, _score, _credit) */\n      dup2\n      mstore\n      pop\n        /* \"contracts/2_if.sol\":2330:2331  b */\n      0x04\n        /* \"contracts/2_if.sol\":2330:2374  b = student(_number, _name, _score, _credit) */\n      0x00\n      dup3\n      add\n      mload\n      dup2\n      0x00\n      add\n      sstore\n      0x20\n      dup3\n      add\n      mload\n      dup2\n      0x01\n      add\n      swap1\n      dup2\n      tag_103\n      swap2\n      swap1\n      tag_51\n      jump\t// in\n    tag_103:\n      pop\n      0x40\n      dup3\n      add\n      mload\n      dup2\n      0x02\n      add\n      sstore\n      0x60\n      dup3\n      add\n      mload\n      dup2\n      0x03\n      add\n      swap1\n      dup2\n      tag_104\n      swap2\n      swap1\n      tag_51\n      jump\t// in\n    tag_104:\n      pop\n      swap1\n      pop\n      pop\n        /* \"contracts/2_if.sol\":2046:2382  {... */\n      pop\n        /* \"contracts/2_if.sol\":1975:2382  function setBob(uint _number, string memory _name, uint _score) public {... */\n      pop\n      pop\n      pop\n      jump\t// out\n        /* \"contracts/2_if.sol\":1558:1967  function setAlice(uint _number, string memory _name, uint _score) public {... */\n    tag_31:\n        /* \"contracts/2_if.sol\":1642:1663  string memory _credit */\n      0x60\n        /* \"contracts/2_if.sol\":1687:1689  90 */\n      0x5a\n        /* \"contracts/2_if.sol\":1677:1683  _score */\n      dup3\n        /* \"contracts/2_if.sol\":1677:1689  _score >= 90 */\n      lt\n        /* \"contracts/2_if.sol\":1674:1903  if(_score >= 90) {... */\n      tag_106\n      jumpi\n        /* \"contracts/2_if.sol\":1706:1719  _credit = \"A\" */\n      mload(0x40)\n      dup1\n      0x40\n      add\n      0x40\n      mstore\n      dup1\n      0x01\n      dup2\n      mstore\n      0x20\n      add\n      0x4100000000000000000000000000000000000000000000000000000000000000\n      dup2\n      mstore\n      pop\n      swap1\n      pop\n        /* \"contracts/2_if.sol\":1674:1903  if(_score >= 90) {... */\n      jump(tag_107)\n    tag_106:\n        /* \"contracts/2_if.sol\":1750:1752  80 */\n      0x50\n        /* \"contracts/2_if.sol\":1740:1746  _score */\n      dup3\n        /* \"contracts/2_if.sol\":1740:1752  _score >= 80 */\n      lt\n        /* \"contracts/2_if.sol\":1737:1903  if(_score >= 80) {... */\n      tag_108\n      jumpi\n        /* \"contracts/2_if.sol\":1769:1782  _credit = \"B\" */\n      mload(0x40)\n      dup1\n      0x40\n      add\n      0x40\n      mstore\n      dup1\n      0x01\n      dup2\n      mstore\n      0x20\n      add\n      0x4200000000000000000000000000000000000000000000000000000000000000\n      dup2\n      mstore\n      pop\n      swap1\n      pop\n        /* \"contracts/2_if.sol\":1737:1903  if(_score >= 80) {... */\n      jump(tag_109)\n    tag_108:\n        /* \"contracts/2_if.sol\":1813:1815  70 */\n      0x46\n        /* \"contracts/2_if.sol\":1803:1809  _score */\n      dup3\n        /* \"contracts/2_if.sol\":1803:1815  _score >= 70 */\n      lt\n        /* \"contracts/2_if.sol\":1800:1903  if(_score >= 70) {... */\n      tag_110\n      jumpi\n        /* \"contracts/2_if.sol\":1832:1845  _credit = \"C\" */\n      mload(0x40)\n      dup1\n      0x40\n      add\n      0x40\n      mstore\n      dup1\n      0x01\n      dup2\n      mstore\n      0x20\n      add\n      0x4300000000000000000000000000000000000000000000000000000000000000\n      dup2\n      mstore\n      pop\n      swap1\n      pop\n        /* \"contracts/2_if.sol\":1800:1903  if(_score >= 70) {... */\n      jump(tag_111)\n    tag_110:\n        /* \"contracts/2_if.sol\":1878:1891  _credit = \"F\" */\n      mload(0x40)\n      dup1\n      0x40\n      add\n      0x40\n      mstore\n      dup1\n      0x01\n      dup2\n      mstore\n      0x20\n      add\n      0x4600000000000000000000000000000000000000000000000000000000000000\n      dup2\n      mstore\n      pop\n      swap1\n      pop\n        /* \"contracts/2_if.sol\":1800:1903  if(_score >= 70) {... */\n    tag_111:\n        /* \"contracts/2_if.sol\":1737:1903  if(_score >= 80) {... */\n    tag_109:\n        /* \"contracts/2_if.sol\":1674:1903  if(_score >= 90) {... */\n    tag_107:\n        /* \"contracts/2_if.sol\":1919:1959  student(_number, _name, _score, _credit) */\n      mload(0x40)\n      dup1\n      0x80\n      add\n      0x40\n      mstore\n      dup1\n        /* \"contracts/2_if.sol\":1927:1934  _number */\n      dup6\n        /* \"contracts/2_if.sol\":1919:1959  student(_number, _name, _score, _credit) */\n      dup2\n      mstore\n      0x20\n      add\n        /* \"contracts/2_if.sol\":1936:1941  _name */\n      dup5\n        /* \"contracts/2_if.sol\":1919:1959  student(_number, _name, _score, _credit) */\n      dup2\n      mstore\n      0x20\n      add\n        /* \"contracts/2_if.sol\":1943:1949  _score */\n      dup4\n        /* \"contracts/2_if.sol\":1919:1959  student(_number, _name, _score, _credit) */\n      dup2\n      mstore\n      0x20\n      add\n        /* \"contracts/2_if.sol\":1951:1958  _credit */\n      dup3\n        /* \"contracts/2_if.sol\":1919:1959  student(_number, _name, _score, _credit) */\n      dup2\n      mstore\n      pop\n        /* \"contracts/2_if.sol\":1915:1916  a */\n      0x00\n        /* \"contracts/2_if.sol\":1915:1959  a = student(_number, _name, _score, _credit) */\n      dup1\n      dup3\n      add\n      mload\n      dup2\n      0x00\n      add\n      sstore\n      0x20\n      dup3\n      add\n      mload\n      dup2\n      0x01\n      add\n      swap1\n      dup2\n      tag_112\n      swap2\n      swap1\n      tag_51\n      jump\t// in\n    tag_112:\n      pop\n      0x40\n      dup3\n      add\n      mload\n      dup2\n      0x02\n      add\n      sstore\n      0x60\n      dup3\n      add\n      mload\n      dup2\n      0x03\n      add\n      swap1\n      dup2\n      tag_113\n      swap2\n      swap1\n      tag_51\n      jump\t// in\n    tag_113:\n      pop\n      swap1\n      pop\n      pop\n        /* \"contracts/2_if.sol\":1631:1967  {... */\n      pop\n        /* \"contracts/2_if.sol\":1558:1967  function setAlice(uint _number, string memory _name, uint _score) public {... */\n      pop\n      pop\n      pop\n      jump\t// out\n        /* \"contracts/2_if.sol\":2390:2801  function setCharlie(uint _number, string memory _name, uint _score) public {... */\n    tag_34:\n        /* \"contracts/2_if.sol\":2476:2497  string memory _credit */\n      0x60\n        /* \"contracts/2_if.sol\":2521:2523  90 */\n      0x5a\n        /* \"contracts/2_if.sol\":2511:2517  _score */\n      dup3\n        /* \"contracts/2_if.sol\":2511:2523  _score >= 90 */\n      lt\n        /* \"contracts/2_if.sol\":2508:2737  if(_score >= 90) {... */\n      tag_115\n      jumpi\n        /* \"contracts/2_if.sol\":2540:2553  _credit = \"A\" */\n      mload(0x40)\n      dup1\n      0x40\n      add\n      0x40\n      mstore\n      dup1\n      0x01\n      dup2\n      mstore\n      0x20\n      add\n      0x4100000000000000000000000000000000000000000000000000000000000000\n      dup2\n      mstore\n      pop\n      swap1\n      pop\n        /* \"contracts/2_if.sol\":2508:2737  if(_score >= 90) {... */\n      jump(tag_116)\n    tag_115:\n        /* \"contracts/2_if.sol\":2584:2586  80 */\n      0x50\n        /* \"contracts/2_if.sol\":2574:2580  _score */\n      dup3\n        /* \"contracts/2_if.sol\":2574:2586  _score >= 80 */\n      lt\n        /* \"contracts/2_if.sol\":2571:2737  if(_score >= 80) {... */\n      tag_117\n      jumpi\n        /* \"contracts/2_if.sol\":2603:2616  _credit = \"B\" */\n      mload(0x40)\n      dup1\n      0x40\n      add\n      0x40\n      mstore\n      dup1\n      0x01\n      dup2\n      mstore\n      0x20\n      add\n      0x4200000000000000000000000000000000000000000000000000000000000000\n      dup2\n      mstore\n      pop\n      swap1\n      pop\n        /* \"contracts/2_if.sol\":2571:2737  if(_score >= 80) {... */\n      jump(tag_118)\n    tag_117:\n        /* \"contracts/2_if.sol\":2647:2649  70 */\n      0x46\n        /* \"contracts/2_if.sol\":2637:2643  _score */\n      dup3\n        /* \"contracts/2_if.sol\":2637:2649  _score >= 70 */\n      lt\n        /* \"contracts/2_if.sol\":2634:2737  if(_score >= 70) {... */\n      tag_119\n      jumpi\n        /* \"contracts/2_if.sol\":2666:2679  _credit = \"C\" */\n      mload(0x40)\n      dup1\n      0x40\n      add\n      0x40\n      mstore\n      dup1\n      0x01\n      dup2\n      mstore\n      0x20\n      add\n      0x4300000000000000000000000000000000000000000000000000000000000000\n      dup2\n      mstore\n      pop\n      swap1\n      pop\n        /* \"contracts/2_if.sol\":2634:2737  if(_score >= 70) {... */\n      jump(tag_120)\n    tag_119:\n        /* \"contracts/2_if.sol\":2712:2725  _credit = \"F\" */\n      mload(0x40)\n      dup1\n      0x40\n      add\n      0x40\n      mstore\n      dup1\n      0x01\n      dup2\n      mstore\n      0x20\n      add\n      0x4600000000000000000000000000000000000000000000000000000000000000\n      dup2\n      mstore\n      pop\n      swap1\n      pop\n        /* \"contracts/2_if.sol\":2634:2737  if(_score >= 70) {... */\n    tag_120:\n        /* \"contracts/2_if.sol\":2571:2737  if(_score >= 80) {... */\n    tag_118:\n        /* \"contracts/2_if.sol\":2508:2737  if(_score >= 90) {... */\n    tag_116:\n        /* \"contracts/2_if.sol\":2753:2793  student(_number, _name, _score, _credit) */\n      mload(0x40)\n      dup1\n      0x80\n      add\n      0x40\n      mstore\n      dup1\n        /* \"contracts/2_if.sol\":2761:2768  _number */\n      dup6\n        /* \"contracts/2_if.sol\":2753:2793  student(_number, _name, _score, _credit) */\n      dup2\n      mstore\n      0x20\n      add\n        /* \"contracts/2_if.sol\":2770:2775  _name */\n      dup5\n        /* \"contracts/2_if.sol\":2753:2793  student(_number, _name, _score, _credit) */\n      dup2\n      mstore\n      0x20\n      add\n        /* \"contracts/2_if.sol\":2777:2783  _score */\n      dup4\n        /* \"contracts/2_if.sol\":2753:2793  student(_number, _name, _score, _credit) */\n      dup2\n      mstore\n      0x20\n      add\n        /* \"contracts/2_if.sol\":2785:2792  _credit */\n      dup3\n        /* \"contracts/2_if.sol\":2753:2793  student(_number, _name, _score, _credit) */\n      dup2\n      mstore\n      pop\n        /* \"contracts/2_if.sol\":2749:2750  c */\n      0x08\n        /* \"contracts/2_if.sol\":2749:2793  c = student(_number, _name, _score, _credit) */\n      0x00\n      dup3\n      add\n      mload\n      dup2\n      0x00\n      add\n      sstore\n      0x20\n      dup3\n      add\n      mload\n      dup2\n      0x01\n      add\n      swap1\n      dup2\n      tag_121\n      swap2\n      swap1\n      tag_51\n      jump\t// in\n    tag_121:\n      pop\n      0x40\n      dup3\n      add\n      mload\n      dup2\n      0x02\n      add\n      sstore\n      0x60\n      dup3\n      add\n      mload\n      dup2\n      0x03\n      add\n      swap1\n      dup2\n      tag_122\n      swap2\n      swap1\n      tag_51\n      jump\t// in\n    tag_122:\n      pop\n      swap1\n      pop\n      pop\n        /* \"contracts/2_if.sol\":2465:2801  {... */\n      pop\n        /* \"contracts/2_if.sol\":2390:2801  function setCharlie(uint _number, string memory _name, uint _score) public {... */\n      pop\n      pop\n      pop\n      jump\t// out\n        /* \"contracts/2_if.sol\":3377:3537  function pushStudent2(uint _number, string memory _name, uint _score) public {... */\n    tag_37:\n        /* \"contracts/2_if.sol\":3465:3473  Students */\n      0x0c\n        /* \"contracts/2_if.sol\":3479:3528  student(_number, _name, _score, setGrade(_score)) */\n      mload(0x40)\n      dup1\n      0x80\n      add\n      0x40\n      mstore\n      dup1\n        /* \"contracts/2_if.sol\":3487:3494  _number */\n      dup6\n        /* \"contracts/2_if.sol\":3479:3528  student(_number, _name, _score, setGrade(_score)) */\n      dup2\n      mstore\n      0x20\n      add\n        /* \"contracts/2_if.sol\":3496:3501  _name */\n      dup5\n        /* \"contracts/2_if.sol\":3479:3528  student(_number, _name, _score, setGrade(_score)) */\n      dup2\n      mstore\n      0x20\n      add\n        /* \"contracts/2_if.sol\":3503:3509  _score */\n      dup4\n        /* \"contracts/2_if.sol\":3479:3528  student(_number, _name, _score, setGrade(_score)) */\n      dup2\n      mstore\n      0x20\n      add\n        /* \"contracts/2_if.sol\":3511:3527  setGrade(_score) */\n      tag_124\n        /* \"contracts/2_if.sol\":3520:3526  _score */\n      dup5\n        /* \"contracts/2_if.sol\":3511:3519  setGrade */\n      tag_23\n        /* \"contracts/2_if.sol\":3511:3527  setGrade(_score) */\n      jump\t// in\n    tag_124:\n        /* \"contracts/2_if.sol\":3479:3528  student(_number, _name, _score, setGrade(_score)) */\n      dup2\n      mstore\n      pop\n        /* \"contracts/2_if.sol\":3465:3529  Students.push(student(_number, _name, _score, setGrade(_score))) */\n      swap1\n      dup1\n      0x01\n      dup2\n      sload\n      add\n      dup1\n      dup3\n      sstore\n      dup1\n      swap2\n      pop\n      pop\n      0x01\n      swap1\n      sub\n      swap1\n      0x00\n      mstore\n      keccak256(0x00, 0x20)\n      swap1\n      0x04\n      mul\n      add\n      0x00\n      swap1\n      swap2\n      swap1\n      swap2\n      swap1\n      swap2\n      pop\n      0x00\n      dup3\n      add\n      mload\n      dup2\n      0x00\n      add\n      sstore\n      0x20\n      dup3\n      add\n      mload\n      dup2\n      0x01\n      add\n      swap1\n      dup2\n      tag_126\n      swap2\n      swap1\n      tag_51\n      jump\t// in\n    tag_126:\n      pop\n      0x40\n      dup3\n      add\n      mload\n      dup2\n      0x02\n      add\n      sstore\n      0x60\n      dup3\n      add\n      mload\n      dup2\n      0x03\n      add\n      swap1\n      dup2\n      tag_127\n      swap2\n      swap1\n      tag_51\n      jump\t// in\n    tag_127:\n      pop\n      pop\n      pop\n        /* \"contracts/2_if.sol\":3377:3537  function pushStudent2(uint _number, string memory _name, uint _score) public {... */\n      pop\n      pop\n      pop\n      jump\t// out\n        /* \"contracts/2_if.sol\":3545:3640  function getStudents() public view returns(student[] memory) {... */\n    tag_39:\n        /* \"contracts/2_if.sol\":3588:3604  student[] memory */\n      0x60\n        /* \"contracts/2_if.sol\":3624:3632  Students */\n      0x0c\n        /* \"contracts/2_if.sol\":3617:3632  return Students */\n      dup1\n      sload\n      dup1\n      0x20\n      mul\n      0x20\n      add\n      mload(0x40)\n      swap1\n      dup2\n      add\n      0x40\n      mstore\n      dup1\n      swap3\n      swap2\n      swap1\n      dup2\n      dup2\n      mstore\n      0x20\n      add\n      0x00\n      swap1\n    tag_129:\n      dup3\n      dup3\n      lt\n      iszero\n      tag_130\n      jumpi\n      dup4\n      dup3\n      swap1\n      0x00\n      mstore\n      keccak256(0x00, 0x20)\n      swap1\n      0x04\n      mul\n      add\n      mload(0x40)\n      dup1\n      0x80\n      add\n      0x40\n      mstore\n      swap1\n      dup2\n      0x00\n      dup3\n      add\n      sload\n      dup2\n      mstore\n      0x20\n      add\n      0x01\n      dup3\n      add\n      dup1\n      sload\n      tag_132\n      swap1\n      tag_59\n      jump\t// in\n    tag_132:\n      dup1\n      0x1f\n      add\n      0x20\n      dup1\n      swap2\n      div\n      mul\n      0x20\n      add\n      mload(0x40)\n      swap1\n      dup2\n      add\n      0x40\n      mstore\n      dup1\n      swap3\n      swap2\n      swap1\n      dup2\n      dup2\n      mstore\n      0x20\n      add\n      dup3\n      dup1\n      sload\n      tag_133\n      swap1\n      tag_59\n      jump\t// in\n    tag_133:\n      dup1\n      iszero\n      tag_134\n      jumpi\n      dup1\n      0x1f\n      lt\n      tag_135\n      jumpi\n      0x0100\n      dup1\n      dup4\n      sload\n      div\n      mul\n      dup4\n      mstore\n      swap2\n      0x20\n      add\n      swap2\n      jump(tag_134)\n    tag_135:\n      dup3\n      add\n      swap2\n      swap1\n      0x00\n      mstore\n      keccak256(0x00, 0x20)\n      swap1\n    tag_136:\n      dup2\n      sload\n      dup2\n      mstore\n      swap1\n      0x01\n      add\n      swap1\n      0x20\n      add\n      dup1\n      dup4\n      gt\n      tag_136\n      jumpi\n      dup3\n      swap1\n      sub\n      0x1f\n      and\n      dup3\n      add\n      swap2\n    tag_134:\n      pop\n      pop\n      pop\n      pop\n      pop\n      dup2\n      mstore\n      0x20\n      add\n      0x02\n      dup3\n      add\n      sload\n      dup2\n      mstore\n      0x20\n      add\n      0x03\n      dup3\n      add\n      dup1\n      sload\n      tag_137\n      swap1\n      tag_59\n      jump\t// in\n    tag_137:\n      dup1\n      0x1f\n      add\n      0x20\n      dup1\n      swap2\n      div\n      mul\n      0x20\n      add\n      mload(0x40)\n      swap1\n      dup2\n      add\n      0x40\n      mstore\n      dup1\n      swap3\n      swap2\n      swap1\n      dup2\n      dup2\n      mstore\n      0x20\n      add\n      dup3\n      dup1\n      sload\n      tag_138\n      swap1\n      tag_59\n      jump\t// in\n    tag_138:\n      dup1\n      iszero\n      tag_139\n      jumpi\n      dup1\n      0x1f\n      lt\n      tag_140\n      jumpi\n      0x0100\n      dup1\n      dup4\n      sload\n      div\n      mul\n      dup4\n      mstore\n      swap2\n      0x20\n      add\n      swap2\n      jump(tag_139)\n    tag_140:\n      dup3\n      add\n      swap2\n      swap1\n      0x00\n      mstore\n      keccak256(0x00, 0x20)\n      swap1\n    tag_141:\n      dup2\n      sload\n      dup2\n      mstore\n      swap1\n      0x01\n      add\n      swap1\n      0x20\n      add\n      dup1\n      dup4\n      gt\n      tag_141\n      jumpi\n      dup3\n      swap1\n      sub\n      0x1f\n      and\n      dup3\n      add\n      swap2\n    tag_139:\n      pop\n      pop\n      pop\n      pop\n      pop\n      dup2\n      mstore\n      pop\n      pop\n      dup2\n      mstore\n      0x20\n      add\n      swap1\n      0x01\n      add\n      swap1\n      jump(tag_129)\n    tag_130:\n      pop\n      pop\n      pop\n      pop\n      swap1\n      pop\n        /* \"contracts/2_if.sol\":3545:3640  function getStudents() public view returns(student[] memory) {... */\n      swap1\n      jump\t// out\n    tag_54:\n      mload(0x40)\n      dup1\n      0x80\n      add\n      0x40\n      mstore\n      dup1\n      0x00\n      dup2\n      mstore\n      0x20\n      add\n      0x60\n      dup2\n      mstore\n      0x20\n      add\n      0x00\n      dup2\n      mstore\n      0x20\n      add\n      0x60\n      dup2\n      mstore\n      pop\n      swap1\n      jump\t// out\n        /* \"#utility.yul\":7:82   */\n    tag_142:\n        /* \"#utility.yul\":40:46   */\n      0x00\n        /* \"#utility.yul\":73:75   */\n      0x40\n        /* \"#utility.yul\":67:76   */\n      mload\n        /* \"#utility.yul\":57:76   */\n      swap1\n      pop\n        /* \"#utility.yul\":7:82   */\n      swap1\n      jump\t// out\n        /* \"#utility.yul\":88:205   */\n    tag_143:\n        /* \"#utility.yul\":197:198   */\n      0x00\n        /* \"#utility.yul\":194:195   */\n      dup1\n        /* \"#utility.yul\":187:199   */\n      revert\n        /* \"#utility.yul\":211:328   */\n    tag_144:\n        /* \"#utility.yul\":320:321   */\n      0x00\n        /* \"#utility.yul\":317:318   */\n      dup1\n        /* \"#utility.yul\":310:322   */\n      revert\n        /* \"#utility.yul\":334:411   */\n    tag_145:\n        /* \"#utility.yul\":371:378   */\n      0x00\n        /* \"#utility.yul\":400:405   */\n      dup2\n        /* \"#utility.yul\":389:405   */\n      swap1\n      pop\n        /* \"#utility.yul\":334:411   */\n      swap2\n      swap1\n      pop\n      jump\t// out\n        /* \"#utility.yul\":417:539   */\n    tag_146:\n        /* \"#utility.yul\":490:514   */\n      tag_195\n        /* \"#utility.yul\":508:513   */\n      dup2\n        /* \"#utility.yul\":490:514   */\n      tag_145\n      jump\t// in\n    tag_195:\n        /* \"#utility.yul\":483:488   */\n      dup2\n        /* \"#utility.yul\":480:515   */\n      eq\n        /* \"#utility.yul\":470:533   */\n      tag_196\n      jumpi\n        /* \"#utility.yul\":529:530   */\n      0x00\n        /* \"#utility.yul\":526:527   */\n      dup1\n        /* \"#utility.yul\":519:531   */\n      revert\n        /* \"#utility.yul\":470:533   */\n    tag_196:\n        /* \"#utility.yul\":417:539   */\n      pop\n      jump\t// out\n        /* \"#utility.yul\":545:684   */\n    tag_147:\n        /* \"#utility.yul\":591:596   */\n      0x00\n        /* \"#utility.yul\":629:635   */\n      dup2\n        /* \"#utility.yul\":616:636   */\n      calldataload\n        /* \"#utility.yul\":607:636   */\n      swap1\n      pop\n        /* \"#utility.yul\":645:678   */\n      tag_198\n        /* \"#utility.yul\":672:677   */\n      dup2\n        /* \"#utility.yul\":645:678   */\n      tag_146\n      jump\t// in\n    tag_198:\n        /* \"#utility.yul\":545:684   */\n      swap3\n      swap2\n      pop\n      pop\n      jump\t// out\n        /* \"#utility.yul\":690:807   */\n    tag_148:\n        /* \"#utility.yul\":799:800   */\n      0x00\n        /* \"#utility.yul\":796:797   */\n      dup1\n        /* \"#utility.yul\":789:801   */\n      revert\n        /* \"#utility.yul\":813:930   */\n    tag_149:\n        /* \"#utility.yul\":922:923   */\n      0x00\n        /* \"#utility.yul\":919:920   */\n      dup1\n        /* \"#utility.yul\":912:924   */\n      revert\n        /* \"#utility.yul\":936:1038   */\n    tag_150:\n        /* \"#utility.yul\":977:983   */\n      0x00\n        /* \"#utility.yul\":1028:1030   */\n      0x1f\n        /* \"#utility.yul\":1024:1031   */\n      not\n        /* \"#utility.yul\":1019:1021   */\n      0x1f\n        /* \"#utility.yul\":1012:1017   */\n      dup4\n        /* \"#utility.yul\":1008:1022   */\n      add\n        /* \"#utility.yul\":1004:1032   */\n      and\n        /* \"#utility.yul\":994:1032   */\n      swap1\n      pop\n        /* \"#utility.yul\":936:1038   */\n      swap2\n      swap1\n      pop\n      jump\t// out\n        /* \"#utility.yul\":1044:1224   */\n    tag_151:\n        /* \"#utility.yul\":1092:1169   */\n      0x4e487b7100000000000000000000000000000000000000000000000000000000\n        /* \"#utility.yul\":1089:1090   */\n      0x00\n        /* \"#utility.yul\":1082:1170   */\n      mstore\n        /* \"#utility.yul\":1189:1193   */\n      0x41\n        /* \"#utility.yul\":1186:1187   */\n      0x04\n        /* \"#utility.yul\":1179:1194   */\n      mstore\n        /* \"#utility.yul\":1213:1217   */\n      0x24\n        /* \"#utility.yul\":1210:1211   */\n      0x00\n        /* \"#utility.yul\":1203:1218   */\n      revert\n        /* \"#utility.yul\":1230:1511   */\n    tag_152:\n        /* \"#utility.yul\":1313:1340   */\n      tag_204\n        /* \"#utility.yul\":1335:1339   */\n      dup3\n        /* \"#utility.yul\":1313:1340   */\n      tag_150\n      jump\t// in\n    tag_204:\n        /* \"#utility.yul\":1305:1311   */\n      dup2\n        /* \"#utility.yul\":1301:1341   */\n      add\n        /* \"#utility.yul\":1443:1449   */\n      dup2\n        /* \"#utility.yul\":1431:1441   */\n      dup2\n        /* \"#utility.yul\":1428:1450   */\n      lt\n        /* \"#utility.yul\":1407:1425   */\n      0xffffffffffffffff\n        /* \"#utility.yul\":1395:1405   */\n      dup3\n        /* \"#utility.yul\":1392:1426   */\n      gt\n        /* \"#utility.yul\":1389:1451   */\n      or\n        /* \"#utility.yul\":1386:1474   */\n      iszero\n      tag_205\n      jumpi\n        /* \"#utility.yul\":1454:1472   */\n      tag_206\n      tag_151\n      jump\t// in\n    tag_206:\n        /* \"#utility.yul\":1386:1474   */\n    tag_205:\n        /* \"#utility.yul\":1494:1504   */\n      dup1\n        /* \"#utility.yul\":1490:1492   */\n      0x40\n        /* \"#utility.yul\":1483:1505   */\n      mstore\n        /* \"#utility.yul\":1273:1511   */\n      pop\n        /* \"#utility.yul\":1230:1511   */\n      pop\n      pop\n      jump\t// out\n        /* \"#utility.yul\":1517:1646   */\n    tag_153:\n        /* \"#utility.yul\":1551:1557   */\n      0x00\n        /* \"#utility.yul\":1578:1598   */\n      tag_208\n      tag_142\n      jump\t// in\n    tag_208:\n        /* \"#utility.yul\":1568:1598   */\n      swap1\n      pop\n        /* \"#utility.yul\":1607:1640   */\n      tag_209\n        /* \"#utility.yul\":1635:1639   */\n      dup3\n        /* \"#utility.yul\":1627:1633   */\n      dup3\n        /* \"#utility.yul\":1607:1640   */\n      tag_152\n      jump\t// in\n    tag_209:\n        /* \"#utility.yul\":1517:1646   */\n      swap2\n      swap1\n      pop\n      jump\t// out\n        /* \"#utility.yul\":1652:1960   */\n    tag_154:\n        /* \"#utility.yul\":1714:1718   */\n      0x00\n        /* \"#utility.yul\":1804:1822   */\n      0xffffffffffffffff\n        /* \"#utility.yul\":1796:1802   */\n      dup3\n        /* \"#utility.yul\":1793:1823   */\n      gt\n        /* \"#utility.yul\":1790:1846   */\n      iszero\n      tag_211\n      jumpi\n        /* \"#utility.yul\":1826:1844   */\n      tag_212\n      tag_151\n      jump\t// in\n    tag_212:\n        /* \"#utility.yul\":1790:1846   */\n    tag_211:\n        /* \"#utility.yul\":1864:1893   */\n      tag_213\n        /* \"#utility.yul\":1886:1892   */\n      dup3\n        /* \"#utility.yul\":1864:1893   */\n      tag_150\n      jump\t// in\n    tag_213:\n        /* \"#utility.yul\":1856:1893   */\n      swap1\n      pop\n        /* \"#utility.yul\":1948:1952   */\n      0x20\n        /* \"#utility.yul\":1942:1946   */\n      dup2\n        /* \"#utility.yul\":1938:1953   */\n      add\n        /* \"#utility.yul\":1930:1953   */\n      swap1\n      pop\n        /* \"#utility.yul\":1652:1960   */\n      swap2\n      swap1\n      pop\n      jump\t// out\n        /* \"#utility.yul\":1966:2112   */\n    tag_155:\n        /* \"#utility.yul\":2063:2069   */\n      dup3\n        /* \"#utility.yul\":2058:2061   */\n      dup2\n        /* \"#utility.yul\":2053:2056   */\n      dup4\n        /* \"#utility.yul\":2040:2070   */\n      calldatacopy\n        /* \"#utility.yul\":2104:2105   */\n      0x00\n        /* \"#utility.yul\":2095:2101   */\n      dup4\n        /* \"#utility.yul\":2090:2093   */\n      dup4\n        /* \"#utility.yul\":2086:2102   */\n      add\n        /* \"#utility.yul\":2079:2106   */\n      mstore\n        /* \"#utility.yul\":1966:2112   */\n      pop\n      pop\n      pop\n      jump\t// out\n        /* \"#utility.yul\":2118:2543   */\n    tag_156:\n        /* \"#utility.yul\":2196:2201   */\n      0x00\n        /* \"#utility.yul\":2221:2287   */\n      tag_216\n        /* \"#utility.yul\":2237:2286   */\n      tag_217\n        /* \"#utility.yul\":2279:2285   */\n      dup5\n        /* \"#utility.yul\":2237:2286   */\n      tag_154\n      jump\t// in\n    tag_217:\n        /* \"#utility.yul\":2221:2287   */\n      tag_153\n      jump\t// in\n    tag_216:\n        /* \"#utility.yul\":2212:2287   */\n      swap1\n      pop\n        /* \"#utility.yul\":2310:2316   */\n      dup3\n        /* \"#utility.yul\":2303:2308   */\n      dup2\n        /* \"#utility.yul\":2296:2317   */\n      mstore\n        /* \"#utility.yul\":2348:2352   */\n      0x20\n        /* \"#utility.yul\":2341:2346   */\n      dup2\n        /* \"#utility.yul\":2337:2353   */\n      add\n        /* \"#utility.yul\":2386:2389   */\n      dup5\n        /* \"#utility.yul\":2377:2383   */\n      dup5\n        /* \"#utility.yul\":2372:2375   */\n      dup5\n        /* \"#utility.yul\":2368:2384   */\n      add\n        /* \"#utility.yul\":2365:2390   */\n      gt\n        /* \"#utility.yul\":2362:2474   */\n      iszero\n      tag_218\n      jumpi\n        /* \"#utility.yul\":2393:2472   */\n      tag_219\n      tag_149\n      jump\t// in\n    tag_219:\n        /* \"#utility.yul\":2362:2474   */\n    tag_218:\n        /* \"#utility.yul\":2483:2537   */\n      tag_220\n        /* \"#utility.yul\":2530:2536   */\n      dup5\n        /* \"#utility.yul\":2525:2528   */\n      dup3\n        /* \"#utility.yul\":2520:2523   */\n      dup6\n        /* \"#utility.yul\":2483:2537   */\n      tag_155\n      jump\t// in\n    tag_220:\n        /* \"#utility.yul\":2202:2543   */\n      pop\n        /* \"#utility.yul\":2118:2543   */\n      swap4\n      swap3\n      pop\n      pop\n      pop\n      jump\t// out\n        /* \"#utility.yul\":2563:2903   */\n    tag_157:\n        /* \"#utility.yul\":2619:2624   */\n      0x00\n        /* \"#utility.yul\":2668:2671   */\n      dup3\n        /* \"#utility.yul\":2661:2665   */\n      0x1f\n        /* \"#utility.yul\":2653:2659   */\n      dup4\n        /* \"#utility.yul\":2649:2666   */\n      add\n        /* \"#utility.yul\":2645:2672   */\n      slt\n        /* \"#utility.yul\":2635:2757   */\n      tag_222\n      jumpi\n        /* \"#utility.yul\":2676:2755   */\n      tag_223\n      tag_148\n      jump\t// in\n    tag_223:\n        /* \"#utility.yul\":2635:2757   */\n    tag_222:\n        /* \"#utility.yul\":2793:2799   */\n      dup2\n        /* \"#utility.yul\":2780:2800   */\n      calldataload\n        /* \"#utility.yul\":2818:2897   */\n      tag_224\n        /* \"#utility.yul\":2893:2896   */\n      dup5\n        /* \"#utility.yul\":2885:2891   */\n      dup3\n        /* \"#utility.yul\":2878:2882   */\n      0x20\n        /* \"#utility.yul\":2870:2876   */\n      dup7\n        /* \"#utility.yul\":2866:2883   */\n      add\n        /* \"#utility.yul\":2818:2897   */\n      tag_156\n      jump\t// in\n    tag_224:\n        /* \"#utility.yul\":2809:2897   */\n      swap2\n      pop\n        /* \"#utility.yul\":2625:2903   */\n      pop\n        /* \"#utility.yul\":2563:2903   */\n      swap3\n      swap2\n      pop\n      pop\n      jump\t// out\n        /* \"#utility.yul\":2909:3708   */\n    tag_14:\n        /* \"#utility.yul\":2996:3002   */\n      0x00\n        /* \"#utility.yul\":3004:3010   */\n      dup1\n        /* \"#utility.yul\":3012:3018   */\n      0x00\n        /* \"#utility.yul\":3061:3063   */\n      0x60\n        /* \"#utility.yul\":3049:3058   */\n      dup5\n        /* \"#utility.yul\":3040:3047   */\n      dup7\n        /* \"#utility.yul\":3036:3059   */\n      sub\n        /* \"#utility.yul\":3032:3064   */\n      slt\n        /* \"#utility.yul\":3029:3148   */\n      iszero\n      tag_226\n      jumpi\n        /* \"#utility.yul\":3067:3146   */\n      tag_227\n      tag_143\n      jump\t// in\n    tag_227:\n        /* \"#utility.yul\":3029:3148   */\n    tag_226:\n        /* \"#utility.yul\":3187:3188   */\n      0x00\n        /* \"#utility.yul\":3212:3265   */\n      tag_228\n        /* \"#utility.yul\":3257:3264   */\n      dup7\n        /* \"#utility.yul\":3248:3254   */\n      dup3\n        /* \"#utility.yul\":3237:3246   */\n      dup8\n        /* \"#utility.yul\":3233:3255   */\n      add\n        /* \"#utility.yul\":3212:3265   */\n      tag_147\n      jump\t// in\n    tag_228:\n        /* \"#utility.yul\":3202:3265   */\n      swap4\n      pop\n        /* \"#utility.yul\":3158:3275   */\n      pop\n        /* \"#utility.yul\":3342:3344   */\n      0x20\n        /* \"#utility.yul\":3331:3340   */\n      dup5\n        /* \"#utility.yul\":3327:3345   */\n      add\n        /* \"#utility.yul\":3314:3346   */\n      calldataload\n        /* \"#utility.yul\":3373:3391   */\n      0xffffffffffffffff\n        /* \"#utility.yul\":3365:3371   */\n      dup2\n        /* \"#utility.yul\":3362:3392   */\n      gt\n        /* \"#utility.yul\":3359:3476   */\n      iszero\n      tag_229\n      jumpi\n        /* \"#utility.yul\":3395:3474   */\n      tag_230\n      tag_144\n      jump\t// in\n    tag_230:\n        /* \"#utility.yul\":3359:3476   */\n    tag_229:\n        /* \"#utility.yul\":3500:3563   */\n      tag_231\n        /* \"#utility.yul\":3555:3562   */\n      dup7\n        /* \"#utility.yul\":3546:3552   */\n      dup3\n        /* \"#utility.yul\":3535:3544   */\n      dup8\n        /* \"#utility.yul\":3531:3553   */\n      add\n        /* \"#utility.yul\":3500:3563   */\n      tag_157\n      jump\t// in\n    tag_231:\n        /* \"#utility.yul\":3490:3563   */\n      swap3\n      pop\n        /* \"#utility.yul\":3285:3573   */\n      pop\n        /* \"#utility.yul\":3612:3614   */\n      0x40\n        /* \"#utility.yul\":3638:3691   */\n      tag_232\n        /* \"#utility.yul\":3683:3690   */\n      dup7\n        /* \"#utility.yul\":3674:3680   */\n      dup3\n        /* \"#utility.yul\":3663:3672   */\n      dup8\n        /* \"#utility.yul\":3659:3681   */\n      add\n        /* \"#utility.yul\":3638:3691   */\n      tag_147\n      jump\t// in\n    tag_232:\n        /* \"#utility.yul\":3628:3691   */\n      swap2\n      pop\n        /* \"#utility.yul\":3583:3701   */\n      pop\n        /* \"#utility.yul\":2909:3708   */\n      swap3\n      pop\n      swap3\n      pop\n      swap3\n      jump\t// out\n        /* \"#utility.yul\":3714:3822   */\n    tag_158:\n        /* \"#utility.yul\":3791:3815   */\n      tag_234\n        /* \"#utility.yul\":3809:3814   */\n      dup2\n        /* \"#utility.yul\":3791:3815   */\n      tag_145\n      jump\t// in\n    tag_234:\n        /* \"#utility.yul\":3786:3789   */\n      dup3\n        /* \"#utility.yul\":3779:3816   */\n      mstore\n        /* \"#utility.yul\":3714:3822   */\n      pop\n      pop\n      jump\t// out\n        /* \"#utility.yul\":3828:3927   */\n    tag_159:\n        /* \"#utility.yul\":3880:3886   */\n      0x00\n        /* \"#utility.yul\":3914:3919   */\n      dup2\n        /* \"#utility.yul\":3908:3920   */\n      mload\n        /* \"#utility.yul\":3898:3920   */\n      swap1\n      pop\n        /* \"#utility.yul\":3828:3927   */\n      swap2\n      swap1\n      pop\n      jump\t// out\n        /* \"#utility.yul\":3933:4092   */\n    tag_160:\n        /* \"#utility.yul\":4007:4018   */\n      0x00\n        /* \"#utility.yul\":4041:4047   */\n      dup3\n        /* \"#utility.yul\":4036:4039   */\n      dup3\n        /* \"#utility.yul\":4029:4048   */\n      mstore\n        /* \"#utility.yul\":4081:4085   */\n      0x20\n        /* \"#utility.yul\":4076:4079   */\n      dup3\n        /* \"#utility.yul\":4072:4086   */\n      add\n        /* \"#utility.yul\":4057:4086   */\n      swap1\n      pop\n        /* \"#utility.yul\":3933:4092   */\n      swap3\n      swap2\n      pop\n      pop\n      jump\t// out\n        /* \"#utility.yul\":4098:4344   */\n    tag_161:\n        /* \"#utility.yul\":4179:4180   */\n      0x00\n        /* \"#utility.yul\":4189:4302   */\n    tag_238:\n        /* \"#utility.yul\":4203:4209   */\n      dup4\n        /* \"#utility.yul\":4200:4201   */\n      dup2\n        /* \"#utility.yul\":4197:4210   */\n      lt\n        /* \"#utility.yul\":4189:4302   */\n      iszero\n      tag_240\n      jumpi\n        /* \"#utility.yul\":4288:4289   */\n      dup1\n        /* \"#utility.yul\":4283:4286   */\n      dup3\n        /* \"#utility.yul\":4279:4290   */\n      add\n        /* \"#utility.yul\":4273:4291   */\n      mload\n        /* \"#utility.yul\":4269:4270   */\n      dup2\n        /* \"#utility.yul\":4264:4267   */\n      dup5\n        /* \"#utility.yul\":4260:4271   */\n      add\n        /* \"#utility.yul\":4253:4292   */\n      mstore\n        /* \"#utility.yul\":4225:4227   */\n      0x20\n        /* \"#utility.yul\":4222:4223   */\n      dup2\n        /* \"#utility.yul\":4218:4228   */\n      add\n        /* \"#utility.yul\":4213:4228   */\n      swap1\n      pop\n        /* \"#utility.yul\":4189:4302   */\n      jump(tag_238)\n    tag_240:\n        /* \"#utility.yul\":4336:4337   */\n      0x00\n        /* \"#utility.yul\":4327:4333   */\n      dup5\n        /* \"#utility.yul\":4322:4325   */\n      dup5\n        /* \"#utility.yul\":4318:4334   */\n      add\n        /* \"#utility.yul\":4311:4338   */\n      mstore\n        /* \"#utility.yul\":4160:4344   */\n      pop\n        /* \"#utility.yul\":4098:4344   */\n      pop\n      pop\n      pop\n      jump\t// out\n        /* \"#utility.yul\":4350:4707   */\n    tag_162:\n        /* \"#utility.yul\":4428:4431   */\n      0x00\n        /* \"#utility.yul\":4456:4495   */\n      tag_242\n        /* \"#utility.yul\":4489:4494   */\n      dup3\n        /* \"#utility.yul\":4456:4495   */\n      tag_159\n      jump\t// in\n    tag_242:\n        /* \"#utility.yul\":4511:4572   */\n      tag_243\n        /* \"#utility.yul\":4565:4571   */\n      dup2\n        /* \"#utility.yul\":4560:4563   */\n      dup6\n        /* \"#utility.yul\":4511:4572   */\n      tag_160\n      jump\t// in\n    tag_243:\n        /* \"#utility.yul\":4504:4572   */\n      swap4\n      pop\n        /* \"#utility.yul\":4581:4646   */\n      tag_244\n        /* \"#utility.yul\":4639:4645   */\n      dup2\n        /* \"#utility.yul\":4634:4637   */\n      dup6\n        /* \"#utility.yul\":4627:4631   */\n      0x20\n        /* \"#utility.yul\":4620:4625   */\n      dup7\n        /* \"#utility.yul\":4616:4632   */\n      add\n        /* \"#utility.yul\":4581:4646   */\n      tag_161\n      jump\t// in\n    tag_244:\n        /* \"#utility.yul\":4671:4700   */\n      tag_245\n        /* \"#utility.yul\":4693:4699   */\n      dup2\n        /* \"#utility.yul\":4671:4700   */\n      tag_150\n      jump\t// in\n    tag_245:\n        /* \"#utility.yul\":4666:4669   */\n      dup5\n        /* \"#utility.yul\":4662:4701   */\n      add\n        /* \"#utility.yul\":4655:4701   */\n      swap2\n      pop\n        /* \"#utility.yul\":4432:4707   */\n      pop\n        /* \"#utility.yul\":4350:4707   */\n      swap3\n      swap2\n      pop\n      pop\n      jump\t// out\n        /* \"#utility.yul\":4761:5789   */\n    tag_163:\n        /* \"#utility.yul\":4878:4881   */\n      0x00\n        /* \"#utility.yul\":4914:4918   */\n      0x80\n        /* \"#utility.yul\":4909:4912   */\n      dup4\n        /* \"#utility.yul\":4905:4919   */\n      add\n        /* \"#utility.yul\":5003:5007   */\n      0x00\n        /* \"#utility.yul\":4996:5001   */\n      dup4\n        /* \"#utility.yul\":4992:5008   */\n      add\n        /* \"#utility.yul\":4986:5009   */\n      mload\n        /* \"#utility.yul\":5022:5085   */\n      tag_247\n        /* \"#utility.yul\":5079:5083   */\n      0x00\n        /* \"#utility.yul\":5074:5077   */\n      dup7\n        /* \"#utility.yul\":5070:5084   */\n      add\n        /* \"#utility.yul\":5056:5068   */\n      dup3\n        /* \"#utility.yul\":5022:5085   */\n      tag_158\n      jump\t// in\n    tag_247:\n        /* \"#utility.yul\":4929:5095   */\n      pop\n        /* \"#utility.yul\":5177:5181   */\n      0x20\n        /* \"#utility.yul\":5170:5175   */\n      dup4\n        /* \"#utility.yul\":5166:5182   */\n      add\n        /* \"#utility.yul\":5160:5183   */\n      mload\n        /* \"#utility.yul\":5230:5233   */\n      dup5\n        /* \"#utility.yul\":5224:5228   */\n      dup3\n        /* \"#utility.yul\":5220:5234   */\n      sub\n        /* \"#utility.yul\":5213:5217   */\n      0x20\n        /* \"#utility.yul\":5208:5211   */\n      dup7\n        /* \"#utility.yul\":5204:5218   */\n      add\n        /* \"#utility.yul\":5197:5235   */\n      mstore\n        /* \"#utility.yul\":5256:5329   */\n      tag_248\n        /* \"#utility.yul\":5324:5328   */\n      dup3\n        /* \"#utility.yul\":5310:5322   */\n      dup3\n        /* \"#utility.yul\":5256:5329   */\n      tag_162\n      jump\t// in\n    tag_248:\n        /* \"#utility.yul\":5248:5329   */\n      swap2\n      pop\n        /* \"#utility.yul\":5105:5340   */\n      pop\n        /* \"#utility.yul\":5423:5427   */\n      0x40\n        /* \"#utility.yul\":5416:5421   */\n      dup4\n        /* \"#utility.yul\":5412:5428   */\n      add\n        /* \"#utility.yul\":5406:5429   */\n      mload\n        /* \"#utility.yul\":5442:5505   */\n      tag_249\n        /* \"#utility.yul\":5499:5503   */\n      0x40\n        /* \"#utility.yul\":5494:5497   */\n      dup7\n        /* \"#utility.yul\":5490:5504   */\n      add\n        /* \"#utility.yul\":5476:5488   */\n      dup3\n        /* \"#utility.yul\":5442:5505   */\n      tag_158\n      jump\t// in\n    tag_249:\n        /* \"#utility.yul\":5350:5515   */\n      pop\n        /* \"#utility.yul\":5599:5603   */\n      0x60\n        /* \"#utility.yul\":5592:5597   */\n      dup4\n        /* \"#utility.yul\":5588:5604   */\n      add\n        /* \"#utility.yul\":5582:5605   */\n      mload\n        /* \"#utility.yul\":5652:5655   */\n      dup5\n        /* \"#utility.yul\":5646:5650   */\n      dup3\n        /* \"#utility.yul\":5642:5656   */\n      sub\n        /* \"#utility.yul\":5635:5639   */\n      0x60\n        /* \"#utility.yul\":5630:5633   */\n      dup7\n        /* \"#utility.yul\":5626:5640   */\n      add\n        /* \"#utility.yul\":5619:5657   */\n      mstore\n        /* \"#utility.yul\":5678:5751   */\n      tag_250\n        /* \"#utility.yul\":5746:5750   */\n      dup3\n        /* \"#utility.yul\":5732:5744   */\n      dup3\n        /* \"#utility.yul\":5678:5751   */\n      tag_162\n      jump\t// in\n    tag_250:\n        /* \"#utility.yul\":5670:5751   */\n      swap2\n      pop\n        /* \"#utility.yul\":5525:5762   */\n      pop\n        /* \"#utility.yul\":5779:5783   */\n      dup1\n        /* \"#utility.yul\":5772:5783   */\n      swap2\n      pop\n        /* \"#utility.yul\":4883:5789   */\n      pop\n        /* \"#utility.yul\":4761:5789   */\n      swap3\n      swap2\n      pop\n      pop\n      jump\t// out\n        /* \"#utility.yul\":5795:6678   */\n    tag_19:\n        /* \"#utility.yul\":6088:6092   */\n      0x00\n        /* \"#utility.yul\":6126:6128   */\n      0x60\n        /* \"#utility.yul\":6115:6124   */\n      dup3\n        /* \"#utility.yul\":6111:6129   */\n      add\n        /* \"#utility.yul\":6103:6129   */\n      swap1\n      pop\n        /* \"#utility.yul\":6175:6184   */\n      dup2\n        /* \"#utility.yul\":6169:6173   */\n      dup2\n        /* \"#utility.yul\":6165:6185   */\n      sub\n        /* \"#utility.yul\":6161:6162   */\n      0x00\n        /* \"#utility.yul\":6150:6159   */\n      dup4\n        /* \"#utility.yul\":6146:6163   */\n      add\n        /* \"#utility.yul\":6139:6186   */\n      mstore\n        /* \"#utility.yul\":6203:6309   */\n      tag_252\n        /* \"#utility.yul\":6304:6308   */\n      dup2\n        /* \"#utility.yul\":6295:6301   */\n      dup7\n        /* \"#utility.yul\":6203:6309   */\n      tag_163\n      jump\t// in\n    tag_252:\n        /* \"#utility.yul\":6195:6309   */\n      swap1\n      pop\n        /* \"#utility.yul\":6356:6365   */\n      dup2\n        /* \"#utility.yul\":6350:6354   */\n      dup2\n        /* \"#utility.yul\":6346:6366   */\n      sub\n        /* \"#utility.yul\":6341:6343   */\n      0x20\n        /* \"#utility.yul\":6330:6339   */\n      dup4\n        /* \"#utility.yul\":6326:6344   */\n      add\n        /* \"#utility.yul\":6319:6367   */\n      mstore\n        /* \"#utility.yul\":6384:6490   */\n      tag_253\n        /* \"#utility.yul\":6485:6489   */\n      dup2\n        /* \"#utility.yul\":6476:6482   */\n      dup6\n        /* \"#utility.yul\":6384:6490   */\n      tag_163\n      jump\t// in\n    tag_253:\n        /* \"#utility.yul\":6376:6490   */\n      swap1\n      pop\n        /* \"#utility.yul\":6537:6546   */\n      dup2\n        /* \"#utility.yul\":6531:6535   */\n      dup2\n        /* \"#utility.yul\":6527:6547   */\n      sub\n        /* \"#utility.yul\":6522:6524   */\n      0x40\n        /* \"#utility.yul\":6511:6520   */\n      dup4\n        /* \"#utility.yul\":6507:6525   */\n      add\n        /* \"#utility.yul\":6500:6548   */\n      mstore\n        /* \"#utility.yul\":6565:6671   */\n      tag_254\n        /* \"#utility.yul\":6666:6670   */\n      dup2\n        /* \"#utility.yul\":6657:6663   */\n      dup5\n        /* \"#utility.yul\":6565:6671   */\n      tag_163\n      jump\t// in\n    tag_254:\n        /* \"#utility.yul\":6557:6671   */\n      swap1\n      pop\n        /* \"#utility.yul\":5795:6678   */\n      swap5\n      swap4\n      pop\n      pop\n      pop\n      pop\n      jump\t// out\n        /* \"#utility.yul\":6684:7013   */\n    tag_22:\n        /* \"#utility.yul\":6743:6749   */\n      0x00\n        /* \"#utility.yul\":6792:6794   */\n      0x20\n        /* \"#utility.yul\":6780:6789   */\n      dup3\n        /* \"#utility.yul\":6771:6778   */\n      dup5\n        /* \"#utility.yul\":6767:6790   */\n      sub\n        /* \"#utility.yul\":6763:6795   */\n      slt\n        /* \"#utility.yul\":6760:6879   */\n      iszero\n      tag_256\n      jumpi\n        /* \"#utility.yul\":6798:6877   */\n      tag_257\n      tag_143\n      jump\t// in\n    tag_257:\n        /* \"#utility.yul\":6760:6879   */\n    tag_256:\n        /* \"#utility.yul\":6918:6919   */\n      0x00\n        /* \"#utility.yul\":6943:6996   */\n      tag_258\n        /* \"#utility.yul\":6988:6995   */\n      dup5\n        /* \"#utility.yul\":6979:6985   */\n      dup3\n        /* \"#utility.yul\":6968:6977   */\n      dup6\n        /* \"#utility.yul\":6964:6986   */\n      add\n        /* \"#utility.yul\":6943:6996   */\n      tag_147\n      jump\t// in\n    tag_258:\n        /* \"#utility.yul\":6933:6996   */\n      swap2\n      pop\n        /* \"#utility.yul\":6889:7006   */\n      pop\n        /* \"#utility.yul\":6684:7013   */\n      swap3\n      swap2\n      pop\n      pop\n      jump\t// out\n        /* \"#utility.yul\":7019:7188   */\n    tag_164:\n        /* \"#utility.yul\":7103:7114   */\n      0x00\n        /* \"#utility.yul\":7137:7143   */\n      dup3\n        /* \"#utility.yul\":7132:7135   */\n      dup3\n        /* \"#utility.yul\":7125:7144   */\n      mstore\n        /* \"#utility.yul\":7177:7181   */\n      0x20\n        /* \"#utility.yul\":7172:7175   */\n      dup3\n        /* \"#utility.yul\":7168:7182   */\n      add\n        /* \"#utility.yul\":7153:7182   */\n      swap1\n      pop\n        /* \"#utility.yul\":7019:7188   */\n      swap3\n      swap2\n      pop\n      pop\n      jump\t// out\n        /* \"#utility.yul\":7194:7571   */\n    tag_165:\n        /* \"#utility.yul\":7282:7285   */\n      0x00\n        /* \"#utility.yul\":7310:7349   */\n      tag_261\n        /* \"#utility.yul\":7343:7348   */\n      dup3\n        /* \"#utility.yul\":7310:7349   */\n      tag_159\n      jump\t// in\n    tag_261:\n        /* \"#utility.yul\":7365:7436   */\n      tag_262\n        /* \"#utility.yul\":7429:7435   */\n      dup2\n        /* \"#utility.yul\":7424:7427   */\n      dup6\n        /* \"#utility.yul\":7365:7436   */\n      tag_164\n      jump\t// in\n    tag_262:\n        /* \"#utility.yul\":7358:7436   */\n      swap4\n      pop\n        /* \"#utility.yul\":7445:7510   */\n      tag_263\n        /* \"#utility.yul\":7503:7509   */\n      dup2\n        /* \"#utility.yul\":7498:7501   */\n      dup6\n        /* \"#utility.yul\":7491:7495   */\n      0x20\n        /* \"#utility.yul\":7484:7489   */\n      dup7\n        /* \"#utility.yul\":7480:7496   */\n      add\n        /* \"#utility.yul\":7445:7510   */\n      tag_161\n      jump\t// in\n    tag_263:\n        /* \"#utility.yul\":7535:7564   */\n      tag_264\n        /* \"#utility.yul\":7557:7563   */\n      dup2\n        /* \"#utility.yul\":7535:7564   */\n      tag_150\n      jump\t// in\n    tag_264:\n        /* \"#utility.yul\":7530:7533   */\n      dup5\n        /* \"#utility.yul\":7526:7565   */\n      add\n        /* \"#utility.yul\":7519:7565   */\n      swap2\n      pop\n        /* \"#utility.yul\":7286:7571   */\n      pop\n        /* \"#utility.yul\":7194:7571   */\n      swap3\n      swap2\n      pop\n      pop\n      jump\t// out\n        /* \"#utility.yul\":7577:7890   */\n    tag_25:\n        /* \"#utility.yul\":7690:7694   */\n      0x00\n        /* \"#utility.yul\":7728:7730   */\n      0x20\n        /* \"#utility.yul\":7717:7726   */\n      dup3\n        /* \"#utility.yul\":7713:7731   */\n      add\n        /* \"#utility.yul\":7705:7731   */\n      swap1\n      pop\n        /* \"#utility.yul\":7777:7786   */\n      dup2\n        /* \"#utility.yul\":7771:7775   */\n      dup2\n        /* \"#utility.yul\":7767:7787   */\n      sub\n        /* \"#utility.yul\":7763:7764   */\n      0x00\n        /* \"#utility.yul\":7752:7761   */\n      dup4\n        /* \"#utility.yul\":7748:7765   */\n      add\n        /* \"#utility.yul\":7741:7788   */\n      mstore\n        /* \"#utility.yul\":7805:7883   */\n      tag_266\n        /* \"#utility.yul\":7878:7882   */\n      dup2\n        /* \"#utility.yul\":7869:7875   */\n      dup5\n        /* \"#utility.yul\":7805:7883   */\n      tag_165\n      jump\t// in\n    tag_266:\n        /* \"#utility.yul\":7797:7883   */\n      swap1\n      pop\n        /* \"#utility.yul\":7577:7890   */\n      swap3\n      swap2\n      pop\n      pop\n      jump\t// out\n        /* \"#utility.yul\":7896:8034   */\n    tag_166:\n        /* \"#utility.yul\":7987:7993   */\n      0x00\n        /* \"#utility.yul\":8021:8026   */\n      dup2\n        /* \"#utility.yul\":8015:8027   */\n      mload\n        /* \"#utility.yul\":8005:8027   */\n      swap1\n      pop\n        /* \"#utility.yul\":7896:8034   */\n      swap2\n      swap1\n      pop\n      jump\t// out\n        /* \"#utility.yul\":8040:8248   */\n    tag_167:\n        /* \"#utility.yul\":8163:8174   */\n      0x00\n        /* \"#utility.yul\":8197:8203   */\n      dup3\n        /* \"#utility.yul\":8192:8195   */\n      dup3\n        /* \"#utility.yul\":8185:8204   */\n      mstore\n        /* \"#utility.yul\":8237:8241   */\n      0x20\n        /* \"#utility.yul\":8232:8235   */\n      dup3\n        /* \"#utility.yul\":8228:8242   */\n      add\n        /* \"#utility.yul\":8213:8242   */\n      swap1\n      pop\n        /* \"#utility.yul\":8040:8248   */\n      swap3\n      swap2\n      pop\n      pop\n      jump\t// out\n        /* \"#utility.yul\":8254:8410   */\n    tag_168:\n        /* \"#utility.yul\":8345:8349   */\n      0x00\n        /* \"#utility.yul\":8368:8371   */\n      dup2\n        /* \"#utility.yul\":8360:8371   */\n      swap1\n      pop\n        /* \"#utility.yul\":8398:8402   */\n      0x20\n        /* \"#utility.yul\":8393:8396   */\n      dup3\n        /* \"#utility.yul\":8389:8403   */\n      add\n        /* \"#utility.yul\":8381:8403   */\n      swap1\n      pop\n        /* \"#utility.yul\":8254:8410   */\n      swap2\n      swap1\n      pop\n      jump\t// out\n        /* \"#utility.yul\":8464:9482   */\n    tag_169:\n        /* \"#utility.yul\":8571:8574   */\n      0x00\n        /* \"#utility.yul\":8607:8611   */\n      0x80\n        /* \"#utility.yul\":8602:8605   */\n      dup4\n        /* \"#utility.yul\":8598:8612   */\n      add\n        /* \"#utility.yul\":8696:8700   */\n      0x00\n        /* \"#utility.yul\":8689:8694   */\n      dup4\n        /* \"#utility.yul\":8685:8701   */\n      add\n        /* \"#utility.yul\":8679:8702   */\n      mload\n        /* \"#utility.yul\":8715:8778   */\n      tag_271\n        /* \"#utility.yul\":8772:8776   */\n      0x00\n        /* \"#utility.yul\":8767:8770   */\n      dup7\n        /* \"#utility.yul\":8763:8777   */\n      add\n        /* \"#utility.yul\":8749:8761   */\n      dup3\n        /* \"#utility.yul\":8715:8778   */\n      tag_158\n      jump\t// in\n    tag_271:\n        /* \"#utility.yul\":8622:8788   */\n      pop\n        /* \"#utility.yul\":8870:8874   */\n      0x20\n        /* \"#utility.yul\":8863:8868   */\n      dup4\n        /* \"#utility.yul\":8859:8875   */\n      add\n        /* \"#utility.yul\":8853:8876   */\n      mload\n        /* \"#utility.yul\":8923:8926   */\n      dup5\n        /* \"#utility.yul\":8917:8921   */\n      dup3\n        /* \"#utility.yul\":8913:8927   */\n      sub\n        /* \"#utility.yul\":8906:8910   */\n      0x20\n        /* \"#utility.yul\":8901:8904   */\n      dup7\n        /* \"#utility.yul\":8897:8911   */\n      add\n        /* \"#utility.yul\":8890:8928   */\n      mstore\n        /* \"#utility.yul\":8949:9022   */\n      tag_272\n        /* \"#utility.yul\":9017:9021   */\n      dup3\n        /* \"#utility.yul\":9003:9015   */\n      dup3\n        /* \"#utility.yul\":8949:9022   */\n      tag_162\n      jump\t// in\n    tag_272:\n        /* \"#utility.yul\":8941:9022   */\n      swap2\n      pop\n        /* \"#utility.yul\":8798:9033   */\n      pop\n        /* \"#utility.yul\":9116:9120   */\n      0x40\n        /* \"#utility.yul\":9109:9114   */\n      dup4\n        /* \"#utility.yul\":9105:9121   */\n      add\n        /* \"#utility.yul\":9099:9122   */\n      mload\n        /* \"#utility.yul\":9135:9198   */\n      tag_273\n        /* \"#utility.yul\":9192:9196   */\n      0x40\n        /* \"#utility.yul\":9187:9190   */\n      dup7\n        /* \"#utility.yul\":9183:9197   */\n      add\n        /* \"#utility.yul\":9169:9181   */\n      dup3\n        /* \"#utility.yul\":9135:9198   */\n      tag_158\n      jump\t// in\n    tag_273:\n        /* \"#utility.yul\":9043:9208   */\n      pop\n        /* \"#utility.yul\":9292:9296   */\n      0x60\n        /* \"#utility.yul\":9285:9290   */\n      dup4\n        /* \"#utility.yul\":9281:9297   */\n      add\n        /* \"#utility.yul\":9275:9298   */\n      mload\n        /* \"#utility.yul\":9345:9348   */\n      dup5\n        /* \"#utility.yul\":9339:9343   */\n      dup3\n        /* \"#utility.yul\":9335:9349   */\n      sub\n        /* \"#utility.yul\":9328:9332   */\n      0x60\n        /* \"#utility.yul\":9323:9326   */\n      dup7\n        /* \"#utility.yul\":9319:9333   */\n      add\n        /* \"#utility.yul\":9312:9350   */\n      mstore\n        /* \"#utility.yul\":9371:9444   */\n      tag_274\n        /* \"#utility.yul\":9439:9443   */\n      dup3\n        /* \"#utility.yul\":9425:9437   */\n      dup3\n        /* \"#utility.yul\":9371:9444   */\n      tag_162\n      jump\t// in\n    tag_274:\n        /* \"#utility.yul\":9363:9444   */\n      swap2\n      pop\n        /* \"#utility.yul\":9218:9455   */\n      pop\n        /* \"#utility.yul\":9472:9476   */\n      dup1\n        /* \"#utility.yul\":9465:9476   */\n      swap2\n      pop\n        /* \"#utility.yul\":8576:9482   */\n      pop\n        /* \"#utility.yul\":8464:9482   */\n      swap3\n      swap2\n      pop\n      pop\n      jump\t// out\n        /* \"#utility.yul\":9488:9740   */\n    tag_170:\n        /* \"#utility.yul\":9605:9615   */\n      0x00\n        /* \"#utility.yul\":9640:9734   */\n      tag_276\n        /* \"#utility.yul\":9730:9733   */\n      dup4\n        /* \"#utility.yul\":9722:9728   */\n      dup4\n        /* \"#utility.yul\":9640:9734   */\n      tag_169\n      jump\t// in\n    tag_276:\n        /* \"#utility.yul\":9626:9734   */\n      swap1\n      pop\n        /* \"#utility.yul\":9488:9740   */\n      swap3\n      swap2\n      pop\n      pop\n      jump\t// out\n        /* \"#utility.yul\":9746:9883   */\n    tag_171:\n        /* \"#utility.yul\":9840:9844   */\n      0x00\n        /* \"#utility.yul\":9872:9876   */\n      0x20\n        /* \"#utility.yul\":9867:9870   */\n      dup3\n        /* \"#utility.yul\":9863:9877   */\n      add\n        /* \"#utility.yul\":9855:9877   */\n      swap1\n      pop\n        /* \"#utility.yul\":9746:9883   */\n      swap2\n      swap1\n      pop\n      jump\t// out\n        /* \"#utility.yul\":9941:11044   */\n    tag_172:\n        /* \"#utility.yul\":10108:10111   */\n      0x00\n        /* \"#utility.yul\":10137:10215   */\n      tag_279\n        /* \"#utility.yul\":10209:10214   */\n      dup3\n        /* \"#utility.yul\":10137:10215   */\n      tag_166\n      jump\t// in\n    tag_279:\n        /* \"#utility.yul\":10231:10341   */\n      tag_280\n        /* \"#utility.yul\":10334:10340   */\n      dup2\n        /* \"#utility.yul\":10329:10332   */\n      dup6\n        /* \"#utility.yul\":10231:10341   */\n      tag_167\n      jump\t// in\n    tag_280:\n        /* \"#utility.yul\":10224:10341   */\n      swap4\n      pop\n        /* \"#utility.yul\":10367:10370   */\n      dup4\n        /* \"#utility.yul\":10412:10416   */\n      0x20\n        /* \"#utility.yul\":10404:10410   */\n      dup3\n        /* \"#utility.yul\":10400:10417   */\n      mul\n        /* \"#utility.yul\":10395:10398   */\n      dup6\n        /* \"#utility.yul\":10391:10418   */\n      add\n        /* \"#utility.yul\":10442:10522   */\n      tag_281\n        /* \"#utility.yul\":10516:10521   */\n      dup6\n        /* \"#utility.yul\":10442:10522   */\n      tag_168\n      jump\t// in\n    tag_281:\n        /* \"#utility.yul\":10545:10552   */\n      dup1\n        /* \"#utility.yul\":10576:10577   */\n      0x00\n        /* \"#utility.yul\":10561:10999   */\n    tag_282:\n        /* \"#utility.yul\":10586:10592   */\n      dup6\n        /* \"#utility.yul\":10583:10584   */\n      dup2\n        /* \"#utility.yul\":10580:10593   */\n      lt\n        /* \"#utility.yul\":10561:10999   */\n      iszero\n      tag_284\n      jumpi\n        /* \"#utility.yul\":10657:10666   */\n      dup5\n        /* \"#utility.yul\":10651:10655   */\n      dup5\n        /* \"#utility.yul\":10647:10667   */\n      sub\n        /* \"#utility.yul\":10642:10645   */\n      dup10\n        /* \"#utility.yul\":10635:10668   */\n      mstore\n        /* \"#utility.yul\":10708:10714   */\n      dup2\n        /* \"#utility.yul\":10702:10715   */\n      mload\n        /* \"#utility.yul\":10736:10848   */\n      tag_285\n        /* \"#utility.yul\":10843:10847   */\n      dup6\n        /* \"#utility.yul\":10828:10841   */\n      dup3\n        /* \"#utility.yul\":10736:10848   */\n      tag_170\n      jump\t// in\n    tag_285:\n        /* \"#utility.yul\":10728:10848   */\n      swap5\n      pop\n        /* \"#utility.yul\":10871:10955   */\n      tag_286\n        /* \"#utility.yul\":10948:10954   */\n      dup4\n        /* \"#utility.yul\":10871:10955   */\n      tag_171\n      jump\t// in\n    tag_286:\n        /* \"#utility.yul\":10861:10955   */\n      swap3\n      pop\n        /* \"#utility.yul\":10984:10988   */\n      0x20\n        /* \"#utility.yul\":10979:10982   */\n      dup11\n        /* \"#utility.yul\":10975:10989   */\n      add\n        /* \"#utility.yul\":10968:10989   */\n      swap10\n      pop\n        /* \"#utility.yul\":10621:10999   */\n      pop\n        /* \"#utility.yul\":10608:10609   */\n      0x01\n        /* \"#utility.yul\":10605:10606   */\n      dup2\n        /* \"#utility.yul\":10601:10610   */\n      add\n        /* \"#utility.yul\":10596:10610   */\n      swap1\n      pop\n        /* \"#utility.yul\":10561:10999   */\n      jump(tag_282)\n    tag_284:\n        /* \"#utility.yul\":10565:10579   */\n      pop\n        /* \"#utility.yul\":11015:11019   */\n      dup3\n        /* \"#utility.yul\":11008:11019   */\n      swap8\n      pop\n        /* \"#utility.yul\":11035:11038   */\n      dup8\n        /* \"#utility.yul\":11028:11038   */\n      swap6\n      pop\n        /* \"#utility.yul\":10113:11044   */\n      pop\n      pop\n      pop\n      pop\n      pop\n        /* \"#utility.yul\":9941:11044   */\n      swap3\n      swap2\n      pop\n      pop\n      jump\t// out\n        /* \"#utility.yul\":11050:11519   */\n    tag_41:\n        /* \"#utility.yul\":11241:11245   */\n      0x00\n        /* \"#utility.yul\":11279:11281   */\n      0x20\n        /* \"#utility.yul\":11268:11277   */\n      dup3\n        /* \"#utility.yul\":11264:11282   */\n      add\n        /* \"#utility.yul\":11256:11282   */\n      swap1\n      pop\n        /* \"#utility.yul\":11328:11337   */\n      dup2\n        /* \"#utility.yul\":11322:11326   */\n      dup2\n        /* \"#utility.yul\":11318:11338   */\n      sub\n        /* \"#utility.yul\":11314:11315   */\n      0x00\n        /* \"#utility.yul\":11303:11312   */\n      dup4\n        /* \"#utility.yul\":11299:11316   */\n      add\n        /* \"#utility.yul\":11292:11339   */\n      mstore\n        /* \"#utility.yul\":11356:11512   */\n      tag_288\n        /* \"#utility.yul\":11507:11511   */\n      dup2\n        /* \"#utility.yul\":11498:11504   */\n      dup5\n        /* \"#utility.yul\":11356:11512   */\n      tag_172\n      jump\t// in\n    tag_288:\n        /* \"#utility.yul\":11348:11512   */\n      swap1\n      pop\n        /* \"#utility.yul\":11050:11519   */\n      swap3\n      swap2\n      pop\n      pop\n      jump\t// out\n        /* \"#utility.yul\":11525:11705   */\n    tag_173:\n        /* \"#utility.yul\":11573:11650   */\n      0x4e487b7100000000000000000000000000000000000000000000000000000000\n        /* \"#utility.yul\":11570:11571   */\n      0x00\n        /* \"#utility.yul\":11563:11651   */\n      mstore\n        /* \"#utility.yul\":11670:11674   */\n      0x22\n        /* \"#utility.yul\":11667:11668   */\n      0x04\n        /* \"#utility.yul\":11660:11675   */\n      mstore\n        /* \"#utility.yul\":11694:11698   */\n      0x24\n        /* \"#utility.yul\":11691:11692   */\n      0x00\n        /* \"#utility.yul\":11684:11699   */\n      revert\n        /* \"#utility.yul\":11711:12031   */\n    tag_59:\n        /* \"#utility.yul\":11755:11761   */\n      0x00\n        /* \"#utility.yul\":11792:11793   */\n      0x02\n        /* \"#utility.yul\":11786:11790   */\n      dup3\n        /* \"#utility.yul\":11782:11794   */\n      div\n        /* \"#utility.yul\":11772:11794   */\n      swap1\n      pop\n        /* \"#utility.yul\":11839:11840   */\n      0x01\n        /* \"#utility.yul\":11833:11837   */\n      dup3\n        /* \"#utility.yul\":11829:11841   */\n      and\n        /* \"#utility.yul\":11860:11878   */\n      dup1\n        /* \"#utility.yul\":11850:11931   */\n      tag_291\n      jumpi\n        /* \"#utility.yul\":11916:11920   */\n      0x7f\n        /* \"#utility.yul\":11908:11914   */\n      dup3\n        /* \"#utility.yul\":11904:11921   */\n      and\n        /* \"#utility.yul\":11894:11921   */\n      swap2\n      pop\n        /* \"#utility.yul\":11850:11931   */\n    tag_291:\n        /* \"#utility.yul\":11978:11980   */\n      0x20\n        /* \"#utility.yul\":11970:11976   */\n      dup3\n        /* \"#utility.yul\":11967:11981   */\n      lt\n        /* \"#utility.yul\":11947:11965   */\n      dup2\n        /* \"#utility.yul\":11944:11982   */\n      sub\n        /* \"#utility.yul\":11941:12025   */\n      tag_292\n      jumpi\n        /* \"#utility.yul\":11997:12015   */\n      tag_293\n      tag_173\n      jump\t// in\n    tag_293:\n        /* \"#utility.yul\":11941:12025   */\n    tag_292:\n        /* \"#utility.yul\":11762:12031   */\n      pop\n        /* \"#utility.yul\":11711:12031   */\n      swap2\n      swap1\n      pop\n      jump\t// out\n        /* \"#utility.yul\":12037:12178   */\n    tag_174:\n        /* \"#utility.yul\":12086:12090   */\n      0x00\n        /* \"#utility.yul\":12109:12112   */\n      dup2\n        /* \"#utility.yul\":12101:12112   */\n      swap1\n      pop\n        /* \"#utility.yul\":12132:12135   */\n      dup2\n        /* \"#utility.yul\":12129:12130   */\n      0x00\n        /* \"#utility.yul\":12122:12136   */\n      mstore\n        /* \"#utility.yul\":12166:12170   */\n      0x20\n        /* \"#utility.yul\":12163:12164   */\n      0x00\n        /* \"#utility.yul\":12153:12171   */\n      keccak256\n        /* \"#utility.yul\":12145:12171   */\n      swap1\n      pop\n        /* \"#utility.yul\":12037:12178   */\n      swap2\n      swap1\n      pop\n      jump\t// out\n        /* \"#utility.yul\":12184:12277   */\n    tag_175:\n        /* \"#utility.yul\":12221:12227   */\n      0x00\n        /* \"#utility.yul\":12268:12270   */\n      0x20\n        /* \"#utility.yul\":12263:12265   */\n      0x1f\n        /* \"#utility.yul\":12256:12261   */\n      dup4\n        /* \"#utility.yul\":12252:12266   */\n      add\n        /* \"#utility.yul\":12248:12271   */\n      div\n        /* \"#utility.yul\":12238:12271   */\n      swap1\n      pop\n        /* \"#utility.yul\":12184:12277   */\n      swap2\n      swap1\n      pop\n      jump\t// out\n        /* \"#utility.yul\":12283:12390   */\n    tag_176:\n        /* \"#utility.yul\":12327:12335   */\n      0x00\n        /* \"#utility.yul\":12377:12382   */\n      dup3\n        /* \"#utility.yul\":12371:12375   */\n      dup3\n        /* \"#utility.yul\":12367:12383   */\n      shl\n        /* \"#utility.yul\":12346:12383   */\n      swap1\n      pop\n        /* \"#utility.yul\":12283:12390   */\n      swap3\n      swap2\n      pop\n      pop\n      jump\t// out\n        /* \"#utility.yul\":12396:12789   */\n    tag_177:\n        /* \"#utility.yul\":12465:12471   */\n      0x00\n        /* \"#utility.yul\":12515:12516   */\n      0x08\n        /* \"#utility.yul\":12503:12513   */\n      dup4\n        /* \"#utility.yul\":12499:12517   */\n      mul\n        /* \"#utility.yul\":12538:12635   */\n      tag_298\n        /* \"#utility.yul\":12568:12634   */\n      0xffffffffffffffffffffffffffffffffffffffffffffffffffffffffffffffff\n        /* \"#utility.yul\":12557:12566   */\n      dup3\n        /* \"#utility.yul\":12538:12635   */\n      tag_176\n      jump\t// in\n    tag_298:\n        /* \"#utility.yul\":12656:12695   */\n      tag_299\n        /* \"#utility.yul\":12686:12694   */\n      dup7\n        /* \"#utility.yul\":12675:12684   */\n      dup4\n        /* \"#utility.yul\":12656:12695   */\n      tag_176\n      jump\t// in\n    tag_299:\n        /* \"#utility.yul\":12644:12695   */\n      swap6\n      pop\n        /* \"#utility.yul\":12728:12732   */\n      dup1\n        /* \"#utility.yul\":12724:12733   */\n      not\n        /* \"#utility.yul\":12717:12722   */\n      dup5\n        /* \"#utility.yul\":12713:12734   */\n      and\n        /* \"#utility.yul\":12704:12734   */\n      swap4\n      pop\n        /* \"#utility.yul\":12777:12781   */\n      dup1\n        /* \"#utility.yul\":12767:12775   */\n      dup7\n        /* \"#utility.yul\":12763:12782   */\n      and\n        /* \"#utility.yul\":12756:12761   */\n      dup5\n        /* \"#utility.yul\":12753:12783   */\n      or\n        /* \"#utility.yul\":12743:12783   */\n      swap3\n      pop\n        /* \"#utility.yul\":12472:12789   */\n      pop\n      pop\n        /* \"#utility.yul\":12396:12789   */\n      swap4\n      swap3\n      pop\n      pop\n      pop\n      jump\t// out\n        /* \"#utility.yul\":12795:12855   */\n    tag_178:\n        /* \"#utility.yul\":12823:12826   */\n      0x00\n        /* \"#utility.yul\":12844:12849   */\n      dup2\n        /* \"#utility.yul\":12837:12849   */\n      swap1\n      pop\n        /* \"#utility.yul\":12795:12855   */\n      swap2\n      swap1\n      pop\n      jump\t// out\n        /* \"#utility.yul\":12861:13003   */\n    tag_179:\n        /* \"#utility.yul\":12911:12920   */\n      0x00\n        /* \"#utility.yul\":12944:12997   */\n      tag_302\n        /* \"#utility.yul\":12962:12996   */\n      tag_303\n        /* \"#utility.yul\":12971:12995   */\n      tag_304\n        /* \"#utility.yul\":12989:12994   */\n      dup5\n        /* \"#utility.yul\":12971:12995   */\n      tag_145\n      jump\t// in\n    tag_304:\n        /* \"#utility.yul\":12962:12996   */\n      tag_178\n      jump\t// in\n    tag_303:\n        /* \"#utility.yul\":12944:12997   */\n      tag_145\n      jump\t// in\n    tag_302:\n        /* \"#utility.yul\":12931:12997   */\n      swap1\n      pop\n        /* \"#utility.yul\":12861:13003   */\n      swap2\n      swap1\n      pop\n      jump\t// out\n        /* \"#utility.yul\":13009:13084   */\n    tag_180:\n        /* \"#utility.yul\":13052:13055   */\n      0x00\n        /* \"#utility.yul\":13073:13078   */\n      dup2\n        /* \"#utility.yul\":13066:13078   */\n      swap1\n      pop\n        /* \"#utility.yul\":13009:13084   */\n      swap2\n      swap1\n      pop\n      jump\t// out\n        /* \"#utility.yul\":13090:13359   */\n    tag_181:\n        /* \"#utility.yul\":13200:13239   */\n      tag_307\n        /* \"#utility.yul\":13231:13238   */\n      dup4\n        /* \"#utility.yul\":13200:13239   */\n      tag_179\n      jump\t// in\n    tag_307:\n        /* \"#utility.yul\":13261:13352   */\n      tag_308\n        /* \"#utility.yul\":13310:13351   */\n      tag_309\n        /* \"#utility.yul\":13334:13350   */\n      dup3\n        /* \"#utility.yul\":13310:13351   */\n      tag_180\n      jump\t// in\n    tag_309:\n        /* \"#utility.yul\":13302:13308   */\n      dup5\n        /* \"#utility.yul\":13295:13299   */\n      dup5\n        /* \"#utility.yul\":13289:13300   */\n      sload\n        /* \"#utility.yul\":13261:13352   */\n      tag_177\n      jump\t// in\n    tag_308:\n        /* \"#utility.yul\":13255:13259   */\n      dup3\n        /* \"#utility.yul\":13248:13353   */\n      sstore\n        /* \"#utility.yul\":13166:13359   */\n      pop\n        /* \"#utility.yul\":13090:13359   */\n      pop\n      pop\n      pop\n      jump\t// out\n        /* \"#utility.yul\":13365:13438   */\n    tag_182:\n        /* \"#utility.yul\":13410:13413   */\n      0x00\n        /* \"#utility.yul\":13365:13438   */\n      swap1\n      jump\t// out\n        /* \"#utility.yul\":13444:13633   */\n    tag_183:\n        /* \"#utility.yul\":13521:13553   */\n      tag_312\n      tag_182\n      jump\t// in\n    tag_312:\n        /* \"#utility.yul\":13562:13627   */\n      tag_313\n        /* \"#utility.yul\":13620:13626   */\n      dup2\n        /* \"#utility.yul\":13612:13618   */\n      dup5\n        /* \"#utility.yul\":13606:13610   */\n      dup5\n        /* \"#utility.yul\":13562:13627   */\n      tag_181\n      jump\t// in\n    tag_313:\n        /* \"#utility.yul\":13497:13633   */\n      pop\n        /* \"#utility.yul\":13444:13633   */\n      pop\n      pop\n      jump\t// out\n        /* \"#utility.yul\":13639:13825   */\n    tag_184:\n        /* \"#utility.yul\":13699:13819   */\n    tag_315:\n        /* \"#utility.yul\":13716:13719   */\n      dup2\n        /* \"#utility.yul\":13709:13714   */\n      dup2\n        /* \"#utility.yul\":13706:13720   */\n      lt\n        /* \"#utility.yul\":13699:13819   */\n      iszero\n      tag_317\n      jumpi\n        /* \"#utility.yul\":13770:13809   */\n      tag_318\n        /* \"#utility.yul\":13807:13808   */\n      0x00\n        /* \"#utility.yul\":13800:13805   */\n      dup3\n        /* \"#utility.yul\":13770:13809   */\n      tag_183\n      jump\t// in\n    tag_318:\n        /* \"#utility.yul\":13743:13744   */\n      0x01\n        /* \"#utility.yul\":13736:13741   */\n      dup2\n        /* \"#utility.yul\":13732:13745   */\n      add\n        /* \"#utility.yul\":13723:13745   */\n      swap1\n      pop\n        /* \"#utility.yul\":13699:13819   */\n      jump(tag_315)\n    tag_317:\n        /* \"#utility.yul\":13639:13825   */\n      pop\n      pop\n      jump\t// out\n        /* \"#utility.yul\":13831:14374   */\n    tag_185:\n        /* \"#utility.yul\":13932:13934   */\n      0x1f\n        /* \"#utility.yul\":13927:13930   */\n      dup3\n        /* \"#utility.yul\":13924:13935   */\n      gt\n        /* \"#utility.yul\":13921:14367   */\n      iszero\n      tag_320\n      jumpi\n        /* \"#utility.yul\":13966:14004   */\n      tag_321\n        /* \"#utility.yul\":13998:14003   */\n      dup2\n        /* \"#utility.yul\":13966:14004   */\n      tag_174\n      jump\t// in\n    tag_321:\n        /* \"#utility.yul\":14050:14079   */\n      tag_322\n        /* \"#utility.yul\":14068:14078   */\n      dup5\n        /* \"#utility.yul\":14050:14079   */\n      tag_175\n      jump\t// in\n    tag_322:\n        /* \"#utility.yul\":14040:14048   */\n      dup2\n        /* \"#utility.yul\":14036:14080   */\n      add\n        /* \"#utility.yul\":14233:14235   */\n      0x20\n        /* \"#utility.yul\":14221:14231   */\n      dup6\n        /* \"#utility.yul\":14218:14236   */\n      lt\n        /* \"#utility.yul\":14215:14264   */\n      iszero\n      tag_323\n      jumpi\n        /* \"#utility.yul\":14254:14262   */\n      dup2\n        /* \"#utility.yul\":14239:14262   */\n      swap1\n      pop\n        /* \"#utility.yul\":14215:14264   */\n    tag_323:\n        /* \"#utility.yul\":14277:14357   */\n      tag_324\n        /* \"#utility.yul\":14333:14355   */\n      tag_325\n        /* \"#utility.yul\":14351:14354   */\n      dup6\n        /* \"#utility.yul\":14333:14355   */\n      tag_175\n      jump\t// in\n    tag_325:\n        /* \"#utility.yul\":14323:14331   */\n      dup4\n        /* \"#utility.yul\":14319:14356   */\n      add\n        /* \"#utility.yul\":14306:14317   */\n      dup3\n        /* \"#utility.yul\":14277:14357   */\n      tag_184\n      jump\t// in\n    tag_324:\n        /* \"#utility.yul\":13936:14367   */\n      pop\n      pop\n        /* \"#utility.yul\":13921:14367   */\n    tag_320:\n        /* \"#utility.yul\":13831:14374   */\n      pop\n      pop\n      pop\n      jump\t// out\n        /* \"#utility.yul\":14380:14497   */\n    tag_186:\n        /* \"#utility.yul\":14434:14442   */\n      0x00\n        /* \"#utility.yul\":14484:14489   */\n      dup3\n        /* \"#utility.yul\":14478:14482   */\n      dup3\n        /* \"#utility.yul\":14474:14490   */\n      shr\n        /* \"#utility.yul\":14453:14490   */\n      swap1\n      pop\n        /* \"#utility.yul\":14380:14497   */\n      swap3\n      swap2\n      pop\n      pop\n      jump\t// out\n        /* \"#utility.yul\":14503:14672   */\n    tag_187:\n        /* \"#utility.yul\":14547:14553   */\n      0x00\n        /* \"#utility.yul\":14580:14631   */\n      tag_328\n        /* \"#utility.yul\":14628:14629   */\n      0x00\n        /* \"#utility.yul\":14624:14630   */\n      not\n        /* \"#utility.yul\":14616:14621   */\n      dup5\n        /* \"#utility.yul\":14613:14614   */\n      0x08\n        /* \"#utility.yul\":14609:14622   */\n      mul\n        /* \"#utility.yul\":14580:14631   */\n      tag_186\n      jump\t// in\n    tag_328:\n        /* \"#utility.yul\":14576:14632   */\n      not\n        /* \"#utility.yul\":14661:14665   */\n      dup1\n        /* \"#utility.yul\":14655:14659   */\n      dup4\n        /* \"#utility.yul\":14651:14666   */\n      and\n        /* \"#utility.yul\":14641:14666   */\n      swap2\n      pop\n        /* \"#utility.yul\":14554:14672   */\n      pop\n        /* \"#utility.yul\":14503:14672   */\n      swap3\n      swap2\n      pop\n      pop\n      jump\t// out\n        /* \"#utility.yul\":14677:14972   */\n    tag_188:\n        /* \"#utility.yul\":14753:14757   */\n      0x00\n        /* \"#utility.yul\":14899:14928   */\n      tag_330\n        /* \"#utility.yul\":14924:14927   */\n      dup4\n        /* \"#utility.yul\":14918:14922   */\n      dup4\n        /* \"#utility.yul\":14899:14928   */\n      tag_187\n      jump\t// in\n    tag_330:\n        /* \"#utility.yul\":14891:14928   */\n      swap2\n      pop\n        /* \"#utility.yul\":14961:14964   */\n      dup3\n        /* \"#utility.yul\":14958:14959   */\n      0x02\n        /* \"#utility.yul\":14954:14965   */\n      mul\n        /* \"#utility.yul\":14948:14952   */\n      dup3\n        /* \"#utility.yul\":14945:14966   */\n      or\n        /* \"#utility.yul\":14937:14966   */\n      swap1\n      pop\n        /* \"#utility.yul\":14677:14972   */\n      swap3\n      swap2\n      pop\n      pop\n      jump\t// out\n        /* \"#utility.yul\":14977:16372   */\n    tag_51:\n        /* \"#utility.yul\":15094:15131   */\n      tag_332\n        /* \"#utility.yul\":15127:15130   */\n      dup3\n        /* \"#utility.yul\":15094:15131   */\n      tag_159\n      jump\t// in\n    tag_332:\n        /* \"#utility.yul\":15196:15214   */\n      0xffffffffffffffff\n        /* \"#utility.yul\":15188:15194   */\n      dup2\n        /* \"#utility.yul\":15185:15215   */\n      gt\n        /* \"#utility.yul\":15182:15238   */\n      iszero\n      tag_333\n      jumpi\n        /* \"#utility.yul\":15218:15236   */\n      tag_334\n      tag_151\n      jump\t// in\n    tag_334:\n        /* \"#utility.yul\":15182:15238   */\n    tag_333:\n        /* \"#utility.yul\":15262:15300   */\n      tag_335\n        /* \"#utility.yul\":15294:15298   */\n      dup3\n        /* \"#utility.yul\":15288:15299   */\n      sload\n        /* \"#utility.yul\":15262:15300   */\n      tag_59\n      jump\t// in\n    tag_335:\n        /* \"#utility.yul\":15347:15414   */\n      tag_336\n        /* \"#utility.yul\":15407:15413   */\n      dup3\n        /* \"#utility.yul\":15399:15405   */\n      dup3\n        /* \"#utility.yul\":15393:15397   */\n      dup6\n        /* \"#utility.yul\":15347:15414   */\n      tag_185\n      jump\t// in\n    tag_336:\n        /* \"#utility.yul\":15441:15442   */\n      0x00\n        /* \"#utility.yul\":15465:15469   */\n      0x20\n        /* \"#utility.yul\":15452:15469   */\n      swap1\n      pop\n        /* \"#utility.yul\":15497:15499   */\n      0x1f\n        /* \"#utility.yul\":15489:15495   */\n      dup4\n        /* \"#utility.yul\":15486:15500   */\n      gt\n        /* \"#utility.yul\":15514:15515   */\n      0x01\n        /* \"#utility.yul\":15509:16127   */\n      dup2\n      eq\n      tag_338\n      jumpi\n        /* \"#utility.yul\":16171:16172   */\n      0x00\n        /* \"#utility.yul\":16188:16194   */\n      dup5\n        /* \"#utility.yul\":16185:16262   */\n      iszero\n      tag_339\n      jumpi\n        /* \"#utility.yul\":16237:16246   */\n      dup3\n        /* \"#utility.yul\":16232:16235   */\n      dup8\n        /* \"#utility.yul\":16228:16247   */\n      add\n        /* \"#utility.yul\":16222:16248   */\n      mload\n        /* \"#utility.yul\":16213:16248   */\n      swap1\n      pop\n        /* \"#utility.yul\":16185:16262   */\n    tag_339:\n        /* \"#utility.yul\":16288:16355   */\n      tag_340\n        /* \"#utility.yul\":16348:16354   */\n      dup6\n        /* \"#utility.yul\":16341:16346   */\n      dup3\n        /* \"#utility.yul\":16288:16355   */\n      tag_188\n      jump\t// in\n    tag_340:\n        /* \"#utility.yul\":16282:16286   */\n      dup7\n        /* \"#utility.yul\":16275:16356   */\n      sstore\n        /* \"#utility.yul\":16144:16366   */\n      pop\n        /* \"#utility.yul\":15479:16366   */\n      jump(tag_337)\n        /* \"#utility.yul\":15509:16127   */\n    tag_338:\n        /* \"#utility.yul\":15561:15565   */\n      0x1f\n        /* \"#utility.yul\":15557:15566   */\n      not\n        /* \"#utility.yul\":15549:15555   */\n      dup5\n        /* \"#utility.yul\":15545:15567   */\n      and\n        /* \"#utility.yul\":15595:15632   */\n      tag_341\n        /* \"#utility.yul\":15627:15631   */\n      dup7\n        /* \"#utility.yul\":15595:15632   */\n      tag_174\n      jump\t// in\n    tag_341:\n        /* \"#utility.yul\":15654:15655   */\n      0x00\n        /* \"#utility.yul\":15668:15876   */\n    tag_342:\n        /* \"#utility.yul\":15682:15689   */\n      dup3\n        /* \"#utility.yul\":15679:15680   */\n      dup2\n        /* \"#utility.yul\":15676:15690   */\n      lt\n        /* \"#utility.yul\":15668:15876   */\n      iszero\n      tag_344\n      jumpi\n        /* \"#utility.yul\":15761:15770   */\n      dup5\n        /* \"#utility.yul\":15756:15759   */\n      dup10\n        /* \"#utility.yul\":15752:15771   */\n      add\n        /* \"#utility.yul\":15746:15772   */\n      mload\n        /* \"#utility.yul\":15738:15744   */\n      dup3\n        /* \"#utility.yul\":15731:15773   */\n      sstore\n        /* \"#utility.yul\":15812:15813   */\n      0x01\n        /* \"#utility.yul\":15804:15810   */\n      dup3\n        /* \"#utility.yul\":15800:15814   */\n      add\n        /* \"#utility.yul\":15790:15814   */\n      swap2\n      pop\n        /* \"#utility.yul\":15859:15861   */\n      0x20\n        /* \"#utility.yul\":15848:15857   */\n      dup6\n        /* \"#utility.yul\":15844:15862   */\n      add\n        /* \"#utility.yul\":15831:15862   */\n      swap5\n      pop\n        /* \"#utility.yul\":15705:15709   */\n      0x20\n        /* \"#utility.yul\":15702:15703   */\n      dup2\n        /* \"#utility.yul\":15698:15710   */\n      add\n        /* \"#utility.yul\":15693:15710   */\n      swap1\n      pop\n        /* \"#utility.yul\":15668:15876   */\n      jump(tag_342)\n    tag_344:\n        /* \"#utility.yul\":15904:15910   */\n      dup7\n        /* \"#utility.yul\":15895:15902   */\n      dup4\n        /* \"#utility.yul\":15892:15911   */\n      lt\n        /* \"#utility.yul\":15889:16068   */\n      iszero\n      tag_345\n      jumpi\n        /* \"#utility.yul\":15962:15971   */\n      dup5\n        /* \"#utility.yul\":15957:15960   */\n      dup10\n        /* \"#utility.yul\":15953:15972   */\n      add\n        /* \"#utility.yul\":15947:15973   */\n      mload\n        /* \"#utility.yul\":16005:16053   */\n      tag_346\n        /* \"#utility.yul\":16047:16051   */\n      0x1f\n        /* \"#utility.yul\":16039:16045   */\n      dup10\n        /* \"#utility.yul\":16035:16052   */\n      and\n        /* \"#utility.yul\":16024:16033   */\n      dup3\n        /* \"#utility.yul\":16005:16053   */\n      tag_187\n      jump\t// in\n    tag_346:\n        /* \"#utility.yul\":15997:16003   */\n      dup4\n        /* \"#utility.yul\":15990:16054   */\n      sstore\n        /* \"#utility.yul\":15912:16068   */\n      pop\n        /* \"#utility.yul\":15889:16068   */\n    tag_345:\n        /* \"#utility.yul\":16114:16115   */\n      0x01\n        /* \"#utility.yul\":16110:16111   */\n      0x02\n        /* \"#utility.yul\":16102:16108   */\n      dup9\n        /* \"#utility.yul\":16098:16112   */\n      mul\n        /* \"#utility.yul\":16094:16116   */\n      add\n        /* \"#utility.yul\":16088:16092   */\n      dup9\n        /* \"#utility.yul\":16081:16117   */\n      sstore\n        /* \"#utility.yul\":15516:16127   */\n      pop\n      pop\n      pop\n        /* \"#utility.yul\":15479:16366   */\n    tag_337:\n      pop\n        /* \"#utility.yul\":15069:16372   */\n      pop\n      pop\n      pop\n        /* \"#utility.yul\":14977:16372   */\n      pop\n      pop\n      jump\t// out\n\n    auxdata: 0xa26469706673582212209c5176e1dd0b7ae36ef0eec0557811cb1812993cf1ed8b0e6d64e70c7d954dca64736f6c63430008120033\n}\n",
				"bytecode": {
					"linkReferences": {},
					"object": "608060405234801561001057600080fd5b50611730806100206000396000f3fe608060405234801561001057600080fd5b50600436106100885760003560e01c80639fec86261161005b5780639fec862614610115578063ad8364a414610131578063c731f9471461014d578063f1d064b31461016957610088565b80633b4598b11461008d578063448e1bed146100a9578063674271cd146100c95780639db1e7da146100f9575b600080fd5b6100a760048036038101906100a29190611082565b610187565b005b6100b1610327565b6040516100c0939291906111e9565b60405180910390f35b6100e360048036038101906100de9190611235565b610722565b6040516100f091906112ac565b60405180910390f35b610113600480360381019061010e9190611082565b610831565b005b61012f600480360381019061012a9190611082565b6109a9565b005b61014b60048036038101906101469190611082565b610b20565b005b61016760048036038101906101629190611082565b610c98565b005b610171610d33565b60405161017e91906113fa565b60405180910390f35b6060605a82106101ce576040518060400160405280600181526020017f41000000000000000000000000000000000000000000000000000000000000008152509050610293565b60508210610213576040518060400160405280600181526020017f42000000000000000000000000000000000000000000000000000000000000008152509050610292565b60468210610258576040518060400160405280600181526020017f43000000000000000000000000000000000000000000000000000000000000008152509050610291565b6040518060400160405280600181526020017f460000000000000000000000000000000000000000000000000000000000000081525090505b5b5b600c60405180608001604052808681526020018581526020018481526020018381525090806001815401808255809150506001900390600052602060002090600402016000909190919091506000820151816000015560208201518160010190816102fe9190611628565b5060408201518160020155606082015181600301908161031e9190611628565b50505050505050565b61032f610eca565b610337610eca565b61033f610eca565b600060046008826040518060800160405290816000820154815260200160018201805461036b9061144b565b80601f01602080910402602001604051908101604052809291908181526020018280546103979061144b565b80156103e45780601f106103b9576101008083540402835291602001916103e4565b820191906000526020600020905b8154815290600101906020018083116103c757829003601f168201915b50505050508152602001600282015481526020016003820180546104079061144b565b80601f01602080910402602001604051908101604052809291908181526020018280546104339061144b565b80156104805780601f1061045557610100808354040283529160200191610480565b820191906000526020600020905b81548152906001019060200180831161046357829003601f168201915b505050505081525050925081604051806080016040529081600082015481526020016001820180546104b19061144b565b80601f01602080910402602001604051908101604052809291908181526020018280546104dd9061144b565b801561052a5780601f106104ff5761010080835404028352916020019161052a565b820191906000526020600020905b81548152906001019060200180831161050d57829003601f168201915b505050505081526020016002820154815260200160038201805461054d9061144b565b80601f01602080910402602001604051908101604052809291908181526020018280546105799061144b565b80156105c65780601f1061059b576101008083540402835291602001916105c6565b820191906000526020600020905b8154815290600101906020018083116105a957829003601f168201915b505050505081525050915080604051806080016040529081600082015481526020016001820180546105f79061144b565b80601f01602080910402602001604051908101604052809291908181526020018280546106239061144b565b80156106705780601f1061064557610100808354040283529160200191610670565b820191906000526020600020905b81548152906001019060200180831161065357829003601f168201915b50505050508152602001600282015481526020016003820180546106939061144b565b80601f01602080910402602001604051908101604052809291908181526020018280546106bf9061144b565b801561070c5780601f106106e15761010080835404028352916020019161070c565b820191906000526020600020905b8154815290600101906020018083116106ef57829003601f168201915b5050505050815250509050925092509250909192565b6060605a8210610769576040518060400160405280600181526020017f4100000000000000000000000000000000000000000000000000000000000000815250905061082c565b605082106107ae576040518060400160405280600181526020017f4200000000000000000000000000000000000000000000000000000000000000815250905061082c565b604682106107f3576040518060400160405280600181526020017f4300000000000000000000000000000000000000000000000000000000000000815250905061082c565b6040518060400160405280600181526020017f460000000000000000000000000000000000000000000000000000000000000081525090505b919050565b6060605a8210610878576040518060400160405280600181526020017f4100000000000000000000000000000000000000000000000000000000000000815250905061093d565b605082106108bd576040518060400160405280600181526020017f4200000000000000000000000000000000000000000000000000000000000000815250905061093c565b60468210610902576040518060400160405280600181526020017f4300000000000000000000000000000000000000000000000000000000000000815250905061093b565b6040518060400160405280600181526020017f460000000000000000000000000000000000000000000000000000000000000081525090505b5b5b604051806080016040528085815260200184815260200183815260200182815250600460008201518160000155602082015181600101908161097f9190611628565b5060408201518160020155606082015181600301908161099f9190611628565b5090505050505050565b6060605a82106109f0576040518060400160405280600181526020017f41000000000000000000000000000000000000000000000000000000000000008152509050610ab5565b60508210610a35576040518060400160405280600181526020017f42000000000000000000000000000000000000000000000000000000000000008152509050610ab4565b60468210610a7a576040518060400160405280600181526020017f43000000000000000000000000000000000000000000000000000000000000008152509050610ab3565b6040518060400160405280600181526020017f460000000000000000000000000000000000000000000000000000000000000081525090505b5b5b60405180608001604052808581526020018481526020018381526020018281525060008082015181600001556020820151816001019081610af69190611628565b50604082015181600201556060820151816003019081610b169190611628565b5090505050505050565b6060605a8210610b67576040518060400160405280600181526020017f41000000000000000000000000000000000000000000000000000000000000008152509050610c2c565b60508210610bac576040518060400160405280600181526020017f42000000000000000000000000000000000000000000000000000000000000008152509050610c2b565b60468210610bf1576040518060400160405280600181526020017f43000000000000000000000000000000000000000000000000000000000000008152509050610c2a565b6040518060400160405280600181526020017f460000000000000000000000000000000000000000000000000000000000000081525090505b5b5b6040518060800160405280858152602001848152602001838152602001828152506008600082015181600001556020820151816001019081610c6e9190611628565b50604082015181600201556060820151816003019081610c8e9190611628565b5090505050505050565b600c6040518060800160405280858152602001848152602001838152602001610cc084610722565b8152509080600181540180825580915050600190039060005260206000209060040201600090919091909150600082015181600001556020820151816001019081610d0b9190611628565b50604082015181600201556060820151816003019081610d2b9190611628565b505050505050565b6060600c805480602002602001604051908101604052809291908181526020016000905b82821015610ec1578382906000526020600020906004020160405180608001604052908160008201548152602001600182018054610d949061144b565b80601f0160208091040260200160405190810160405280929190818152602001828054610dc09061144b565b8015610e0d5780601f10610de257610100808354040283529160200191610e0d565b820191906000526020600020905b815481529060010190602001808311610df057829003601f168201915b5050505050815260200160028201548152602001600382018054610e309061144b565b80601f0160208091040260200160405190810160405280929190818152602001828054610e5c9061144b565b8015610ea95780601f10610e7e57610100808354040283529160200191610ea9565b820191906000526020600020905b815481529060010190602001808311610e8c57829003601f168201915b50505050508152505081526020019060010190610d57565b50505050905090565b6040518060800160405280600081526020016060815260200160008152602001606081525090565b6000604051905090565b600080fd5b600080fd5b6000819050919050565b610f1981610f06565b8114610f2457600080fd5b50565b600081359050610f3681610f10565b92915050565b600080fd5b600080fd5b6000601f19601f8301169050919050565b7f4e487b7100000000000000000000000000000000000000000000000000000000600052604160045260246000fd5b610f8f82610f46565b810181811067ffffffffffffffff82111715610fae57610fad610f57565b5b80604052505050565b6000610fc1610ef2565b9050610fcd8282610f86565b919050565b600067ffffffffffffffff821115610fed57610fec610f57565b5b610ff682610f46565b9050602081019050919050565b82818337600083830152505050565b600061102561102084610fd2565b610fb7565b90508281526020810184848401111561104157611040610f41565b5b61104c848285611003565b509392505050565b600082601f83011261106957611068610f3c565b5b8135611079848260208601611012565b91505092915050565b60008060006060848603121561109b5761109a610efc565b5b60006110a986828701610f27565b935050602084013567ffffffffffffffff8111156110ca576110c9610f01565b5b6110d686828701611054565b92505060406110e786828701610f27565b9150509250925092565b6110fa81610f06565b82525050565b600081519050919050565b600082825260208201905092915050565b60005b8381101561113a57808201518184015260208101905061111f565b60008484015250505050565b600061115182611100565b61115b818561110b565b935061116b81856020860161111c565b61117481610f46565b840191505092915050565b600060808301600083015161119760008601826110f1565b50602083015184820360208601526111af8282611146565b91505060408301516111c460408601826110f1565b50606083015184820360608601526111dc8282611146565b9150508091505092915050565b60006060820190508181036000830152611203818661117f565b90508181036020830152611217818561117f565b9050818103604083015261122b818461117f565b9050949350505050565b60006020828403121561124b5761124a610efc565b5b600061125984828501610f27565b91505092915050565b600082825260208201905092915050565b600061127e82611100565b6112888185611262565b935061129881856020860161111c565b6112a181610f46565b840191505092915050565b600060208201905081810360008301526112c68184611273565b905092915050565b600081519050919050565b600082825260208201905092915050565b6000819050602082019050919050565b600060808301600083015161131260008601826110f1565b506020830151848203602086015261132a8282611146565b915050604083015161133f60408601826110f1565b50606083015184820360608601526113578282611146565b9150508091505092915050565b600061137083836112fa565b905092915050565b6000602082019050919050565b6000611390826112ce565b61139a81856112d9565b9350836020820285016113ac856112ea565b8060005b858110156113e857848403895281516113c98582611364565b94506113d483611378565b925060208a019950506001810190506113b0565b50829750879550505050505092915050565b600060208201905081810360008301526114148184611385565b905092915050565b7f4e487b7100000000000000000000000000000000000000000000000000000000600052602260045260246000fd5b6000600282049050600182168061146357607f821691505b6020821081036114765761147561141c565b5b50919050565b60008190508160005260206000209050919050565b60006020601f8301049050919050565b600082821b905092915050565b6000600883026114de7fffffffffffffffffffffffffffffffffffffffffffffffffffffffffffffffff826114a1565b6114e886836114a1565b95508019841693508086168417925050509392505050565b6000819050919050565b600061152561152061151b84610f06565b611500565b610f06565b9050919050565b6000819050919050565b61153f8361150a565b61155361154b8261152c565b8484546114ae565b825550505050565b600090565b61156861155b565b611573818484611536565b505050565b5b818110156115975761158c600082611560565b600181019050611579565b5050565b601f8211156115dc576115ad8161147c565b6115b684611491565b810160208510156115c5578190505b6115d96115d185611491565b830182611578565b50505b505050565b600082821c905092915050565b60006115ff600019846008026115e1565b1980831691505092915050565b600061161883836115ee565b9150826002028217905092915050565b61163182611100565b67ffffffffffffffff81111561164a57611649610f57565b5b611654825461144b565b61165f82828561159b565b600060209050601f8311600181146116925760008415611680578287015190505b61168a858261160c565b8655506116f2565b601f1984166116a08661147c565b60005b828110156116c8578489015182556001820191506020850194506020810190506116a3565b868310156116e557848901516116e1601f8916826115ee565b8355505b6001600288020188555050505b50505050505056fea26469706673582212209c5176e1dd0b7ae36ef0eec0557811cb1812993cf1ed8b0e6d64e70c7d954dca64736f6c63430008120033",
					"opcodes": "PUSH1 0x80 PUSH1 0x40 MSTORE CALLVALUE DUP1 ISZERO PUSH2 0x10 JUMPI PUSH1 0x0 DUP1 REVERT JUMPDEST POP PUSH2 0x1730 DUP1 PUSH2 0x20 PUSH1 0x0 CODECOPY PUSH1 0x0 RETURN INVALID PUSH1 0x80 PUSH1 0x40 MSTORE CALLVALUE DUP1 ISZERO PUSH2 0x10 JUMPI PUSH1 0x0 DUP1 REVERT JUMPDEST POP PUSH1 0x4 CALLDATASIZE LT PUSH2 0x88 JUMPI PUSH1 0x0 CALLDATALOAD PUSH1 0xE0 SHR DUP1 PUSH4 0x9FEC8626 GT PUSH2 0x5B JUMPI DUP1 PUSH4 0x9FEC8626 EQ PUSH2 0x115 JUMPI DUP1 PUSH4 0xAD8364A4 EQ PUSH2 0x131 JUMPI DUP1 PUSH4 0xC731F947 EQ PUSH2 0x14D JUMPI DUP1 PUSH4 0xF1D064B3 EQ PUSH2 0x169 JUMPI PUSH2 0x88 JUMP JUMPDEST DUP1 PUSH4 0x3B4598B1 EQ PUSH2 0x8D JUMPI DUP1 PUSH4 0x448E1BED EQ PUSH2 0xA9 JUMPI DUP1 PUSH4 0x674271CD EQ PUSH2 0xC9 JUMPI DUP1 PUSH4 0x9DB1E7DA EQ PUSH2 0xF9 JUMPI JUMPDEST PUSH1 0x0 DUP1 REVERT JUMPDEST PUSH2 0xA7 PUSH1 0x4 DUP1 CALLDATASIZE SUB DUP2 ADD SWAP1 PUSH2 0xA2 SWAP2 SWAP1 PUSH2 0x1082 JUMP JUMPDEST PUSH2 0x187 JUMP JUMPDEST STOP JUMPDEST PUSH2 0xB1 PUSH2 0x327 JUMP JUMPDEST PUSH1 0x40 MLOAD PUSH2 0xC0 SWAP4 SWAP3 SWAP2 SWAP1 PUSH2 0x11E9 JUMP JUMPDEST PUSH1 0x40 MLOAD DUP1 SWAP2 SUB SWAP1 RETURN JUMPDEST PUSH2 0xE3 PUSH1 0x4 DUP1 CALLDATASIZE SUB DUP2 ADD SWAP1 PUSH2 0xDE SWAP2 SWAP1 PUSH2 0x1235 JUMP JUMPDEST PUSH2 0x722 JUMP JUMPDEST PUSH1 0x40 MLOAD PUSH2 0xF0 SWAP2 SWAP1 PUSH2 0x12AC JUMP JUMPDEST PUSH1 0x40 MLOAD DUP1 SWAP2 SUB SWAP1 RETURN JUMPDEST PUSH2 0x113 PUSH1 0x4 DUP1 CALLDATASIZE SUB DUP2 ADD SWAP1 PUSH2 0x10E SWAP2 SWAP1 PUSH2 0x1082 JUMP JUMPDEST PUSH2 0x831 JUMP JUMPDEST STOP JUMPDEST PUSH2 0x12F PUSH1 0x4 DUP1 CALLDATASIZE SUB DUP2 ADD SWAP1 PUSH2 0x12A SWAP2 SWAP1 PUSH2 0x1082 JUMP JUMPDEST PUSH2 0x9A9 JUMP JUMPDEST STOP JUMPDEST PUSH2 0x14B PUSH1 0x4 DUP1 CALLDATASIZE SUB DUP2 ADD SWAP1 PUSH2 0x146 SWAP2 SWAP1 PUSH2 0x1082 JUMP JUMPDEST PUSH2 0xB20 JUMP JUMPDEST STOP JUMPDEST PUSH2 0x167 PUSH1 0x4 DUP1 CALLDATASIZE SUB DUP2 ADD SWAP1 PUSH2 0x162 SWAP2 SWAP1 PUSH2 0x1082 JUMP JUMPDEST PUSH2 0xC98 JUMP JUMPDEST STOP JUMPDEST PUSH2 0x171 PUSH2 0xD33 JUMP JUMPDEST PUSH1 0x40 MLOAD PUSH2 0x17E SWAP2 SWAP1 PUSH2 0x13FA JUMP JUMPDEST PUSH1 0x40 MLOAD DUP1 SWAP2 SUB SWAP1 RETURN JUMPDEST PUSH1 0x60 PUSH1 0x5A DUP3 LT PUSH2 0x1CE JUMPI PUSH1 0x40 MLOAD DUP1 PUSH1 0x40 ADD PUSH1 0x40 MSTORE DUP1 PUSH1 0x1 DUP2 MSTORE PUSH1 0x20 ADD PUSH32 0x4100000000000000000000000000000000000000000000000000000000000000 DUP2 MSTORE POP SWAP1 POP PUSH2 0x293 JUMP JUMPDEST PUSH1 0x50 DUP3 LT PUSH2 0x213 JUMPI PUSH1 0x40 MLOAD DUP1 PUSH1 0x40 ADD PUSH1 0x40 MSTORE DUP1 PUSH1 0x1 DUP2 MSTORE PUSH1 0x20 ADD PUSH32 0x4200000000000000000000000000000000000000000000000000000000000000 DUP2 MSTORE POP SWAP1 POP PUSH2 0x292 JUMP JUMPDEST PUSH1 0x46 DUP3 LT PUSH2 0x258 JUMPI PUSH1 0x40 MLOAD DUP1 PUSH1 0x40 ADD PUSH1 0x40 MSTORE DUP1 PUSH1 0x1 DUP2 MSTORE PUSH1 0x20 ADD PUSH32 0x4300000000000000000000000000000000000000000000000000000000000000 DUP2 MSTORE POP SWAP1 POP PUSH2 0x291 JUMP JUMPDEST PUSH1 0x40 MLOAD DUP1 PUSH1 0x40 ADD PUSH1 0x40 MSTORE DUP1 PUSH1 0x1 DUP2 MSTORE PUSH1 0x20 ADD PUSH32 0x4600000000000000000000000000000000000000000000000000000000000000 DUP2 MSTORE POP SWAP1 POP JUMPDEST JUMPDEST JUMPDEST PUSH1 0xC PUSH1 0x40 MLOAD DUP1 PUSH1 0x80 ADD PUSH1 0x40 MSTORE DUP1 DUP7 DUP2 MSTORE PUSH1 0x20 ADD DUP6 DUP2 MSTORE PUSH1 0x20 ADD DUP5 DUP2 MSTORE PUSH1 0x20 ADD DUP4 DUP2 MSTORE POP SWAP1 DUP1 PUSH1 0x1 DUP2 SLOAD ADD DUP1 DUP3 SSTORE DUP1 SWAP2 POP POP PUSH1 0x1 SWAP1 SUB SWAP1 PUSH1 0x0 MSTORE PUSH1 0x20 PUSH1 0x0 KECCAK256 SWAP1 PUSH1 0x4 MUL ADD PUSH1 0x0 SWAP1 SWAP2 SWAP1 SWAP2 SWAP1 SWAP2 POP PUSH1 0x0 DUP3 ADD MLOAD DUP2 PUSH1 0x0 ADD SSTORE PUSH1 0x20 DUP3 ADD MLOAD DUP2 PUSH1 0x1 ADD SWAP1 DUP2 PUSH2 0x2FE SWAP2 SWAP1 PUSH2 0x1628 JUMP JUMPDEST POP PUSH1 0x40 DUP3 ADD MLOAD DUP2 PUSH1 0x2 ADD SSTORE PUSH1 0x60 DUP3 ADD MLOAD DUP2 PUSH1 0x3 ADD SWAP1 DUP2 PUSH2 0x31E SWAP2 SWAP1 PUSH2 0x1628 JUMP JUMPDEST POP POP POP POP POP POP POP JUMP JUMPDEST PUSH2 0x32F PUSH2 0xECA JUMP JUMPDEST PUSH2 0x337 PUSH2 0xECA JUMP JUMPDEST PUSH2 0x33F PUSH2 0xECA JUMP JUMPDEST PUSH1 0x0 PUSH1 0x4 PUSH1 0x8 DUP3 PUSH1 0x40 MLOAD DUP1 PUSH1 0x80 ADD PUSH1 0x40 MSTORE SWAP1 DUP2 PUSH1 0x0 DUP3 ADD SLOAD DUP2 MSTORE PUSH1 0x20 ADD PUSH1 0x1 DUP3 ADD DUP1 SLOAD PUSH2 0x36B SWAP1 PUSH2 0x144B JUMP JUMPDEST DUP1 PUSH1 0x1F ADD PUSH1 0x20 DUP1 SWAP2 DIV MUL PUSH1 0x20 ADD PUSH1 0x40 MLOAD SWAP1 DUP2 ADD PUSH1 0x40 MSTORE DUP1 SWAP3 SWAP2 SWAP1 DUP2 DUP2 MSTORE PUSH1 0x20 ADD DUP3 DUP1 SLOAD PUSH2 0x397 SWAP1 PUSH2 0x144B JUMP JUMPDEST DUP1 ISZERO PUSH2 0x3E4 JUMPI DUP1 PUSH1 0x1F LT PUSH2 0x3B9 JUMPI PUSH2 0x100 DUP1 DUP4 SLOAD DIV MUL DUP4 MSTORE SWAP2 PUSH1 0x20 ADD SWAP2 PUSH2 0x3E4 JUMP JUMPDEST DUP3 ADD SWAP2 SWAP1 PUSH1 0x0 MSTORE PUSH1 0x20 PUSH1 0x0 KECCAK256 SWAP1 JUMPDEST DUP2 SLOAD DUP2 MSTORE SWAP1 PUSH1 0x1 ADD SWAP1 PUSH1 0x20 ADD DUP1 DUP4 GT PUSH2 0x3C7 JUMPI DUP3 SWAP1 SUB PUSH1 0x1F AND DUP3 ADD SWAP2 JUMPDEST POP POP POP POP POP DUP2 MSTORE PUSH1 0x20 ADD PUSH1 0x2 DUP3 ADD SLOAD DUP2 MSTORE PUSH1 0x20 ADD PUSH1 0x3 DUP3 ADD DUP1 SLOAD PUSH2 0x407 SWAP1 PUSH2 0x144B JUMP JUMPDEST DUP1 PUSH1 0x1F ADD PUSH1 0x20 DUP1 SWAP2 DIV MUL PUSH1 0x20 ADD PUSH1 0x40 MLOAD SWAP1 DUP2 ADD PUSH1 0x40 MSTORE DUP1 SWAP3 SWAP2 SWAP1 DUP2 DUP2 MSTORE PUSH1 0x20 ADD DUP3 DUP1 SLOAD PUSH2 0x433 SWAP1 PUSH2 0x144B JUMP JUMPDEST DUP1 ISZERO PUSH2 0x480 JUMPI DUP1 PUSH1 0x1F LT PUSH2 0x455 JUMPI PUSH2 0x100 DUP1 DUP4 SLOAD DIV MUL DUP4 MSTORE SWAP2 PUSH1 0x20 ADD SWAP2 PUSH2 0x480 JUMP JUMPDEST DUP3 ADD SWAP2 SWAP1 PUSH1 0x0 MSTORE PUSH1 0x20 PUSH1 0x0 KECCAK256 SWAP1 JUMPDEST DUP2 SLOAD DUP2 MSTORE SWAP1 PUSH1 0x1 ADD SWAP1 PUSH1 0x20 ADD DUP1 DUP4 GT PUSH2 0x463 JUMPI DUP3 SWAP1 SUB PUSH1 0x1F AND DUP3 ADD SWAP2 JUMPDEST POP POP POP POP POP DUP2 MSTORE POP POP SWAP3 POP DUP2 PUSH1 0x40 MLOAD DUP1 PUSH1 0x80 ADD PUSH1 0x40 MSTORE SWAP1 DUP2 PUSH1 0x0 DUP3 ADD SLOAD DUP2 MSTORE PUSH1 0x20 ADD PUSH1 0x1 DUP3 ADD DUP1 SLOAD PUSH2 0x4B1 SWAP1 PUSH2 0x144B JUMP JUMPDEST DUP1 PUSH1 0x1F ADD PUSH1 0x20 DUP1 SWAP2 DIV MUL PUSH1 0x20 ADD PUSH1 0x40 MLOAD SWAP1 DUP2 ADD PUSH1 0x40 MSTORE DUP1 SWAP3 SWAP2 SWAP1 DUP2 DUP2 MSTORE PUSH1 0x20 ADD DUP3 DUP1 SLOAD PUSH2 0x4DD SWAP1 PUSH2 0x144B JUMP JUMPDEST DUP1 ISZERO PUSH2 0x52A JUMPI DUP1 PUSH1 0x1F LT PUSH2 0x4FF JUMPI PUSH2 0x100 DUP1 DUP4 SLOAD DIV MUL DUP4 MSTORE SWAP2 PUSH1 0x20 ADD SWAP2 PUSH2 0x52A JUMP JUMPDEST DUP3 ADD SWAP2 SWAP1 PUSH1 0x0 MSTORE PUSH1 0x20 PUSH1 0x0 KECCAK256 SWAP1 JUMPDEST DUP2 SLOAD DUP2 MSTORE SWAP1 PUSH1 0x1 ADD SWAP1 PUSH1 0x20 ADD DUP1 DUP4 GT PUSH2 0x50D JUMPI DUP3 SWAP1 SUB PUSH1 0x1F AND DUP3 ADD SWAP2 JUMPDEST POP POP POP POP POP DUP2 MSTORE PUSH1 0x20 ADD PUSH1 0x2 DUP3 ADD SLOAD DUP2 MSTORE PUSH1 0x20 ADD PUSH1 0x3 DUP3 ADD DUP1 SLOAD PUSH2 0x54D SWAP1 PUSH2 0x144B JUMP JUMPDEST DUP1 PUSH1 0x1F ADD PUSH1 0x20 DUP1 SWAP2 DIV MUL PUSH1 0x20 ADD PUSH1 0x40 MLOAD SWAP1 DUP2 ADD PUSH1 0x40 MSTORE DUP1 SWAP3 SWAP2 SWAP1 DUP2 DUP2 MSTORE PUSH1 0x20 ADD DUP3 DUP1 SLOAD PUSH2 0x579 SWAP1 PUSH2 0x144B JUMP JUMPDEST DUP1 ISZERO PUSH2 0x5C6 JUMPI DUP1 PUSH1 0x1F LT PUSH2 0x59B JUMPI PUSH2 0x100 DUP1 DUP4 SLOAD DIV MUL DUP4 MSTORE SWAP2 PUSH1 0x20 ADD SWAP2 PUSH2 0x5C6 JUMP JUMPDEST DUP3 ADD SWAP2 SWAP1 PUSH1 0x0 MSTORE PUSH1 0x20 PUSH1 0x0 KECCAK256 SWAP1 JUMPDEST DUP2 SLOAD DUP2 MSTORE SWAP1 PUSH1 0x1 ADD SWAP1 PUSH1 0x20 ADD DUP1 DUP4 GT PUSH2 0x5A9 JUMPI DUP3 SWAP1 SUB PUSH1 0x1F AND DUP3 ADD SWAP2 JUMPDEST POP POP POP POP POP DUP2 MSTORE POP POP SWAP2 POP DUP1 PUSH1 0x40 MLOAD DUP1 PUSH1 0x80 ADD PUSH1 0x40 MSTORE SWAP1 DUP2 PUSH1 0x0 DUP3 ADD SLOAD DUP2 MSTORE PUSH1 0x20 ADD PUSH1 0x1 DUP3 ADD DUP1 SLOAD PUSH2 0x5F7 SWAP1 PUSH2 0x144B JUMP JUMPDEST DUP1 PUSH1 0x1F ADD PUSH1 0x20 DUP1 SWAP2 DIV MUL PUSH1 0x20 ADD PUSH1 0x40 MLOAD SWAP1 DUP2 ADD PUSH1 0x40 MSTORE DUP1 SWAP3 SWAP2 SWAP1 DUP2 DUP2 MSTORE PUSH1 0x20 ADD DUP3 DUP1 SLOAD PUSH2 0x623 SWAP1 PUSH2 0x144B JUMP JUMPDEST DUP1 ISZERO PUSH2 0x670 JUMPI DUP1 PUSH1 0x1F LT PUSH2 0x645 JUMPI PUSH2 0x100 DUP1 DUP4 SLOAD DIV MUL DUP4 MSTORE SWAP2 PUSH1 0x20 ADD SWAP2 PUSH2 0x670 JUMP JUMPDEST DUP3 ADD SWAP2 SWAP1 PUSH1 0x0 MSTORE PUSH1 0x20 PUSH1 0x0 KECCAK256 SWAP1 JUMPDEST DUP2 SLOAD DUP2 MSTORE SWAP1 PUSH1 0x1 ADD SWAP1 PUSH1 0x20 ADD DUP1 DUP4 GT PUSH2 0x653 JUMPI DUP3 SWAP1 SUB PUSH1 0x1F AND DUP3 ADD SWAP2 JUMPDEST POP POP POP POP POP DUP2 MSTORE PUSH1 0x20 ADD PUSH1 0x2 DUP3 ADD SLOAD DUP2 MSTORE PUSH1 0x20 ADD PUSH1 0x3 DUP3 ADD DUP1 SLOAD PUSH2 0x693 SWAP1 PUSH2 0x144B JUMP JUMPDEST DUP1 PUSH1 0x1F ADD PUSH1 0x20 DUP1 SWAP2 DIV MUL PUSH1 0x20 ADD PUSH1 0x40 MLOAD SWAP1 DUP2 ADD PUSH1 0x40 MSTORE DUP1 SWAP3 SWAP2 SWAP1 DUP2 DUP2 MSTORE PUSH1 0x20 ADD DUP3 DUP1 SLOAD PUSH2 0x6BF SWAP1 PUSH2 0x144B JUMP JUMPDEST DUP1 ISZERO PUSH2 0x70C JUMPI DUP1 PUSH1 0x1F LT PUSH2 0x6E1 JUMPI PUSH2 0x100 DUP1 DUP4 SLOAD DIV MUL DUP4 MSTORE SWAP2 PUSH1 0x20 ADD SWAP2 PUSH2 0x70C JUMP JUMPDEST DUP3 ADD SWAP2 SWAP1 PUSH1 0x0 MSTORE PUSH1 0x20 PUSH1 0x0 KECCAK256 SWAP1 JUMPDEST DUP2 SLOAD DUP2 MSTORE SWAP1 PUSH1 0x1 ADD SWAP1 PUSH1 0x20 ADD DUP1 DUP4 GT PUSH2 0x6EF JUMPI DUP3 SWAP1 SUB PUSH1 0x1F AND DUP3 ADD SWAP2 JUMPDEST POP POP POP POP POP DUP2 MSTORE POP POP SWAP1 POP SWAP3 POP SWAP3 POP SWAP3 POP SWAP1 SWAP2 SWAP3 JUMP JUMPDEST PUSH1 0x60 PUSH1 0x5A DUP3 LT PUSH2 0x769 JUMPI PUSH1 0x40 MLOAD DUP1 PUSH1 0x40 ADD PUSH1 0x40 MSTORE DUP1 PUSH1 0x1 DUP2 MSTORE PUSH1 0x20 ADD PUSH32 0x4100000000000000000000000000000000000000000000000000000000000000 DUP2 MSTORE POP SWAP1 POP PUSH2 0x82C JUMP JUMPDEST PUSH1 0x50 DUP3 LT PUSH2 0x7AE JUMPI PUSH1 0x40 MLOAD DUP1 PUSH1 0x40 ADD PUSH1 0x40 MSTORE DUP1 PUSH1 0x1 DUP2 MSTORE PUSH1 0x20 ADD PUSH32 0x4200000000000000000000000000000000000000000000000000000000000000 DUP2 MSTORE POP SWAP1 POP PUSH2 0x82C JUMP JUMPDEST PUSH1 0x46 DUP3 LT PUSH2 0x7F3 JUMPI PUSH1 0x40 MLOAD DUP1 PUSH1 0x40 ADD PUSH1 0x40 MSTORE DUP1 PUSH1 0x1 DUP2 MSTORE PUSH1 0x20 ADD PUSH32 0x4300000000000000000000000000000000000000000000000000000000000000 DUP2 MSTORE POP SWAP1 POP PUSH2 0x82C JUMP JUMPDEST PUSH1 0x40 MLOAD DUP1 PUSH1 0x40 ADD PUSH1 0x40 MSTORE DUP1 PUSH1 0x1 DUP2 MSTORE PUSH1 0x20 ADD PUSH32 0x4600000000000000000000000000000000000000000000000000000000000000 DUP2 MSTORE POP SWAP1 POP JUMPDEST SWAP2 SWAP1 POP JUMP JUMPDEST PUSH1 0x60 PUSH1 0x5A DUP3 LT PUSH2 0x878 JUMPI PUSH1 0x40 MLOAD DUP1 PUSH1 0x40 ADD PUSH1 0x40 MSTORE DUP1 PUSH1 0x1 DUP2 MSTORE PUSH1 0x20 ADD PUSH32 0x4100000000000000000000000000000000000000000000000000000000000000 DUP2 MSTORE POP SWAP1 POP PUSH2 0x93D JUMP JUMPDEST PUSH1 0x50 DUP3 LT PUSH2 0x8BD JUMPI PUSH1 0x40 MLOAD DUP1 PUSH1 0x40 ADD PUSH1 0x40 MSTORE DUP1 PUSH1 0x1 DUP2 MSTORE PUSH1 0x20 ADD PUSH32 0x4200000000000000000000000000000000000000000000000000000000000000 DUP2 MSTORE POP SWAP1 POP PUSH2 0x93C JUMP JUMPDEST PUSH1 0x46 DUP3 LT PUSH2 0x902 JUMPI PUSH1 0x40 MLOAD DUP1 PUSH1 0x40 ADD PUSH1 0x40 MSTORE DUP1 PUSH1 0x1 DUP2 MSTORE PUSH1 0x20 ADD PUSH32 0x4300000000000000000000000000000000000000000000000000000000000000 DUP2 MSTORE POP SWAP1 POP PUSH2 0x93B JUMP JUMPDEST PUSH1 0x40 MLOAD DUP1 PUSH1 0x40 ADD PUSH1 0x40 MSTORE DUP1 PUSH1 0x1 DUP2 MSTORE PUSH1 0x20 ADD PUSH32 0x4600000000000000000000000000000000000000000000000000000000000000 DUP2 MSTORE POP SWAP1 POP JUMPDEST JUMPDEST JUMPDEST PUSH1 0x40 MLOAD DUP1 PUSH1 0x80 ADD PUSH1 0x40 MSTORE DUP1 DUP6 DUP2 MSTORE PUSH1 0x20 ADD DUP5 DUP2 MSTORE PUSH1 0x20 ADD DUP4 DUP2 MSTORE PUSH1 0x20 ADD DUP3 DUP2 MSTORE POP PUSH1 0x4 PUSH1 0x0 DUP3 ADD MLOAD DUP2 PUSH1 0x0 ADD SSTORE PUSH1 0x20 DUP3 ADD MLOAD DUP2 PUSH1 0x1 ADD SWAP1 DUP2 PUSH2 0x97F SWAP2 SWAP1 PUSH2 0x1628 JUMP JUMPDEST POP PUSH1 0x40 DUP3 ADD MLOAD DUP2 PUSH1 0x2 ADD SSTORE PUSH1 0x60 DUP3 ADD MLOAD DUP2 PUSH1 0x3 ADD SWAP1 DUP2 PUSH2 0x99F SWAP2 SWAP1 PUSH2 0x1628 JUMP JUMPDEST POP SWAP1 POP POP POP POP POP POP JUMP JUMPDEST PUSH1 0x60 PUSH1 0x5A DUP3 LT PUSH2 0x9F0 JUMPI PUSH1 0x40 MLOAD DUP1 PUSH1 0x40 ADD PUSH1 0x40 MSTORE DUP1 PUSH1 0x1 DUP2 MSTORE PUSH1 0x20 ADD PUSH32 0x4100000000000000000000000000000000000000000000000000000000000000 DUP2 MSTORE POP SWAP1 POP PUSH2 0xAB5 JUMP JUMPDEST PUSH1 0x50 DUP3 LT PUSH2 0xA35 JUMPI PUSH1 0x40 MLOAD DUP1 PUSH1 0x40 ADD PUSH1 0x40 MSTORE DUP1 PUSH1 0x1 DUP2 MSTORE PUSH1 0x20 ADD PUSH32 0x4200000000000000000000000000000000000000000000000000000000000000 DUP2 MSTORE POP SWAP1 POP PUSH2 0xAB4 JUMP JUMPDEST PUSH1 0x46 DUP3 LT PUSH2 0xA7A JUMPI PUSH1 0x40 MLOAD DUP1 PUSH1 0x40 ADD PUSH1 0x40 MSTORE DUP1 PUSH1 0x1 DUP2 MSTORE PUSH1 0x20 ADD PUSH32 0x4300000000000000000000000000000000000000000000000000000000000000 DUP2 MSTORE POP SWAP1 POP PUSH2 0xAB3 JUMP JUMPDEST PUSH1 0x40 MLOAD DUP1 PUSH1 0x40 ADD PUSH1 0x40 MSTORE DUP1 PUSH1 0x1 DUP2 MSTORE PUSH1 0x20 ADD PUSH32 0x4600000000000000000000000000000000000000000000000000000000000000 DUP2 MSTORE POP SWAP1 POP JUMPDEST JUMPDEST JUMPDEST PUSH1 0x40 MLOAD DUP1 PUSH1 0x80 ADD PUSH1 0x40 MSTORE DUP1 DUP6 DUP2 MSTORE PUSH1 0x20 ADD DUP5 DUP2 MSTORE PUSH1 0x20 ADD DUP4 DUP2 MSTORE PUSH1 0x20 ADD DUP3 DUP2 MSTORE POP PUSH1 0x0 DUP1 DUP3 ADD MLOAD DUP2 PUSH1 0x0 ADD SSTORE PUSH1 0x20 DUP3 ADD MLOAD DUP2 PUSH1 0x1 ADD SWAP1 DUP2 PUSH2 0xAF6 SWAP2 SWAP1 PUSH2 0x1628 JUMP JUMPDEST POP PUSH1 0x40 DUP3 ADD MLOAD DUP2 PUSH1 0x2 ADD SSTORE PUSH1 0x60 DUP3 ADD MLOAD DUP2 PUSH1 0x3 ADD SWAP1 DUP2 PUSH2 0xB16 SWAP2 SWAP1 PUSH2 0x1628 JUMP JUMPDEST POP SWAP1 POP POP POP POP POP POP JUMP JUMPDEST PUSH1 0x60 PUSH1 0x5A DUP3 LT PUSH2 0xB67 JUMPI PUSH1 0x40 MLOAD DUP1 PUSH1 0x40 ADD PUSH1 0x40 MSTORE DUP1 PUSH1 0x1 DUP2 MSTORE PUSH1 0x20 ADD PUSH32 0x4100000000000000000000000000000000000000000000000000000000000000 DUP2 MSTORE POP SWAP1 POP PUSH2 0xC2C JUMP JUMPDEST PUSH1 0x50 DUP3 LT PUSH2 0xBAC JUMPI PUSH1 0x40 MLOAD DUP1 PUSH1 0x40 ADD PUSH1 0x40 MSTORE DUP1 PUSH1 0x1 DUP2 MSTORE PUSH1 0x20 ADD PUSH32 0x4200000000000000000000000000000000000000000000000000000000000000 DUP2 MSTORE POP SWAP1 POP PUSH2 0xC2B JUMP JUMPDEST PUSH1 0x46 DUP3 LT PUSH2 0xBF1 JUMPI PUSH1 0x40 MLOAD DUP1 PUSH1 0x40 ADD PUSH1 0x40 MSTORE DUP1 PUSH1 0x1 DUP2 MSTORE PUSH1 0x20 ADD PUSH32 0x4300000000000000000000000000000000000000000000000000000000000000 DUP2 MSTORE POP SWAP1 POP PUSH2 0xC2A JUMP JUMPDEST PUSH1 0x40 MLOAD DUP1 PUSH1 0x40 ADD PUSH1 0x40 MSTORE DUP1 PUSH1 0x1 DUP2 MSTORE PUSH1 0x20 ADD PUSH32 0x4600000000000000000000000000000000000000000000000000000000000000 DUP2 MSTORE POP SWAP1 POP JUMPDEST JUMPDEST JUMPDEST PUSH1 0x40 MLOAD DUP1 PUSH1 0x80 ADD PUSH1 0x40 MSTORE DUP1 DUP6 DUP2 MSTORE PUSH1 0x20 ADD DUP5 DUP2 MSTORE PUSH1 0x20 ADD DUP4 DUP2 MSTORE PUSH1 0x20 ADD DUP3 DUP2 MSTORE POP PUSH1 0x8 PUSH1 0x0 DUP3 ADD MLOAD DUP2 PUSH1 0x0 ADD SSTORE PUSH1 0x20 DUP3 ADD MLOAD DUP2 PUSH1 0x1 ADD SWAP1 DUP2 PUSH2 0xC6E SWAP2 SWAP1 PUSH2 0x1628 JUMP JUMPDEST POP PUSH1 0x40 DUP3 ADD MLOAD DUP2 PUSH1 0x2 ADD SSTORE PUSH1 0x60 DUP3 ADD MLOAD DUP2 PUSH1 0x3 ADD SWAP1 DUP2 PUSH2 0xC8E SWAP2 SWAP1 PUSH2 0x1628 JUMP JUMPDEST POP SWAP1 POP POP POP POP POP POP JUMP JUMPDEST PUSH1 0xC PUSH1 0x40 MLOAD DUP1 PUSH1 0x80 ADD PUSH1 0x40 MSTORE DUP1 DUP6 DUP2 MSTORE PUSH1 0x20 ADD DUP5 DUP2 MSTORE PUSH1 0x20 ADD DUP4 DUP2 MSTORE PUSH1 0x20 ADD PUSH2 0xCC0 DUP5 PUSH2 0x722 JUMP JUMPDEST DUP2 MSTORE POP SWAP1 DUP1 PUSH1 0x1 DUP2 SLOAD ADD DUP1 DUP3 SSTORE DUP1 SWAP2 POP POP PUSH1 0x1 SWAP1 SUB SWAP1 PUSH1 0x0 MSTORE PUSH1 0x20 PUSH1 0x0 KECCAK256 SWAP1 PUSH1 0x4 MUL ADD PUSH1 0x0 SWAP1 SWAP2 SWAP1 SWAP2 SWAP1 SWAP2 POP PUSH1 0x0 DUP3 ADD MLOAD DUP2 PUSH1 0x0 ADD SSTORE PUSH1 0x20 DUP3 ADD MLOAD DUP2 PUSH1 0x1 ADD SWAP1 DUP2 PUSH2 0xD0B SWAP2 SWAP1 PUSH2 0x1628 JUMP JUMPDEST POP PUSH1 0x40 DUP3 ADD MLOAD DUP2 PUSH1 0x2 ADD SSTORE PUSH1 0x60 DUP3 ADD MLOAD DUP2 PUSH1 0x3 ADD SWAP1 DUP2 PUSH2 0xD2B SWAP2 SWAP1 PUSH2 0x1628 JUMP JUMPDEST POP POP POP POP POP POP JUMP JUMPDEST PUSH1 0x60 PUSH1 0xC DUP1 SLOAD DUP1 PUSH1 0x20 MUL PUSH1 0x20 ADD PUSH1 0x40 MLOAD SWAP1 DUP2 ADD PUSH1 0x40 MSTORE DUP1 SWAP3 SWAP2 SWAP1 DUP2 DUP2 MSTORE PUSH1 0x20 ADD PUSH1 0x0 SWAP1 JUMPDEST DUP3 DUP3 LT ISZERO PUSH2 0xEC1 JUMPI DUP4 DUP3 SWAP1 PUSH1 0x0 MSTORE PUSH1 0x20 PUSH1 0x0 KECCAK256 SWAP1 PUSH1 0x4 MUL ADD PUSH1 0x40 MLOAD DUP1 PUSH1 0x80 ADD PUSH1 0x40 MSTORE SWAP1 DUP2 PUSH1 0x0 DUP3 ADD SLOAD DUP2 MSTORE PUSH1 0x20 ADD PUSH1 0x1 DUP3 ADD DUP1 SLOAD PUSH2 0xD94 SWAP1 PUSH2 0x144B JUMP JUMPDEST DUP1 PUSH1 0x1F ADD PUSH1 0x20 DUP1 SWAP2 DIV MUL PUSH1 0x20 ADD PUSH1 0x40 MLOAD SWAP1 DUP2 ADD PUSH1 0x40 MSTORE DUP1 SWAP3 SWAP2 SWAP1 DUP2 DUP2 MSTORE PUSH1 0x20 ADD DUP3 DUP1 SLOAD PUSH2 0xDC0 SWAP1 PUSH2 0x144B JUMP JUMPDEST DUP1 ISZERO PUSH2 0xE0D JUMPI DUP1 PUSH1 0x1F LT PUSH2 0xDE2 JUMPI PUSH2 0x100 DUP1 DUP4 SLOAD DIV MUL DUP4 MSTORE SWAP2 PUSH1 0x20 ADD SWAP2 PUSH2 0xE0D JUMP JUMPDEST DUP3 ADD SWAP2 SWAP1 PUSH1 0x0 MSTORE PUSH1 0x20 PUSH1 0x0 KECCAK256 SWAP1 JUMPDEST DUP2 SLOAD DUP2 MSTORE SWAP1 PUSH1 0x1 ADD SWAP1 PUSH1 0x20 ADD DUP1 DUP4 GT PUSH2 0xDF0 JUMPI DUP3 SWAP1 SUB PUSH1 0x1F AND DUP3 ADD SWAP2 JUMPDEST POP POP POP POP POP DUP2 MSTORE PUSH1 0x20 ADD PUSH1 0x2 DUP3 ADD SLOAD DUP2 MSTORE PUSH1 0x20 ADD PUSH1 0x3 DUP3 ADD DUP1 SLOAD PUSH2 0xE30 SWAP1 PUSH2 0x144B JUMP JUMPDEST DUP1 PUSH1 0x1F ADD PUSH1 0x20 DUP1 SWAP2 DIV MUL PUSH1 0x20 ADD PUSH1 0x40 MLOAD SWAP1 DUP2 ADD PUSH1 0x40 MSTORE DUP1 SWAP3 SWAP2 SWAP1 DUP2 DUP2 MSTORE PUSH1 0x20 ADD DUP3 DUP1 SLOAD PUSH2 0xE5C SWAP1 PUSH2 0x144B JUMP JUMPDEST DUP1 ISZERO PUSH2 0xEA9 JUMPI DUP1 PUSH1 0x1F LT PUSH2 0xE7E JUMPI PUSH2 0x100 DUP1 DUP4 SLOAD DIV MUL DUP4 MSTORE SWAP2 PUSH1 0x20 ADD SWAP2 PUSH2 0xEA9 JUMP JUMPDEST DUP3 ADD SWAP2 SWAP1 PUSH1 0x0 MSTORE PUSH1 0x20 PUSH1 0x0 KECCAK256 SWAP1 JUMPDEST DUP2 SLOAD DUP2 MSTORE SWAP1 PUSH1 0x1 ADD SWAP1 PUSH1 0x20 ADD DUP1 DUP4 GT PUSH2 0xE8C JUMPI DUP3 SWAP1 SUB PUSH1 0x1F AND DUP3 ADD SWAP2 JUMPDEST POP POP POP POP POP DUP2 MSTORE POP POP DUP2 MSTORE PUSH1 0x20 ADD SWAP1 PUSH1 0x1 ADD SWAP1 PUSH2 0xD57 JUMP JUMPDEST POP POP POP POP SWAP1 POP SWAP1 JUMP JUMPDEST PUSH1 0x40 MLOAD DUP1 PUSH1 0x80 ADD PUSH1 0x40 MSTORE DUP1 PUSH1 0x0 DUP2 MSTORE PUSH1 0x20 ADD PUSH1 0x60 DUP2 MSTORE PUSH1 0x20 ADD PUSH1 0x0 DUP2 MSTORE PUSH1 0x20 ADD PUSH1 0x60 DUP2 MSTORE POP SWAP1 JUMP JUMPDEST PUSH1 0x0 PUSH1 0x40 MLOAD SWAP1 POP SWAP1 JUMP JUMPDEST PUSH1 0x0 DUP1 REVERT JUMPDEST PUSH1 0x0 DUP1 REVERT JUMPDEST PUSH1 0x0 DUP2 SWAP1 POP SWAP2 SWAP1 POP JUMP JUMPDEST PUSH2 0xF19 DUP2 PUSH2 0xF06 JUMP JUMPDEST DUP2 EQ PUSH2 0xF24 JUMPI PUSH1 0x0 DUP1 REVERT JUMPDEST POP JUMP JUMPDEST PUSH1 0x0 DUP2 CALLDATALOAD SWAP1 POP PUSH2 0xF36 DUP2 PUSH2 0xF10 JUMP JUMPDEST SWAP3 SWAP2 POP POP JUMP JUMPDEST PUSH1 0x0 DUP1 REVERT JUMPDEST PUSH1 0x0 DUP1 REVERT JUMPDEST PUSH1 0x0 PUSH1 0x1F NOT PUSH1 0x1F DUP4 ADD AND SWAP1 POP SWAP2 SWAP1 POP JUMP JUMPDEST PUSH32 0x4E487B7100000000000000000000000000000000000000000000000000000000 PUSH1 0x0 MSTORE PUSH1 0x41 PUSH1 0x4 MSTORE PUSH1 0x24 PUSH1 0x0 REVERT JUMPDEST PUSH2 0xF8F DUP3 PUSH2 0xF46 JUMP JUMPDEST DUP2 ADD DUP2 DUP2 LT PUSH8 0xFFFFFFFFFFFFFFFF DUP3 GT OR ISZERO PUSH2 0xFAE JUMPI PUSH2 0xFAD PUSH2 0xF57 JUMP JUMPDEST JUMPDEST DUP1 PUSH1 0x40 MSTORE POP POP POP JUMP JUMPDEST PUSH1 0x0 PUSH2 0xFC1 PUSH2 0xEF2 JUMP JUMPDEST SWAP1 POP PUSH2 0xFCD DUP3 DUP3 PUSH2 0xF86 JUMP JUMPDEST SWAP2 SWAP1 POP JUMP JUMPDEST PUSH1 0x0 PUSH8 0xFFFFFFFFFFFFFFFF DUP3 GT ISZERO PUSH2 0xFED JUMPI PUSH2 0xFEC PUSH2 0xF57 JUMP JUMPDEST JUMPDEST PUSH2 0xFF6 DUP3 PUSH2 0xF46 JUMP JUMPDEST SWAP1 POP PUSH1 0x20 DUP2 ADD SWAP1 POP SWAP2 SWAP1 POP JUMP JUMPDEST DUP3 DUP2 DUP4 CALLDATACOPY PUSH1 0x0 DUP4 DUP4 ADD MSTORE POP POP POP JUMP JUMPDEST PUSH1 0x0 PUSH2 0x1025 PUSH2 0x1020 DUP5 PUSH2 0xFD2 JUMP JUMPDEST PUSH2 0xFB7 JUMP JUMPDEST SWAP1 POP DUP3 DUP2 MSTORE PUSH1 0x20 DUP2 ADD DUP5 DUP5 DUP5 ADD GT ISZERO PUSH2 0x1041 JUMPI PUSH2 0x1040 PUSH2 0xF41 JUMP JUMPDEST JUMPDEST PUSH2 0x104C DUP5 DUP3 DUP6 PUSH2 0x1003 JUMP JUMPDEST POP SWAP4 SWAP3 POP POP POP JUMP JUMPDEST PUSH1 0x0 DUP3 PUSH1 0x1F DUP4 ADD SLT PUSH2 0x1069 JUMPI PUSH2 0x1068 PUSH2 0xF3C JUMP JUMPDEST JUMPDEST DUP2 CALLDATALOAD PUSH2 0x1079 DUP5 DUP3 PUSH1 0x20 DUP7 ADD PUSH2 0x1012 JUMP JUMPDEST SWAP2 POP POP SWAP3 SWAP2 POP POP JUMP JUMPDEST PUSH1 0x0 DUP1 PUSH1 0x0 PUSH1 0x60 DUP5 DUP7 SUB SLT ISZERO PUSH2 0x109B JUMPI PUSH2 0x109A PUSH2 0xEFC JUMP JUMPDEST JUMPDEST PUSH1 0x0 PUSH2 0x10A9 DUP7 DUP3 DUP8 ADD PUSH2 0xF27 JUMP JUMPDEST SWAP4 POP POP PUSH1 0x20 DUP5 ADD CALLDATALOAD PUSH8 0xFFFFFFFFFFFFFFFF DUP2 GT ISZERO PUSH2 0x10CA JUMPI PUSH2 0x10C9 PUSH2 0xF01 JUMP JUMPDEST JUMPDEST PUSH2 0x10D6 DUP7 DUP3 DUP8 ADD PUSH2 0x1054 JUMP JUMPDEST SWAP3 POP POP PUSH1 0x40 PUSH2 0x10E7 DUP7 DUP3 DUP8 ADD PUSH2 0xF27 JUMP JUMPDEST SWAP2 POP POP SWAP3 POP SWAP3 POP SWAP3 JUMP JUMPDEST PUSH2 0x10FA DUP2 PUSH2 0xF06 JUMP JUMPDEST DUP3 MSTORE POP POP JUMP JUMPDEST PUSH1 0x0 DUP2 MLOAD SWAP1 POP SWAP2 SWAP1 POP JUMP JUMPDEST PUSH1 0x0 DUP3 DUP3 MSTORE PUSH1 0x20 DUP3 ADD SWAP1 POP SWAP3 SWAP2 POP POP JUMP JUMPDEST PUSH1 0x0 JUMPDEST DUP4 DUP2 LT ISZERO PUSH2 0x113A JUMPI DUP1 DUP3 ADD MLOAD DUP2 DUP5 ADD MSTORE PUSH1 0x20 DUP2 ADD SWAP1 POP PUSH2 0x111F JUMP JUMPDEST PUSH1 0x0 DUP5 DUP5 ADD MSTORE POP POP POP POP JUMP JUMPDEST PUSH1 0x0 PUSH2 0x1151 DUP3 PUSH2 0x1100 JUMP JUMPDEST PUSH2 0x115B DUP2 DUP6 PUSH2 0x110B JUMP JUMPDEST SWAP4 POP PUSH2 0x116B DUP2 DUP6 PUSH1 0x20 DUP7 ADD PUSH2 0x111C JUMP JUMPDEST PUSH2 0x1174 DUP2 PUSH2 0xF46 JUMP JUMPDEST DUP5 ADD SWAP2 POP POP SWAP3 SWAP2 POP POP JUMP JUMPDEST PUSH1 0x0 PUSH1 0x80 DUP4 ADD PUSH1 0x0 DUP4 ADD MLOAD PUSH2 0x1197 PUSH1 0x0 DUP7 ADD DUP3 PUSH2 0x10F1 JUMP JUMPDEST POP PUSH1 0x20 DUP4 ADD MLOAD DUP5 DUP3 SUB PUSH1 0x20 DUP7 ADD MSTORE PUSH2 0x11AF DUP3 DUP3 PUSH2 0x1146 JUMP JUMPDEST SWAP2 POP POP PUSH1 0x40 DUP4 ADD MLOAD PUSH2 0x11C4 PUSH1 0x40 DUP7 ADD DUP3 PUSH2 0x10F1 JUMP JUMPDEST POP PUSH1 0x60 DUP4 ADD MLOAD DUP5 DUP3 SUB PUSH1 0x60 DUP7 ADD MSTORE PUSH2 0x11DC DUP3 DUP3 PUSH2 0x1146 JUMP JUMPDEST SWAP2 POP POP DUP1 SWAP2 POP POP SWAP3 SWAP2 POP POP JUMP JUMPDEST PUSH1 0x0 PUSH1 0x60 DUP3 ADD SWAP1 POP DUP2 DUP2 SUB PUSH1 0x0 DUP4 ADD MSTORE PUSH2 0x1203 DUP2 DUP7 PUSH2 0x117F JUMP JUMPDEST SWAP1 POP DUP2 DUP2 SUB PUSH1 0x20 DUP4 ADD MSTORE PUSH2 0x1217 DUP2 DUP6 PUSH2 0x117F JUMP JUMPDEST SWAP1 POP DUP2 DUP2 SUB PUSH1 0x40 DUP4 ADD MSTORE PUSH2 0x122B DUP2 DUP5 PUSH2 0x117F JUMP JUMPDEST SWAP1 POP SWAP5 SWAP4 POP POP POP POP JUMP JUMPDEST PUSH1 0x0 PUSH1 0x20 DUP3 DUP5 SUB SLT ISZERO PUSH2 0x124B JUMPI PUSH2 0x124A PUSH2 0xEFC JUMP JUMPDEST JUMPDEST PUSH1 0x0 PUSH2 0x1259 DUP5 DUP3 DUP6 ADD PUSH2 0xF27 JUMP JUMPDEST SWAP2 POP POP SWAP3 SWAP2 POP POP JUMP JUMPDEST PUSH1 0x0 DUP3 DUP3 MSTORE PUSH1 0x20 DUP3 ADD SWAP1 POP SWAP3 SWAP2 POP POP JUMP JUMPDEST PUSH1 0x0 PUSH2 0x127E DUP3 PUSH2 0x1100 JUMP JUMPDEST PUSH2 0x1288 DUP2 DUP6 PUSH2 0x1262 JUMP JUMPDEST SWAP4 POP PUSH2 0x1298 DUP2 DUP6 PUSH1 0x20 DUP7 ADD PUSH2 0x111C JUMP JUMPDEST PUSH2 0x12A1 DUP2 PUSH2 0xF46 JUMP JUMPDEST DUP5 ADD SWAP2 POP POP SWAP3 SWAP2 POP POP JUMP JUMPDEST PUSH1 0x0 PUSH1 0x20 DUP3 ADD SWAP1 POP DUP2 DUP2 SUB PUSH1 0x0 DUP4 ADD MSTORE PUSH2 0x12C6 DUP2 DUP5 PUSH2 0x1273 JUMP JUMPDEST SWAP1 POP SWAP3 SWAP2 POP POP JUMP JUMPDEST PUSH1 0x0 DUP2 MLOAD SWAP1 POP SWAP2 SWAP1 POP JUMP JUMPDEST PUSH1 0x0 DUP3 DUP3 MSTORE PUSH1 0x20 DUP3 ADD SWAP1 POP SWAP3 SWAP2 POP POP JUMP JUMPDEST PUSH1 0x0 DUP2 SWAP1 POP PUSH1 0x20 DUP3 ADD SWAP1 POP SWAP2 SWAP1 POP JUMP JUMPDEST PUSH1 0x0 PUSH1 0x80 DUP4 ADD PUSH1 0x0 DUP4 ADD MLOAD PUSH2 0x1312 PUSH1 0x0 DUP7 ADD DUP3 PUSH2 0x10F1 JUMP JUMPDEST POP PUSH1 0x20 DUP4 ADD MLOAD DUP5 DUP3 SUB PUSH1 0x20 DUP7 ADD MSTORE PUSH2 0x132A DUP3 DUP3 PUSH2 0x1146 JUMP JUMPDEST SWAP2 POP POP PUSH1 0x40 DUP4 ADD MLOAD PUSH2 0x133F PUSH1 0x40 DUP7 ADD DUP3 PUSH2 0x10F1 JUMP JUMPDEST POP PUSH1 0x60 DUP4 ADD MLOAD DUP5 DUP3 SUB PUSH1 0x60 DUP7 ADD MSTORE PUSH2 0x1357 DUP3 DUP3 PUSH2 0x1146 JUMP JUMPDEST SWAP2 POP POP DUP1 SWAP2 POP POP SWAP3 SWAP2 POP POP JUMP JUMPDEST PUSH1 0x0 PUSH2 0x1370 DUP4 DUP4 PUSH2 0x12FA JUMP JUMPDEST SWAP1 POP SWAP3 SWAP2 POP POP JUMP JUMPDEST PUSH1 0x0 PUSH1 0x20 DUP3 ADD SWAP1 POP SWAP2 SWAP1 POP JUMP JUMPDEST PUSH1 0x0 PUSH2 0x1390 DUP3 PUSH2 0x12CE JUMP JUMPDEST PUSH2 0x139A DUP2 DUP6 PUSH2 0x12D9 JUMP JUMPDEST SWAP4 POP DUP4 PUSH1 0x20 DUP3 MUL DUP6 ADD PUSH2 0x13AC DUP6 PUSH2 0x12EA JUMP JUMPDEST DUP1 PUSH1 0x0 JUMPDEST DUP6 DUP2 LT ISZERO PUSH2 0x13E8 JUMPI DUP5 DUP5 SUB DUP10 MSTORE DUP2 MLOAD PUSH2 0x13C9 DUP6 DUP3 PUSH2 0x1364 JUMP JUMPDEST SWAP5 POP PUSH2 0x13D4 DUP4 PUSH2 0x1378 JUMP JUMPDEST SWAP3 POP PUSH1 0x20 DUP11 ADD SWAP10 POP POP PUSH1 0x1 DUP2 ADD SWAP1 POP PUSH2 0x13B0 JUMP JUMPDEST POP DUP3 SWAP8 POP DUP8 SWAP6 POP POP POP POP POP POP SWAP3 SWAP2 POP POP JUMP JUMPDEST PUSH1 0x0 PUSH1 0x20 DUP3 ADD SWAP1 POP DUP2 DUP2 SUB PUSH1 0x0 DUP4 ADD MSTORE PUSH2 0x1414 DUP2 DUP5 PUSH2 0x1385 JUMP JUMPDEST SWAP1 POP SWAP3 SWAP2 POP POP JUMP JUMPDEST PUSH32 0x4E487B7100000000000000000000000000000000000000000000000000000000 PUSH1 0x0 MSTORE PUSH1 0x22 PUSH1 0x4 MSTORE PUSH1 0x24 PUSH1 0x0 REVERT JUMPDEST PUSH1 0x0 PUSH1 0x2 DUP3 DIV SWAP1 POP PUSH1 0x1 DUP3 AND DUP1 PUSH2 0x1463 JUMPI PUSH1 0x7F DUP3 AND SWAP2 POP JUMPDEST PUSH1 0x20 DUP3 LT DUP2 SUB PUSH2 0x1476 JUMPI PUSH2 0x1475 PUSH2 0x141C JUMP JUMPDEST JUMPDEST POP SWAP2 SWAP1 POP JUMP JUMPDEST PUSH1 0x0 DUP2 SWAP1 POP DUP2 PUSH1 0x0 MSTORE PUSH1 0x20 PUSH1 0x0 KECCAK256 SWAP1 POP SWAP2 SWAP1 POP JUMP JUMPDEST PUSH1 0x0 PUSH1 0x20 PUSH1 0x1F DUP4 ADD DIV SWAP1 POP SWAP2 SWAP1 POP JUMP JUMPDEST PUSH1 0x0 DUP3 DUP3 SHL SWAP1 POP SWAP3 SWAP2 POP POP JUMP JUMPDEST PUSH1 0x0 PUSH1 0x8 DUP4 MUL PUSH2 0x14DE PUSH32 0xFFFFFFFFFFFFFFFFFFFFFFFFFFFFFFFFFFFFFFFFFFFFFFFFFFFFFFFFFFFFFFFF DUP3 PUSH2 0x14A1 JUMP JUMPDEST PUSH2 0x14E8 DUP7 DUP4 PUSH2 0x14A1 JUMP JUMPDEST SWAP6 POP DUP1 NOT DUP5 AND SWAP4 POP DUP1 DUP7 AND DUP5 OR SWAP3 POP POP POP SWAP4 SWAP3 POP POP POP JUMP JUMPDEST PUSH1 0x0 DUP2 SWAP1 POP SWAP2 SWAP1 POP JUMP JUMPDEST PUSH1 0x0 PUSH2 0x1525 PUSH2 0x1520 PUSH2 0x151B DUP5 PUSH2 0xF06 JUMP JUMPDEST PUSH2 0x1500 JUMP JUMPDEST PUSH2 0xF06 JUMP JUMPDEST SWAP1 POP SWAP2 SWAP1 POP JUMP JUMPDEST PUSH1 0x0 DUP2 SWAP1 POP SWAP2 SWAP1 POP JUMP JUMPDEST PUSH2 0x153F DUP4 PUSH2 0x150A JUMP JUMPDEST PUSH2 0x1553 PUSH2 0x154B DUP3 PUSH2 0x152C JUMP JUMPDEST DUP5 DUP5 SLOAD PUSH2 0x14AE JUMP JUMPDEST DUP3 SSTORE POP POP POP POP JUMP JUMPDEST PUSH1 0x0 SWAP1 JUMP JUMPDEST PUSH2 0x1568 PUSH2 0x155B JUMP JUMPDEST PUSH2 0x1573 DUP2 DUP5 DUP5 PUSH2 0x1536 JUMP JUMPDEST POP POP POP JUMP JUMPDEST JUMPDEST DUP2 DUP2 LT ISZERO PUSH2 0x1597 JUMPI PUSH2 0x158C PUSH1 0x0 DUP3 PUSH2 0x1560 JUMP JUMPDEST PUSH1 0x1 DUP2 ADD SWAP1 POP PUSH2 0x1579 JUMP JUMPDEST POP POP JUMP JUMPDEST PUSH1 0x1F DUP3 GT ISZERO PUSH2 0x15DC JUMPI PUSH2 0x15AD DUP2 PUSH2 0x147C JUMP JUMPDEST PUSH2 0x15B6 DUP5 PUSH2 0x1491 JUMP JUMPDEST DUP2 ADD PUSH1 0x20 DUP6 LT ISZERO PUSH2 0x15C5 JUMPI DUP2 SWAP1 POP JUMPDEST PUSH2 0x15D9 PUSH2 0x15D1 DUP6 PUSH2 0x1491 JUMP JUMPDEST DUP4 ADD DUP3 PUSH2 0x1578 JUMP JUMPDEST POP POP JUMPDEST POP POP POP JUMP JUMPDEST PUSH1 0x0 DUP3 DUP3 SHR SWAP1 POP SWAP3 SWAP2 POP POP JUMP JUMPDEST PUSH1 0x0 PUSH2 0x15FF PUSH1 0x0 NOT DUP5 PUSH1 0x8 MUL PUSH2 0x15E1 JUMP JUMPDEST NOT DUP1 DUP4 AND SWAP2 POP POP SWAP3 SWAP2 POP POP JUMP JUMPDEST PUSH1 0x0 PUSH2 0x1618 DUP4 DUP4 PUSH2 0x15EE JUMP JUMPDEST SWAP2 POP DUP3 PUSH1 0x2 MUL DUP3 OR SWAP1 POP SWAP3 SWAP2 POP POP JUMP JUMPDEST PUSH2 0x1631 DUP3 PUSH2 0x1100 JUMP JUMPDEST PUSH8 0xFFFFFFFFFFFFFFFF DUP2 GT ISZERO PUSH2 0x164A JUMPI PUSH2 0x1649 PUSH2 0xF57 JUMP JUMPDEST JUMPDEST PUSH2 0x1654 DUP3 SLOAD PUSH2 0x144B JUMP JUMPDEST PUSH2 0x165F DUP3 DUP3 DUP6 PUSH2 0x159B JUMP JUMPDEST PUSH1 0x0 PUSH1 0x20 SWAP1 POP PUSH1 0x1F DUP4 GT PUSH1 0x1 DUP2 EQ PUSH2 0x1692 JUMPI PUSH1 0x0 DUP5 ISZERO PUSH2 0x1680 JUMPI DUP3 DUP8 ADD MLOAD SWAP1 POP JUMPDEST PUSH2 0x168A DUP6 DUP3 PUSH2 0x160C JUMP JUMPDEST DUP7 SSTORE POP PUSH2 0x16F2 JUMP JUMPDEST PUSH1 0x1F NOT DUP5 AND PUSH2 0x16A0 DUP7 PUSH2 0x147C JUMP JUMPDEST PUSH1 0x0 JUMPDEST DUP3 DUP2 LT ISZERO PUSH2 0x16C8 JUMPI DUP5 DUP10 ADD MLOAD DUP3 SSTORE PUSH1 0x1 DUP3 ADD SWAP2 POP PUSH1 0x20 DUP6 ADD SWAP5 POP PUSH1 0x20 DUP2 ADD SWAP1 POP PUSH2 0x16A3 JUMP JUMPDEST DUP7 DUP4 LT ISZERO PUSH2 0x16E5 JUMPI DUP5 DUP10 ADD MLOAD PUSH2 0x16E1 PUSH1 0x1F DUP10 AND DUP3 PUSH2 0x15EE JUMP JUMPDEST DUP4 SSTORE POP JUMPDEST PUSH1 0x1 PUSH1 0x2 DUP9 MUL ADD DUP9 SSTORE POP POP POP JUMPDEST POP POP POP POP POP POP JUMP INVALID LOG2 PUSH5 0x6970667358 0x22 SLT KECCAK256 SWAP13 MLOAD PUSH23 0xE1DD0B7AE36EF0EEC0557811CB1812993CF1ED8B0E6D64 0xE7 0xC PUSH30 0x954DCA64736F6C6343000812003300000000000000000000000000000000 "
				},
				"gasEstimates": {
					"creation": {
						"codeDepositCost": "1187200",
						"executionCost": "1234",
						"totalCost": "1188434"
					},
					"external": {
						"getStudents()": "infinite",
						"getStudentsABC()": "infinite",
						"pushStudent(uint256,string,uint256)": "infinite",
						"pushStudent2(uint256,string,uint256)": "infinite",
						"setAlice(uint256,string,uint256)": "infinite",
						"setBob(uint256,string,uint256)": "infinite",
						"setCharlie(uint256,string,uint256)": "infinite",
						"setGrade(uint256)": "infinite"
					}
				},
				"methodIdentifiers": {
					"getStudents()": "f1d064b3",
					"getStudentsABC()": "448e1bed",
					"pushStudent(uint256,string,uint256)": "3b4598b1",
					"pushStudent2(uint256,string,uint256)": "c731f947",
					"setAlice(uint256,string,uint256)": "9fec8626",
					"setBob(uint256,string,uint256)": "9db1e7da",
					"setCharlie(uint256,string,uint256)": "ad8364a4",
					"setGrade(uint256)": "674271cd"
				}
			},
			"storageLayout": {
				"storage": [
					{
						"astId": 155,
						"contract": "contracts/2_if.sol:IF2",
						"label": "a",
						"offset": 0,
						"slot": "0",
						"type": "t_struct(student)152_storage"
					},
					{
						"astId": 158,
						"contract": "contracts/2_if.sol:IF2",
						"label": "b",
						"offset": 0,
						"slot": "4",
						"type": "t_struct(student)152_storage"
					},
					{
						"astId": 161,
						"contract": "contracts/2_if.sol:IF2",
						"label": "c",
						"offset": 0,
						"slot": "8",
						"type": "t_struct(student)152_storage"
					},
					{
						"astId": 165,
						"contract": "contracts/2_if.sol:IF2",
						"label": "Students",
						"offset": 0,
						"slot": "12",
						"type": "t_array(t_struct(student)152_storage)dyn_storage"
					}
				],
				"types": {
					"t_array(t_struct(student)152_storage)dyn_storage": {
						"base": "t_struct(student)152_storage",
						"encoding": "dynamic_array",
						"label": "struct IF2.student[]",
						"numberOfBytes": "32"
					},
					"t_string_storage": {
						"encoding": "bytes",
						"label": "string",
						"numberOfBytes": "32"
					},
					"t_struct(student)152_storage": {
						"encoding": "inplace",
						"label": "struct IF2.student",
						"members": [
							{
								"astId": 145,
								"contract": "contracts/2_if.sol:IF2",
								"label": "number",
								"offset": 0,
								"slot": "0",
								"type": "t_uint256"
							},
							{
								"astId": 147,
								"contract": "contracts/2_if.sol:IF2",
								"label": "name",
								"offset": 0,
								"slot": "1",
								"type": "t_string_storage"
							},
							{
								"astId": 149,
								"contract": "contracts/2_if.sol:IF2",
								"label": "score",
								"offset": 0,
								"slot": "2",
								"type": "t_uint256"
							},
							{
								"astId": 151,
								"contract": "contracts/2_if.sol:IF2",
								"label": "credit",
								"offset": 0,
								"slot": "3",
								"type": "t_string_storage"
							}
						],
						"numberOfBytes": "128"
					},
					"t_uint256": {
						"encoding": "inplace",
						"label": "uint256",
						"numberOfBytes": "32"
					}
				}
			},
			"userdoc": {
				"kind": "user",
				"methods": {},
				"version": 1
			}
		}
	}
}