{
	"contracts/2_if.sol": {
		"IF1": {
			"abi": [
				{
					"inputs": [
						{
							"internalType": "uint256",
							"name": "_number",
							"type": "uint256"
						}
					],
					"name": "evenORodd",
					"outputs": [],
					"stateMutability": "nonpayable",
					"type": "function"
				},
				{
					"inputs": [
						{
							"internalType": "uint256",
							"name": "_number",
							"type": "uint256"
						}
					],
					"name": "getABC",
					"outputs": [],
					"stateMutability": "nonpayable",
					"type": "function"
				},
				{
					"inputs": [],
					"name": "getEven",
					"outputs": [
						{
							"internalType": "uint256[]",
							"name": "",
							"type": "uint256[]"
						}
					],
					"stateMutability": "view",
					"type": "function"
				},
				{
					"inputs": [],
					"name": "getOdd",
					"outputs": [
						{
							"internalType": "uint256[]",
							"name": "",
							"type": "uint256[]"
						}
					],
					"stateMutability": "view",
					"type": "function"
				},
				{
					"inputs": [
						{
							"internalType": "uint256",
							"name": "_score",
							"type": "uint256"
						}
					],
					"name": "setClass",
					"outputs": [
						{
							"internalType": "string",
							"name": "",
							"type": "string"
						}
					],
					"stateMutability": "pure",
					"type": "function"
				},
				{
					"inputs": [
						{
							"internalType": "uint256",
							"name": "_score",
							"type": "uint256"
						}
					],
					"name": "setScore",
					"outputs": [
						{
							"internalType": "string",
							"name": "",
							"type": "string"
						}
					],
					"stateMutability": "pure",
					"type": "function"
				}
			],
			"devdoc": {
				"kind": "dev",
				"methods": {},
				"version": 1
			},
			"evm": {
				"assembly": "    /* \"contracts/2_if.sol\":67:1231  contract IF1 {... */\n  mstore(0x40, 0x80)\n  callvalue\n  dup1\n  iszero\n  tag_1\n  jumpi\n  0x00\n  dup1\n  revert\ntag_1:\n  pop\n  dataSize(sub_0)\n  dup1\n  dataOffset(sub_0)\n  0x00\n  codecopy\n  0x00\n  return\nstop\n\nsub_0: assembly {\n        /* \"contracts/2_if.sol\":67:1231  contract IF1 {... */\n      mstore(0x40, 0x80)\n      callvalue\n      dup1\n      iszero\n      tag_1\n      jumpi\n      0x00\n      dup1\n      revert\n    tag_1:\n      pop\n      jumpi(tag_2, lt(calldatasize, 0x04))\n      shr(0xe0, calldataload(0x00))\n      dup1\n      0x159c10ee\n      eq\n      tag_3\n      jumpi\n      dup1\n      0x422beeba\n      eq\n      tag_4\n      jumpi\n      dup1\n      0x98105d8d\n      eq\n      tag_5\n      jumpi\n      dup1\n      0xb0c7a93c\n      eq\n      tag_6\n      jumpi\n      dup1\n      0xb6e52cb1\n      eq\n      tag_7\n      jumpi\n      dup1\n      0xc1846f51\n      eq\n      tag_8\n      jumpi\n    tag_2:\n      0x00\n      dup1\n      revert\n        /* \"contracts/2_if.sol\":859:941  function getOdd() public view returns(uint[] memory) {... */\n    tag_3:\n      tag_9\n      tag_10\n      jump\t// in\n    tag_9:\n      mload(0x40)\n      tag_11\n      swap2\n      swap1\n      tag_12\n      jump\t// in\n    tag_11:\n      mload(0x40)\n      dup1\n      swap2\n      sub\n      swap1\n      return\n        /* \"contracts/2_if.sol\":87:274  function setScore(uint _score) public pure returns (string memory) {... */\n    tag_4:\n      tag_13\n      0x04\n      dup1\n      calldatasize\n      sub\n      dup2\n      add\n      swap1\n      tag_14\n      swap2\n      swap1\n      tag_15\n      jump\t// in\n    tag_14:\n      tag_16\n      jump\t// in\n    tag_13:\n      mload(0x40)\n      tag_17\n      swap2\n      swap1\n      tag_18\n      jump\t// in\n    tag_17:\n      mload(0x40)\n      dup1\n      swap2\n      sub\n      swap1\n      return\n        /* \"contracts/2_if.sol\":994:1228  function getABC(uint _number) public {... */\n    tag_5:\n      tag_19\n      0x04\n      dup1\n      calldatasize\n      sub\n      dup2\n      add\n      swap1\n      tag_20\n      swap2\n      swap1\n      tag_15\n      jump\t// in\n    tag_20:\n      tag_21\n      jump\t// in\n    tag_19:\n      stop\n        /* \"contracts/2_if.sol\":767:851  function getEven() public view returns(uint[] memory) {... */\n    tag_6:\n      tag_22\n      tag_23\n      jump\t// in\n    tag_22:\n      mload(0x40)\n      tag_24\n      swap2\n      swap1\n      tag_12\n      jump\t// in\n    tag_24:\n      mload(0x40)\n      dup1\n      swap2\n      sub\n      swap1\n      return\n        /* \"contracts/2_if.sol\":585:759  function evenORodd(uint _number) public {... */\n    tag_7:\n      tag_25\n      0x04\n      dup1\n      calldatasize\n      sub\n      dup2\n      add\n      swap1\n      tag_26\n      swap2\n      swap1\n      tag_15\n      jump\t// in\n    tag_26:\n      tag_27\n      jump\t// in\n    tag_25:\n      stop\n        /* \"contracts/2_if.sol\":283:542  function setClass(uint _score) public pure returns (string memory) {... */\n    tag_8:\n      tag_28\n      0x04\n      dup1\n      calldatasize\n      sub\n      dup2\n      add\n      swap1\n      tag_29\n      swap2\n      swap1\n      tag_15\n      jump\t// in\n    tag_29:\n      tag_30\n      jump\t// in\n    tag_28:\n      mload(0x40)\n      tag_31\n      swap2\n      swap1\n      tag_18\n      jump\t// in\n    tag_31:\n      mload(0x40)\n      dup1\n      swap2\n      sub\n      swap1\n      return\n        /* \"contracts/2_if.sol\":859:941  function getOdd() public view returns(uint[] memory) {... */\n    tag_10:\n        /* \"contracts/2_if.sol\":897:910  uint[] memory */\n      0x60\n        /* \"contracts/2_if.sol\":930:933  odd */\n      0x01\n        /* \"contracts/2_if.sol\":923:933  return odd */\n      dup1\n      sload\n      dup1\n      0x20\n      mul\n      0x20\n      add\n      mload(0x40)\n      swap1\n      dup2\n      add\n      0x40\n      mstore\n      dup1\n      swap3\n      swap2\n      swap1\n      dup2\n      dup2\n      mstore\n      0x20\n      add\n      dup3\n      dup1\n      sload\n      dup1\n      iszero\n      tag_33\n      jumpi\n      0x20\n      mul\n      dup3\n      add\n      swap2\n      swap1\n      0x00\n      mstore\n      keccak256(0x00, 0x20)\n      swap1\n    tag_34:\n      dup2\n      sload\n      dup2\n      mstore\n      0x20\n      add\n      swap1\n      0x01\n      add\n      swap1\n      dup1\n      dup4\n      gt\n      tag_34\n      jumpi\n    tag_33:\n      pop\n      pop\n      pop\n      pop\n      pop\n      swap1\n      pop\n        /* \"contracts/2_if.sol\":859:941  function getOdd() public view returns(uint[] memory) {... */\n      swap1\n      jump\t// out\n        /* \"contracts/2_if.sol\":87:274  function setScore(uint _score) public pure returns (string memory) {... */\n    tag_16:\n        /* \"contracts/2_if.sol\":139:152  string memory */\n      0x60\n        /* \"contracts/2_if.sol\":178:180  50 */\n      0x32\n        /* \"contracts/2_if.sol\":168:174  _score */\n      dup3\n        /* \"contracts/2_if.sol\":168:180  _score >= 50 */\n      lt\n        /* \"contracts/2_if.sol\":165:267  if(_score >= 50){... */\n      tag_36\n      jumpi\n        /* \"contracts/2_if.sol\":196:209  return \"PASS\" */\n      mload(0x40)\n      dup1\n      0x40\n      add\n      0x40\n      mstore\n      dup1\n      0x04\n      dup2\n      mstore\n      0x20\n      add\n      0x5041535300000000000000000000000000000000000000000000000000000000\n      dup2\n      mstore\n      pop\n      swap1\n      pop\n      jump(tag_35)\n        /* \"contracts/2_if.sol\":165:267  if(_score >= 50){... */\n    tag_36:\n        /* \"contracts/2_if.sol\":242:255  return \"FAIL\" */\n      mload(0x40)\n      dup1\n      0x40\n      add\n      0x40\n      mstore\n      dup1\n      0x04\n      dup2\n      mstore\n      0x20\n      add\n      0x4641494c00000000000000000000000000000000000000000000000000000000\n      dup2\n      mstore\n      pop\n      swap1\n      pop\n        /* \"contracts/2_if.sol\":87:274  function setScore(uint _score) public pure returns (string memory) {... */\n    tag_35:\n      swap2\n      swap1\n      pop\n      jump\t// out\n        /* \"contracts/2_if.sol\":994:1228  function getABC(uint _number) public {... */\n    tag_21:\n        /* \"contracts/2_if.sol\":1060:1061  1 */\n      0x01\n        /* \"contracts/2_if.sol\":1055:1056  3 */\n      0x03\n        /* \"contracts/2_if.sol\":1045:1052  _number */\n      dup3\n        /* \"contracts/2_if.sol\":1045:1056  _number % 3 */\n      tag_39\n      swap2\n      swap1\n      tag_40\n      jump\t// in\n    tag_39:\n        /* \"contracts/2_if.sol\":1045:1061  _number % 3 == 1 */\n      sub\n        /* \"contracts/2_if.sol\":1042:1221  if(_number % 3 == 1) {... */\n      tag_41\n      jumpi\n        /* \"contracts/2_if.sol\":1078:1079  A */\n      0x02\n        /* \"contracts/2_if.sol\":1085:1092  _number */\n      dup2\n        /* \"contracts/2_if.sol\":1078:1093  A.push(_number) */\n      swap1\n      dup1\n      0x01\n      dup2\n      sload\n      add\n      dup1\n      dup3\n      sstore\n      dup1\n      swap2\n      pop\n      pop\n      0x01\n      swap1\n      sub\n      swap1\n      0x00\n      mstore\n      keccak256(0x00, 0x20)\n      add\n      0x00\n      swap1\n      swap2\n      swap1\n      swap2\n      swap1\n      swap2\n      pop\n      sstore\n        /* \"contracts/2_if.sol\":1042:1221  if(_number % 3 == 1) {... */\n      jump(tag_43)\n    tag_41:\n        /* \"contracts/2_if.sol\":1129:1130  2 */\n      0x02\n        /* \"contracts/2_if.sol\":1124:1125  3 */\n      0x03\n        /* \"contracts/2_if.sol\":1114:1121  _number */\n      dup3\n        /* \"contracts/2_if.sol\":1114:1125  _number % 3 */\n      tag_44\n      swap2\n      swap1\n      tag_40\n      jump\t// in\n    tag_44:\n        /* \"contracts/2_if.sol\":1114:1130  _number % 3 == 2 */\n      sub\n        /* \"contracts/2_if.sol\":1111:1221  if(_number % 3 == 2) {... */\n      tag_45\n      jumpi\n        /* \"contracts/2_if.sol\":1147:1148  B */\n      0x03\n        /* \"contracts/2_if.sol\":1154:1161  _number */\n      dup2\n        /* \"contracts/2_if.sol\":1147:1162  B.push(_number) */\n      swap1\n      dup1\n      0x01\n      dup2\n      sload\n      add\n      dup1\n      dup3\n      sstore\n      dup1\n      swap2\n      pop\n      pop\n      0x01\n      swap1\n      sub\n      swap1\n      0x00\n      mstore\n      keccak256(0x00, 0x20)\n      add\n      0x00\n      swap1\n      swap2\n      swap1\n      swap2\n      swap1\n      swap2\n      pop\n      sstore\n        /* \"contracts/2_if.sol\":1111:1221  if(_number % 3 == 2) {... */\n      jump(tag_47)\n    tag_45:\n        /* \"contracts/2_if.sol\":1194:1195  C */\n      0x04\n        /* \"contracts/2_if.sol\":1201:1208  _number */\n      dup2\n        /* \"contracts/2_if.sol\":1194:1209  C.push(_number) */\n      swap1\n      dup1\n      0x01\n      dup2\n      sload\n      add\n      dup1\n      dup3\n      sstore\n      dup1\n      swap2\n      pop\n      pop\n      0x01\n      swap1\n      sub\n      swap1\n      0x00\n      mstore\n      keccak256(0x00, 0x20)\n      add\n      0x00\n      swap1\n      swap2\n      swap1\n      swap2\n      swap1\n      swap2\n      pop\n      sstore\n        /* \"contracts/2_if.sol\":1111:1221  if(_number % 3 == 2) {... */\n    tag_47:\n        /* \"contracts/2_if.sol\":1042:1221  if(_number % 3 == 1) {... */\n    tag_43:\n        /* \"contracts/2_if.sol\":994:1228  function getABC(uint _number) public {... */\n      pop\n      jump\t// out\n        /* \"contracts/2_if.sol\":767:851  function getEven() public view returns(uint[] memory) {... */\n    tag_23:\n        /* \"contracts/2_if.sol\":806:819  uint[] memory */\n      0x60\n        /* \"contracts/2_if.sol\":839:843  even */\n      0x00\n        /* \"contracts/2_if.sol\":832:843  return even */\n      dup1\n      sload\n      dup1\n      0x20\n      mul\n      0x20\n      add\n      mload(0x40)\n      swap1\n      dup2\n      add\n      0x40\n      mstore\n      dup1\n      swap3\n      swap2\n      swap1\n      dup2\n      dup2\n      mstore\n      0x20\n      add\n      dup3\n      dup1\n      sload\n      dup1\n      iszero\n      tag_50\n      jumpi\n      0x20\n      mul\n      dup3\n      add\n      swap2\n      swap1\n      0x00\n      mstore\n      keccak256(0x00, 0x20)\n      swap1\n    tag_51:\n      dup2\n      sload\n      dup2\n      mstore\n      0x20\n      add\n      swap1\n      0x01\n      add\n      swap1\n      dup1\n      dup4\n      gt\n      tag_51\n      jumpi\n    tag_50:\n      pop\n      pop\n      pop\n      pop\n      pop\n      swap1\n      pop\n        /* \"contracts/2_if.sol\":767:851  function getEven() public view returns(uint[] memory) {... */\n      swap1\n      jump\t// out\n        /* \"contracts/2_if.sol\":585:759  function evenORodd(uint _number) public {... */\n    tag_27:\n        /* \"contracts/2_if.sol\":654:655  0 */\n      0x00\n        /* \"contracts/2_if.sol\":649:650  2 */\n      0x02\n        /* \"contracts/2_if.sol\":639:646  _number */\n      dup3\n        /* \"contracts/2_if.sol\":639:650  _number % 2 */\n      tag_53\n      swap2\n      swap1\n      tag_40\n      jump\t// in\n    tag_53:\n        /* \"contracts/2_if.sol\":639:655  _number % 2 == 0 */\n      sub\n        /* \"contracts/2_if.sol\":636:752  if(_number % 2 == 0) {... */\n      tag_54\n      jumpi\n        /* \"contracts/2_if.sol\":672:676  even */\n      0x00\n        /* \"contracts/2_if.sol\":682:689  _number */\n      dup2\n        /* \"contracts/2_if.sol\":672:690  even.push(_number) */\n      swap1\n      dup1\n      0x01\n      dup2\n      sload\n      add\n      dup1\n      dup3\n      sstore\n      dup1\n      swap2\n      pop\n      pop\n      0x01\n      swap1\n      sub\n      swap1\n      0x00\n      mstore\n      keccak256(0x00, 0x20)\n      add\n      0x00\n      swap1\n      swap2\n      swap1\n      swap2\n      swap1\n      swap2\n      pop\n      sstore\n        /* \"contracts/2_if.sol\":636:752  if(_number % 2 == 0) {... */\n      jump(tag_56)\n    tag_54:\n        /* \"contracts/2_if.sol\":723:726  odd */\n      0x01\n        /* \"contracts/2_if.sol\":732:739  _number */\n      dup2\n        /* \"contracts/2_if.sol\":723:740  odd.push(_number) */\n      swap1\n      dup1\n      0x01\n      dup2\n      sload\n      add\n      dup1\n      dup3\n      sstore\n      dup1\n      swap2\n      pop\n      pop\n      0x01\n      swap1\n      sub\n      swap1\n      0x00\n      mstore\n      keccak256(0x00, 0x20)\n      add\n      0x00\n      swap1\n      swap2\n      swap1\n      swap2\n      swap1\n      swap2\n      pop\n      sstore\n        /* \"contracts/2_if.sol\":636:752  if(_number % 2 == 0) {... */\n    tag_56:\n        /* \"contracts/2_if.sol\":585:759  function evenORodd(uint _number) public {... */\n      pop\n      jump\t// out\n        /* \"contracts/2_if.sol\":283:542  function setClass(uint _score) public pure returns (string memory) {... */\n    tag_30:\n        /* \"contracts/2_if.sol\":335:348  string memory */\n      0x60\n        /* \"contracts/2_if.sol\":374:376  70 */\n      0x46\n        /* \"contracts/2_if.sol\":364:370  _score */\n      dup3\n        /* \"contracts/2_if.sol\":364:376  _score >= 70 */\n      lt\n        /* \"contracts/2_if.sol\":361:535  if(_score >= 70) {... */\n      tag_59\n      jumpi\n        /* \"contracts/2_if.sol\":393:409  return \"Class A\" */\n      mload(0x40)\n      dup1\n      0x40\n      add\n      0x40\n      mstore\n      dup1\n      0x07\n      dup2\n      mstore\n      0x20\n      add\n      0x436c617373204100000000000000000000000000000000000000000000000000\n      dup2\n      mstore\n      pop\n      swap1\n      pop\n      jump(tag_58)\n        /* \"contracts/2_if.sol\":361:535  if(_score >= 70) {... */\n    tag_59:\n        /* \"contracts/2_if.sol\":440:442  50 */\n      0x32\n        /* \"contracts/2_if.sol\":430:436  _score */\n      dup3\n        /* \"contracts/2_if.sol\":430:442  _score >= 50 */\n      lt\n        /* \"contracts/2_if.sol\":427:535  if(_score >= 50) {... */\n      tag_61\n      jumpi\n        /* \"contracts/2_if.sol\":459:475  return \"Class B\" */\n      mload(0x40)\n      dup1\n      0x40\n      add\n      0x40\n      mstore\n      dup1\n      0x07\n      dup2\n      mstore\n      0x20\n      add\n      0x436c617373204200000000000000000000000000000000000000000000000000\n      dup2\n      mstore\n      pop\n      swap1\n      pop\n      jump(tag_58)\n        /* \"contracts/2_if.sol\":427:535  if(_score >= 50) {... */\n    tag_61:\n        /* \"contracts/2_if.sol\":507:523  return \"Class C\" */\n      mload(0x40)\n      dup1\n      0x40\n      add\n      0x40\n      mstore\n      dup1\n      0x07\n      dup2\n      mstore\n      0x20\n      add\n      0x436c617373204300000000000000000000000000000000000000000000000000\n      dup2\n      mstore\n      pop\n      swap1\n      pop\n        /* \"contracts/2_if.sol\":283:542  function setClass(uint _score) public pure returns (string memory) {... */\n    tag_58:\n      swap2\n      swap1\n      pop\n      jump\t// out\n        /* \"#utility.yul\":7:121   */\n    tag_63:\n        /* \"#utility.yul\":74:80   */\n      0x00\n        /* \"#utility.yul\":108:113   */\n      dup2\n        /* \"#utility.yul\":102:114   */\n      mload\n        /* \"#utility.yul\":92:114   */\n      swap1\n      pop\n        /* \"#utility.yul\":7:121   */\n      swap2\n      swap1\n      pop\n      jump\t// out\n        /* \"#utility.yul\":127:311   */\n    tag_64:\n        /* \"#utility.yul\":226:237   */\n      0x00\n        /* \"#utility.yul\":260:266   */\n      dup3\n        /* \"#utility.yul\":255:258   */\n      dup3\n        /* \"#utility.yul\":248:267   */\n      mstore\n        /* \"#utility.yul\":300:304   */\n      0x20\n        /* \"#utility.yul\":295:298   */\n      dup3\n        /* \"#utility.yul\":291:305   */\n      add\n        /* \"#utility.yul\":276:305   */\n      swap1\n      pop\n        /* \"#utility.yul\":127:311   */\n      swap3\n      swap2\n      pop\n      pop\n      jump\t// out\n        /* \"#utility.yul\":317:449   */\n    tag_65:\n        /* \"#utility.yul\":384:388   */\n      0x00\n        /* \"#utility.yul\":407:410   */\n      dup2\n        /* \"#utility.yul\":399:410   */\n      swap1\n      pop\n        /* \"#utility.yul\":437:441   */\n      0x20\n        /* \"#utility.yul\":432:435   */\n      dup3\n        /* \"#utility.yul\":428:442   */\n      add\n        /* \"#utility.yul\":420:442   */\n      swap1\n      pop\n        /* \"#utility.yul\":317:449   */\n      swap2\n      swap1\n      pop\n      jump\t// out\n        /* \"#utility.yul\":455:532   */\n    tag_66:\n        /* \"#utility.yul\":492:499   */\n      0x00\n        /* \"#utility.yul\":521:526   */\n      dup2\n        /* \"#utility.yul\":510:526   */\n      swap1\n      pop\n        /* \"#utility.yul\":455:532   */\n      swap2\n      swap1\n      pop\n      jump\t// out\n        /* \"#utility.yul\":538:646   */\n    tag_67:\n        /* \"#utility.yul\":615:639   */\n      tag_88\n        /* \"#utility.yul\":633:638   */\n      dup2\n        /* \"#utility.yul\":615:639   */\n      tag_66\n      jump\t// in\n    tag_88:\n        /* \"#utility.yul\":610:613   */\n      dup3\n        /* \"#utility.yul\":603:640   */\n      mstore\n        /* \"#utility.yul\":538:646   */\n      pop\n      pop\n      jump\t// out\n        /* \"#utility.yul\":652:831   */\n    tag_68:\n        /* \"#utility.yul\":721:731   */\n      0x00\n        /* \"#utility.yul\":742:788   */\n      tag_90\n        /* \"#utility.yul\":784:787   */\n      dup4\n        /* \"#utility.yul\":776:782   */\n      dup4\n        /* \"#utility.yul\":742:788   */\n      tag_67\n      jump\t// in\n    tag_90:\n        /* \"#utility.yul\":820:824   */\n      0x20\n        /* \"#utility.yul\":815:818   */\n      dup4\n        /* \"#utility.yul\":811:825   */\n      add\n        /* \"#utility.yul\":797:825   */\n      swap1\n      pop\n        /* \"#utility.yul\":652:831   */\n      swap3\n      swap2\n      pop\n      pop\n      jump\t// out\n        /* \"#utility.yul\":837:950   */\n    tag_69:\n        /* \"#utility.yul\":907:911   */\n      0x00\n        /* \"#utility.yul\":939:943   */\n      0x20\n        /* \"#utility.yul\":934:937   */\n      dup3\n        /* \"#utility.yul\":930:944   */\n      add\n        /* \"#utility.yul\":922:944   */\n      swap1\n      pop\n        /* \"#utility.yul\":837:950   */\n      swap2\n      swap1\n      pop\n      jump\t// out\n        /* \"#utility.yul\":986:1718   */\n    tag_70:\n        /* \"#utility.yul\":1105:1108   */\n      0x00\n        /* \"#utility.yul\":1134:1188   */\n      tag_93\n        /* \"#utility.yul\":1182:1187   */\n      dup3\n        /* \"#utility.yul\":1134:1188   */\n      tag_63\n      jump\t// in\n    tag_93:\n        /* \"#utility.yul\":1204:1290   */\n      tag_94\n        /* \"#utility.yul\":1283:1289   */\n      dup2\n        /* \"#utility.yul\":1278:1281   */\n      dup6\n        /* \"#utility.yul\":1204:1290   */\n      tag_64\n      jump\t// in\n    tag_94:\n        /* \"#utility.yul\":1197:1290   */\n      swap4\n      pop\n        /* \"#utility.yul\":1314:1370   */\n      tag_95\n        /* \"#utility.yul\":1364:1369   */\n      dup4\n        /* \"#utility.yul\":1314:1370   */\n      tag_65\n      jump\t// in\n    tag_95:\n        /* \"#utility.yul\":1393:1400   */\n      dup1\n        /* \"#utility.yul\":1424:1425   */\n      0x00\n        /* \"#utility.yul\":1409:1693   */\n    tag_96:\n        /* \"#utility.yul\":1434:1440   */\n      dup4\n        /* \"#utility.yul\":1431:1432   */\n      dup2\n        /* \"#utility.yul\":1428:1441   */\n      lt\n        /* \"#utility.yul\":1409:1693   */\n      iszero\n      tag_98\n      jumpi\n        /* \"#utility.yul\":1510:1516   */\n      dup2\n        /* \"#utility.yul\":1504:1517   */\n      mload\n        /* \"#utility.yul\":1537:1600   */\n      tag_99\n        /* \"#utility.yul\":1596:1599   */\n      dup9\n        /* \"#utility.yul\":1581:1594   */\n      dup3\n        /* \"#utility.yul\":1537:1600   */\n      tag_68\n      jump\t// in\n    tag_99:\n        /* \"#utility.yul\":1530:1600   */\n      swap8\n      pop\n        /* \"#utility.yul\":1623:1683   */\n      tag_100\n        /* \"#utility.yul\":1676:1682   */\n      dup4\n        /* \"#utility.yul\":1623:1683   */\n      tag_69\n      jump\t// in\n    tag_100:\n        /* \"#utility.yul\":1613:1683   */\n      swap3\n      pop\n        /* \"#utility.yul\":1469:1693   */\n      pop\n        /* \"#utility.yul\":1456:1457   */\n      0x01\n        /* \"#utility.yul\":1453:1454   */\n      dup2\n        /* \"#utility.yul\":1449:1458   */\n      add\n        /* \"#utility.yul\":1444:1458   */\n      swap1\n      pop\n        /* \"#utility.yul\":1409:1693   */\n      jump(tag_96)\n    tag_98:\n        /* \"#utility.yul\":1413:1427   */\n      pop\n        /* \"#utility.yul\":1709:1712   */\n      dup6\n        /* \"#utility.yul\":1702:1712   */\n      swap4\n      pop\n        /* \"#utility.yul\":1110:1718   */\n      pop\n      pop\n      pop\n        /* \"#utility.yul\":986:1718   */\n      swap3\n      swap2\n      pop\n      pop\n      jump\t// out\n        /* \"#utility.yul\":1724:2097   */\n    tag_12:\n        /* \"#utility.yul\":1867:1871   */\n      0x00\n        /* \"#utility.yul\":1905:1907   */\n      0x20\n        /* \"#utility.yul\":1894:1903   */\n      dup3\n        /* \"#utility.yul\":1890:1908   */\n      add\n        /* \"#utility.yul\":1882:1908   */\n      swap1\n      pop\n        /* \"#utility.yul\":1954:1963   */\n      dup2\n        /* \"#utility.yul\":1948:1952   */\n      dup2\n        /* \"#utility.yul\":1944:1964   */\n      sub\n        /* \"#utility.yul\":1940:1941   */\n      0x00\n        /* \"#utility.yul\":1929:1938   */\n      dup4\n        /* \"#utility.yul\":1925:1942   */\n      add\n        /* \"#utility.yul\":1918:1965   */\n      mstore\n        /* \"#utility.yul\":1982:2090   */\n      tag_102\n        /* \"#utility.yul\":2085:2089   */\n      dup2\n        /* \"#utility.yul\":2076:2082   */\n      dup5\n        /* \"#utility.yul\":1982:2090   */\n      tag_70\n      jump\t// in\n    tag_102:\n        /* \"#utility.yul\":1974:2090   */\n      swap1\n      pop\n        /* \"#utility.yul\":1724:2097   */\n      swap3\n      swap2\n      pop\n      pop\n      jump\t// out\n        /* \"#utility.yul\":2184:2301   */\n    tag_72:\n        /* \"#utility.yul\":2293:2294   */\n      0x00\n        /* \"#utility.yul\":2290:2291   */\n      dup1\n        /* \"#utility.yul\":2283:2295   */\n      revert\n        /* \"#utility.yul\":2430:2552   */\n    tag_74:\n        /* \"#utility.yul\":2503:2527   */\n      tag_107\n        /* \"#utility.yul\":2521:2526   */\n      dup2\n        /* \"#utility.yul\":2503:2527   */\n      tag_66\n      jump\t// in\n    tag_107:\n        /* \"#utility.yul\":2496:2501   */\n      dup2\n        /* \"#utility.yul\":2493:2528   */\n      eq\n        /* \"#utility.yul\":2483:2546   */\n      tag_108\n      jumpi\n        /* \"#utility.yul\":2542:2543   */\n      0x00\n        /* \"#utility.yul\":2539:2540   */\n      dup1\n        /* \"#utility.yul\":2532:2544   */\n      revert\n        /* \"#utility.yul\":2483:2546   */\n    tag_108:\n        /* \"#utility.yul\":2430:2552   */\n      pop\n      jump\t// out\n        /* \"#utility.yul\":2558:2697   */\n    tag_75:\n        /* \"#utility.yul\":2604:2609   */\n      0x00\n        /* \"#utility.yul\":2642:2648   */\n      dup2\n        /* \"#utility.yul\":2629:2649   */\n      calldataload\n        /* \"#utility.yul\":2620:2649   */\n      swap1\n      pop\n        /* \"#utility.yul\":2658:2691   */\n      tag_110\n        /* \"#utility.yul\":2685:2690   */\n      dup2\n        /* \"#utility.yul\":2658:2691   */\n      tag_74\n      jump\t// in\n    tag_110:\n        /* \"#utility.yul\":2558:2697   */\n      swap3\n      swap2\n      pop\n      pop\n      jump\t// out\n        /* \"#utility.yul\":2703:3032   */\n    tag_15:\n        /* \"#utility.yul\":2762:2768   */\n      0x00\n        /* \"#utility.yul\":2811:2813   */\n      0x20\n        /* \"#utility.yul\":2799:2808   */\n      dup3\n        /* \"#utility.yul\":2790:2797   */\n      dup5\n        /* \"#utility.yul\":2786:2809   */\n      sub\n        /* \"#utility.yul\":2782:2814   */\n      slt\n        /* \"#utility.yul\":2779:2898   */\n      iszero\n      tag_112\n      jumpi\n        /* \"#utility.yul\":2817:2896   */\n      tag_113\n      tag_72\n      jump\t// in\n    tag_113:\n        /* \"#utility.yul\":2779:2898   */\n    tag_112:\n        /* \"#utility.yul\":2937:2938   */\n      0x00\n        /* \"#utility.yul\":2962:3015   */\n      tag_114\n        /* \"#utility.yul\":3007:3014   */\n      dup5\n        /* \"#utility.yul\":2998:3004   */\n      dup3\n        /* \"#utility.yul\":2987:2996   */\n      dup6\n        /* \"#utility.yul\":2983:3005   */\n      add\n        /* \"#utility.yul\":2962:3015   */\n      tag_75\n      jump\t// in\n    tag_114:\n        /* \"#utility.yul\":2952:3015   */\n      swap2\n      pop\n        /* \"#utility.yul\":2908:3025   */\n      pop\n        /* \"#utility.yul\":2703:3032   */\n      swap3\n      swap2\n      pop\n      pop\n      jump\t// out\n        /* \"#utility.yul\":3038:3137   */\n    tag_76:\n        /* \"#utility.yul\":3090:3096   */\n      0x00\n        /* \"#utility.yul\":3124:3129   */\n      dup2\n        /* \"#utility.yul\":3118:3130   */\n      mload\n        /* \"#utility.yul\":3108:3130   */\n      swap1\n      pop\n        /* \"#utility.yul\":3038:3137   */\n      swap2\n      swap1\n      pop\n      jump\t// out\n        /* \"#utility.yul\":3143:3312   */\n    tag_77:\n        /* \"#utility.yul\":3227:3238   */\n      0x00\n        /* \"#utility.yul\":3261:3267   */\n      dup3\n        /* \"#utility.yul\":3256:3259   */\n      dup3\n        /* \"#utility.yul\":3249:3268   */\n      mstore\n        /* \"#utility.yul\":3301:3305   */\n      0x20\n        /* \"#utility.yul\":3296:3299   */\n      dup3\n        /* \"#utility.yul\":3292:3306   */\n      add\n        /* \"#utility.yul\":3277:3306   */\n      swap1\n      pop\n        /* \"#utility.yul\":3143:3312   */\n      swap3\n      swap2\n      pop\n      pop\n      jump\t// out\n        /* \"#utility.yul\":3318:3564   */\n    tag_78:\n        /* \"#utility.yul\":3399:3400   */\n      0x00\n        /* \"#utility.yul\":3409:3522   */\n    tag_118:\n        /* \"#utility.yul\":3423:3429   */\n      dup4\n        /* \"#utility.yul\":3420:3421   */\n      dup2\n        /* \"#utility.yul\":3417:3430   */\n      lt\n        /* \"#utility.yul\":3409:3522   */\n      iszero\n      tag_120\n      jumpi\n        /* \"#utility.yul\":3508:3509   */\n      dup1\n        /* \"#utility.yul\":3503:3506   */\n      dup3\n        /* \"#utility.yul\":3499:3510   */\n      add\n        /* \"#utility.yul\":3493:3511   */\n      mload\n        /* \"#utility.yul\":3489:3490   */\n      dup2\n        /* \"#utility.yul\":3484:3487   */\n      dup5\n        /* \"#utility.yul\":3480:3491   */\n      add\n        /* \"#utility.yul\":3473:3512   */\n      mstore\n        /* \"#utility.yul\":3445:3447   */\n      0x20\n        /* \"#utility.yul\":3442:3443   */\n      dup2\n        /* \"#utility.yul\":3438:3448   */\n      add\n        /* \"#utility.yul\":3433:3448   */\n      swap1\n      pop\n        /* \"#utility.yul\":3409:3522   */\n      jump(tag_118)\n    tag_120:\n        /* \"#utility.yul\":3556:3557   */\n      0x00\n        /* \"#utility.yul\":3547:3553   */\n      dup5\n        /* \"#utility.yul\":3542:3545   */\n      dup5\n        /* \"#utility.yul\":3538:3554   */\n      add\n        /* \"#utility.yul\":3531:3558   */\n      mstore\n        /* \"#utility.yul\":3380:3564   */\n      pop\n        /* \"#utility.yul\":3318:3564   */\n      pop\n      pop\n      pop\n      jump\t// out\n        /* \"#utility.yul\":3570:3672   */\n    tag_79:\n        /* \"#utility.yul\":3611:3617   */\n      0x00\n        /* \"#utility.yul\":3662:3664   */\n      0x1f\n        /* \"#utility.yul\":3658:3665   */\n      not\n        /* \"#utility.yul\":3653:3655   */\n      0x1f\n        /* \"#utility.yul\":3646:3651   */\n      dup4\n        /* \"#utility.yul\":3642:3656   */\n      add\n        /* \"#utility.yul\":3638:3666   */\n      and\n        /* \"#utility.yul\":3628:3666   */\n      swap1\n      pop\n        /* \"#utility.yul\":3570:3672   */\n      swap2\n      swap1\n      pop\n      jump\t// out\n        /* \"#utility.yul\":3678:4055   */\n    tag_80:\n        /* \"#utility.yul\":3766:3769   */\n      0x00\n        /* \"#utility.yul\":3794:3833   */\n      tag_123\n        /* \"#utility.yul\":3827:3832   */\n      dup3\n        /* \"#utility.yul\":3794:3833   */\n      tag_76\n      jump\t// in\n    tag_123:\n        /* \"#utility.yul\":3849:3920   */\n      tag_124\n        /* \"#utility.yul\":3913:3919   */\n      dup2\n        /* \"#utility.yul\":3908:3911   */\n      dup6\n        /* \"#utility.yul\":3849:3920   */\n      tag_77\n      jump\t// in\n    tag_124:\n        /* \"#utility.yul\":3842:3920   */\n      swap4\n      pop\n        /* \"#utility.yul\":3929:3994   */\n      tag_125\n        /* \"#utility.yul\":3987:3993   */\n      dup2\n        /* \"#utility.yul\":3982:3985   */\n      dup6\n        /* \"#utility.yul\":3975:3979   */\n      0x20\n        /* \"#utility.yul\":3968:3973   */\n      dup7\n        /* \"#utility.yul\":3964:3980   */\n      add\n        /* \"#utility.yul\":3929:3994   */\n      tag_78\n      jump\t// in\n    tag_125:\n        /* \"#utility.yul\":4019:4048   */\n      tag_126\n        /* \"#utility.yul\":4041:4047   */\n      dup2\n        /* \"#utility.yul\":4019:4048   */\n      tag_79\n      jump\t// in\n    tag_126:\n        /* \"#utility.yul\":4014:4017   */\n      dup5\n        /* \"#utility.yul\":4010:4049   */\n      add\n        /* \"#utility.yul\":4003:4049   */\n      swap2\n      pop\n        /* \"#utility.yul\":3770:4055   */\n      pop\n        /* \"#utility.yul\":3678:4055   */\n      swap3\n      swap2\n      pop\n      pop\n      jump\t// out\n        /* \"#utility.yul\":4061:4374   */\n    tag_18:\n        /* \"#utility.yul\":4174:4178   */\n      0x00\n        /* \"#utility.yul\":4212:4214   */\n      0x20\n        /* \"#utility.yul\":4201:4210   */\n      dup3\n        /* \"#utility.yul\":4197:4215   */\n      add\n        /* \"#utility.yul\":4189:4215   */\n      swap1\n      pop\n        /* \"#utility.yul\":4261:4270   */\n      dup2\n        /* \"#utility.yul\":4255:4259   */\n      dup2\n        /* \"#utility.yul\":4251:4271   */\n      sub\n        /* \"#utility.yul\":4247:4248   */\n      0x00\n        /* \"#utility.yul\":4236:4245   */\n      dup4\n        /* \"#utility.yul\":4232:4249   */\n      add\n        /* \"#utility.yul\":4225:4272   */\n      mstore\n        /* \"#utility.yul\":4289:4367   */\n      tag_128\n        /* \"#utility.yul\":4362:4366   */\n      dup2\n        /* \"#utility.yul\":4353:4359   */\n      dup5\n        /* \"#utility.yul\":4289:4367   */\n      tag_80\n      jump\t// in\n    tag_128:\n        /* \"#utility.yul\":4281:4367   */\n      swap1\n      pop\n        /* \"#utility.yul\":4061:4374   */\n      swap3\n      swap2\n      pop\n      pop\n      jump\t// out\n        /* \"#utility.yul\":4380:4560   */\n    tag_81:\n        /* \"#utility.yul\":4428:4505   */\n      0x4e487b7100000000000000000000000000000000000000000000000000000000\n        /* \"#utility.yul\":4425:4426   */\n      0x00\n        /* \"#utility.yul\":4418:4506   */\n      mstore\n        /* \"#utility.yul\":4525:4529   */\n      0x12\n        /* \"#utility.yul\":4522:4523   */\n      0x04\n        /* \"#utility.yul\":4515:4530   */\n      mstore\n        /* \"#utility.yul\":4549:4553   */\n      0x24\n        /* \"#utility.yul\":4546:4547   */\n      0x00\n        /* \"#utility.yul\":4539:4554   */\n      revert\n        /* \"#utility.yul\":4566:4742   */\n    tag_40:\n        /* \"#utility.yul\":4598:4599   */\n      0x00\n        /* \"#utility.yul\":4615:4635   */\n      tag_131\n        /* \"#utility.yul\":4633:4634   */\n      dup3\n        /* \"#utility.yul\":4615:4635   */\n      tag_66\n      jump\t// in\n    tag_131:\n        /* \"#utility.yul\":4610:4635   */\n      swap2\n      pop\n        /* \"#utility.yul\":4649:4669   */\n      tag_132\n        /* \"#utility.yul\":4667:4668   */\n      dup4\n        /* \"#utility.yul\":4649:4669   */\n      tag_66\n      jump\t// in\n    tag_132:\n        /* \"#utility.yul\":4644:4669   */\n      swap3\n      pop\n        /* \"#utility.yul\":4688:4689   */\n      dup3\n        /* \"#utility.yul\":4678:4713   */\n      tag_133\n      jumpi\n        /* \"#utility.yul\":4693:4711   */\n      tag_134\n      tag_81\n      jump\t// in\n    tag_134:\n        /* \"#utility.yul\":4678:4713   */\n    tag_133:\n        /* \"#utility.yul\":4734:4735   */\n      dup3\n        /* \"#utility.yul\":4731:4732   */\n      dup3\n        /* \"#utility.yul\":4727:4736   */\n      mod\n        /* \"#utility.yul\":4722:4736   */\n      swap1\n      pop\n        /* \"#utility.yul\":4566:4742   */\n      swap3\n      swap2\n      pop\n      pop\n      jump\t// out\n\n    auxdata: 0xa26469706673582212203d92a1a23c09bce97782cd7588aedb19bc0850ffe749cf16f7ce11200e77a56064736f6c63430008120033\n}\n",
				"bytecode": {
					"linkReferences": {},
					"object": "608060405234801561001057600080fd5b506106eb806100206000396000f3fe608060405234801561001057600080fd5b50600436106100625760003560e01c8063159c10ee14610067578063422beeba1461008557806398105d8d146100b5578063b0c7a93c146100d1578063b6e52cb1146100ef578063c1846f511461010b575b600080fd5b61006f61013b565b60405161007c9190610523565b60405180910390f35b61009f600480360381019061009a9190610576565b610193565b6040516100ac9190610633565b60405180910390f35b6100cf60048036038101906100ca9190610576565b610218565b005b6100d96102ca565b6040516100e69190610523565b60405180910390f35b61010960048036038101906101049190610576565b610322565b005b61012560048036038101906101209190610576565b610391565b6040516101329190610633565b60405180910390f35b6060600180548060200260200160405190810160405280929190818152602001828054801561018957602002820191906000526020600020905b815481526020019060010190808311610175575b5050505050905090565b6060603282106101da576040518060400160405280600481526020017f50415353000000000000000000000000000000000000000000000000000000008152509050610213565b6040518060400160405280600481526020017f4641494c0000000000000000000000000000000000000000000000000000000081525090505b919050565b60016003826102279190610684565b0361025a5760028190806001815401808255809150506001900390600052602060002001600090919091909150556102c7565b60026003826102699190610684565b0361029c5760038190806001815401808255809150506001900390600052602060002001600090919091909150556102c6565b60048190806001815401808255809150506001900390600052602060002001600090919091909150555b5b50565b6060600080548060200260200160405190810160405280929190818152602001828054801561031857602002820191906000526020600020905b815481526020019060010190808311610304575b5050505050905090565b60006002826103319190610684565b0361036457600081908060018154018082558091505060019003906000526020600020016000909190919091505561038e565b60018190806001815401808255809150506001900390600052602060002001600090919091909150555b50565b6060604682106103d8576040518060400160405280600781526020017f436c6173732041000000000000000000000000000000000000000000000000008152509050610456565b6032821061041d576040518060400160405280600781526020017f436c6173732042000000000000000000000000000000000000000000000000008152509050610456565b6040518060400160405280600781526020017f436c61737320430000000000000000000000000000000000000000000000000081525090505b919050565b600081519050919050565b600082825260208201905092915050565b6000819050602082019050919050565b6000819050919050565b61049a81610487565b82525050565b60006104ac8383610491565b60208301905092915050565b6000602082019050919050565b60006104d08261045b565b6104da8185610466565b93506104e583610477565b8060005b838110156105165781516104fd88826104a0565b9750610508836104b8565b9250506001810190506104e9565b5085935050505092915050565b6000602082019050818103600083015261053d81846104c5565b905092915050565b600080fd5b61055381610487565b811461055e57600080fd5b50565b6000813590506105708161054a565b92915050565b60006020828403121561058c5761058b610545565b5b600061059a84828501610561565b91505092915050565b600081519050919050565b600082825260208201905092915050565b60005b838110156105dd5780820151818401526020810190506105c2565b60008484015250505050565b6000601f19601f8301169050919050565b6000610605826105a3565b61060f81856105ae565b935061061f8185602086016105bf565b610628816105e9565b840191505092915050565b6000602082019050818103600083015261064d81846105fa565b905092915050565b7f4e487b7100000000000000000000000000000000000000000000000000000000600052601260045260246000fd5b600061068f82610487565b915061069a83610487565b9250826106aa576106a9610655565b5b82820690509291505056fea26469706673582212203d92a1a23c09bce97782cd7588aedb19bc0850ffe749cf16f7ce11200e77a56064736f6c63430008120033",
					"opcodes": "PUSH1 0x80 PUSH1 0x40 MSTORE CALLVALUE DUP1 ISZERO PUSH2 0x10 JUMPI PUSH1 0x0 DUP1 REVERT JUMPDEST POP PUSH2 0x6EB DUP1 PUSH2 0x20 PUSH1 0x0 CODECOPY PUSH1 0x0 RETURN INVALID PUSH1 0x80 PUSH1 0x40 MSTORE CALLVALUE DUP1 ISZERO PUSH2 0x10 JUMPI PUSH1 0x0 DUP1 REVERT JUMPDEST POP PUSH1 0x4 CALLDATASIZE LT PUSH2 0x62 JUMPI PUSH1 0x0 CALLDATALOAD PUSH1 0xE0 SHR DUP1 PUSH4 0x159C10EE EQ PUSH2 0x67 JUMPI DUP1 PUSH4 0x422BEEBA EQ PUSH2 0x85 JUMPI DUP1 PUSH4 0x98105D8D EQ PUSH2 0xB5 JUMPI DUP1 PUSH4 0xB0C7A93C EQ PUSH2 0xD1 JUMPI DUP1 PUSH4 0xB6E52CB1 EQ PUSH2 0xEF JUMPI DUP1 PUSH4 0xC1846F51 EQ PUSH2 0x10B JUMPI JUMPDEST PUSH1 0x0 DUP1 REVERT JUMPDEST PUSH2 0x6F PUSH2 0x13B JUMP JUMPDEST PUSH1 0x40 MLOAD PUSH2 0x7C SWAP2 SWAP1 PUSH2 0x523 JUMP JUMPDEST PUSH1 0x40 MLOAD DUP1 SWAP2 SUB SWAP1 RETURN JUMPDEST PUSH2 0x9F PUSH1 0x4 DUP1 CALLDATASIZE SUB DUP2 ADD SWAP1 PUSH2 0x9A SWAP2 SWAP1 PUSH2 0x576 JUMP JUMPDEST PUSH2 0x193 JUMP JUMPDEST PUSH1 0x40 MLOAD PUSH2 0xAC SWAP2 SWAP1 PUSH2 0x633 JUMP JUMPDEST PUSH1 0x40 MLOAD DUP1 SWAP2 SUB SWAP1 RETURN JUMPDEST PUSH2 0xCF PUSH1 0x4 DUP1 CALLDATASIZE SUB DUP2 ADD SWAP1 PUSH2 0xCA SWAP2 SWAP1 PUSH2 0x576 JUMP JUMPDEST PUSH2 0x218 JUMP JUMPDEST STOP JUMPDEST PUSH2 0xD9 PUSH2 0x2CA JUMP JUMPDEST PUSH1 0x40 MLOAD PUSH2 0xE6 SWAP2 SWAP1 PUSH2 0x523 JUMP JUMPDEST PUSH1 0x40 MLOAD DUP1 SWAP2 SUB SWAP1 RETURN JUMPDEST PUSH2 0x109 PUSH1 0x4 DUP1 CALLDATASIZE SUB DUP2 ADD SWAP1 PUSH2 0x104 SWAP2 SWAP1 PUSH2 0x576 JUMP JUMPDEST PUSH2 0x322 JUMP JUMPDEST STOP JUMPDEST PUSH2 0x125 PUSH1 0x4 DUP1 CALLDATASIZE SUB DUP2 ADD SWAP1 PUSH2 0x120 SWAP2 SWAP1 PUSH2 0x576 JUMP JUMPDEST PUSH2 0x391 JUMP JUMPDEST PUSH1 0x40 MLOAD PUSH2 0x132 SWAP2 SWAP1 PUSH2 0x633 JUMP JUMPDEST PUSH1 0x40 MLOAD DUP1 SWAP2 SUB SWAP1 RETURN JUMPDEST PUSH1 0x60 PUSH1 0x1 DUP1 SLOAD DUP1 PUSH1 0x20 MUL PUSH1 0x20 ADD PUSH1 0x40 MLOAD SWAP1 DUP2 ADD PUSH1 0x40 MSTORE DUP1 SWAP3 SWAP2 SWAP1 DUP2 DUP2 MSTORE PUSH1 0x20 ADD DUP3 DUP1 SLOAD DUP1 ISZERO PUSH2 0x189 JUMPI PUSH1 0x20 MUL DUP3 ADD SWAP2 SWAP1 PUSH1 0x0 MSTORE PUSH1 0x20 PUSH1 0x0 KECCAK256 SWAP1 JUMPDEST DUP2 SLOAD DUP2 MSTORE PUSH1 0x20 ADD SWAP1 PUSH1 0x1 ADD SWAP1 DUP1 DUP4 GT PUSH2 0x175 JUMPI JUMPDEST POP POP POP POP POP SWAP1 POP SWAP1 JUMP JUMPDEST PUSH1 0x60 PUSH1 0x32 DUP3 LT PUSH2 0x1DA JUMPI PUSH1 0x40 MLOAD DUP1 PUSH1 0x40 ADD PUSH1 0x40 MSTORE DUP1 PUSH1 0x4 DUP2 MSTORE PUSH1 0x20 ADD PUSH32 0x5041535300000000000000000000000000000000000000000000000000000000 DUP2 MSTORE POP SWAP1 POP PUSH2 0x213 JUMP JUMPDEST PUSH1 0x40 MLOAD DUP1 PUSH1 0x40 ADD PUSH1 0x40 MSTORE DUP1 PUSH1 0x4 DUP2 MSTORE PUSH1 0x20 ADD PUSH32 0x4641494C00000000000000000000000000000000000000000000000000000000 DUP2 MSTORE POP SWAP1 POP JUMPDEST SWAP2 SWAP1 POP JUMP JUMPDEST PUSH1 0x1 PUSH1 0x3 DUP3 PUSH2 0x227 SWAP2 SWAP1 PUSH2 0x684 JUMP JUMPDEST SUB PUSH2 0x25A JUMPI PUSH1 0x2 DUP2 SWAP1 DUP1 PUSH1 0x1 DUP2 SLOAD ADD DUP1 DUP3 SSTORE DUP1 SWAP2 POP POP PUSH1 0x1 SWAP1 SUB SWAP1 PUSH1 0x0 MSTORE PUSH1 0x20 PUSH1 0x0 KECCAK256 ADD PUSH1 0x0 SWAP1 SWAP2 SWAP1 SWAP2 SWAP1 SWAP2 POP SSTORE PUSH2 0x2C7 JUMP JUMPDEST PUSH1 0x2 PUSH1 0x3 DUP3 PUSH2 0x269 SWAP2 SWAP1 PUSH2 0x684 JUMP JUMPDEST SUB PUSH2 0x29C JUMPI PUSH1 0x3 DUP2 SWAP1 DUP1 PUSH1 0x1 DUP2 SLOAD ADD DUP1 DUP3 SSTORE DUP1 SWAP2 POP POP PUSH1 0x1 SWAP1 SUB SWAP1 PUSH1 0x0 MSTORE PUSH1 0x20 PUSH1 0x0 KECCAK256 ADD PUSH1 0x0 SWAP1 SWAP2 SWAP1 SWAP2 SWAP1 SWAP2 POP SSTORE PUSH2 0x2C6 JUMP JUMPDEST PUSH1 0x4 DUP2 SWAP1 DUP1 PUSH1 0x1 DUP2 SLOAD ADD DUP1 DUP3 SSTORE DUP1 SWAP2 POP POP PUSH1 0x1 SWAP1 SUB SWAP1 PUSH1 0x0 MSTORE PUSH1 0x20 PUSH1 0x0 KECCAK256 ADD PUSH1 0x0 SWAP1 SWAP2 SWAP1 SWAP2 SWAP1 SWAP2 POP SSTORE JUMPDEST JUMPDEST POP JUMP JUMPDEST PUSH1 0x60 PUSH1 0x0 DUP1 SLOAD DUP1 PUSH1 0x20 MUL PUSH1 0x20 ADD PUSH1 0x40 MLOAD SWAP1 DUP2 ADD PUSH1 0x40 MSTORE DUP1 SWAP3 SWAP2 SWAP1 DUP2 DUP2 MSTORE PUSH1 0x20 ADD DUP3 DUP1 SLOAD DUP1 ISZERO PUSH2 0x318 JUMPI PUSH1 0x20 MUL DUP3 ADD SWAP2 SWAP1 PUSH1 0x0 MSTORE PUSH1 0x20 PUSH1 0x0 KECCAK256 SWAP1 JUMPDEST DUP2 SLOAD DUP2 MSTORE PUSH1 0x20 ADD SWAP1 PUSH1 0x1 ADD SWAP1 DUP1 DUP4 GT PUSH2 0x304 JUMPI JUMPDEST POP POP POP POP POP SWAP1 POP SWAP1 JUMP JUMPDEST PUSH1 0x0 PUSH1 0x2 DUP3 PUSH2 0x331 SWAP2 SWAP1 PUSH2 0x684 JUMP JUMPDEST SUB PUSH2 0x364 JUMPI PUSH1 0x0 DUP2 SWAP1 DUP1 PUSH1 0x1 DUP2 SLOAD ADD DUP1 DUP3 SSTORE DUP1 SWAP2 POP POP PUSH1 0x1 SWAP1 SUB SWAP1 PUSH1 0x0 MSTORE PUSH1 0x20 PUSH1 0x0 KECCAK256 ADD PUSH1 0x0 SWAP1 SWAP2 SWAP1 SWAP2 SWAP1 SWAP2 POP SSTORE PUSH2 0x38E JUMP JUMPDEST PUSH1 0x1 DUP2 SWAP1 DUP1 PUSH1 0x1 DUP2 SLOAD ADD DUP1 DUP3 SSTORE DUP1 SWAP2 POP POP PUSH1 0x1 SWAP1 SUB SWAP1 PUSH1 0x0 MSTORE PUSH1 0x20 PUSH1 0x0 KECCAK256 ADD PUSH1 0x0 SWAP1 SWAP2 SWAP1 SWAP2 SWAP1 SWAP2 POP SSTORE JUMPDEST POP JUMP JUMPDEST PUSH1 0x60 PUSH1 0x46 DUP3 LT PUSH2 0x3D8 JUMPI PUSH1 0x40 MLOAD DUP1 PUSH1 0x40 ADD PUSH1 0x40 MSTORE DUP1 PUSH1 0x7 DUP2 MSTORE PUSH1 0x20 ADD PUSH32 0x436C617373204100000000000000000000000000000000000000000000000000 DUP2 MSTORE POP SWAP1 POP PUSH2 0x456 JUMP JUMPDEST PUSH1 0x32 DUP3 LT PUSH2 0x41D JUMPI PUSH1 0x40 MLOAD DUP1 PUSH1 0x40 ADD PUSH1 0x40 MSTORE DUP1 PUSH1 0x7 DUP2 MSTORE PUSH1 0x20 ADD PUSH32 0x436C617373204200000000000000000000000000000000000000000000000000 DUP2 MSTORE POP SWAP1 POP PUSH2 0x456 JUMP JUMPDEST PUSH1 0x40 MLOAD DUP1 PUSH1 0x40 ADD PUSH1 0x40 MSTORE DUP1 PUSH1 0x7 DUP2 MSTORE PUSH1 0x20 ADD PUSH32 0x436C617373204300000000000000000000000000000000000000000000000000 DUP2 MSTORE POP SWAP1 POP JUMPDEST SWAP2 SWAP1 POP JUMP JUMPDEST PUSH1 0x0 DUP2 MLOAD SWAP1 POP SWAP2 SWAP1 POP JUMP JUMPDEST PUSH1 0x0 DUP3 DUP3 MSTORE PUSH1 0x20 DUP3 ADD SWAP1 POP SWAP3 SWAP2 POP POP JUMP JUMPDEST PUSH1 0x0 DUP2 SWAP1 POP PUSH1 0x20 DUP3 ADD SWAP1 POP SWAP2 SWAP1 POP JUMP JUMPDEST PUSH1 0x0 DUP2 SWAP1 POP SWAP2 SWAP1 POP JUMP JUMPDEST PUSH2 0x49A DUP2 PUSH2 0x487 JUMP JUMPDEST DUP3 MSTORE POP POP JUMP JUMPDEST PUSH1 0x0 PUSH2 0x4AC DUP4 DUP4 PUSH2 0x491 JUMP JUMPDEST PUSH1 0x20 DUP4 ADD SWAP1 POP SWAP3 SWAP2 POP POP JUMP JUMPDEST PUSH1 0x0 PUSH1 0x20 DUP3 ADD SWAP1 POP SWAP2 SWAP1 POP JUMP JUMPDEST PUSH1 0x0 PUSH2 0x4D0 DUP3 PUSH2 0x45B JUMP JUMPDEST PUSH2 0x4DA DUP2 DUP6 PUSH2 0x466 JUMP JUMPDEST SWAP4 POP PUSH2 0x4E5 DUP4 PUSH2 0x477 JUMP JUMPDEST DUP1 PUSH1 0x0 JUMPDEST DUP4 DUP2 LT ISZERO PUSH2 0x516 JUMPI DUP2 MLOAD PUSH2 0x4FD DUP9 DUP3 PUSH2 0x4A0 JUMP JUMPDEST SWAP8 POP PUSH2 0x508 DUP4 PUSH2 0x4B8 JUMP JUMPDEST SWAP3 POP POP PUSH1 0x1 DUP2 ADD SWAP1 POP PUSH2 0x4E9 JUMP JUMPDEST POP DUP6 SWAP4 POP POP POP POP SWAP3 SWAP2 POP POP JUMP JUMPDEST PUSH1 0x0 PUSH1 0x20 DUP3 ADD SWAP1 POP DUP2 DUP2 SUB PUSH1 0x0 DUP4 ADD MSTORE PUSH2 0x53D DUP2 DUP5 PUSH2 0x4C5 JUMP JUMPDEST SWAP1 POP SWAP3 SWAP2 POP POP JUMP JUMPDEST PUSH1 0x0 DUP1 REVERT JUMPDEST PUSH2 0x553 DUP2 PUSH2 0x487 JUMP JUMPDEST DUP2 EQ PUSH2 0x55E JUMPI PUSH1 0x0 DUP1 REVERT JUMPDEST POP JUMP JUMPDEST PUSH1 0x0 DUP2 CALLDATALOAD SWAP1 POP PUSH2 0x570 DUP2 PUSH2 0x54A JUMP JUMPDEST SWAP3 SWAP2 POP POP JUMP JUMPDEST PUSH1 0x0 PUSH1 0x20 DUP3 DUP5 SUB SLT ISZERO PUSH2 0x58C JUMPI PUSH2 0x58B PUSH2 0x545 JUMP JUMPDEST JUMPDEST PUSH1 0x0 PUSH2 0x59A DUP5 DUP3 DUP6 ADD PUSH2 0x561 JUMP JUMPDEST SWAP2 POP POP SWAP3 SWAP2 POP POP JUMP JUMPDEST PUSH1 0x0 DUP2 MLOAD SWAP1 POP SWAP2 SWAP1 POP JUMP JUMPDEST PUSH1 0x0 DUP3 DUP3 MSTORE PUSH1 0x20 DUP3 ADD SWAP1 POP SWAP3 SWAP2 POP POP JUMP JUMPDEST PUSH1 0x0 JUMPDEST DUP4 DUP2 LT ISZERO PUSH2 0x5DD JUMPI DUP1 DUP3 ADD MLOAD DUP2 DUP5 ADD MSTORE PUSH1 0x20 DUP2 ADD SWAP1 POP PUSH2 0x5C2 JUMP JUMPDEST PUSH1 0x0 DUP5 DUP5 ADD MSTORE POP POP POP POP JUMP JUMPDEST PUSH1 0x0 PUSH1 0x1F NOT PUSH1 0x1F DUP4 ADD AND SWAP1 POP SWAP2 SWAP1 POP JUMP JUMPDEST PUSH1 0x0 PUSH2 0x605 DUP3 PUSH2 0x5A3 JUMP JUMPDEST PUSH2 0x60F DUP2 DUP6 PUSH2 0x5AE JUMP JUMPDEST SWAP4 POP PUSH2 0x61F DUP2 DUP6 PUSH1 0x20 DUP7 ADD PUSH2 0x5BF JUMP JUMPDEST PUSH2 0x628 DUP2 PUSH2 0x5E9 JUMP JUMPDEST DUP5 ADD SWAP2 POP POP SWAP3 SWAP2 POP POP JUMP JUMPDEST PUSH1 0x0 PUSH1 0x20 DUP3 ADD SWAP1 POP DUP2 DUP2 SUB PUSH1 0x0 DUP4 ADD MSTORE PUSH2 0x64D DUP2 DUP5 PUSH2 0x5FA JUMP JUMPDEST SWAP1 POP SWAP3 SWAP2 POP POP JUMP JUMPDEST PUSH32 0x4E487B7100000000000000000000000000000000000000000000000000000000 PUSH1 0x0 MSTORE PUSH1 0x12 PUSH1 0x4 MSTORE PUSH1 0x24 PUSH1 0x0 REVERT JUMPDEST PUSH1 0x0 PUSH2 0x68F DUP3 PUSH2 0x487 JUMP JUMPDEST SWAP2 POP PUSH2 0x69A DUP4 PUSH2 0x487 JUMP JUMPDEST SWAP3 POP DUP3 PUSH2 0x6AA JUMPI PUSH2 0x6A9 PUSH2 0x655 JUMP JUMPDEST JUMPDEST DUP3 DUP3 MOD SWAP1 POP SWAP3 SWAP2 POP POP JUMP INVALID LOG2 PUSH5 0x6970667358 0x22 SLT KECCAK256 RETURNDATASIZE SWAP3 LOG1 LOG2 EXTCODECOPY MULMOD 0xBC 0xE9 PUSH24 0x82CD7588AEDB19BC0850FFE749CF16F7CE11200E77A56064 PUSH20 0x6F6C634300081200330000000000000000000000 "
				},
				"gasEstimates": {
					"creation": {
						"codeDepositCost": "354200",
						"executionCost": "393",
						"totalCost": "354593"
					},
					"external": {
						"evenORodd(uint256)": "infinite",
						"getABC(uint256)": "infinite",
						"getEven()": "infinite",
						"getOdd()": "infinite",
						"setClass(uint256)": "infinite",
						"setScore(uint256)": "infinite"
					}
				},
				"methodIdentifiers": {
					"evenORodd(uint256)": "b6e52cb1",
					"getABC(uint256)": "98105d8d",
					"getEven()": "b0c7a93c",
					"getOdd()": "159c10ee",
					"setClass(uint256)": "c1846f51",
					"setScore(uint256)": "422beeba"
				}
			},
			"storageLayout": {
				"storage": [
					{
						"astId": 47,
						"contract": "contracts/2_if.sol:IF1",
						"label": "even",
						"offset": 0,
						"slot": "0",
						"type": "t_array(t_uint256)dyn_storage"
					},
					{
						"astId": 50,
						"contract": "contracts/2_if.sol:IF1",
						"label": "odd",
						"offset": 0,
						"slot": "1",
						"type": "t_array(t_uint256)dyn_storage"
					},
					{
						"astId": 97,
						"contract": "contracts/2_if.sol:IF1",
						"label": "A",
						"offset": 0,
						"slot": "2",
						"type": "t_array(t_uint256)dyn_storage"
					},
					{
						"astId": 100,
						"contract": "contracts/2_if.sol:IF1",
						"label": "B",
						"offset": 0,
						"slot": "3",
						"type": "t_array(t_uint256)dyn_storage"
					},
					{
						"astId": 103,
						"contract": "contracts/2_if.sol:IF1",
						"label": "C",
						"offset": 0,
						"slot": "4",
						"type": "t_array(t_uint256)dyn_storage"
					}
				],
				"types": {
					"t_array(t_uint256)dyn_storage": {
						"base": "t_uint256",
						"encoding": "dynamic_array",
						"label": "uint256[]",
						"numberOfBytes": "32"
					},
					"t_uint256": {
						"encoding": "inplace",
						"label": "uint256",
						"numberOfBytes": "32"
					}
				}
			},
			"userdoc": {
				"kind": "user",
				"methods": {},
				"version": 1
			}
		}
	}
}