{
	"contracts/1_note.sol": {
		"note": {
			"abi": [
				{
					"inputs": [
						{
							"internalType": "uint256",
							"name": "_n",
							"type": "uint256"
						}
					],
					"name": "getName",
					"outputs": [
						{
							"internalType": "string",
							"name": "",
							"type": "string"
						}
					],
					"stateMutability": "view",
					"type": "function"
				},
				{
					"inputs": [
						{
							"internalType": "uint256",
							"name": "_n",
							"type": "uint256"
						}
					],
					"name": "getStudents",
					"outputs": [
						{
							"components": [
								{
									"internalType": "string",
									"name": "name",
									"type": "string"
								},
								{
									"internalType": "uint256",
									"name": "number",
									"type": "uint256"
								},
								{
									"internalType": "string[]",
									"name": "classes",
									"type": "string[]"
								}
							],
							"internalType": "struct note.Student",
							"name": "",
							"type": "tuple"
						}
					],
					"stateMutability": "view",
					"type": "function"
				},
				{
					"inputs": [
						{
							"internalType": "string",
							"name": "_teacher",
							"type": "string"
						}
					],
					"name": "getTeacher_Student",
					"outputs": [
						{
							"components": [
								{
									"internalType": "string",
									"name": "name",
									"type": "string"
								},
								{
									"internalType": "uint256",
									"name": "number",
									"type": "uint256"
								},
								{
									"internalType": "string[]",
									"name": "classes",
									"type": "string[]"
								}
							],
							"internalType": "struct note.Student[]",
							"name": "",
							"type": "tuple[]"
						}
					],
					"stateMutability": "view",
					"type": "function"
				},
				{
					"inputs": [
						{
							"internalType": "string",
							"name": "_teacher",
							"type": "string"
						},
						{
							"internalType": "uint256",
							"name": "_n",
							"type": "uint256"
						},
						{
							"internalType": "uint256",
							"name": "_number",
							"type": "uint256"
						}
					],
					"name": "set2",
					"outputs": [],
					"stateMutability": "nonpayable",
					"type": "function"
				},
				{
					"inputs": [
						{
							"internalType": "string",
							"name": "_name",
							"type": "string"
						},
						{
							"internalType": "uint256",
							"name": "_number",
							"type": "uint256"
						},
						{
							"internalType": "string[]",
							"name": "_classes",
							"type": "string[]"
						}
					],
					"name": "setStudents",
					"outputs": [],
					"stateMutability": "nonpayable",
					"type": "function"
				},
				{
					"inputs": [
						{
							"internalType": "string",
							"name": "_teacher",
							"type": "string"
						},
						{
							"internalType": "string",
							"name": "_name",
							"type": "string"
						},
						{
							"internalType": "uint256",
							"name": "_number",
							"type": "uint256"
						},
						{
							"internalType": "string[]",
							"name": "_classes",
							"type": "string[]"
						}
					],
					"name": "setTeacher_Student",
					"outputs": [],
					"stateMutability": "nonpayable",
					"type": "function"
				}
			],
			"devdoc": {
				"kind": "dev",
				"methods": {},
				"version": 1
			},
			"evm": {
				"assembly": "    /* \"contracts/1_note.sol\":67:1168  contract note {... */\n  mstore(0x40, 0x80)\n  callvalue\n  dup1\n  iszero\n  tag_1\n  jumpi\n  0x00\n  dup1\n  revert\ntag_1:\n  pop\n  dataSize(sub_0)\n  dup1\n  dataOffset(sub_0)\n  0x00\n  codecopy\n  0x00\n  return\nstop\n\nsub_0: assembly {\n        /* \"contracts/1_note.sol\":67:1168  contract note {... */\n      mstore(0x40, 0x80)\n      callvalue\n      dup1\n      iszero\n      tag_1\n      jumpi\n      0x00\n      dup1\n      revert\n    tag_1:\n      pop\n      jumpi(tag_2, lt(calldatasize, 0x04))\n      shr(0xe0, calldataload(0x00))\n      dup1\n      0x6b8ff574\n      eq\n      tag_3\n      jumpi\n      dup1\n      0x75c2f8f0\n      eq\n      tag_4\n      jumpi\n      dup1\n      0x9570defc\n      eq\n      tag_5\n      jumpi\n      dup1\n      0xa26a427f\n      eq\n      tag_6\n      jumpi\n      dup1\n      0xc013118f\n      eq\n      tag_7\n      jumpi\n      dup1\n      0xebb76d68\n      eq\n      tag_8\n      jumpi\n    tag_2:\n      0x00\n      dup1\n      revert\n        /* \"contracts/1_note.sol\":1056:1165  function getName(uint _n) public view returns (string memory) {... */\n    tag_3:\n      tag_9\n      0x04\n      dup1\n      calldatasize\n      sub\n      dup2\n      add\n      swap1\n      tag_10\n      swap2\n      swap1\n      tag_11\n      jump\t// in\n    tag_10:\n      tag_12\n      jump\t// in\n    tag_9:\n      mload(0x40)\n      tag_13\n      swap2\n      swap1\n      tag_14\n      jump\t// in\n    tag_13:\n      mload(0x40)\n      dup1\n      swap2\n      sub\n      swap1\n      return\n        /* \"contracts/1_note.sol\":939:1048  function getStudents(uint _n) public view returns (Student memory) {... */\n    tag_4:\n      tag_15\n      0x04\n      dup1\n      calldatasize\n      sub\n      dup2\n      add\n      swap1\n      tag_16\n      swap2\n      swap1\n      tag_11\n      jump\t// in\n    tag_16:\n      tag_17\n      jump\t// in\n    tag_15:\n      mload(0x40)\n      tag_18\n      swap2\n      swap1\n      tag_19\n      jump\t// in\n    tag_18:\n      mload(0x40)\n      dup1\n      swap2\n      sub\n      swap1\n      return\n        /* \"contracts/1_note.sol\":269:473  function setTeacher_Student(string memory _teacher, string memory _name, uint _number, string[] memory _classes) public {... */\n    tag_5:\n      tag_20\n      0x04\n      dup1\n      calldatasize\n      sub\n      dup2\n      add\n      swap1\n      tag_21\n      swap2\n      swap1\n      tag_22\n      jump\t// in\n    tag_21:\n      tag_23\n      jump\t// in\n    tag_20:\n      stop\n        /* \"contracts/1_note.sol\":481:618  function set2(string memory _teacher, uint _n, uint _number) public {... */\n    tag_6:\n      tag_24\n      0x04\n      dup1\n      calldatasize\n      sub\n      dup2\n      add\n      swap1\n      tag_25\n      swap2\n      swap1\n      tag_26\n      jump\t// in\n    tag_25:\n      tag_27\n      jump\t// in\n    tag_24:\n      stop\n        /* \"contracts/1_note.sol\":626:767  function getTeacher_Student(string memory _teacher) public view returns(Student[] memory) {... */\n    tag_7:\n      tag_28\n      0x04\n      dup1\n      calldatasize\n      sub\n      dup2\n      add\n      swap1\n      tag_29\n      swap2\n      swap1\n      tag_30\n      jump\t// in\n    tag_29:\n      tag_31\n      jump\t// in\n    tag_28:\n      mload(0x40)\n      tag_32\n      swap2\n      swap1\n      tag_33\n      jump\t// in\n    tag_32:\n      mload(0x40)\n      dup1\n      swap2\n      sub\n      swap1\n      return\n        /* \"contracts/1_note.sol\":775:931  function setStudents(string memory _name, uint _number, string[] memory _classes) public {... */\n    tag_8:\n      tag_34\n      0x04\n      dup1\n      calldatasize\n      sub\n      dup2\n      add\n      swap1\n      tag_35\n      swap2\n      swap1\n      tag_36\n      jump\t// in\n    tag_35:\n      tag_37\n      jump\t// in\n    tag_34:\n      stop\n        /* \"contracts/1_note.sol\":1056:1165  function getName(uint _n) public view returns (string memory) {... */\n    tag_12:\n        /* \"contracts/1_note.sol\":1103:1116  string memory */\n      0x60\n        /* \"contracts/1_note.sol\":1136:1144  students */\n      0x00\n        /* \"contracts/1_note.sol\":1150:1151  1 */\n      0x01\n        /* \"contracts/1_note.sol\":1145:1147  _n */\n      dup4\n        /* \"contracts/1_note.sol\":1145:1151  _n - 1 */\n      tag_39\n      swap2\n      swap1\n      tag_40\n      jump\t// in\n    tag_39:\n        /* \"contracts/1_note.sol\":1136:1152  students[_n - 1] */\n      dup2\n      sload\n      dup2\n      lt\n      tag_41\n      jumpi\n      tag_42\n      tag_43\n      jump\t// in\n    tag_42:\n    tag_41:\n      swap1\n      0x00\n      mstore\n      keccak256(0x00, 0x20)\n      swap1\n      0x03\n      mul\n      add\n        /* \"contracts/1_note.sol\":1136:1157  students[_n - 1].name */\n      0x00\n      add\n        /* \"contracts/1_note.sol\":1129:1157  return students[_n - 1].name */\n      dup1\n      sload\n      tag_45\n      swap1\n      tag_46\n      jump\t// in\n    tag_45:\n      dup1\n      0x1f\n      add\n      0x20\n      dup1\n      swap2\n      div\n      mul\n      0x20\n      add\n      mload(0x40)\n      swap1\n      dup2\n      add\n      0x40\n      mstore\n      dup1\n      swap3\n      swap2\n      swap1\n      dup2\n      dup2\n      mstore\n      0x20\n      add\n      dup3\n      dup1\n      sload\n      tag_47\n      swap1\n      tag_46\n      jump\t// in\n    tag_47:\n      dup1\n      iszero\n      tag_48\n      jumpi\n      dup1\n      0x1f\n      lt\n      tag_49\n      jumpi\n      0x0100\n      dup1\n      dup4\n      sload\n      div\n      mul\n      dup4\n      mstore\n      swap2\n      0x20\n      add\n      swap2\n      jump(tag_48)\n    tag_49:\n      dup3\n      add\n      swap2\n      swap1\n      0x00\n      mstore\n      keccak256(0x00, 0x20)\n      swap1\n    tag_50:\n      dup2\n      sload\n      dup2\n      mstore\n      swap1\n      0x01\n      add\n      swap1\n      0x20\n      add\n      dup1\n      dup4\n      gt\n      tag_50\n      jumpi\n      dup3\n      swap1\n      sub\n      0x1f\n      and\n      dup3\n      add\n      swap2\n    tag_48:\n      pop\n      pop\n      pop\n      pop\n      pop\n      swap1\n      pop\n        /* \"contracts/1_note.sol\":1056:1165  function getName(uint _n) public view returns (string memory) {... */\n      swap2\n      swap1\n      pop\n      jump\t// out\n        /* \"contracts/1_note.sol\":939:1048  function getStudents(uint _n) public view returns (Student memory) {... */\n    tag_17:\n        /* \"contracts/1_note.sol\":990:1004  Student memory */\n      tag_51\n      tag_52\n      jump\t// in\n    tag_51:\n        /* \"contracts/1_note.sol\":1024:1032  students */\n      0x00\n        /* \"contracts/1_note.sol\":1038:1039  1 */\n      0x01\n        /* \"contracts/1_note.sol\":1033:1035  _n */\n      dup4\n        /* \"contracts/1_note.sol\":1033:1039  _n - 1 */\n      tag_54\n      swap2\n      swap1\n      tag_40\n      jump\t// in\n    tag_54:\n        /* \"contracts/1_note.sol\":1024:1040  students[_n - 1] */\n      dup2\n      sload\n      dup2\n      lt\n      tag_55\n      jumpi\n      tag_56\n      tag_43\n      jump\t// in\n    tag_56:\n    tag_55:\n      swap1\n      0x00\n      mstore\n      keccak256(0x00, 0x20)\n      swap1\n      0x03\n      mul\n      add\n        /* \"contracts/1_note.sol\":1017:1040  return students[_n - 1] */\n      mload(0x40)\n      dup1\n      0x60\n      add\n      0x40\n      mstore\n      swap1\n      dup2\n      0x00\n      dup3\n      add\n      dup1\n      sload\n      tag_58\n      swap1\n      tag_46\n      jump\t// in\n    tag_58:\n      dup1\n      0x1f\n      add\n      0x20\n      dup1\n      swap2\n      div\n      mul\n      0x20\n      add\n      mload(0x40)\n      swap1\n      dup2\n      add\n      0x40\n      mstore\n      dup1\n      swap3\n      swap2\n      swap1\n      dup2\n      dup2\n      mstore\n      0x20\n      add\n      dup3\n      dup1\n      sload\n      tag_59\n      swap1\n      tag_46\n      jump\t// in\n    tag_59:\n      dup1\n      iszero\n      tag_60\n      jumpi\n      dup1\n      0x1f\n      lt\n      tag_61\n      jumpi\n      0x0100\n      dup1\n      dup4\n      sload\n      div\n      mul\n      dup4\n      mstore\n      swap2\n      0x20\n      add\n      swap2\n      jump(tag_60)\n    tag_61:\n      dup3\n      add\n      swap2\n      swap1\n      0x00\n      mstore\n      keccak256(0x00, 0x20)\n      swap1\n    tag_62:\n      dup2\n      sload\n      dup2\n      mstore\n      swap1\n      0x01\n      add\n      swap1\n      0x20\n      add\n      dup1\n      dup4\n      gt\n      tag_62\n      jumpi\n      dup3\n      swap1\n      sub\n      0x1f\n      and\n      dup3\n      add\n      swap2\n    tag_60:\n      pop\n      pop\n      pop\n      pop\n      pop\n      dup2\n      mstore\n      0x20\n      add\n      0x01\n      dup3\n      add\n      sload\n      dup2\n      mstore\n      0x20\n      add\n      0x02\n      dup3\n      add\n      dup1\n      sload\n      dup1\n      0x20\n      mul\n      0x20\n      add\n      mload(0x40)\n      swap1\n      dup2\n      add\n      0x40\n      mstore\n      dup1\n      swap3\n      swap2\n      swap1\n      dup2\n      dup2\n      mstore\n      0x20\n      add\n      0x00\n      swap1\n    tag_63:\n      dup3\n      dup3\n      lt\n      iszero\n      tag_64\n      jumpi\n      dup4\n      dup3\n      swap1\n      0x00\n      mstore\n      keccak256(0x00, 0x20)\n      add\n      dup1\n      sload\n      tag_66\n      swap1\n      tag_46\n      jump\t// in\n    tag_66:\n      dup1\n      0x1f\n      add\n      0x20\n      dup1\n      swap2\n      div\n      mul\n      0x20\n      add\n      mload(0x40)\n      swap1\n      dup2\n      add\n      0x40\n      mstore\n      dup1\n      swap3\n      swap2\n      swap1\n      dup2\n      dup2\n      mstore\n      0x20\n      add\n      dup3\n      dup1\n      sload\n      tag_67\n      swap1\n      tag_46\n      jump\t// in\n    tag_67:\n      dup1\n      iszero\n      tag_68\n      jumpi\n      dup1\n      0x1f\n      lt\n      tag_69\n      jumpi\n      0x0100\n      dup1\n      dup4\n      sload\n      div\n      mul\n      dup4\n      mstore\n      swap2\n      0x20\n      add\n      swap2\n      jump(tag_68)\n    tag_69:\n      dup3\n      add\n      swap2\n      swap1\n      0x00\n      mstore\n      keccak256(0x00, 0x20)\n      swap1\n    tag_70:\n      dup2\n      sload\n      dup2\n      mstore\n      swap1\n      0x01\n      add\n      swap1\n      0x20\n      add\n      dup1\n      dup4\n      gt\n      tag_70\n      jumpi\n      dup3\n      swap1\n      sub\n      0x1f\n      and\n      dup3\n      add\n      swap2\n    tag_68:\n      pop\n      pop\n      pop\n      pop\n      pop\n      dup2\n      mstore\n      0x20\n      add\n      swap1\n      0x01\n      add\n      swap1\n      jump(tag_63)\n    tag_64:\n      pop\n      pop\n      pop\n      pop\n      dup2\n      mstore\n      pop\n      pop\n      swap1\n      pop\n        /* \"contracts/1_note.sol\":939:1048  function getStudents(uint _n) public view returns (Student memory) {... */\n      swap2\n      swap1\n      pop\n      jump\t// out\n        /* \"contracts/1_note.sol\":269:473  function setTeacher_Student(string memory _teacher, string memory _name, uint _number, string[] memory _classes) public {... */\n    tag_23:\n        /* \"contracts/1_note.sol\":400:415  Teacher_Student */\n      0x01\n        /* \"contracts/1_note.sol\":416:424  _teacher */\n      dup5\n        /* \"contracts/1_note.sol\":400:425  Teacher_Student[_teacher] */\n      mload(0x40)\n      tag_72\n      swap2\n      swap1\n      tag_73\n      jump\t// in\n    tag_72:\n      swap1\n      dup2\n      mstore\n      0x20\n      add\n      mload(0x40)\n      dup1\n      swap2\n      sub\n      swap1\n      keccak256\n        /* \"contracts/1_note.sol\":431:464  Student(_name, _number, _classes) */\n      mload(0x40)\n      dup1\n      0x60\n      add\n      0x40\n      mstore\n      dup1\n        /* \"contracts/1_note.sol\":439:444  _name */\n      dup6\n        /* \"contracts/1_note.sol\":431:464  Student(_name, _number, _classes) */\n      dup2\n      mstore\n      0x20\n      add\n        /* \"contracts/1_note.sol\":446:453  _number */\n      dup5\n        /* \"contracts/1_note.sol\":431:464  Student(_name, _number, _classes) */\n      dup2\n      mstore\n      0x20\n      add\n        /* \"contracts/1_note.sol\":455:463  _classes */\n      dup4\n        /* \"contracts/1_note.sol\":431:464  Student(_name, _number, _classes) */\n      dup2\n      mstore\n      pop\n        /* \"contracts/1_note.sol\":400:465  Teacher_Student[_teacher].push(Student(_name, _number, _classes)) */\n      swap1\n      dup1\n      0x01\n      dup2\n      sload\n      add\n      dup1\n      dup3\n      sstore\n      dup1\n      swap2\n      pop\n      pop\n      0x01\n      swap1\n      sub\n      swap1\n      0x00\n      mstore\n      keccak256(0x00, 0x20)\n      swap1\n      0x03\n      mul\n      add\n      0x00\n      swap1\n      swap2\n      swap1\n      swap2\n      swap1\n      swap2\n      pop\n      0x00\n      dup3\n      add\n      mload\n      dup2\n      0x00\n      add\n      swap1\n      dup2\n      tag_75\n      swap2\n      swap1\n      tag_76\n      jump\t// in\n    tag_75:\n      pop\n      0x20\n      dup3\n      add\n      mload\n      dup2\n      0x01\n      add\n      sstore\n      0x40\n      dup3\n      add\n      mload\n      dup2\n      0x02\n      add\n      swap1\n      dup1\n      mload\n      swap1\n      0x20\n      add\n      swap1\n      tag_77\n      swap3\n      swap2\n      swap1\n      tag_78\n      jump\t// in\n    tag_77:\n      pop\n      pop\n      pop\n        /* \"contracts/1_note.sol\":269:473  function setTeacher_Student(string memory _teacher, string memory _name, uint _number, string[] memory _classes) public {... */\n      pop\n      pop\n      pop\n      pop\n      jump\t// out\n        /* \"contracts/1_note.sol\":481:618  function set2(string memory _teacher, uint _n, uint _number) public {... */\n    tag_27:\n        /* \"contracts/1_note.sol\":603:610  _number */\n      dup1\n        /* \"contracts/1_note.sol\":560:575  Teacher_Student */\n      0x01\n        /* \"contracts/1_note.sol\":576:584  _teacher */\n      dup5\n        /* \"contracts/1_note.sol\":560:585  Teacher_Student[_teacher] */\n      mload(0x40)\n      tag_80\n      swap2\n      swap1\n      tag_73\n      jump\t// in\n    tag_80:\n      swap1\n      dup2\n      mstore\n      0x20\n      add\n      mload(0x40)\n      dup1\n      swap2\n      sub\n      swap1\n      keccak256\n        /* \"contracts/1_note.sol\":591:592  1 */\n      0x01\n        /* \"contracts/1_note.sol\":586:588  _n */\n      dup5\n        /* \"contracts/1_note.sol\":586:592  _n - 1 */\n      tag_81\n      swap2\n      swap1\n      tag_40\n      jump\t// in\n    tag_81:\n        /* \"contracts/1_note.sol\":560:593  Teacher_Student[_teacher][_n - 1] */\n      dup2\n      sload\n      dup2\n      lt\n      tag_82\n      jumpi\n      tag_83\n      tag_43\n      jump\t// in\n    tag_83:\n    tag_82:\n      swap1\n      0x00\n      mstore\n      keccak256(0x00, 0x20)\n      swap1\n      0x03\n      mul\n      add\n        /* \"contracts/1_note.sol\":560:600  Teacher_Student[_teacher][_n - 1].number */\n      0x01\n      add\n        /* \"contracts/1_note.sol\":560:610  Teacher_Student[_teacher][_n - 1].number = _number */\n      dup2\n      swap1\n      sstore\n      pop\n        /* \"contracts/1_note.sol\":481:618  function set2(string memory _teacher, uint _n, uint _number) public {... */\n      pop\n      pop\n      pop\n      jump\t// out\n        /* \"contracts/1_note.sol\":626:767  function getTeacher_Student(string memory _teacher) public view returns(Student[] memory) {... */\n    tag_31:\n        /* \"contracts/1_note.sol\":698:714  Student[] memory */\n      0x60\n        /* \"contracts/1_note.sol\":734:749  Teacher_Student */\n      0x01\n        /* \"contracts/1_note.sol\":750:758  _teacher */\n      dup3\n        /* \"contracts/1_note.sol\":734:759  Teacher_Student[_teacher] */\n      mload(0x40)\n      tag_86\n      swap2\n      swap1\n      tag_73\n      jump\t// in\n    tag_86:\n      swap1\n      dup2\n      mstore\n      0x20\n      add\n      mload(0x40)\n      dup1\n      swap2\n      sub\n      swap1\n      keccak256\n        /* \"contracts/1_note.sol\":727:759  return Teacher_Student[_teacher] */\n      dup1\n      sload\n      dup1\n      0x20\n      mul\n      0x20\n      add\n      mload(0x40)\n      swap1\n      dup2\n      add\n      0x40\n      mstore\n      dup1\n      swap3\n      swap2\n      swap1\n      dup2\n      dup2\n      mstore\n      0x20\n      add\n      0x00\n      swap1\n    tag_87:\n      dup3\n      dup3\n      lt\n      iszero\n      tag_88\n      jumpi\n      dup4\n      dup3\n      swap1\n      0x00\n      mstore\n      keccak256(0x00, 0x20)\n      swap1\n      0x03\n      mul\n      add\n      mload(0x40)\n      dup1\n      0x60\n      add\n      0x40\n      mstore\n      swap1\n      dup2\n      0x00\n      dup3\n      add\n      dup1\n      sload\n      tag_90\n      swap1\n      tag_46\n      jump\t// in\n    tag_90:\n      dup1\n      0x1f\n      add\n      0x20\n      dup1\n      swap2\n      div\n      mul\n      0x20\n      add\n      mload(0x40)\n      swap1\n      dup2\n      add\n      0x40\n      mstore\n      dup1\n      swap3\n      swap2\n      swap1\n      dup2\n      dup2\n      mstore\n      0x20\n      add\n      dup3\n      dup1\n      sload\n      tag_91\n      swap1\n      tag_46\n      jump\t// in\n    tag_91:\n      dup1\n      iszero\n      tag_92\n      jumpi\n      dup1\n      0x1f\n      lt\n      tag_93\n      jumpi\n      0x0100\n      dup1\n      dup4\n      sload\n      div\n      mul\n      dup4\n      mstore\n      swap2\n      0x20\n      add\n      swap2\n      jump(tag_92)\n    tag_93:\n      dup3\n      add\n      swap2\n      swap1\n      0x00\n      mstore\n      keccak256(0x00, 0x20)\n      swap1\n    tag_94:\n      dup2\n      sload\n      dup2\n      mstore\n      swap1\n      0x01\n      add\n      swap1\n      0x20\n      add\n      dup1\n      dup4\n      gt\n      tag_94\n      jumpi\n      dup3\n      swap1\n      sub\n      0x1f\n      and\n      dup3\n      add\n      swap2\n    tag_92:\n      pop\n      pop\n      pop\n      pop\n      pop\n      dup2\n      mstore\n      0x20\n      add\n      0x01\n      dup3\n      add\n      sload\n      dup2\n      mstore\n      0x20\n      add\n      0x02\n      dup3\n      add\n      dup1\n      sload\n      dup1\n      0x20\n      mul\n      0x20\n      add\n      mload(0x40)\n      swap1\n      dup2\n      add\n      0x40\n      mstore\n      dup1\n      swap3\n      swap2\n      swap1\n      dup2\n      dup2\n      mstore\n      0x20\n      add\n      0x00\n      swap1\n    tag_95:\n      dup3\n      dup3\n      lt\n      iszero\n      tag_96\n      jumpi\n      dup4\n      dup3\n      swap1\n      0x00\n      mstore\n      keccak256(0x00, 0x20)\n      add\n      dup1\n      sload\n      tag_98\n      swap1\n      tag_46\n      jump\t// in\n    tag_98:\n      dup1\n      0x1f\n      add\n      0x20\n      dup1\n      swap2\n      div\n      mul\n      0x20\n      add\n      mload(0x40)\n      swap1\n      dup2\n      add\n      0x40\n      mstore\n      dup1\n      swap3\n      swap2\n      swap1\n      dup2\n      dup2\n      mstore\n      0x20\n      add\n      dup3\n      dup1\n      sload\n      tag_99\n      swap1\n      tag_46\n      jump\t// in\n    tag_99:\n      dup1\n      iszero\n      tag_100\n      jumpi\n      dup1\n      0x1f\n      lt\n      tag_101\n      jumpi\n      0x0100\n      dup1\n      dup4\n      sload\n      div\n      mul\n      dup4\n      mstore\n      swap2\n      0x20\n      add\n      swap2\n      jump(tag_100)\n    tag_101:\n      dup3\n      add\n      swap2\n      swap1\n      0x00\n      mstore\n      keccak256(0x00, 0x20)\n      swap1\n    tag_102:\n      dup2\n      sload\n      dup2\n      mstore\n      swap1\n      0x01\n      add\n      swap1\n      0x20\n      add\n      dup1\n      dup4\n      gt\n      tag_102\n      jumpi\n      dup3\n      swap1\n      sub\n      0x1f\n      and\n      dup3\n      add\n      swap2\n    tag_100:\n      pop\n      pop\n      pop\n      pop\n      pop\n      dup2\n      mstore\n      0x20\n      add\n      swap1\n      0x01\n      add\n      swap1\n      jump(tag_95)\n    tag_96:\n      pop\n      pop\n      pop\n      pop\n      dup2\n      mstore\n      pop\n      pop\n      dup2\n      mstore\n      0x20\n      add\n      swap1\n      0x01\n      add\n      swap1\n      jump(tag_87)\n    tag_88:\n      pop\n      pop\n      pop\n      pop\n      swap1\n      pop\n        /* \"contracts/1_note.sol\":626:767  function getTeacher_Student(string memory _teacher) public view returns(Student[] memory) {... */\n      swap2\n      swap1\n      pop\n      jump\t// out\n        /* \"contracts/1_note.sol\":775:931  function setStudents(string memory _name, uint _number, string[] memory _classes) public {... */\n    tag_37:\n        /* \"contracts/1_note.sol\":875:883  students */\n      0x00\n        /* \"contracts/1_note.sol\":889:922  Student(_name, _number, _classes) */\n      mload(0x40)\n      dup1\n      0x60\n      add\n      0x40\n      mstore\n      dup1\n        /* \"contracts/1_note.sol\":897:902  _name */\n      dup6\n        /* \"contracts/1_note.sol\":889:922  Student(_name, _number, _classes) */\n      dup2\n      mstore\n      0x20\n      add\n        /* \"contracts/1_note.sol\":904:911  _number */\n      dup5\n        /* \"contracts/1_note.sol\":889:922  Student(_name, _number, _classes) */\n      dup2\n      mstore\n      0x20\n      add\n        /* \"contracts/1_note.sol\":913:921  _classes */\n      dup4\n        /* \"contracts/1_note.sol\":889:922  Student(_name, _number, _classes) */\n      dup2\n      mstore\n      pop\n        /* \"contracts/1_note.sol\":875:923  students.push(Student(_name, _number, _classes)) */\n      swap1\n      dup1\n      0x01\n      dup2\n      sload\n      add\n      dup1\n      dup3\n      sstore\n      dup1\n      swap2\n      pop\n      pop\n      0x01\n      swap1\n      sub\n      swap1\n      0x00\n      mstore\n      keccak256(0x00, 0x20)\n      swap1\n      0x03\n      mul\n      add\n      0x00\n      swap1\n      swap2\n      swap1\n      swap2\n      swap1\n      swap2\n      pop\n      0x00\n      dup3\n      add\n      mload\n      dup2\n      0x00\n      add\n      swap1\n      dup2\n      tag_105\n      swap2\n      swap1\n      tag_76\n      jump\t// in\n    tag_105:\n      pop\n      0x20\n      dup3\n      add\n      mload\n      dup2\n      0x01\n      add\n      sstore\n      0x40\n      dup3\n      add\n      mload\n      dup2\n      0x02\n      add\n      swap1\n      dup1\n      mload\n      swap1\n      0x20\n      add\n      swap1\n      tag_106\n      swap3\n      swap2\n      swap1\n      tag_78\n      jump\t// in\n    tag_106:\n      pop\n      pop\n      pop\n        /* \"contracts/1_note.sol\":775:931  function setStudents(string memory _name, uint _number, string[] memory _classes) public {... */\n      pop\n      pop\n      pop\n      jump\t// out\n    tag_52:\n      mload(0x40)\n      dup1\n      0x60\n      add\n      0x40\n      mstore\n      dup1\n      0x60\n      dup2\n      mstore\n      0x20\n      add\n      0x00\n      dup2\n      mstore\n      0x20\n      add\n      0x60\n      dup2\n      mstore\n      pop\n      swap1\n      jump\t// out\n    tag_78:\n      dup3\n      dup1\n      sload\n      dup3\n      dup3\n      sstore\n      swap1\n      0x00\n      mstore\n      keccak256(0x00, 0x20)\n      swap1\n      dup2\n      add\n      swap3\n      dup3\n      iszero\n      tag_107\n      jumpi\n      swap2\n      0x20\n      mul\n      dup3\n      add\n    tag_108:\n      dup3\n      dup2\n      gt\n      iszero\n      tag_109\n      jumpi\n      dup3\n      mload\n      dup3\n      swap1\n      dup2\n      tag_110\n      swap2\n      swap1\n      tag_76\n      jump\t// in\n    tag_110:\n      pop\n      swap2\n      0x20\n      add\n      swap2\n      swap1\n      0x01\n      add\n      swap1\n      jump(tag_108)\n    tag_109:\n    tag_107:\n      pop\n      swap1\n      pop\n      tag_111\n      swap2\n      swap1\n      tag_112\n      jump\t// in\n    tag_111:\n      pop\n      swap1\n      jump\t// out\n    tag_112:\n    tag_113:\n      dup1\n      dup3\n      gt\n      iszero\n      tag_114\n      jumpi\n      0x00\n      dup2\n      dup2\n      tag_115\n      swap2\n      swap1\n      tag_116\n      jump\t// in\n    tag_115:\n      pop\n      0x01\n      add\n      jump(tag_113)\n    tag_114:\n      pop\n      swap1\n      jump\t// out\n    tag_116:\n      pop\n      dup1\n      sload\n      tag_117\n      swap1\n      tag_46\n      jump\t// in\n    tag_117:\n      0x00\n      dup3\n      sstore\n      dup1\n      0x1f\n      lt\n      tag_119\n      jumpi\n      pop\n      jump(tag_118)\n    tag_119:\n      0x1f\n      add\n      0x20\n      swap1\n      div\n      swap1\n      0x00\n      mstore\n      keccak256(0x00, 0x20)\n      swap1\n      dup2\n      add\n      swap1\n      tag_120\n      swap2\n      swap1\n      tag_121\n      jump\t// in\n    tag_120:\n    tag_118:\n      pop\n      jump\t// out\n    tag_121:\n    tag_122:\n      dup1\n      dup3\n      gt\n      iszero\n      tag_123\n      jumpi\n      0x00\n      dup2\n      0x00\n      swap1\n      sstore\n      pop\n      0x01\n      add\n      jump(tag_122)\n    tag_123:\n      pop\n      swap1\n      jump\t// out\n        /* \"#utility.yul\":7:82   */\n    tag_124:\n        /* \"#utility.yul\":40:46   */\n      0x00\n        /* \"#utility.yul\":73:75   */\n      0x40\n        /* \"#utility.yul\":67:76   */\n      mload\n        /* \"#utility.yul\":57:76   */\n      swap1\n      pop\n        /* \"#utility.yul\":7:82   */\n      swap1\n      jump\t// out\n        /* \"#utility.yul\":88:205   */\n    tag_125:\n        /* \"#utility.yul\":197:198   */\n      0x00\n        /* \"#utility.yul\":194:195   */\n      dup1\n        /* \"#utility.yul\":187:199   */\n      revert\n        /* \"#utility.yul\":211:328   */\n    tag_126:\n        /* \"#utility.yul\":320:321   */\n      0x00\n        /* \"#utility.yul\":317:318   */\n      dup1\n        /* \"#utility.yul\":310:322   */\n      revert\n        /* \"#utility.yul\":334:411   */\n    tag_127:\n        /* \"#utility.yul\":371:378   */\n      0x00\n        /* \"#utility.yul\":400:405   */\n      dup2\n        /* \"#utility.yul\":389:405   */\n      swap1\n      pop\n        /* \"#utility.yul\":334:411   */\n      swap2\n      swap1\n      pop\n      jump\t// out\n        /* \"#utility.yul\":417:539   */\n    tag_128:\n        /* \"#utility.yul\":490:514   */\n      tag_190\n        /* \"#utility.yul\":508:513   */\n      dup2\n        /* \"#utility.yul\":490:514   */\n      tag_127\n      jump\t// in\n    tag_190:\n        /* \"#utility.yul\":483:488   */\n      dup2\n        /* \"#utility.yul\":480:515   */\n      eq\n        /* \"#utility.yul\":470:533   */\n      tag_191\n      jumpi\n        /* \"#utility.yul\":529:530   */\n      0x00\n        /* \"#utility.yul\":526:527   */\n      dup1\n        /* \"#utility.yul\":519:531   */\n      revert\n        /* \"#utility.yul\":470:533   */\n    tag_191:\n        /* \"#utility.yul\":417:539   */\n      pop\n      jump\t// out\n        /* \"#utility.yul\":545:684   */\n    tag_129:\n        /* \"#utility.yul\":591:596   */\n      0x00\n        /* \"#utility.yul\":629:635   */\n      dup2\n        /* \"#utility.yul\":616:636   */\n      calldataload\n        /* \"#utility.yul\":607:636   */\n      swap1\n      pop\n        /* \"#utility.yul\":645:678   */\n      tag_193\n        /* \"#utility.yul\":672:677   */\n      dup2\n        /* \"#utility.yul\":645:678   */\n      tag_128\n      jump\t// in\n    tag_193:\n        /* \"#utility.yul\":545:684   */\n      swap3\n      swap2\n      pop\n      pop\n      jump\t// out\n        /* \"#utility.yul\":690:1019   */\n    tag_11:\n        /* \"#utility.yul\":749:755   */\n      0x00\n        /* \"#utility.yul\":798:800   */\n      0x20\n        /* \"#utility.yul\":786:795   */\n      dup3\n        /* \"#utility.yul\":777:784   */\n      dup5\n        /* \"#utility.yul\":773:796   */\n      sub\n        /* \"#utility.yul\":769:801   */\n      slt\n        /* \"#utility.yul\":766:885   */\n      iszero\n      tag_195\n      jumpi\n        /* \"#utility.yul\":804:883   */\n      tag_196\n      tag_125\n      jump\t// in\n    tag_196:\n        /* \"#utility.yul\":766:885   */\n    tag_195:\n        /* \"#utility.yul\":924:925   */\n      0x00\n        /* \"#utility.yul\":949:1002   */\n      tag_197\n        /* \"#utility.yul\":994:1001   */\n      dup5\n        /* \"#utility.yul\":985:991   */\n      dup3\n        /* \"#utility.yul\":974:983   */\n      dup6\n        /* \"#utility.yul\":970:992   */\n      add\n        /* \"#utility.yul\":949:1002   */\n      tag_129\n      jump\t// in\n    tag_197:\n        /* \"#utility.yul\":939:1002   */\n      swap2\n      pop\n        /* \"#utility.yul\":895:1012   */\n      pop\n        /* \"#utility.yul\":690:1019   */\n      swap3\n      swap2\n      pop\n      pop\n      jump\t// out\n        /* \"#utility.yul\":1025:1124   */\n    tag_130:\n        /* \"#utility.yul\":1077:1083   */\n      0x00\n        /* \"#utility.yul\":1111:1116   */\n      dup2\n        /* \"#utility.yul\":1105:1117   */\n      mload\n        /* \"#utility.yul\":1095:1117   */\n      swap1\n      pop\n        /* \"#utility.yul\":1025:1124   */\n      swap2\n      swap1\n      pop\n      jump\t// out\n        /* \"#utility.yul\":1130:1299   */\n    tag_131:\n        /* \"#utility.yul\":1214:1225   */\n      0x00\n        /* \"#utility.yul\":1248:1254   */\n      dup3\n        /* \"#utility.yul\":1243:1246   */\n      dup3\n        /* \"#utility.yul\":1236:1255   */\n      mstore\n        /* \"#utility.yul\":1288:1292   */\n      0x20\n        /* \"#utility.yul\":1283:1286   */\n      dup3\n        /* \"#utility.yul\":1279:1293   */\n      add\n        /* \"#utility.yul\":1264:1293   */\n      swap1\n      pop\n        /* \"#utility.yul\":1130:1299   */\n      swap3\n      swap2\n      pop\n      pop\n      jump\t// out\n        /* \"#utility.yul\":1305:1551   */\n    tag_132:\n        /* \"#utility.yul\":1386:1387   */\n      0x00\n        /* \"#utility.yul\":1396:1509   */\n    tag_201:\n        /* \"#utility.yul\":1410:1416   */\n      dup4\n        /* \"#utility.yul\":1407:1408   */\n      dup2\n        /* \"#utility.yul\":1404:1417   */\n      lt\n        /* \"#utility.yul\":1396:1509   */\n      iszero\n      tag_203\n      jumpi\n        /* \"#utility.yul\":1495:1496   */\n      dup1\n        /* \"#utility.yul\":1490:1493   */\n      dup3\n        /* \"#utility.yul\":1486:1497   */\n      add\n        /* \"#utility.yul\":1480:1498   */\n      mload\n        /* \"#utility.yul\":1476:1477   */\n      dup2\n        /* \"#utility.yul\":1471:1474   */\n      dup5\n        /* \"#utility.yul\":1467:1478   */\n      add\n        /* \"#utility.yul\":1460:1499   */\n      mstore\n        /* \"#utility.yul\":1432:1434   */\n      0x20\n        /* \"#utility.yul\":1429:1430   */\n      dup2\n        /* \"#utility.yul\":1425:1435   */\n      add\n        /* \"#utility.yul\":1420:1435   */\n      swap1\n      pop\n        /* \"#utility.yul\":1396:1509   */\n      jump(tag_201)\n    tag_203:\n        /* \"#utility.yul\":1543:1544   */\n      0x00\n        /* \"#utility.yul\":1534:1540   */\n      dup5\n        /* \"#utility.yul\":1529:1532   */\n      dup5\n        /* \"#utility.yul\":1525:1541   */\n      add\n        /* \"#utility.yul\":1518:1545   */\n      mstore\n        /* \"#utility.yul\":1367:1551   */\n      pop\n        /* \"#utility.yul\":1305:1551   */\n      pop\n      pop\n      pop\n      jump\t// out\n        /* \"#utility.yul\":1557:1659   */\n    tag_133:\n        /* \"#utility.yul\":1598:1604   */\n      0x00\n        /* \"#utility.yul\":1649:1651   */\n      0x1f\n        /* \"#utility.yul\":1645:1652   */\n      not\n        /* \"#utility.yul\":1640:1642   */\n      0x1f\n        /* \"#utility.yul\":1633:1638   */\n      dup4\n        /* \"#utility.yul\":1629:1643   */\n      add\n        /* \"#utility.yul\":1625:1653   */\n      and\n        /* \"#utility.yul\":1615:1653   */\n      swap1\n      pop\n        /* \"#utility.yul\":1557:1659   */\n      swap2\n      swap1\n      pop\n      jump\t// out\n        /* \"#utility.yul\":1665:2042   */\n    tag_134:\n        /* \"#utility.yul\":1753:1756   */\n      0x00\n        /* \"#utility.yul\":1781:1820   */\n      tag_206\n        /* \"#utility.yul\":1814:1819   */\n      dup3\n        /* \"#utility.yul\":1781:1820   */\n      tag_130\n      jump\t// in\n    tag_206:\n        /* \"#utility.yul\":1836:1907   */\n      tag_207\n        /* \"#utility.yul\":1900:1906   */\n      dup2\n        /* \"#utility.yul\":1895:1898   */\n      dup6\n        /* \"#utility.yul\":1836:1907   */\n      tag_131\n      jump\t// in\n    tag_207:\n        /* \"#utility.yul\":1829:1907   */\n      swap4\n      pop\n        /* \"#utility.yul\":1916:1981   */\n      tag_208\n        /* \"#utility.yul\":1974:1980   */\n      dup2\n        /* \"#utility.yul\":1969:1972   */\n      dup6\n        /* \"#utility.yul\":1962:1966   */\n      0x20\n        /* \"#utility.yul\":1955:1960   */\n      dup7\n        /* \"#utility.yul\":1951:1967   */\n      add\n        /* \"#utility.yul\":1916:1981   */\n      tag_132\n      jump\t// in\n    tag_208:\n        /* \"#utility.yul\":2006:2035   */\n      tag_209\n        /* \"#utility.yul\":2028:2034   */\n      dup2\n        /* \"#utility.yul\":2006:2035   */\n      tag_133\n      jump\t// in\n    tag_209:\n        /* \"#utility.yul\":2001:2004   */\n      dup5\n        /* \"#utility.yul\":1997:2036   */\n      add\n        /* \"#utility.yul\":1990:2036   */\n      swap2\n      pop\n        /* \"#utility.yul\":1757:2042   */\n      pop\n        /* \"#utility.yul\":1665:2042   */\n      swap3\n      swap2\n      pop\n      pop\n      jump\t// out\n        /* \"#utility.yul\":2048:2361   */\n    tag_14:\n        /* \"#utility.yul\":2161:2165   */\n      0x00\n        /* \"#utility.yul\":2199:2201   */\n      0x20\n        /* \"#utility.yul\":2188:2197   */\n      dup3\n        /* \"#utility.yul\":2184:2202   */\n      add\n        /* \"#utility.yul\":2176:2202   */\n      swap1\n      pop\n        /* \"#utility.yul\":2248:2257   */\n      dup2\n        /* \"#utility.yul\":2242:2246   */\n      dup2\n        /* \"#utility.yul\":2238:2258   */\n      sub\n        /* \"#utility.yul\":2234:2235   */\n      0x00\n        /* \"#utility.yul\":2223:2232   */\n      dup4\n        /* \"#utility.yul\":2219:2236   */\n      add\n        /* \"#utility.yul\":2212:2259   */\n      mstore\n        /* \"#utility.yul\":2276:2354   */\n      tag_211\n        /* \"#utility.yul\":2349:2353   */\n      dup2\n        /* \"#utility.yul\":2340:2346   */\n      dup5\n        /* \"#utility.yul\":2276:2354   */\n      tag_134\n      jump\t// in\n    tag_211:\n        /* \"#utility.yul\":2268:2354   */\n      swap1\n      pop\n        /* \"#utility.yul\":2048:2361   */\n      swap3\n      swap2\n      pop\n      pop\n      jump\t// out\n        /* \"#utility.yul\":2367:2526   */\n    tag_135:\n        /* \"#utility.yul\":2441:2452   */\n      0x00\n        /* \"#utility.yul\":2475:2481   */\n      dup3\n        /* \"#utility.yul\":2470:2473   */\n      dup3\n        /* \"#utility.yul\":2463:2482   */\n      mstore\n        /* \"#utility.yul\":2515:2519   */\n      0x20\n        /* \"#utility.yul\":2510:2513   */\n      dup3\n        /* \"#utility.yul\":2506:2520   */\n      add\n        /* \"#utility.yul\":2491:2520   */\n      swap1\n      pop\n        /* \"#utility.yul\":2367:2526   */\n      swap3\n      swap2\n      pop\n      pop\n      jump\t// out\n        /* \"#utility.yul\":2532:2889   */\n    tag_136:\n        /* \"#utility.yul\":2610:2613   */\n      0x00\n        /* \"#utility.yul\":2638:2677   */\n      tag_214\n        /* \"#utility.yul\":2671:2676   */\n      dup3\n        /* \"#utility.yul\":2638:2677   */\n      tag_130\n      jump\t// in\n    tag_214:\n        /* \"#utility.yul\":2693:2754   */\n      tag_215\n        /* \"#utility.yul\":2747:2753   */\n      dup2\n        /* \"#utility.yul\":2742:2745   */\n      dup6\n        /* \"#utility.yul\":2693:2754   */\n      tag_135\n      jump\t// in\n    tag_215:\n        /* \"#utility.yul\":2686:2754   */\n      swap4\n      pop\n        /* \"#utility.yul\":2763:2828   */\n      tag_216\n        /* \"#utility.yul\":2821:2827   */\n      dup2\n        /* \"#utility.yul\":2816:2819   */\n      dup6\n        /* \"#utility.yul\":2809:2813   */\n      0x20\n        /* \"#utility.yul\":2802:2807   */\n      dup7\n        /* \"#utility.yul\":2798:2814   */\n      add\n        /* \"#utility.yul\":2763:2828   */\n      tag_132\n      jump\t// in\n    tag_216:\n        /* \"#utility.yul\":2853:2882   */\n      tag_217\n        /* \"#utility.yul\":2875:2881   */\n      dup2\n        /* \"#utility.yul\":2853:2882   */\n      tag_133\n      jump\t// in\n    tag_217:\n        /* \"#utility.yul\":2848:2851   */\n      dup5\n        /* \"#utility.yul\":2844:2883   */\n      add\n        /* \"#utility.yul\":2837:2883   */\n      swap2\n      pop\n        /* \"#utility.yul\":2614:2889   */\n      pop\n        /* \"#utility.yul\":2532:2889   */\n      swap3\n      swap2\n      pop\n      pop\n      jump\t// out\n        /* \"#utility.yul\":2895:3003   */\n    tag_137:\n        /* \"#utility.yul\":2972:2996   */\n      tag_219\n        /* \"#utility.yul\":2990:2995   */\n      dup2\n        /* \"#utility.yul\":2972:2996   */\n      tag_127\n      jump\t// in\n    tag_219:\n        /* \"#utility.yul\":2967:2970   */\n      dup3\n        /* \"#utility.yul\":2960:2997   */\n      mstore\n        /* \"#utility.yul\":2895:3003   */\n      pop\n      pop\n      jump\t// out\n        /* \"#utility.yul\":3009:3133   */\n    tag_138:\n        /* \"#utility.yul\":3086:3092   */\n      0x00\n        /* \"#utility.yul\":3120:3125   */\n      dup2\n        /* \"#utility.yul\":3114:3126   */\n      mload\n        /* \"#utility.yul\":3104:3126   */\n      swap1\n      pop\n        /* \"#utility.yul\":3009:3133   */\n      swap2\n      swap1\n      pop\n      jump\t// out\n        /* \"#utility.yul\":3139:3323   */\n    tag_139:\n        /* \"#utility.yul\":3238:3249   */\n      0x00\n        /* \"#utility.yul\":3272:3278   */\n      dup3\n        /* \"#utility.yul\":3267:3270   */\n      dup3\n        /* \"#utility.yul\":3260:3279   */\n      mstore\n        /* \"#utility.yul\":3312:3316   */\n      0x20\n        /* \"#utility.yul\":3307:3310   */\n      dup3\n        /* \"#utility.yul\":3303:3317   */\n      add\n        /* \"#utility.yul\":3288:3317   */\n      swap1\n      pop\n        /* \"#utility.yul\":3139:3323   */\n      swap3\n      swap2\n      pop\n      pop\n      jump\t// out\n        /* \"#utility.yul\":3329:3471   */\n    tag_140:\n        /* \"#utility.yul\":3406:3410   */\n      0x00\n        /* \"#utility.yul\":3429:3432   */\n      dup2\n        /* \"#utility.yul\":3421:3432   */\n      swap1\n      pop\n        /* \"#utility.yul\":3459:3463   */\n      0x20\n        /* \"#utility.yul\":3454:3457   */\n      dup3\n        /* \"#utility.yul\":3450:3464   */\n      add\n        /* \"#utility.yul\":3442:3464   */\n      swap1\n      pop\n        /* \"#utility.yul\":3329:3471   */\n      swap2\n      swap1\n      pop\n      jump\t// out\n        /* \"#utility.yul\":3477:3673   */\n    tag_141:\n        /* \"#utility.yul\":3566:3576   */\n      0x00\n        /* \"#utility.yul\":3601:3667   */\n      tag_224\n        /* \"#utility.yul\":3663:3666   */\n      dup4\n        /* \"#utility.yul\":3655:3661   */\n      dup4\n        /* \"#utility.yul\":3601:3667   */\n      tag_136\n      jump\t// in\n    tag_224:\n        /* \"#utility.yul\":3587:3667   */\n      swap1\n      pop\n        /* \"#utility.yul\":3477:3673   */\n      swap3\n      swap2\n      pop\n      pop\n      jump\t// out\n        /* \"#utility.yul\":3679:3802   */\n    tag_142:\n        /* \"#utility.yul\":3759:3763   */\n      0x00\n        /* \"#utility.yul\":3791:3795   */\n      0x20\n        /* \"#utility.yul\":3786:3789   */\n      dup3\n        /* \"#utility.yul\":3782:3796   */\n      add\n        /* \"#utility.yul\":3774:3796   */\n      swap1\n      pop\n        /* \"#utility.yul\":3679:3802   */\n      swap2\n      swap1\n      pop\n      jump\t// out\n        /* \"#utility.yul\":3836:4807   */\n    tag_143:\n        /* \"#utility.yul\":3965:3968   */\n      0x00\n        /* \"#utility.yul\":3994:4058   */\n      tag_227\n        /* \"#utility.yul\":4052:4057   */\n      dup3\n        /* \"#utility.yul\":3994:4058   */\n      tag_138\n      jump\t// in\n    tag_227:\n        /* \"#utility.yul\":4074:4160   */\n      tag_228\n        /* \"#utility.yul\":4153:4159   */\n      dup2\n        /* \"#utility.yul\":4148:4151   */\n      dup6\n        /* \"#utility.yul\":4074:4160   */\n      tag_139\n      jump\t// in\n    tag_228:\n        /* \"#utility.yul\":4067:4160   */\n      swap4\n      pop\n        /* \"#utility.yul\":4186:4189   */\n      dup4\n        /* \"#utility.yul\":4231:4235   */\n      0x20\n        /* \"#utility.yul\":4223:4229   */\n      dup3\n        /* \"#utility.yul\":4219:4236   */\n      mul\n        /* \"#utility.yul\":4214:4217   */\n      dup6\n        /* \"#utility.yul\":4210:4237   */\n      add\n        /* \"#utility.yul\":4261:4327   */\n      tag_229\n        /* \"#utility.yul\":4321:4326   */\n      dup6\n        /* \"#utility.yul\":4261:4327   */\n      tag_140\n      jump\t// in\n    tag_229:\n        /* \"#utility.yul\":4350:4357   */\n      dup1\n        /* \"#utility.yul\":4381:4382   */\n      0x00\n        /* \"#utility.yul\":4366:4762   */\n    tag_230:\n        /* \"#utility.yul\":4391:4397   */\n      dup6\n        /* \"#utility.yul\":4388:4389   */\n      dup2\n        /* \"#utility.yul\":4385:4398   */\n      lt\n        /* \"#utility.yul\":4366:4762   */\n      iszero\n      tag_232\n      jumpi\n        /* \"#utility.yul\":4462:4471   */\n      dup5\n        /* \"#utility.yul\":4456:4460   */\n      dup5\n        /* \"#utility.yul\":4452:4472   */\n      sub\n        /* \"#utility.yul\":4447:4450   */\n      dup10\n        /* \"#utility.yul\":4440:4473   */\n      mstore\n        /* \"#utility.yul\":4513:4519   */\n      dup2\n        /* \"#utility.yul\":4507:4520   */\n      mload\n        /* \"#utility.yul\":4541:4625   */\n      tag_233\n        /* \"#utility.yul\":4620:4624   */\n      dup6\n        /* \"#utility.yul\":4605:4618   */\n      dup3\n        /* \"#utility.yul\":4541:4625   */\n      tag_141\n      jump\t// in\n    tag_233:\n        /* \"#utility.yul\":4533:4625   */\n      swap5\n      pop\n        /* \"#utility.yul\":4648:4718   */\n      tag_234\n        /* \"#utility.yul\":4711:4717   */\n      dup4\n        /* \"#utility.yul\":4648:4718   */\n      tag_142\n      jump\t// in\n    tag_234:\n        /* \"#utility.yul\":4638:4718   */\n      swap3\n      pop\n        /* \"#utility.yul\":4747:4751   */\n      0x20\n        /* \"#utility.yul\":4742:4745   */\n      dup11\n        /* \"#utility.yul\":4738:4752   */\n      add\n        /* \"#utility.yul\":4731:4752   */\n      swap10\n      pop\n        /* \"#utility.yul\":4426:4762   */\n      pop\n        /* \"#utility.yul\":4413:4414   */\n      0x01\n        /* \"#utility.yul\":4410:4411   */\n      dup2\n        /* \"#utility.yul\":4406:4415   */\n      add\n        /* \"#utility.yul\":4401:4415   */\n      swap1\n      pop\n        /* \"#utility.yul\":4366:4762   */\n      jump(tag_230)\n    tag_232:\n        /* \"#utility.yul\":4370:4384   */\n      pop\n        /* \"#utility.yul\":4778:4782   */\n      dup3\n        /* \"#utility.yul\":4771:4782   */\n      swap8\n      pop\n        /* \"#utility.yul\":4798:4801   */\n      dup8\n        /* \"#utility.yul\":4791:4801   */\n      swap6\n      pop\n        /* \"#utility.yul\":3970:4807   */\n      pop\n      pop\n      pop\n      pop\n      pop\n        /* \"#utility.yul\":3836:4807   */\n      swap3\n      swap2\n      pop\n      pop\n      jump\t// out\n        /* \"#utility.yul\":4863:5763   */\n    tag_144:\n        /* \"#utility.yul\":4976:4979   */\n      0x00\n        /* \"#utility.yul\":5012:5016   */\n      0x60\n        /* \"#utility.yul\":5007:5010   */\n      dup4\n        /* \"#utility.yul\":5003:5017   */\n      add\n        /* \"#utility.yul\":5099:5103   */\n      0x00\n        /* \"#utility.yul\":5092:5097   */\n      dup4\n        /* \"#utility.yul\":5088:5104   */\n      add\n        /* \"#utility.yul\":5082:5105   */\n      mload\n        /* \"#utility.yul\":5152:5155   */\n      dup5\n        /* \"#utility.yul\":5146:5150   */\n      dup3\n        /* \"#utility.yul\":5142:5156   */\n      sub\n        /* \"#utility.yul\":5135:5139   */\n      0x00\n        /* \"#utility.yul\":5130:5133   */\n      dup7\n        /* \"#utility.yul\":5126:5140   */\n      add\n        /* \"#utility.yul\":5119:5157   */\n      mstore\n        /* \"#utility.yul\":5178:5251   */\n      tag_236\n        /* \"#utility.yul\":5246:5250   */\n      dup3\n        /* \"#utility.yul\":5232:5244   */\n      dup3\n        /* \"#utility.yul\":5178:5251   */\n      tag_136\n      jump\t// in\n    tag_236:\n        /* \"#utility.yul\":5170:5251   */\n      swap2\n      pop\n        /* \"#utility.yul\":5027:5262   */\n      pop\n        /* \"#utility.yul\":5346:5350   */\n      0x20\n        /* \"#utility.yul\":5339:5344   */\n      dup4\n        /* \"#utility.yul\":5335:5351   */\n      add\n        /* \"#utility.yul\":5329:5352   */\n      mload\n        /* \"#utility.yul\":5365:5428   */\n      tag_237\n        /* \"#utility.yul\":5422:5426   */\n      0x20\n        /* \"#utility.yul\":5417:5420   */\n      dup7\n        /* \"#utility.yul\":5413:5427   */\n      add\n        /* \"#utility.yul\":5399:5411   */\n      dup3\n        /* \"#utility.yul\":5365:5428   */\n      tag_137\n      jump\t// in\n    tag_237:\n        /* \"#utility.yul\":5272:5438   */\n      pop\n        /* \"#utility.yul\":5523:5527   */\n      0x40\n        /* \"#utility.yul\":5516:5521   */\n      dup4\n        /* \"#utility.yul\":5512:5528   */\n      add\n        /* \"#utility.yul\":5506:5529   */\n      mload\n        /* \"#utility.yul\":5576:5579   */\n      dup5\n        /* \"#utility.yul\":5570:5574   */\n      dup3\n        /* \"#utility.yul\":5566:5580   */\n      sub\n        /* \"#utility.yul\":5559:5563   */\n      0x40\n        /* \"#utility.yul\":5554:5557   */\n      dup7\n        /* \"#utility.yul\":5550:5564   */\n      add\n        /* \"#utility.yul\":5543:5581   */\n      mstore\n        /* \"#utility.yul\":5602:5725   */\n      tag_238\n        /* \"#utility.yul\":5720:5724   */\n      dup3\n        /* \"#utility.yul\":5706:5718   */\n      dup3\n        /* \"#utility.yul\":5602:5725   */\n      tag_143\n      jump\t// in\n    tag_238:\n        /* \"#utility.yul\":5594:5725   */\n      swap2\n      pop\n        /* \"#utility.yul\":5448:5736   */\n      pop\n        /* \"#utility.yul\":5753:5757   */\n      dup1\n        /* \"#utility.yul\":5746:5757   */\n      swap2\n      pop\n        /* \"#utility.yul\":4981:5763   */\n      pop\n        /* \"#utility.yul\":4863:5763   */\n      swap3\n      swap2\n      pop\n      pop\n      jump\t// out\n        /* \"#utility.yul\":5769:6130   */\n    tag_19:\n        /* \"#utility.yul\":5906:5910   */\n      0x00\n        /* \"#utility.yul\":5944:5946   */\n      0x20\n        /* \"#utility.yul\":5933:5942   */\n      dup3\n        /* \"#utility.yul\":5929:5947   */\n      add\n        /* \"#utility.yul\":5921:5947   */\n      swap1\n      pop\n        /* \"#utility.yul\":5993:6002   */\n      dup2\n        /* \"#utility.yul\":5987:5991   */\n      dup2\n        /* \"#utility.yul\":5983:6003   */\n      sub\n        /* \"#utility.yul\":5979:5980   */\n      0x00\n        /* \"#utility.yul\":5968:5977   */\n      dup4\n        /* \"#utility.yul\":5964:5981   */\n      add\n        /* \"#utility.yul\":5957:6004   */\n      mstore\n        /* \"#utility.yul\":6021:6123   */\n      tag_240\n        /* \"#utility.yul\":6118:6122   */\n      dup2\n        /* \"#utility.yul\":6109:6115   */\n      dup5\n        /* \"#utility.yul\":6021:6123   */\n      tag_144\n      jump\t// in\n    tag_240:\n        /* \"#utility.yul\":6013:6123   */\n      swap1\n      pop\n        /* \"#utility.yul\":5769:6130   */\n      swap3\n      swap2\n      pop\n      pop\n      jump\t// out\n        /* \"#utility.yul\":6136:6253   */\n    tag_145:\n        /* \"#utility.yul\":6245:6246   */\n      0x00\n        /* \"#utility.yul\":6242:6243   */\n      dup1\n        /* \"#utility.yul\":6235:6247   */\n      revert\n        /* \"#utility.yul\":6259:6376   */\n    tag_146:\n        /* \"#utility.yul\":6368:6369   */\n      0x00\n        /* \"#utility.yul\":6365:6366   */\n      dup1\n        /* \"#utility.yul\":6358:6370   */\n      revert\n        /* \"#utility.yul\":6382:6562   */\n    tag_147:\n        /* \"#utility.yul\":6430:6507   */\n      0x4e487b7100000000000000000000000000000000000000000000000000000000\n        /* \"#utility.yul\":6427:6428   */\n      0x00\n        /* \"#utility.yul\":6420:6508   */\n      mstore\n        /* \"#utility.yul\":6527:6531   */\n      0x41\n        /* \"#utility.yul\":6524:6525   */\n      0x04\n        /* \"#utility.yul\":6517:6532   */\n      mstore\n        /* \"#utility.yul\":6551:6555   */\n      0x24\n        /* \"#utility.yul\":6548:6549   */\n      0x00\n        /* \"#utility.yul\":6541:6556   */\n      revert\n        /* \"#utility.yul\":6568:6849   */\n    tag_148:\n        /* \"#utility.yul\":6651:6678   */\n      tag_245\n        /* \"#utility.yul\":6673:6677   */\n      dup3\n        /* \"#utility.yul\":6651:6678   */\n      tag_133\n      jump\t// in\n    tag_245:\n        /* \"#utility.yul\":6643:6649   */\n      dup2\n        /* \"#utility.yul\":6639:6679   */\n      add\n        /* \"#utility.yul\":6781:6787   */\n      dup2\n        /* \"#utility.yul\":6769:6779   */\n      dup2\n        /* \"#utility.yul\":6766:6788   */\n      lt\n        /* \"#utility.yul\":6745:6763   */\n      0xffffffffffffffff\n        /* \"#utility.yul\":6733:6743   */\n      dup3\n        /* \"#utility.yul\":6730:6764   */\n      gt\n        /* \"#utility.yul\":6727:6789   */\n      or\n        /* \"#utility.yul\":6724:6812   */\n      iszero\n      tag_246\n      jumpi\n        /* \"#utility.yul\":6792:6810   */\n      tag_247\n      tag_147\n      jump\t// in\n    tag_247:\n        /* \"#utility.yul\":6724:6812   */\n    tag_246:\n        /* \"#utility.yul\":6832:6842   */\n      dup1\n        /* \"#utility.yul\":6828:6830   */\n      0x40\n        /* \"#utility.yul\":6821:6843   */\n      mstore\n        /* \"#utility.yul\":6611:6849   */\n      pop\n        /* \"#utility.yul\":6568:6849   */\n      pop\n      pop\n      jump\t// out\n        /* \"#utility.yul\":6855:6984   */\n    tag_149:\n        /* \"#utility.yul\":6889:6895   */\n      0x00\n        /* \"#utility.yul\":6916:6936   */\n      tag_249\n      tag_124\n      jump\t// in\n    tag_249:\n        /* \"#utility.yul\":6906:6936   */\n      swap1\n      pop\n        /* \"#utility.yul\":6945:6978   */\n      tag_250\n        /* \"#utility.yul\":6973:6977   */\n      dup3\n        /* \"#utility.yul\":6965:6971   */\n      dup3\n        /* \"#utility.yul\":6945:6978   */\n      tag_148\n      jump\t// in\n    tag_250:\n        /* \"#utility.yul\":6855:6984   */\n      swap2\n      swap1\n      pop\n      jump\t// out\n        /* \"#utility.yul\":6990:7298   */\n    tag_150:\n        /* \"#utility.yul\":7052:7056   */\n      0x00\n        /* \"#utility.yul\":7142:7160   */\n      0xffffffffffffffff\n        /* \"#utility.yul\":7134:7140   */\n      dup3\n        /* \"#utility.yul\":7131:7161   */\n      gt\n        /* \"#utility.yul\":7128:7184   */\n      iszero\n      tag_252\n      jumpi\n        /* \"#utility.yul\":7164:7182   */\n      tag_253\n      tag_147\n      jump\t// in\n    tag_253:\n        /* \"#utility.yul\":7128:7184   */\n    tag_252:\n        /* \"#utility.yul\":7202:7231   */\n      tag_254\n        /* \"#utility.yul\":7224:7230   */\n      dup3\n        /* \"#utility.yul\":7202:7231   */\n      tag_133\n      jump\t// in\n    tag_254:\n        /* \"#utility.yul\":7194:7231   */\n      swap1\n      pop\n        /* \"#utility.yul\":7286:7290   */\n      0x20\n        /* \"#utility.yul\":7280:7284   */\n      dup2\n        /* \"#utility.yul\":7276:7291   */\n      add\n        /* \"#utility.yul\":7268:7291   */\n      swap1\n      pop\n        /* \"#utility.yul\":6990:7298   */\n      swap2\n      swap1\n      pop\n      jump\t// out\n        /* \"#utility.yul\":7304:7450   */\n    tag_151:\n        /* \"#utility.yul\":7401:7407   */\n      dup3\n        /* \"#utility.yul\":7396:7399   */\n      dup2\n        /* \"#utility.yul\":7391:7394   */\n      dup4\n        /* \"#utility.yul\":7378:7408   */\n      calldatacopy\n        /* \"#utility.yul\":7442:7443   */\n      0x00\n        /* \"#utility.yul\":7433:7439   */\n      dup4\n        /* \"#utility.yul\":7428:7431   */\n      dup4\n        /* \"#utility.yul\":7424:7440   */\n      add\n        /* \"#utility.yul\":7417:7444   */\n      mstore\n        /* \"#utility.yul\":7304:7450   */\n      pop\n      pop\n      pop\n      jump\t// out\n        /* \"#utility.yul\":7456:7881   */\n    tag_152:\n        /* \"#utility.yul\":7534:7539   */\n      0x00\n        /* \"#utility.yul\":7559:7625   */\n      tag_257\n        /* \"#utility.yul\":7575:7624   */\n      tag_258\n        /* \"#utility.yul\":7617:7623   */\n      dup5\n        /* \"#utility.yul\":7575:7624   */\n      tag_150\n      jump\t// in\n    tag_258:\n        /* \"#utility.yul\":7559:7625   */\n      tag_149\n      jump\t// in\n    tag_257:\n        /* \"#utility.yul\":7550:7625   */\n      swap1\n      pop\n        /* \"#utility.yul\":7648:7654   */\n      dup3\n        /* \"#utility.yul\":7641:7646   */\n      dup2\n        /* \"#utility.yul\":7634:7655   */\n      mstore\n        /* \"#utility.yul\":7686:7690   */\n      0x20\n        /* \"#utility.yul\":7679:7684   */\n      dup2\n        /* \"#utility.yul\":7675:7691   */\n      add\n        /* \"#utility.yul\":7724:7727   */\n      dup5\n        /* \"#utility.yul\":7715:7721   */\n      dup5\n        /* \"#utility.yul\":7710:7713   */\n      dup5\n        /* \"#utility.yul\":7706:7722   */\n      add\n        /* \"#utility.yul\":7703:7728   */\n      gt\n        /* \"#utility.yul\":7700:7812   */\n      iszero\n      tag_259\n      jumpi\n        /* \"#utility.yul\":7731:7810   */\n      tag_260\n      tag_146\n      jump\t// in\n    tag_260:\n        /* \"#utility.yul\":7700:7812   */\n    tag_259:\n        /* \"#utility.yul\":7821:7875   */\n      tag_261\n        /* \"#utility.yul\":7868:7874   */\n      dup5\n        /* \"#utility.yul\":7863:7866   */\n      dup3\n        /* \"#utility.yul\":7858:7861   */\n      dup6\n        /* \"#utility.yul\":7821:7875   */\n      tag_151\n      jump\t// in\n    tag_261:\n        /* \"#utility.yul\":7540:7881   */\n      pop\n        /* \"#utility.yul\":7456:7881   */\n      swap4\n      swap3\n      pop\n      pop\n      pop\n      jump\t// out\n        /* \"#utility.yul\":7901:8241   */\n    tag_153:\n        /* \"#utility.yul\":7957:7962   */\n      0x00\n        /* \"#utility.yul\":8006:8009   */\n      dup3\n        /* \"#utility.yul\":7999:8003   */\n      0x1f\n        /* \"#utility.yul\":7991:7997   */\n      dup4\n        /* \"#utility.yul\":7987:8004   */\n      add\n        /* \"#utility.yul\":7983:8010   */\n      slt\n        /* \"#utility.yul\":7973:8095   */\n      tag_263\n      jumpi\n        /* \"#utility.yul\":8014:8093   */\n      tag_264\n      tag_145\n      jump\t// in\n    tag_264:\n        /* \"#utility.yul\":7973:8095   */\n    tag_263:\n        /* \"#utility.yul\":8131:8137   */\n      dup2\n        /* \"#utility.yul\":8118:8138   */\n      calldataload\n        /* \"#utility.yul\":8156:8235   */\n      tag_265\n        /* \"#utility.yul\":8231:8234   */\n      dup5\n        /* \"#utility.yul\":8223:8229   */\n      dup3\n        /* \"#utility.yul\":8216:8220   */\n      0x20\n        /* \"#utility.yul\":8208:8214   */\n      dup7\n        /* \"#utility.yul\":8204:8221   */\n      add\n        /* \"#utility.yul\":8156:8235   */\n      tag_152\n      jump\t// in\n    tag_265:\n        /* \"#utility.yul\":8147:8235   */\n      swap2\n      pop\n        /* \"#utility.yul\":7963:8241   */\n      pop\n        /* \"#utility.yul\":7901:8241   */\n      swap3\n      swap2\n      pop\n      pop\n      jump\t// out\n        /* \"#utility.yul\":8247:8568   */\n    tag_154:\n        /* \"#utility.yul\":8334:8338   */\n      0x00\n        /* \"#utility.yul\":8424:8442   */\n      0xffffffffffffffff\n        /* \"#utility.yul\":8416:8422   */\n      dup3\n        /* \"#utility.yul\":8413:8443   */\n      gt\n        /* \"#utility.yul\":8410:8466   */\n      iszero\n      tag_267\n      jumpi\n        /* \"#utility.yul\":8446:8464   */\n      tag_268\n      tag_147\n      jump\t// in\n    tag_268:\n        /* \"#utility.yul\":8410:8466   */\n    tag_267:\n        /* \"#utility.yul\":8496:8500   */\n      0x20\n        /* \"#utility.yul\":8488:8494   */\n      dup3\n        /* \"#utility.yul\":8484:8501   */\n      mul\n        /* \"#utility.yul\":8476:8501   */\n      swap1\n      pop\n        /* \"#utility.yul\":8556:8560   */\n      0x20\n        /* \"#utility.yul\":8550:8554   */\n      dup2\n        /* \"#utility.yul\":8546:8561   */\n      add\n        /* \"#utility.yul\":8538:8561   */\n      swap1\n      pop\n        /* \"#utility.yul\":8247:8568   */\n      swap2\n      swap1\n      pop\n      jump\t// out\n        /* \"#utility.yul\":8574:8691   */\n    tag_155:\n        /* \"#utility.yul\":8683:8684   */\n      0x00\n        /* \"#utility.yul\":8680:8681   */\n      dup1\n        /* \"#utility.yul\":8673:8685   */\n      revert\n        /* \"#utility.yul\":8713:9658   */\n    tag_156:\n        /* \"#utility.yul\":8819:8824   */\n      0x00\n        /* \"#utility.yul\":8844:8935   */\n      tag_271\n        /* \"#utility.yul\":8860:8934   */\n      tag_272\n        /* \"#utility.yul\":8927:8933   */\n      dup5\n        /* \"#utility.yul\":8860:8934   */\n      tag_154\n      jump\t// in\n    tag_272:\n        /* \"#utility.yul\":8844:8935   */\n      tag_149\n      jump\t// in\n    tag_271:\n        /* \"#utility.yul\":8835:8935   */\n      swap1\n      pop\n        /* \"#utility.yul\":8955:8960   */\n      dup1\n        /* \"#utility.yul\":8984:8990   */\n      dup4\n        /* \"#utility.yul\":8977:8982   */\n      dup3\n        /* \"#utility.yul\":8970:8991   */\n      mstore\n        /* \"#utility.yul\":9018:9022   */\n      0x20\n        /* \"#utility.yul\":9011:9016   */\n      dup3\n        /* \"#utility.yul\":9007:9023   */\n      add\n        /* \"#utility.yul\":9000:9023   */\n      swap1\n      pop\n        /* \"#utility.yul\":9071:9075   */\n      0x20\n        /* \"#utility.yul\":9063:9069   */\n      dup5\n        /* \"#utility.yul\":9059:9076   */\n      mul\n        /* \"#utility.yul\":9051:9057   */\n      dup4\n        /* \"#utility.yul\":9047:9077   */\n      add\n        /* \"#utility.yul\":9100:9103   */\n      dup6\n        /* \"#utility.yul\":9092:9098   */\n      dup2\n        /* \"#utility.yul\":9089:9104   */\n      gt\n        /* \"#utility.yul\":9086:9208   */\n      iszero\n      tag_273\n      jumpi\n        /* \"#utility.yul\":9119:9198   */\n      tag_274\n      tag_155\n      jump\t// in\n    tag_274:\n        /* \"#utility.yul\":9086:9208   */\n    tag_273:\n        /* \"#utility.yul\":9234:9240   */\n      dup4\n        /* \"#utility.yul\":9217:9652   */\n    tag_275:\n        /* \"#utility.yul\":9251:9257   */\n      dup2\n        /* \"#utility.yul\":9246:9249   */\n      dup2\n        /* \"#utility.yul\":9243:9258   */\n      lt\n        /* \"#utility.yul\":9217:9652   */\n      iszero\n      tag_277\n      jumpi\n        /* \"#utility.yul\":9340:9343   */\n      dup1\n        /* \"#utility.yul\":9327:9344   */\n      calldataload\n        /* \"#utility.yul\":9376:9394   */\n      0xffffffffffffffff\n        /* \"#utility.yul\":9363:9374   */\n      dup2\n        /* \"#utility.yul\":9360:9395   */\n      gt\n        /* \"#utility.yul\":9357:9479   */\n      iszero\n      tag_278\n      jumpi\n        /* \"#utility.yul\":9398:9477   */\n      tag_279\n      tag_145\n      jump\t// in\n    tag_279:\n        /* \"#utility.yul\":9357:9479   */\n    tag_278:\n        /* \"#utility.yul\":9522:9533   */\n      dup1\n        /* \"#utility.yul\":9514:9520   */\n      dup7\n        /* \"#utility.yul\":9510:9534   */\n      add\n        /* \"#utility.yul\":9560:9607   */\n      tag_280\n        /* \"#utility.yul\":9603:9606   */\n      dup10\n        /* \"#utility.yul\":9591:9601   */\n      dup3\n        /* \"#utility.yul\":9560:9607   */\n      tag_153\n      jump\t// in\n    tag_280:\n        /* \"#utility.yul\":9555:9558   */\n      dup6\n        /* \"#utility.yul\":9548:9608   */\n      mstore\n        /* \"#utility.yul\":9637:9641   */\n      0x20\n        /* \"#utility.yul\":9632:9635   */\n      dup6\n        /* \"#utility.yul\":9628:9642   */\n      add\n        /* \"#utility.yul\":9621:9642   */\n      swap5\n      pop\n        /* \"#utility.yul\":9293:9652   */\n      pop\n      pop\n        /* \"#utility.yul\":9277:9281   */\n      0x20\n        /* \"#utility.yul\":9272:9275   */\n      dup2\n        /* \"#utility.yul\":9268:9282   */\n      add\n        /* \"#utility.yul\":9261:9282   */\n      swap1\n      pop\n        /* \"#utility.yul\":9217:9652   */\n      jump(tag_275)\n    tag_277:\n        /* \"#utility.yul\":9221:9242   */\n      pop\n        /* \"#utility.yul\":8825:9658   */\n      pop\n      pop\n        /* \"#utility.yul\":8713:9658   */\n      swap4\n      swap3\n      pop\n      pop\n      pop\n      jump\t// out\n        /* \"#utility.yul\":9680:10070   */\n    tag_157:\n        /* \"#utility.yul\":9761:9766   */\n      0x00\n        /* \"#utility.yul\":9810:9813   */\n      dup3\n        /* \"#utility.yul\":9803:9807   */\n      0x1f\n        /* \"#utility.yul\":9795:9801   */\n      dup4\n        /* \"#utility.yul\":9791:9808   */\n      add\n        /* \"#utility.yul\":9787:9814   */\n      slt\n        /* \"#utility.yul\":9777:9899   */\n      tag_282\n      jumpi\n        /* \"#utility.yul\":9818:9897   */\n      tag_283\n      tag_145\n      jump\t// in\n    tag_283:\n        /* \"#utility.yul\":9777:9899   */\n    tag_282:\n        /* \"#utility.yul\":9935:9941   */\n      dup2\n        /* \"#utility.yul\":9922:9942   */\n      calldataload\n        /* \"#utility.yul\":9960:10064   */\n      tag_284\n        /* \"#utility.yul\":10060:10063   */\n      dup5\n        /* \"#utility.yul\":10052:10058   */\n      dup3\n        /* \"#utility.yul\":10045:10049   */\n      0x20\n        /* \"#utility.yul\":10037:10043   */\n      dup7\n        /* \"#utility.yul\":10033:10050   */\n      add\n        /* \"#utility.yul\":9960:10064   */\n      tag_156\n      jump\t// in\n    tag_284:\n        /* \"#utility.yul\":9951:10064   */\n      swap2\n      pop\n        /* \"#utility.yul\":9767:10070   */\n      pop\n        /* \"#utility.yul\":9680:10070   */\n      swap3\n      swap2\n      pop\n      pop\n      jump\t// out\n        /* \"#utility.yul\":10076:11431   */\n    tag_22:\n        /* \"#utility.yul\":10217:10223   */\n      0x00\n        /* \"#utility.yul\":10225:10231   */\n      dup1\n        /* \"#utility.yul\":10233:10239   */\n      0x00\n        /* \"#utility.yul\":10241:10247   */\n      dup1\n        /* \"#utility.yul\":10290:10293   */\n      0x80\n        /* \"#utility.yul\":10278:10287   */\n      dup6\n        /* \"#utility.yul\":10269:10276   */\n      dup8\n        /* \"#utility.yul\":10265:10288   */\n      sub\n        /* \"#utility.yul\":10261:10294   */\n      slt\n        /* \"#utility.yul\":10258:10378   */\n      iszero\n      tag_286\n      jumpi\n        /* \"#utility.yul\":10297:10376   */\n      tag_287\n      tag_125\n      jump\t// in\n    tag_287:\n        /* \"#utility.yul\":10258:10378   */\n    tag_286:\n        /* \"#utility.yul\":10445:10446   */\n      0x00\n        /* \"#utility.yul\":10434:10443   */\n      dup6\n        /* \"#utility.yul\":10430:10447   */\n      add\n        /* \"#utility.yul\":10417:10448   */\n      calldataload\n        /* \"#utility.yul\":10475:10493   */\n      0xffffffffffffffff\n        /* \"#utility.yul\":10467:10473   */\n      dup2\n        /* \"#utility.yul\":10464:10494   */\n      gt\n        /* \"#utility.yul\":10461:10578   */\n      iszero\n      tag_288\n      jumpi\n        /* \"#utility.yul\":10497:10576   */\n      tag_289\n      tag_126\n      jump\t// in\n    tag_289:\n        /* \"#utility.yul\":10461:10578   */\n    tag_288:\n        /* \"#utility.yul\":10602:10665   */\n      tag_290\n        /* \"#utility.yul\":10657:10664   */\n      dup8\n        /* \"#utility.yul\":10648:10654   */\n      dup3\n        /* \"#utility.yul\":10637:10646   */\n      dup9\n        /* \"#utility.yul\":10633:10655   */\n      add\n        /* \"#utility.yul\":10602:10665   */\n      tag_153\n      jump\t// in\n    tag_290:\n        /* \"#utility.yul\":10592:10665   */\n      swap5\n      pop\n        /* \"#utility.yul\":10388:10675   */\n      pop\n        /* \"#utility.yul\":10742:10744   */\n      0x20\n        /* \"#utility.yul\":10731:10740   */\n      dup6\n        /* \"#utility.yul\":10727:10745   */\n      add\n        /* \"#utility.yul\":10714:10746   */\n      calldataload\n        /* \"#utility.yul\":10773:10791   */\n      0xffffffffffffffff\n        /* \"#utility.yul\":10765:10771   */\n      dup2\n        /* \"#utility.yul\":10762:10792   */\n      gt\n        /* \"#utility.yul\":10759:10876   */\n      iszero\n      tag_291\n      jumpi\n        /* \"#utility.yul\":10795:10874   */\n      tag_292\n      tag_126\n      jump\t// in\n    tag_292:\n        /* \"#utility.yul\":10759:10876   */\n    tag_291:\n        /* \"#utility.yul\":10900:10963   */\n      tag_293\n        /* \"#utility.yul\":10955:10962   */\n      dup8\n        /* \"#utility.yul\":10946:10952   */\n      dup3\n        /* \"#utility.yul\":10935:10944   */\n      dup9\n        /* \"#utility.yul\":10931:10953   */\n      add\n        /* \"#utility.yul\":10900:10963   */\n      tag_153\n      jump\t// in\n    tag_293:\n        /* \"#utility.yul\":10890:10963   */\n      swap4\n      pop\n        /* \"#utility.yul\":10685:10973   */\n      pop\n        /* \"#utility.yul\":11012:11014   */\n      0x40\n        /* \"#utility.yul\":11038:11091   */\n      tag_294\n        /* \"#utility.yul\":11083:11090   */\n      dup8\n        /* \"#utility.yul\":11074:11080   */\n      dup3\n        /* \"#utility.yul\":11063:11072   */\n      dup9\n        /* \"#utility.yul\":11059:11081   */\n      add\n        /* \"#utility.yul\":11038:11091   */\n      tag_129\n      jump\t// in\n    tag_294:\n        /* \"#utility.yul\":11028:11091   */\n      swap3\n      pop\n        /* \"#utility.yul\":10983:11101   */\n      pop\n        /* \"#utility.yul\":11168:11170   */\n      0x60\n        /* \"#utility.yul\":11157:11166   */\n      dup6\n        /* \"#utility.yul\":11153:11171   */\n      add\n        /* \"#utility.yul\":11140:11172   */\n      calldataload\n        /* \"#utility.yul\":11199:11217   */\n      0xffffffffffffffff\n        /* \"#utility.yul\":11191:11197   */\n      dup2\n        /* \"#utility.yul\":11188:11218   */\n      gt\n        /* \"#utility.yul\":11185:11302   */\n      iszero\n      tag_295\n      jumpi\n        /* \"#utility.yul\":11221:11300   */\n      tag_296\n      tag_126\n      jump\t// in\n    tag_296:\n        /* \"#utility.yul\":11185:11302   */\n    tag_295:\n        /* \"#utility.yul\":11326:11414   */\n      tag_297\n        /* \"#utility.yul\":11406:11413   */\n      dup8\n        /* \"#utility.yul\":11397:11403   */\n      dup3\n        /* \"#utility.yul\":11386:11395   */\n      dup9\n        /* \"#utility.yul\":11382:11404   */\n      add\n        /* \"#utility.yul\":11326:11414   */\n      tag_157\n      jump\t// in\n    tag_297:\n        /* \"#utility.yul\":11316:11414   */\n      swap2\n      pop\n        /* \"#utility.yul\":11111:11424   */\n      pop\n        /* \"#utility.yul\":10076:11431   */\n      swap3\n      swap6\n      swap2\n      swap5\n      pop\n      swap3\n      pop\n      jump\t// out\n        /* \"#utility.yul\":11437:12236   */\n    tag_26:\n        /* \"#utility.yul\":11524:11530   */\n      0x00\n        /* \"#utility.yul\":11532:11538   */\n      dup1\n        /* \"#utility.yul\":11540:11546   */\n      0x00\n        /* \"#utility.yul\":11589:11591   */\n      0x60\n        /* \"#utility.yul\":11577:11586   */\n      dup5\n        /* \"#utility.yul\":11568:11575   */\n      dup7\n        /* \"#utility.yul\":11564:11587   */\n      sub\n        /* \"#utility.yul\":11560:11592   */\n      slt\n        /* \"#utility.yul\":11557:11676   */\n      iszero\n      tag_299\n      jumpi\n        /* \"#utility.yul\":11595:11674   */\n      tag_300\n      tag_125\n      jump\t// in\n    tag_300:\n        /* \"#utility.yul\":11557:11676   */\n    tag_299:\n        /* \"#utility.yul\":11743:11744   */\n      0x00\n        /* \"#utility.yul\":11732:11741   */\n      dup5\n        /* \"#utility.yul\":11728:11745   */\n      add\n        /* \"#utility.yul\":11715:11746   */\n      calldataload\n        /* \"#utility.yul\":11773:11791   */\n      0xffffffffffffffff\n        /* \"#utility.yul\":11765:11771   */\n      dup2\n        /* \"#utility.yul\":11762:11792   */\n      gt\n        /* \"#utility.yul\":11759:11876   */\n      iszero\n      tag_301\n      jumpi\n        /* \"#utility.yul\":11795:11874   */\n      tag_302\n      tag_126\n      jump\t// in\n    tag_302:\n        /* \"#utility.yul\":11759:11876   */\n    tag_301:\n        /* \"#utility.yul\":11900:11963   */\n      tag_303\n        /* \"#utility.yul\":11955:11962   */\n      dup7\n        /* \"#utility.yul\":11946:11952   */\n      dup3\n        /* \"#utility.yul\":11935:11944   */\n      dup8\n        /* \"#utility.yul\":11931:11953   */\n      add\n        /* \"#utility.yul\":11900:11963   */\n      tag_153\n      jump\t// in\n    tag_303:\n        /* \"#utility.yul\":11890:11963   */\n      swap4\n      pop\n        /* \"#utility.yul\":11686:11973   */\n      pop\n        /* \"#utility.yul\":12012:12014   */\n      0x20\n        /* \"#utility.yul\":12038:12091   */\n      tag_304\n        /* \"#utility.yul\":12083:12090   */\n      dup7\n        /* \"#utility.yul\":12074:12080   */\n      dup3\n        /* \"#utility.yul\":12063:12072   */\n      dup8\n        /* \"#utility.yul\":12059:12081   */\n      add\n        /* \"#utility.yul\":12038:12091   */\n      tag_129\n      jump\t// in\n    tag_304:\n        /* \"#utility.yul\":12028:12091   */\n      swap3\n      pop\n        /* \"#utility.yul\":11983:12101   */\n      pop\n        /* \"#utility.yul\":12140:12142   */\n      0x40\n        /* \"#utility.yul\":12166:12219   */\n      tag_305\n        /* \"#utility.yul\":12211:12218   */\n      dup7\n        /* \"#utility.yul\":12202:12208   */\n      dup3\n        /* \"#utility.yul\":12191:12200   */\n      dup8\n        /* \"#utility.yul\":12187:12209   */\n      add\n        /* \"#utility.yul\":12166:12219   */\n      tag_129\n      jump\t// in\n    tag_305:\n        /* \"#utility.yul\":12156:12219   */\n      swap2\n      pop\n        /* \"#utility.yul\":12111:12229   */\n      pop\n        /* \"#utility.yul\":11437:12236   */\n      swap3\n      pop\n      swap3\n      pop\n      swap3\n      jump\t// out\n        /* \"#utility.yul\":12242:12751   */\n    tag_30:\n        /* \"#utility.yul\":12311:12317   */\n      0x00\n        /* \"#utility.yul\":12360:12362   */\n      0x20\n        /* \"#utility.yul\":12348:12357   */\n      dup3\n        /* \"#utility.yul\":12339:12346   */\n      dup5\n        /* \"#utility.yul\":12335:12358   */\n      sub\n        /* \"#utility.yul\":12331:12363   */\n      slt\n        /* \"#utility.yul\":12328:12447   */\n      iszero\n      tag_307\n      jumpi\n        /* \"#utility.yul\":12366:12445   */\n      tag_308\n      tag_125\n      jump\t// in\n    tag_308:\n        /* \"#utility.yul\":12328:12447   */\n    tag_307:\n        /* \"#utility.yul\":12514:12515   */\n      0x00\n        /* \"#utility.yul\":12503:12512   */\n      dup3\n        /* \"#utility.yul\":12499:12516   */\n      add\n        /* \"#utility.yul\":12486:12517   */\n      calldataload\n        /* \"#utility.yul\":12544:12562   */\n      0xffffffffffffffff\n        /* \"#utility.yul\":12536:12542   */\n      dup2\n        /* \"#utility.yul\":12533:12563   */\n      gt\n        /* \"#utility.yul\":12530:12647   */\n      iszero\n      tag_309\n      jumpi\n        /* \"#utility.yul\":12566:12645   */\n      tag_310\n      tag_126\n      jump\t// in\n    tag_310:\n        /* \"#utility.yul\":12530:12647   */\n    tag_309:\n        /* \"#utility.yul\":12671:12734   */\n      tag_311\n        /* \"#utility.yul\":12726:12733   */\n      dup5\n        /* \"#utility.yul\":12717:12723   */\n      dup3\n        /* \"#utility.yul\":12706:12715   */\n      dup6\n        /* \"#utility.yul\":12702:12724   */\n      add\n        /* \"#utility.yul\":12671:12734   */\n      tag_153\n      jump\t// in\n    tag_311:\n        /* \"#utility.yul\":12661:12734   */\n      swap2\n      pop\n        /* \"#utility.yul\":12457:12744   */\n      pop\n        /* \"#utility.yul\":12242:12751   */\n      swap3\n      swap2\n      pop\n      pop\n      jump\t// out\n        /* \"#utility.yul\":12757:12893   */\n    tag_158:\n        /* \"#utility.yul\":12846:12852   */\n      0x00\n        /* \"#utility.yul\":12880:12885   */\n      dup2\n        /* \"#utility.yul\":12874:12886   */\n      mload\n        /* \"#utility.yul\":12864:12886   */\n      swap1\n      pop\n        /* \"#utility.yul\":12757:12893   */\n      swap2\n      swap1\n      pop\n      jump\t// out\n        /* \"#utility.yul\":12899:13105   */\n    tag_159:\n        /* \"#utility.yul\":13020:13031   */\n      0x00\n        /* \"#utility.yul\":13054:13060   */\n      dup3\n        /* \"#utility.yul\":13049:13052   */\n      dup3\n        /* \"#utility.yul\":13042:13061   */\n      mstore\n        /* \"#utility.yul\":13094:13098   */\n      0x20\n        /* \"#utility.yul\":13089:13092   */\n      dup3\n        /* \"#utility.yul\":13085:13099   */\n      add\n        /* \"#utility.yul\":13070:13099   */\n      swap1\n      pop\n        /* \"#utility.yul\":12899:13105   */\n      swap3\n      swap2\n      pop\n      pop\n      jump\t// out\n        /* \"#utility.yul\":13111:13265   */\n    tag_160:\n        /* \"#utility.yul\":13200:13204   */\n      0x00\n        /* \"#utility.yul\":13223:13226   */\n      dup2\n        /* \"#utility.yul\":13215:13226   */\n      swap1\n      pop\n        /* \"#utility.yul\":13253:13257   */\n      0x20\n        /* \"#utility.yul\":13248:13251   */\n      dup3\n        /* \"#utility.yul\":13244:13258   */\n      add\n        /* \"#utility.yul\":13236:13258   */\n      swap1\n      pop\n        /* \"#utility.yul\":13111:13265   */\n      swap2\n      swap1\n      pop\n      jump\t// out\n        /* \"#utility.yul\":13321:14211   */\n    tag_161:\n        /* \"#utility.yul\":13424:13427   */\n      0x00\n        /* \"#utility.yul\":13460:13464   */\n      0x60\n        /* \"#utility.yul\":13455:13458   */\n      dup4\n        /* \"#utility.yul\":13451:13465   */\n      add\n        /* \"#utility.yul\":13547:13551   */\n      0x00\n        /* \"#utility.yul\":13540:13545   */\n      dup4\n        /* \"#utility.yul\":13536:13552   */\n      add\n        /* \"#utility.yul\":13530:13553   */\n      mload\n        /* \"#utility.yul\":13600:13603   */\n      dup5\n        /* \"#utility.yul\":13594:13598   */\n      dup3\n        /* \"#utility.yul\":13590:13604   */\n      sub\n        /* \"#utility.yul\":13583:13587   */\n      0x00\n        /* \"#utility.yul\":13578:13581   */\n      dup7\n        /* \"#utility.yul\":13574:13588   */\n      add\n        /* \"#utility.yul\":13567:13605   */\n      mstore\n        /* \"#utility.yul\":13626:13699   */\n      tag_316\n        /* \"#utility.yul\":13694:13698   */\n      dup3\n        /* \"#utility.yul\":13680:13692   */\n      dup3\n        /* \"#utility.yul\":13626:13699   */\n      tag_136\n      jump\t// in\n    tag_316:\n        /* \"#utility.yul\":13618:13699   */\n      swap2\n      pop\n        /* \"#utility.yul\":13475:13710   */\n      pop\n        /* \"#utility.yul\":13794:13798   */\n      0x20\n        /* \"#utility.yul\":13787:13792   */\n      dup4\n        /* \"#utility.yul\":13783:13799   */\n      add\n        /* \"#utility.yul\":13777:13800   */\n      mload\n        /* \"#utility.yul\":13813:13876   */\n      tag_317\n        /* \"#utility.yul\":13870:13874   */\n      0x20\n        /* \"#utility.yul\":13865:13868   */\n      dup7\n        /* \"#utility.yul\":13861:13875   */\n      add\n        /* \"#utility.yul\":13847:13859   */\n      dup3\n        /* \"#utility.yul\":13813:13876   */\n      tag_137\n      jump\t// in\n    tag_317:\n        /* \"#utility.yul\":13720:13886   */\n      pop\n        /* \"#utility.yul\":13971:13975   */\n      0x40\n        /* \"#utility.yul\":13964:13969   */\n      dup4\n        /* \"#utility.yul\":13960:13976   */\n      add\n        /* \"#utility.yul\":13954:13977   */\n      mload\n        /* \"#utility.yul\":14024:14027   */\n      dup5\n        /* \"#utility.yul\":14018:14022   */\n      dup3\n        /* \"#utility.yul\":14014:14028   */\n      sub\n        /* \"#utility.yul\":14007:14011   */\n      0x40\n        /* \"#utility.yul\":14002:14005   */\n      dup7\n        /* \"#utility.yul\":13998:14012   */\n      add\n        /* \"#utility.yul\":13991:14029   */\n      mstore\n        /* \"#utility.yul\":14050:14173   */\n      tag_318\n        /* \"#utility.yul\":14168:14172   */\n      dup3\n        /* \"#utility.yul\":14154:14166   */\n      dup3\n        /* \"#utility.yul\":14050:14173   */\n      tag_143\n      jump\t// in\n    tag_318:\n        /* \"#utility.yul\":14042:14173   */\n      swap2\n      pop\n        /* \"#utility.yul\":13896:14184   */\n      pop\n        /* \"#utility.yul\":14201:14205   */\n      dup1\n        /* \"#utility.yul\":14194:14205   */\n      swap2\n      pop\n        /* \"#utility.yul\":13429:14211   */\n      pop\n        /* \"#utility.yul\":13321:14211   */\n      swap3\n      swap2\n      pop\n      pop\n      jump\t// out\n        /* \"#utility.yul\":14217:14461   */\n    tag_162:\n        /* \"#utility.yul\":14330:14340   */\n      0x00\n        /* \"#utility.yul\":14365:14455   */\n      tag_320\n        /* \"#utility.yul\":14451:14454   */\n      dup4\n        /* \"#utility.yul\":14443:14449   */\n      dup4\n        /* \"#utility.yul\":14365:14455   */\n      tag_161\n      jump\t// in\n    tag_320:\n        /* \"#utility.yul\":14351:14455   */\n      swap1\n      pop\n        /* \"#utility.yul\":14217:14461   */\n      swap3\n      swap2\n      pop\n      pop\n      jump\t// out\n        /* \"#utility.yul\":14467:14602   */\n    tag_163:\n        /* \"#utility.yul\":14559:14563   */\n      0x00\n        /* \"#utility.yul\":14591:14595   */\n      0x20\n        /* \"#utility.yul\":14586:14589   */\n      dup3\n        /* \"#utility.yul\":14582:14596   */\n      add\n        /* \"#utility.yul\":14574:14596   */\n      swap1\n      pop\n        /* \"#utility.yul\":14467:14602   */\n      swap2\n      swap1\n      pop\n      jump\t// out\n        /* \"#utility.yul\":14662:15749   */\n    tag_164:\n        /* \"#utility.yul\":14825:14828   */\n      0x00\n        /* \"#utility.yul\":14854:14930   */\n      tag_323\n        /* \"#utility.yul\":14924:14929   */\n      dup3\n        /* \"#utility.yul\":14854:14930   */\n      tag_158\n      jump\t// in\n    tag_323:\n        /* \"#utility.yul\":14946:15054   */\n      tag_324\n        /* \"#utility.yul\":15047:15053   */\n      dup2\n        /* \"#utility.yul\":15042:15045   */\n      dup6\n        /* \"#utility.yul\":14946:15054   */\n      tag_159\n      jump\t// in\n    tag_324:\n        /* \"#utility.yul\":14939:15054   */\n      swap4\n      pop\n        /* \"#utility.yul\":15080:15083   */\n      dup4\n        /* \"#utility.yul\":15125:15129   */\n      0x20\n        /* \"#utility.yul\":15117:15123   */\n      dup3\n        /* \"#utility.yul\":15113:15130   */\n      mul\n        /* \"#utility.yul\":15108:15111   */\n      dup6\n        /* \"#utility.yul\":15104:15131   */\n      add\n        /* \"#utility.yul\":15155:15233   */\n      tag_325\n        /* \"#utility.yul\":15227:15232   */\n      dup6\n        /* \"#utility.yul\":15155:15233   */\n      tag_160\n      jump\t// in\n    tag_325:\n        /* \"#utility.yul\":15256:15263   */\n      dup1\n        /* \"#utility.yul\":15287:15288   */\n      0x00\n        /* \"#utility.yul\":15272:15704   */\n    tag_326:\n        /* \"#utility.yul\":15297:15303   */\n      dup6\n        /* \"#utility.yul\":15294:15295   */\n      dup2\n        /* \"#utility.yul\":15291:15304   */\n      lt\n        /* \"#utility.yul\":15272:15704   */\n      iszero\n      tag_328\n      jumpi\n        /* \"#utility.yul\":15368:15377   */\n      dup5\n        /* \"#utility.yul\":15362:15366   */\n      dup5\n        /* \"#utility.yul\":15358:15378   */\n      sub\n        /* \"#utility.yul\":15353:15356   */\n      dup10\n        /* \"#utility.yul\":15346:15379   */\n      mstore\n        /* \"#utility.yul\":15419:15425   */\n      dup2\n        /* \"#utility.yul\":15413:15426   */\n      mload\n        /* \"#utility.yul\":15447:15555   */\n      tag_329\n        /* \"#utility.yul\":15550:15554   */\n      dup6\n        /* \"#utility.yul\":15535:15548   */\n      dup3\n        /* \"#utility.yul\":15447:15555   */\n      tag_162\n      jump\t// in\n    tag_329:\n        /* \"#utility.yul\":15439:15555   */\n      swap5\n      pop\n        /* \"#utility.yul\":15578:15660   */\n      tag_330\n        /* \"#utility.yul\":15653:15659   */\n      dup4\n        /* \"#utility.yul\":15578:15660   */\n      tag_163\n      jump\t// in\n    tag_330:\n        /* \"#utility.yul\":15568:15660   */\n      swap3\n      pop\n        /* \"#utility.yul\":15689:15693   */\n      0x20\n        /* \"#utility.yul\":15684:15687   */\n      dup11\n        /* \"#utility.yul\":15680:15694   */\n      add\n        /* \"#utility.yul\":15673:15694   */\n      swap10\n      pop\n        /* \"#utility.yul\":15332:15704   */\n      pop\n        /* \"#utility.yul\":15319:15320   */\n      0x01\n        /* \"#utility.yul\":15316:15317   */\n      dup2\n        /* \"#utility.yul\":15312:15321   */\n      add\n        /* \"#utility.yul\":15307:15321   */\n      swap1\n      pop\n        /* \"#utility.yul\":15272:15704   */\n      jump(tag_326)\n    tag_328:\n        /* \"#utility.yul\":15276:15290   */\n      pop\n        /* \"#utility.yul\":15720:15724   */\n      dup3\n        /* \"#utility.yul\":15713:15724   */\n      swap8\n      pop\n        /* \"#utility.yul\":15740:15743   */\n      dup8\n        /* \"#utility.yul\":15733:15743   */\n      swap6\n      pop\n        /* \"#utility.yul\":14830:15749   */\n      pop\n      pop\n      pop\n      pop\n      pop\n        /* \"#utility.yul\":14662:15749   */\n      swap3\n      swap2\n      pop\n      pop\n      jump\t// out\n        /* \"#utility.yul\":15755:16216   */\n    tag_33:\n        /* \"#utility.yul\":15942:15946   */\n      0x00\n        /* \"#utility.yul\":15980:15982   */\n      0x20\n        /* \"#utility.yul\":15969:15978   */\n      dup3\n        /* \"#utility.yul\":15965:15983   */\n      add\n        /* \"#utility.yul\":15957:15983   */\n      swap1\n      pop\n        /* \"#utility.yul\":16029:16038   */\n      dup2\n        /* \"#utility.yul\":16023:16027   */\n      dup2\n        /* \"#utility.yul\":16019:16039   */\n      sub\n        /* \"#utility.yul\":16015:16016   */\n      0x00\n        /* \"#utility.yul\":16004:16013   */\n      dup4\n        /* \"#utility.yul\":16000:16017   */\n      add\n        /* \"#utility.yul\":15993:16040   */\n      mstore\n        /* \"#utility.yul\":16057:16209   */\n      tag_332\n        /* \"#utility.yul\":16204:16208   */\n      dup2\n        /* \"#utility.yul\":16195:16201   */\n      dup5\n        /* \"#utility.yul\":16057:16209   */\n      tag_164\n      jump\t// in\n    tag_332:\n        /* \"#utility.yul\":16049:16209   */\n      swap1\n      pop\n        /* \"#utility.yul\":15755:16216   */\n      swap3\n      swap2\n      pop\n      pop\n      jump\t// out\n        /* \"#utility.yul\":16222:17251   */\n    tag_36:\n        /* \"#utility.yul\":16344:16350   */\n      0x00\n        /* \"#utility.yul\":16352:16358   */\n      dup1\n        /* \"#utility.yul\":16360:16366   */\n      0x00\n        /* \"#utility.yul\":16409:16411   */\n      0x60\n        /* \"#utility.yul\":16397:16406   */\n      dup5\n        /* \"#utility.yul\":16388:16395   */\n      dup7\n        /* \"#utility.yul\":16384:16407   */\n      sub\n        /* \"#utility.yul\":16380:16412   */\n      slt\n        /* \"#utility.yul\":16377:16496   */\n      iszero\n      tag_334\n      jumpi\n        /* \"#utility.yul\":16415:16494   */\n      tag_335\n      tag_125\n      jump\t// in\n    tag_335:\n        /* \"#utility.yul\":16377:16496   */\n    tag_334:\n        /* \"#utility.yul\":16563:16564   */\n      0x00\n        /* \"#utility.yul\":16552:16561   */\n      dup5\n        /* \"#utility.yul\":16548:16565   */\n      add\n        /* \"#utility.yul\":16535:16566   */\n      calldataload\n        /* \"#utility.yul\":16593:16611   */\n      0xffffffffffffffff\n        /* \"#utility.yul\":16585:16591   */\n      dup2\n        /* \"#utility.yul\":16582:16612   */\n      gt\n        /* \"#utility.yul\":16579:16696   */\n      iszero\n      tag_336\n      jumpi\n        /* \"#utility.yul\":16615:16694   */\n      tag_337\n      tag_126\n      jump\t// in\n    tag_337:\n        /* \"#utility.yul\":16579:16696   */\n    tag_336:\n        /* \"#utility.yul\":16720:16783   */\n      tag_338\n        /* \"#utility.yul\":16775:16782   */\n      dup7\n        /* \"#utility.yul\":16766:16772   */\n      dup3\n        /* \"#utility.yul\":16755:16764   */\n      dup8\n        /* \"#utility.yul\":16751:16773   */\n      add\n        /* \"#utility.yul\":16720:16783   */\n      tag_153\n      jump\t// in\n    tag_338:\n        /* \"#utility.yul\":16710:16783   */\n      swap4\n      pop\n        /* \"#utility.yul\":16506:16793   */\n      pop\n        /* \"#utility.yul\":16832:16834   */\n      0x20\n        /* \"#utility.yul\":16858:16911   */\n      tag_339\n        /* \"#utility.yul\":16903:16910   */\n      dup7\n        /* \"#utility.yul\":16894:16900   */\n      dup3\n        /* \"#utility.yul\":16883:16892   */\n      dup8\n        /* \"#utility.yul\":16879:16901   */\n      add\n        /* \"#utility.yul\":16858:16911   */\n      tag_129\n      jump\t// in\n    tag_339:\n        /* \"#utility.yul\":16848:16911   */\n      swap3\n      pop\n        /* \"#utility.yul\":16803:16921   */\n      pop\n        /* \"#utility.yul\":16988:16990   */\n      0x40\n        /* \"#utility.yul\":16977:16986   */\n      dup5\n        /* \"#utility.yul\":16973:16991   */\n      add\n        /* \"#utility.yul\":16960:16992   */\n      calldataload\n        /* \"#utility.yul\":17019:17037   */\n      0xffffffffffffffff\n        /* \"#utility.yul\":17011:17017   */\n      dup2\n        /* \"#utility.yul\":17008:17038   */\n      gt\n        /* \"#utility.yul\":17005:17122   */\n      iszero\n      tag_340\n      jumpi\n        /* \"#utility.yul\":17041:17120   */\n      tag_341\n      tag_126\n      jump\t// in\n    tag_341:\n        /* \"#utility.yul\":17005:17122   */\n    tag_340:\n        /* \"#utility.yul\":17146:17234   */\n      tag_342\n        /* \"#utility.yul\":17226:17233   */\n      dup7\n        /* \"#utility.yul\":17217:17223   */\n      dup3\n        /* \"#utility.yul\":17206:17215   */\n      dup8\n        /* \"#utility.yul\":17202:17224   */\n      add\n        /* \"#utility.yul\":17146:17234   */\n      tag_157\n      jump\t// in\n    tag_342:\n        /* \"#utility.yul\":17136:17234   */\n      swap2\n      pop\n        /* \"#utility.yul\":16931:17244   */\n      pop\n        /* \"#utility.yul\":16222:17251   */\n      swap3\n      pop\n      swap3\n      pop\n      swap3\n      jump\t// out\n        /* \"#utility.yul\":17257:17437   */\n    tag_165:\n        /* \"#utility.yul\":17305:17382   */\n      0x4e487b7100000000000000000000000000000000000000000000000000000000\n        /* \"#utility.yul\":17302:17303   */\n      0x00\n        /* \"#utility.yul\":17295:17383   */\n      mstore\n        /* \"#utility.yul\":17402:17406   */\n      0x11\n        /* \"#utility.yul\":17399:17400   */\n      0x04\n        /* \"#utility.yul\":17392:17407   */\n      mstore\n        /* \"#utility.yul\":17426:17430   */\n      0x24\n        /* \"#utility.yul\":17423:17424   */\n      0x00\n        /* \"#utility.yul\":17416:17431   */\n      revert\n        /* \"#utility.yul\":17443:17637   */\n    tag_40:\n        /* \"#utility.yul\":17483:17487   */\n      0x00\n        /* \"#utility.yul\":17503:17523   */\n      tag_345\n        /* \"#utility.yul\":17521:17522   */\n      dup3\n        /* \"#utility.yul\":17503:17523   */\n      tag_127\n      jump\t// in\n    tag_345:\n        /* \"#utility.yul\":17498:17523   */\n      swap2\n      pop\n        /* \"#utility.yul\":17537:17557   */\n      tag_346\n        /* \"#utility.yul\":17555:17556   */\n      dup4\n        /* \"#utility.yul\":17537:17557   */\n      tag_127\n      jump\t// in\n    tag_346:\n        /* \"#utility.yul\":17532:17557   */\n      swap3\n      pop\n        /* \"#utility.yul\":17581:17582   */\n      dup3\n        /* \"#utility.yul\":17578:17579   */\n      dup3\n        /* \"#utility.yul\":17574:17583   */\n      sub\n        /* \"#utility.yul\":17566:17583   */\n      swap1\n      pop\n        /* \"#utility.yul\":17605:17606   */\n      dup2\n        /* \"#utility.yul\":17599:17603   */\n      dup2\n        /* \"#utility.yul\":17596:17607   */\n      gt\n        /* \"#utility.yul\":17593:17630   */\n      iszero\n      tag_347\n      jumpi\n        /* \"#utility.yul\":17610:17628   */\n      tag_348\n      tag_165\n      jump\t// in\n    tag_348:\n        /* \"#utility.yul\":17593:17630   */\n    tag_347:\n        /* \"#utility.yul\":17443:17637   */\n      swap3\n      swap2\n      pop\n      pop\n      jump\t// out\n        /* \"#utility.yul\":17643:17823   */\n    tag_43:\n        /* \"#utility.yul\":17691:17768   */\n      0x4e487b7100000000000000000000000000000000000000000000000000000000\n        /* \"#utility.yul\":17688:17689   */\n      0x00\n        /* \"#utility.yul\":17681:17769   */\n      mstore\n        /* \"#utility.yul\":17788:17792   */\n      0x32\n        /* \"#utility.yul\":17785:17786   */\n      0x04\n        /* \"#utility.yul\":17778:17793   */\n      mstore\n        /* \"#utility.yul\":17812:17816   */\n      0x24\n        /* \"#utility.yul\":17809:17810   */\n      0x00\n        /* \"#utility.yul\":17802:17817   */\n      revert\n        /* \"#utility.yul\":17829:18009   */\n    tag_166:\n        /* \"#utility.yul\":17877:17954   */\n      0x4e487b7100000000000000000000000000000000000000000000000000000000\n        /* \"#utility.yul\":17874:17875   */\n      0x00\n        /* \"#utility.yul\":17867:17955   */\n      mstore\n        /* \"#utility.yul\":17974:17978   */\n      0x22\n        /* \"#utility.yul\":17971:17972   */\n      0x04\n        /* \"#utility.yul\":17964:17979   */\n      mstore\n        /* \"#utility.yul\":17998:18002   */\n      0x24\n        /* \"#utility.yul\":17995:17996   */\n      0x00\n        /* \"#utility.yul\":17988:18003   */\n      revert\n        /* \"#utility.yul\":18015:18335   */\n    tag_46:\n        /* \"#utility.yul\":18059:18065   */\n      0x00\n        /* \"#utility.yul\":18096:18097   */\n      0x02\n        /* \"#utility.yul\":18090:18094   */\n      dup3\n        /* \"#utility.yul\":18086:18098   */\n      div\n        /* \"#utility.yul\":18076:18098   */\n      swap1\n      pop\n        /* \"#utility.yul\":18143:18144   */\n      0x01\n        /* \"#utility.yul\":18137:18141   */\n      dup3\n        /* \"#utility.yul\":18133:18145   */\n      and\n        /* \"#utility.yul\":18164:18182   */\n      dup1\n        /* \"#utility.yul\":18154:18235   */\n      tag_352\n      jumpi\n        /* \"#utility.yul\":18220:18224   */\n      0x7f\n        /* \"#utility.yul\":18212:18218   */\n      dup3\n        /* \"#utility.yul\":18208:18225   */\n      and\n        /* \"#utility.yul\":18198:18225   */\n      swap2\n      pop\n        /* \"#utility.yul\":18154:18235   */\n    tag_352:\n        /* \"#utility.yul\":18282:18284   */\n      0x20\n        /* \"#utility.yul\":18274:18280   */\n      dup3\n        /* \"#utility.yul\":18271:18285   */\n      lt\n        /* \"#utility.yul\":18251:18269   */\n      dup2\n        /* \"#utility.yul\":18248:18286   */\n      sub\n        /* \"#utility.yul\":18245:18329   */\n      tag_353\n      jumpi\n        /* \"#utility.yul\":18301:18319   */\n      tag_354\n      tag_166\n      jump\t// in\n    tag_354:\n        /* \"#utility.yul\":18245:18329   */\n    tag_353:\n        /* \"#utility.yul\":18066:18335   */\n      pop\n        /* \"#utility.yul\":18015:18335   */\n      swap2\n      swap1\n      pop\n      jump\t// out\n        /* \"#utility.yul\":18341:18489   */\n    tag_167:\n        /* \"#utility.yul\":18443:18454   */\n      0x00\n        /* \"#utility.yul\":18480:18483   */\n      dup2\n        /* \"#utility.yul\":18465:18483   */\n      swap1\n      pop\n        /* \"#utility.yul\":18341:18489   */\n      swap3\n      swap2\n      pop\n      pop\n      jump\t// out\n        /* \"#utility.yul\":18495:18885   */\n    tag_168:\n        /* \"#utility.yul\":18601:18604   */\n      0x00\n        /* \"#utility.yul\":18629:18668   */\n      tag_357\n        /* \"#utility.yul\":18662:18667   */\n      dup3\n        /* \"#utility.yul\":18629:18668   */\n      tag_130\n      jump\t// in\n    tag_357:\n        /* \"#utility.yul\":18684:18773   */\n      tag_358\n        /* \"#utility.yul\":18766:18772   */\n      dup2\n        /* \"#utility.yul\":18761:18764   */\n      dup6\n        /* \"#utility.yul\":18684:18773   */\n      tag_167\n      jump\t// in\n    tag_358:\n        /* \"#utility.yul\":18677:18773   */\n      swap4\n      pop\n        /* \"#utility.yul\":18782:18847   */\n      tag_359\n        /* \"#utility.yul\":18840:18846   */\n      dup2\n        /* \"#utility.yul\":18835:18838   */\n      dup6\n        /* \"#utility.yul\":18828:18832   */\n      0x20\n        /* \"#utility.yul\":18821:18826   */\n      dup7\n        /* \"#utility.yul\":18817:18833   */\n      add\n        /* \"#utility.yul\":18782:18847   */\n      tag_132\n      jump\t// in\n    tag_359:\n        /* \"#utility.yul\":18872:18878   */\n      dup1\n        /* \"#utility.yul\":18867:18870   */\n      dup5\n        /* \"#utility.yul\":18863:18879   */\n      add\n        /* \"#utility.yul\":18856:18879   */\n      swap2\n      pop\n        /* \"#utility.yul\":18605:18885   */\n      pop\n        /* \"#utility.yul\":18495:18885   */\n      swap3\n      swap2\n      pop\n      pop\n      jump\t// out\n        /* \"#utility.yul\":18891:19166   */\n    tag_73:\n        /* \"#utility.yul\":19023:19026   */\n      0x00\n        /* \"#utility.yul\":19045:19140   */\n      tag_361\n        /* \"#utility.yul\":19136:19139   */\n      dup3\n        /* \"#utility.yul\":19127:19133   */\n      dup5\n        /* \"#utility.yul\":19045:19140   */\n      tag_168\n      jump\t// in\n    tag_361:\n        /* \"#utility.yul\":19038:19140   */\n      swap2\n      pop\n        /* \"#utility.yul\":19157:19160   */\n      dup2\n        /* \"#utility.yul\":19150:19160   */\n      swap1\n      pop\n        /* \"#utility.yul\":18891:19166   */\n      swap3\n      swap2\n      pop\n      pop\n      jump\t// out\n        /* \"#utility.yul\":19172:19313   */\n    tag_169:\n        /* \"#utility.yul\":19221:19225   */\n      0x00\n        /* \"#utility.yul\":19244:19247   */\n      dup2\n        /* \"#utility.yul\":19236:19247   */\n      swap1\n      pop\n        /* \"#utility.yul\":19267:19270   */\n      dup2\n        /* \"#utility.yul\":19264:19265   */\n      0x00\n        /* \"#utility.yul\":19257:19271   */\n      mstore\n        /* \"#utility.yul\":19301:19305   */\n      0x20\n        /* \"#utility.yul\":19298:19299   */\n      0x00\n        /* \"#utility.yul\":19288:19306   */\n      keccak256\n        /* \"#utility.yul\":19280:19306   */\n      swap1\n      pop\n        /* \"#utility.yul\":19172:19313   */\n      swap2\n      swap1\n      pop\n      jump\t// out\n        /* \"#utility.yul\":19319:19412   */\n    tag_170:\n        /* \"#utility.yul\":19356:19362   */\n      0x00\n        /* \"#utility.yul\":19403:19405   */\n      0x20\n        /* \"#utility.yul\":19398:19400   */\n      0x1f\n        /* \"#utility.yul\":19391:19396   */\n      dup4\n        /* \"#utility.yul\":19387:19401   */\n      add\n        /* \"#utility.yul\":19383:19406   */\n      div\n        /* \"#utility.yul\":19373:19406   */\n      swap1\n      pop\n        /* \"#utility.yul\":19319:19412   */\n      swap2\n      swap1\n      pop\n      jump\t// out\n        /* \"#utility.yul\":19418:19525   */\n    tag_171:\n        /* \"#utility.yul\":19462:19470   */\n      0x00\n        /* \"#utility.yul\":19512:19517   */\n      dup3\n        /* \"#utility.yul\":19506:19510   */\n      dup3\n        /* \"#utility.yul\":19502:19518   */\n      shl\n        /* \"#utility.yul\":19481:19518   */\n      swap1\n      pop\n        /* \"#utility.yul\":19418:19525   */\n      swap3\n      swap2\n      pop\n      pop\n      jump\t// out\n        /* \"#utility.yul\":19531:19924   */\n    tag_172:\n        /* \"#utility.yul\":19600:19606   */\n      0x00\n        /* \"#utility.yul\":19650:19651   */\n      0x08\n        /* \"#utility.yul\":19638:19648   */\n      dup4\n        /* \"#utility.yul\":19634:19652   */\n      mul\n        /* \"#utility.yul\":19673:19770   */\n      tag_366\n        /* \"#utility.yul\":19703:19769   */\n      0xffffffffffffffffffffffffffffffffffffffffffffffffffffffffffffffff\n        /* \"#utility.yul\":19692:19701   */\n      dup3\n        /* \"#utility.yul\":19673:19770   */\n      tag_171\n      jump\t// in\n    tag_366:\n        /* \"#utility.yul\":19791:19830   */\n      tag_367\n        /* \"#utility.yul\":19821:19829   */\n      dup7\n        /* \"#utility.yul\":19810:19819   */\n      dup4\n        /* \"#utility.yul\":19791:19830   */\n      tag_171\n      jump\t// in\n    tag_367:\n        /* \"#utility.yul\":19779:19830   */\n      swap6\n      pop\n        /* \"#utility.yul\":19863:19867   */\n      dup1\n        /* \"#utility.yul\":19859:19868   */\n      not\n        /* \"#utility.yul\":19852:19857   */\n      dup5\n        /* \"#utility.yul\":19848:19869   */\n      and\n        /* \"#utility.yul\":19839:19869   */\n      swap4\n      pop\n        /* \"#utility.yul\":19912:19916   */\n      dup1\n        /* \"#utility.yul\":19902:19910   */\n      dup7\n        /* \"#utility.yul\":19898:19917   */\n      and\n        /* \"#utility.yul\":19891:19896   */\n      dup5\n        /* \"#utility.yul\":19888:19918   */\n      or\n        /* \"#utility.yul\":19878:19918   */\n      swap3\n      pop\n        /* \"#utility.yul\":19607:19924   */\n      pop\n      pop\n        /* \"#utility.yul\":19531:19924   */\n      swap4\n      swap3\n      pop\n      pop\n      pop\n      jump\t// out\n        /* \"#utility.yul\":19930:19990   */\n    tag_173:\n        /* \"#utility.yul\":19958:19961   */\n      0x00\n        /* \"#utility.yul\":19979:19984   */\n      dup2\n        /* \"#utility.yul\":19972:19984   */\n      swap1\n      pop\n        /* \"#utility.yul\":19930:19990   */\n      swap2\n      swap1\n      pop\n      jump\t// out\n        /* \"#utility.yul\":19996:20138   */\n    tag_174:\n        /* \"#utility.yul\":20046:20055   */\n      0x00\n        /* \"#utility.yul\":20079:20132   */\n      tag_370\n        /* \"#utility.yul\":20097:20131   */\n      tag_371\n        /* \"#utility.yul\":20106:20130   */\n      tag_372\n        /* \"#utility.yul\":20124:20129   */\n      dup5\n        /* \"#utility.yul\":20106:20130   */\n      tag_127\n      jump\t// in\n    tag_372:\n        /* \"#utility.yul\":20097:20131   */\n      tag_173\n      jump\t// in\n    tag_371:\n        /* \"#utility.yul\":20079:20132   */\n      tag_127\n      jump\t// in\n    tag_370:\n        /* \"#utility.yul\":20066:20132   */\n      swap1\n      pop\n        /* \"#utility.yul\":19996:20138   */\n      swap2\n      swap1\n      pop\n      jump\t// out\n        /* \"#utility.yul\":20144:20219   */\n    tag_175:\n        /* \"#utility.yul\":20187:20190   */\n      0x00\n        /* \"#utility.yul\":20208:20213   */\n      dup2\n        /* \"#utility.yul\":20201:20213   */\n      swap1\n      pop\n        /* \"#utility.yul\":20144:20219   */\n      swap2\n      swap1\n      pop\n      jump\t// out\n        /* \"#utility.yul\":20225:20494   */\n    tag_176:\n        /* \"#utility.yul\":20335:20374   */\n      tag_375\n        /* \"#utility.yul\":20366:20373   */\n      dup4\n        /* \"#utility.yul\":20335:20374   */\n      tag_174\n      jump\t// in\n    tag_375:\n        /* \"#utility.yul\":20396:20487   */\n      tag_376\n        /* \"#utility.yul\":20445:20486   */\n      tag_377\n        /* \"#utility.yul\":20469:20485   */\n      dup3\n        /* \"#utility.yul\":20445:20486   */\n      tag_175\n      jump\t// in\n    tag_377:\n        /* \"#utility.yul\":20437:20443   */\n      dup5\n        /* \"#utility.yul\":20430:20434   */\n      dup5\n        /* \"#utility.yul\":20424:20435   */\n      sload\n        /* \"#utility.yul\":20396:20487   */\n      tag_172\n      jump\t// in\n    tag_376:\n        /* \"#utility.yul\":20390:20394   */\n      dup3\n        /* \"#utility.yul\":20383:20488   */\n      sstore\n        /* \"#utility.yul\":20301:20494   */\n      pop\n        /* \"#utility.yul\":20225:20494   */\n      pop\n      pop\n      pop\n      jump\t// out\n        /* \"#utility.yul\":20500:20573   */\n    tag_177:\n        /* \"#utility.yul\":20545:20548   */\n      0x00\n        /* \"#utility.yul\":20500:20573   */\n      swap1\n      jump\t// out\n        /* \"#utility.yul\":20579:20768   */\n    tag_178:\n        /* \"#utility.yul\":20656:20688   */\n      tag_380\n      tag_177\n      jump\t// in\n    tag_380:\n        /* \"#utility.yul\":20697:20762   */\n      tag_381\n        /* \"#utility.yul\":20755:20761   */\n      dup2\n        /* \"#utility.yul\":20747:20753   */\n      dup5\n        /* \"#utility.yul\":20741:20745   */\n      dup5\n        /* \"#utility.yul\":20697:20762   */\n      tag_176\n      jump\t// in\n    tag_381:\n        /* \"#utility.yul\":20632:20768   */\n      pop\n        /* \"#utility.yul\":20579:20768   */\n      pop\n      pop\n      jump\t// out\n        /* \"#utility.yul\":20774:20960   */\n    tag_179:\n        /* \"#utility.yul\":20834:20954   */\n    tag_383:\n        /* \"#utility.yul\":20851:20854   */\n      dup2\n        /* \"#utility.yul\":20844:20849   */\n      dup2\n        /* \"#utility.yul\":20841:20855   */\n      lt\n        /* \"#utility.yul\":20834:20954   */\n      iszero\n      tag_385\n      jumpi\n        /* \"#utility.yul\":20905:20944   */\n      tag_386\n        /* \"#utility.yul\":20942:20943   */\n      0x00\n        /* \"#utility.yul\":20935:20940   */\n      dup3\n        /* \"#utility.yul\":20905:20944   */\n      tag_178\n      jump\t// in\n    tag_386:\n        /* \"#utility.yul\":20878:20879   */\n      0x01\n        /* \"#utility.yul\":20871:20876   */\n      dup2\n        /* \"#utility.yul\":20867:20880   */\n      add\n        /* \"#utility.yul\":20858:20880   */\n      swap1\n      pop\n        /* \"#utility.yul\":20834:20954   */\n      jump(tag_383)\n    tag_385:\n        /* \"#utility.yul\":20774:20960   */\n      pop\n      pop\n      jump\t// out\n        /* \"#utility.yul\":20966:21509   */\n    tag_180:\n        /* \"#utility.yul\":21067:21069   */\n      0x1f\n        /* \"#utility.yul\":21062:21065   */\n      dup3\n        /* \"#utility.yul\":21059:21070   */\n      gt\n        /* \"#utility.yul\":21056:21502   */\n      iszero\n      tag_388\n      jumpi\n        /* \"#utility.yul\":21101:21139   */\n      tag_389\n        /* \"#utility.yul\":21133:21138   */\n      dup2\n        /* \"#utility.yul\":21101:21139   */\n      tag_169\n      jump\t// in\n    tag_389:\n        /* \"#utility.yul\":21185:21214   */\n      tag_390\n        /* \"#utility.yul\":21203:21213   */\n      dup5\n        /* \"#utility.yul\":21185:21214   */\n      tag_170\n      jump\t// in\n    tag_390:\n        /* \"#utility.yul\":21175:21183   */\n      dup2\n        /* \"#utility.yul\":21171:21215   */\n      add\n        /* \"#utility.yul\":21368:21370   */\n      0x20\n        /* \"#utility.yul\":21356:21366   */\n      dup6\n        /* \"#utility.yul\":21353:21371   */\n      lt\n        /* \"#utility.yul\":21350:21399   */\n      iszero\n      tag_391\n      jumpi\n        /* \"#utility.yul\":21389:21397   */\n      dup2\n        /* \"#utility.yul\":21374:21397   */\n      swap1\n      pop\n        /* \"#utility.yul\":21350:21399   */\n    tag_391:\n        /* \"#utility.yul\":21412:21492   */\n      tag_392\n        /* \"#utility.yul\":21468:21490   */\n      tag_393\n        /* \"#utility.yul\":21486:21489   */\n      dup6\n        /* \"#utility.yul\":21468:21490   */\n      tag_170\n      jump\t// in\n    tag_393:\n        /* \"#utility.yul\":21458:21466   */\n      dup4\n        /* \"#utility.yul\":21454:21491   */\n      add\n        /* \"#utility.yul\":21441:21452   */\n      dup3\n        /* \"#utility.yul\":21412:21492   */\n      tag_179\n      jump\t// in\n    tag_392:\n        /* \"#utility.yul\":21071:21502   */\n      pop\n      pop\n        /* \"#utility.yul\":21056:21502   */\n    tag_388:\n        /* \"#utility.yul\":20966:21509   */\n      pop\n      pop\n      pop\n      jump\t// out\n        /* \"#utility.yul\":21515:21632   */\n    tag_181:\n        /* \"#utility.yul\":21569:21577   */\n      0x00\n        /* \"#utility.yul\":21619:21624   */\n      dup3\n        /* \"#utility.yul\":21613:21617   */\n      dup3\n        /* \"#utility.yul\":21609:21625   */\n      shr\n        /* \"#utility.yul\":21588:21625   */\n      swap1\n      pop\n        /* \"#utility.yul\":21515:21632   */\n      swap3\n      swap2\n      pop\n      pop\n      jump\t// out\n        /* \"#utility.yul\":21638:21807   */\n    tag_182:\n        /* \"#utility.yul\":21682:21688   */\n      0x00\n        /* \"#utility.yul\":21715:21766   */\n      tag_396\n        /* \"#utility.yul\":21763:21764   */\n      0x00\n        /* \"#utility.yul\":21759:21765   */\n      not\n        /* \"#utility.yul\":21751:21756   */\n      dup5\n        /* \"#utility.yul\":21748:21749   */\n      0x08\n        /* \"#utility.yul\":21744:21757   */\n      mul\n        /* \"#utility.yul\":21715:21766   */\n      tag_181\n      jump\t// in\n    tag_396:\n        /* \"#utility.yul\":21711:21767   */\n      not\n        /* \"#utility.yul\":21796:21800   */\n      dup1\n        /* \"#utility.yul\":21790:21794   */\n      dup4\n        /* \"#utility.yul\":21786:21801   */\n      and\n        /* \"#utility.yul\":21776:21801   */\n      swap2\n      pop\n        /* \"#utility.yul\":21689:21807   */\n      pop\n        /* \"#utility.yul\":21638:21807   */\n      swap3\n      swap2\n      pop\n      pop\n      jump\t// out\n        /* \"#utility.yul\":21812:22107   */\n    tag_183:\n        /* \"#utility.yul\":21888:21892   */\n      0x00\n        /* \"#utility.yul\":22034:22063   */\n      tag_398\n        /* \"#utility.yul\":22059:22062   */\n      dup4\n        /* \"#utility.yul\":22053:22057   */\n      dup4\n        /* \"#utility.yul\":22034:22063   */\n      tag_182\n      jump\t// in\n    tag_398:\n        /* \"#utility.yul\":22026:22063   */\n      swap2\n      pop\n        /* \"#utility.yul\":22096:22099   */\n      dup3\n        /* \"#utility.yul\":22093:22094   */\n      0x02\n        /* \"#utility.yul\":22089:22100   */\n      mul\n        /* \"#utility.yul\":22083:22087   */\n      dup3\n        /* \"#utility.yul\":22080:22101   */\n      or\n        /* \"#utility.yul\":22072:22101   */\n      swap1\n      pop\n        /* \"#utility.yul\":21812:22107   */\n      swap3\n      swap2\n      pop\n      pop\n      jump\t// out\n        /* \"#utility.yul\":22112:23507   */\n    tag_76:\n        /* \"#utility.yul\":22229:22266   */\n      tag_400\n        /* \"#utility.yul\":22262:22265   */\n      dup3\n        /* \"#utility.yul\":22229:22266   */\n      tag_130\n      jump\t// in\n    tag_400:\n        /* \"#utility.yul\":22331:22349   */\n      0xffffffffffffffff\n        /* \"#utility.yul\":22323:22329   */\n      dup2\n        /* \"#utility.yul\":22320:22350   */\n      gt\n        /* \"#utility.yul\":22317:22373   */\n      iszero\n      tag_401\n      jumpi\n        /* \"#utility.yul\":22353:22371   */\n      tag_402\n      tag_147\n      jump\t// in\n    tag_402:\n        /* \"#utility.yul\":22317:22373   */\n    tag_401:\n        /* \"#utility.yul\":22397:22435   */\n      tag_403\n        /* \"#utility.yul\":22429:22433   */\n      dup3\n        /* \"#utility.yul\":22423:22434   */\n      sload\n        /* \"#utility.yul\":22397:22435   */\n      tag_46\n      jump\t// in\n    tag_403:\n        /* \"#utility.yul\":22482:22549   */\n      tag_404\n        /* \"#utility.yul\":22542:22548   */\n      dup3\n        /* \"#utility.yul\":22534:22540   */\n      dup3\n        /* \"#utility.yul\":22528:22532   */\n      dup6\n        /* \"#utility.yul\":22482:22549   */\n      tag_180\n      jump\t// in\n    tag_404:\n        /* \"#utility.yul\":22576:22577   */\n      0x00\n        /* \"#utility.yul\":22600:22604   */\n      0x20\n        /* \"#utility.yul\":22587:22604   */\n      swap1\n      pop\n        /* \"#utility.yul\":22632:22634   */\n      0x1f\n        /* \"#utility.yul\":22624:22630   */\n      dup4\n        /* \"#utility.yul\":22621:22635   */\n      gt\n        /* \"#utility.yul\":22649:22650   */\n      0x01\n        /* \"#utility.yul\":22644:23262   */\n      dup2\n      eq\n      tag_406\n      jumpi\n        /* \"#utility.yul\":23306:23307   */\n      0x00\n        /* \"#utility.yul\":23323:23329   */\n      dup5\n        /* \"#utility.yul\":23320:23397   */\n      iszero\n      tag_407\n      jumpi\n        /* \"#utility.yul\":23372:23381   */\n      dup3\n        /* \"#utility.yul\":23367:23370   */\n      dup8\n        /* \"#utility.yul\":23363:23382   */\n      add\n        /* \"#utility.yul\":23357:23383   */\n      mload\n        /* \"#utility.yul\":23348:23383   */\n      swap1\n      pop\n        /* \"#utility.yul\":23320:23397   */\n    tag_407:\n        /* \"#utility.yul\":23423:23490   */\n      tag_408\n        /* \"#utility.yul\":23483:23489   */\n      dup6\n        /* \"#utility.yul\":23476:23481   */\n      dup3\n        /* \"#utility.yul\":23423:23490   */\n      tag_183\n      jump\t// in\n    tag_408:\n        /* \"#utility.yul\":23417:23421   */\n      dup7\n        /* \"#utility.yul\":23410:23491   */\n      sstore\n        /* \"#utility.yul\":23279:23501   */\n      pop\n        /* \"#utility.yul\":22614:23501   */\n      jump(tag_405)\n        /* \"#utility.yul\":22644:23262   */\n    tag_406:\n        /* \"#utility.yul\":22696:22700   */\n      0x1f\n        /* \"#utility.yul\":22692:22701   */\n      not\n        /* \"#utility.yul\":22684:22690   */\n      dup5\n        /* \"#utility.yul\":22680:22702   */\n      and\n        /* \"#utility.yul\":22730:22767   */\n      tag_409\n        /* \"#utility.yul\":22762:22766   */\n      dup7\n        /* \"#utility.yul\":22730:22767   */\n      tag_169\n      jump\t// in\n    tag_409:\n        /* \"#utility.yul\":22789:22790   */\n      0x00\n        /* \"#utility.yul\":22803:23011   */\n    tag_410:\n        /* \"#utility.yul\":22817:22824   */\n      dup3\n        /* \"#utility.yul\":22814:22815   */\n      dup2\n        /* \"#utility.yul\":22811:22825   */\n      lt\n        /* \"#utility.yul\":22803:23011   */\n      iszero\n      tag_412\n      jumpi\n        /* \"#utility.yul\":22896:22905   */\n      dup5\n        /* \"#utility.yul\":22891:22894   */\n      dup10\n        /* \"#utility.yul\":22887:22906   */\n      add\n        /* \"#utility.yul\":22881:22907   */\n      mload\n        /* \"#utility.yul\":22873:22879   */\n      dup3\n        /* \"#utility.yul\":22866:22908   */\n      sstore\n        /* \"#utility.yul\":22947:22948   */\n      0x01\n        /* \"#utility.yul\":22939:22945   */\n      dup3\n        /* \"#utility.yul\":22935:22949   */\n      add\n        /* \"#utility.yul\":22925:22949   */\n      swap2\n      pop\n        /* \"#utility.yul\":22994:22996   */\n      0x20\n        /* \"#utility.yul\":22983:22992   */\n      dup6\n        /* \"#utility.yul\":22979:22997   */\n      add\n        /* \"#utility.yul\":22966:22997   */\n      swap5\n      pop\n        /* \"#utility.yul\":22840:22844   */\n      0x20\n        /* \"#utility.yul\":22837:22838   */\n      dup2\n        /* \"#utility.yul\":22833:22845   */\n      add\n        /* \"#utility.yul\":22828:22845   */\n      swap1\n      pop\n        /* \"#utility.yul\":22803:23011   */\n      jump(tag_410)\n    tag_412:\n        /* \"#utility.yul\":23039:23045   */\n      dup7\n        /* \"#utility.yul\":23030:23037   */\n      dup4\n        /* \"#utility.yul\":23027:23046   */\n      lt\n        /* \"#utility.yul\":23024:23203   */\n      iszero\n      tag_413\n      jumpi\n        /* \"#utility.yul\":23097:23106   */\n      dup5\n        /* \"#utility.yul\":23092:23095   */\n      dup10\n        /* \"#utility.yul\":23088:23107   */\n      add\n        /* \"#utility.yul\":23082:23108   */\n      mload\n        /* \"#utility.yul\":23140:23188   */\n      tag_414\n        /* \"#utility.yul\":23182:23186   */\n      0x1f\n        /* \"#utility.yul\":23174:23180   */\n      dup10\n        /* \"#utility.yul\":23170:23187   */\n      and\n        /* \"#utility.yul\":23159:23168   */\n      dup3\n        /* \"#utility.yul\":23140:23188   */\n      tag_182\n      jump\t// in\n    tag_414:\n        /* \"#utility.yul\":23132:23138   */\n      dup4\n        /* \"#utility.yul\":23125:23189   */\n      sstore\n        /* \"#utility.yul\":23047:23203   */\n      pop\n        /* \"#utility.yul\":23024:23203   */\n    tag_413:\n        /* \"#utility.yul\":23249:23250   */\n      0x01\n        /* \"#utility.yul\":23245:23246   */\n      0x02\n        /* \"#utility.yul\":23237:23243   */\n      dup9\n        /* \"#utility.yul\":23233:23247   */\n      mul\n        /* \"#utility.yul\":23229:23251   */\n      add\n        /* \"#utility.yul\":23223:23227   */\n      dup9\n        /* \"#utility.yul\":23216:23252   */\n      sstore\n        /* \"#utility.yul\":22651:23262   */\n      pop\n      pop\n      pop\n        /* \"#utility.yul\":22614:23501   */\n    tag_405:\n      pop\n        /* \"#utility.yul\":22204:23507   */\n      pop\n      pop\n      pop\n        /* \"#utility.yul\":22112:23507   */\n      pop\n      pop\n      jump\t// out\n\n    auxdata: 0xa26469706673582212208d7d628ee512238a93a705bceaa8e0388f043124f406a61a54d64a6e648cdeb964736f6c63430008120033\n}\n",
				"bytecode": {
					"linkReferences": {},
					"object": "608060405234801561001057600080fd5b5061144a806100206000396000f3fe608060405234801561001057600080fd5b50600436106100625760003560e01c80636b8ff5741461006757806375c2f8f0146100975780639570defc146100c7578063a26a427f146100e3578063c013118f146100ff578063ebb76d681461012f575b600080fd5b610081600480360381019061007c919061088a565b61014b565b60405161008e9190610947565b60405180910390f35b6100b160048036038101906100ac919061088a565b61020e565b6040516100be9190610adb565b60405180910390f35b6100e160048036038101906100dc9190610d18565b6103cb565b005b6100fd60048036038101906100f89190610dd3565b610472565b005b61011960048036038101906101149190610e42565b6104c9565b6040516101269190610fa4565b60405180910390f35b61014960048036038101906101449190610fc6565b6106bb565b005b6060600060018361015c9190611080565b8154811061016d5761016c6110b4565b5b9060005260206000209060030201600001805461018990611112565b80601f01602080910402602001604051908101604052809291908181526020018280546101b590611112565b80156102025780601f106101d757610100808354040283529160200191610202565b820191906000526020600020905b8154815290600101906020018083116101e557829003601f168201915b50505050509050919050565b610216610745565b60006001836102259190611080565b81548110610236576102356110b4565b5b906000526020600020906003020160405180606001604052908160008201805461025f90611112565b80601f016020809104026020016040519081016040528092919081815260200182805461028b90611112565b80156102d85780601f106102ad576101008083540402835291602001916102d8565b820191906000526020600020905b8154815290600101906020018083116102bb57829003601f168201915b505050505081526020016001820154815260200160028201805480602002602001604051908101604052809291908181526020016000905b828210156103bc57838290600052602060002001805461032f90611112565b80601f016020809104026020016040519081016040528092919081815260200182805461035b90611112565b80156103a85780601f1061037d576101008083540402835291602001916103a8565b820191906000526020600020905b81548152906001019060200180831161038b57829003601f168201915b505050505081526020019060010190610310565b50505050815250509050919050565b6001846040516103db919061117f565b9081526020016040518091039020604051806060016040528085815260200184815260200183815250908060018154018082558091505060019003906000526020600020906003020160009091909190915060008201518160000190816104429190611342565b50602082015181600101556040820151816002019080519060200190610469929190610766565b50505050505050565b80600184604051610483919061117f565b908152602001604051809103902060018461049e9190611080565b815481106104af576104ae6110b4565b5b906000526020600020906003020160010181905550505050565b60606001826040516104db919061117f565b9081526020016040518091039020805480602002602001604051908101604052809291908181526020016000905b828210156106b0578382906000526020600020906003020160405180606001604052908160008201805461053c90611112565b80601f016020809104026020016040519081016040528092919081815260200182805461056890611112565b80156105b55780601f1061058a576101008083540402835291602001916105b5565b820191906000526020600020905b81548152906001019060200180831161059857829003601f168201915b505050505081526020016001820154815260200160028201805480602002602001604051908101604052809291908181526020016000905b8282101561069957838290600052602060002001805461060c90611112565b80601f016020809104026020016040519081016040528092919081815260200182805461063890611112565b80156106855780601f1061065a57610100808354040283529160200191610685565b820191906000526020600020905b81548152906001019060200180831161066857829003601f168201915b5050505050815260200190600101906105ed565b505050508152505081526020019060010190610509565b505050509050919050565b6000604051806060016040528085815260200184815260200183815250908060018154018082558091505060019003906000526020600020906003020160009091909190915060008201518160000190816107169190611342565b5060208201518160010155604082015181600201908051906020019061073d929190610766565b505050505050565b60405180606001604052806060815260200160008152602001606081525090565b8280548282559060005260206000209081019282156107ae579160200282015b828111156107ad57825182908161079d9190611342565b5091602001919060010190610786565b5b5090506107bb91906107bf565b5090565b5b808211156107df57600081816107d691906107e3565b506001016107c0565b5090565b5080546107ef90611112565b6000825580601f106108015750610820565b601f01602090049060005260206000209081019061081f9190610823565b5b50565b5b8082111561083c576000816000905550600101610824565b5090565b6000604051905090565b600080fd5b600080fd5b6000819050919050565b61086781610854565b811461087257600080fd5b50565b6000813590506108848161085e565b92915050565b6000602082840312156108a05761089f61084a565b5b60006108ae84828501610875565b91505092915050565b600081519050919050565b600082825260208201905092915050565b60005b838110156108f15780820151818401526020810190506108d6565b60008484015250505050565b6000601f19601f8301169050919050565b6000610919826108b7565b61092381856108c2565b93506109338185602086016108d3565b61093c816108fd565b840191505092915050565b60006020820190508181036000830152610961818461090e565b905092915050565b600082825260208201905092915050565b6000610985826108b7565b61098f8185610969565b935061099f8185602086016108d3565b6109a8816108fd565b840191505092915050565b6109bc81610854565b82525050565b600081519050919050565b600082825260208201905092915050565b6000819050602082019050919050565b60006109fa838361097a565b905092915050565b6000602082019050919050565b6000610a1a826109c2565b610a2481856109cd565b935083602082028501610a36856109de565b8060005b85811015610a725784840389528151610a5385826109ee565b9450610a5e83610a02565b925060208a01995050600181019050610a3a565b50829750879550505050505092915050565b60006060830160008301518482036000860152610aa1828261097a565b9150506020830151610ab660208601826109b3565b5060408301518482036040860152610ace8282610a0f565b9150508091505092915050565b60006020820190508181036000830152610af58184610a84565b905092915050565b600080fd5b600080fd5b7f4e487b7100000000000000000000000000000000000000000000000000000000600052604160045260246000fd5b610b3f826108fd565b810181811067ffffffffffffffff82111715610b5e57610b5d610b07565b5b80604052505050565b6000610b71610840565b9050610b7d8282610b36565b919050565b600067ffffffffffffffff821115610b9d57610b9c610b07565b5b610ba6826108fd565b9050602081019050919050565b82818337600083830152505050565b6000610bd5610bd084610b82565b610b67565b905082815260208101848484011115610bf157610bf0610b02565b5b610bfc848285610bb3565b509392505050565b600082601f830112610c1957610c18610afd565b5b8135610c29848260208601610bc2565b91505092915050565b600067ffffffffffffffff821115610c4d57610c4c610b07565b5b602082029050602081019050919050565b600080fd5b6000610c76610c7184610c32565b610b67565b90508083825260208201905060208402830185811115610c9957610c98610c5e565b5b835b81811015610ce057803567ffffffffffffffff811115610cbe57610cbd610afd565b5b808601610ccb8982610c04565b85526020850194505050602081019050610c9b565b5050509392505050565b600082601f830112610cff57610cfe610afd565b5b8135610d0f848260208601610c63565b91505092915050565b60008060008060808587031215610d3257610d3161084a565b5b600085013567ffffffffffffffff811115610d5057610d4f61084f565b5b610d5c87828801610c04565b945050602085013567ffffffffffffffff811115610d7d57610d7c61084f565b5b610d8987828801610c04565b9350506040610d9a87828801610875565b925050606085013567ffffffffffffffff811115610dbb57610dba61084f565b5b610dc787828801610cea565b91505092959194509250565b600080600060608486031215610dec57610deb61084a565b5b600084013567ffffffffffffffff811115610e0a57610e0961084f565b5b610e1686828701610c04565b9350506020610e2786828701610875565b9250506040610e3886828701610875565b9150509250925092565b600060208284031215610e5857610e5761084a565b5b600082013567ffffffffffffffff811115610e7657610e7561084f565b5b610e8284828501610c04565b91505092915050565b600081519050919050565b600082825260208201905092915050565b6000819050602082019050919050565b60006060830160008301518482036000860152610ed4828261097a565b9150506020830151610ee960208601826109b3565b5060408301518482036040860152610f018282610a0f565b9150508091505092915050565b6000610f1a8383610eb7565b905092915050565b6000602082019050919050565b6000610f3a82610e8b565b610f448185610e96565b935083602082028501610f5685610ea7565b8060005b85811015610f925784840389528151610f738582610f0e565b9450610f7e83610f22565b925060208a01995050600181019050610f5a565b50829750879550505050505092915050565b60006020820190508181036000830152610fbe8184610f2f565b905092915050565b600080600060608486031215610fdf57610fde61084a565b5b600084013567ffffffffffffffff811115610ffd57610ffc61084f565b5b61100986828701610c04565b935050602061101a86828701610875565b925050604084013567ffffffffffffffff81111561103b5761103a61084f565b5b61104786828701610cea565b9150509250925092565b7f4e487b7100000000000000000000000000000000000000000000000000000000600052601160045260246000fd5b600061108b82610854565b915061109683610854565b92508282039050818111156110ae576110ad611051565b5b92915050565b7f4e487b7100000000000000000000000000000000000000000000000000000000600052603260045260246000fd5b7f4e487b7100000000000000000000000000000000000000000000000000000000600052602260045260246000fd5b6000600282049050600182168061112a57607f821691505b60208210810361113d5761113c6110e3565b5b50919050565b600081905092915050565b6000611159826108b7565b6111638185611143565b93506111738185602086016108d3565b80840191505092915050565b600061118b828461114e565b915081905092915050565b60008190508160005260206000209050919050565b60006020601f8301049050919050565b600082821b905092915050565b6000600883026111f87fffffffffffffffffffffffffffffffffffffffffffffffffffffffffffffffff826111bb565b61120286836111bb565b95508019841693508086168417925050509392505050565b6000819050919050565b600061123f61123a61123584610854565b61121a565b610854565b9050919050565b6000819050919050565b61125983611224565b61126d61126582611246565b8484546111c8565b825550505050565b600090565b611282611275565b61128d818484611250565b505050565b5b818110156112b1576112a660008261127a565b600181019050611293565b5050565b601f8211156112f6576112c781611196565b6112d0846111ab565b810160208510156112df578190505b6112f36112eb856111ab565b830182611292565b50505b505050565b600082821c905092915050565b6000611319600019846008026112fb565b1980831691505092915050565b60006113328383611308565b9150826002028217905092915050565b61134b826108b7565b67ffffffffffffffff81111561136457611363610b07565b5b61136e8254611112565b6113798282856112b5565b600060209050601f8311600181146113ac576000841561139a578287015190505b6113a48582611326565b86555061140c565b601f1984166113ba86611196565b60005b828110156113e2578489015182556001820191506020850194506020810190506113bd565b868310156113ff57848901516113fb601f891682611308565b8355505b6001600288020188555050505b50505050505056fea26469706673582212208d7d628ee512238a93a705bceaa8e0388f043124f406a61a54d64a6e648cdeb964736f6c63430008120033",
					"opcodes": "PUSH1 0x80 PUSH1 0x40 MSTORE CALLVALUE DUP1 ISZERO PUSH2 0x10 JUMPI PUSH1 0x0 DUP1 REVERT JUMPDEST POP PUSH2 0x144A DUP1 PUSH2 0x20 PUSH1 0x0 CODECOPY PUSH1 0x0 RETURN INVALID PUSH1 0x80 PUSH1 0x40 MSTORE CALLVALUE DUP1 ISZERO PUSH2 0x10 JUMPI PUSH1 0x0 DUP1 REVERT JUMPDEST POP PUSH1 0x4 CALLDATASIZE LT PUSH2 0x62 JUMPI PUSH1 0x0 CALLDATALOAD PUSH1 0xE0 SHR DUP1 PUSH4 0x6B8FF574 EQ PUSH2 0x67 JUMPI DUP1 PUSH4 0x75C2F8F0 EQ PUSH2 0x97 JUMPI DUP1 PUSH4 0x9570DEFC EQ PUSH2 0xC7 JUMPI DUP1 PUSH4 0xA26A427F EQ PUSH2 0xE3 JUMPI DUP1 PUSH4 0xC013118F EQ PUSH2 0xFF JUMPI DUP1 PUSH4 0xEBB76D68 EQ PUSH2 0x12F JUMPI JUMPDEST PUSH1 0x0 DUP1 REVERT JUMPDEST PUSH2 0x81 PUSH1 0x4 DUP1 CALLDATASIZE SUB DUP2 ADD SWAP1 PUSH2 0x7C SWAP2 SWAP1 PUSH2 0x88A JUMP JUMPDEST PUSH2 0x14B JUMP JUMPDEST PUSH1 0x40 MLOAD PUSH2 0x8E SWAP2 SWAP1 PUSH2 0x947 JUMP JUMPDEST PUSH1 0x40 MLOAD DUP1 SWAP2 SUB SWAP1 RETURN JUMPDEST PUSH2 0xB1 PUSH1 0x4 DUP1 CALLDATASIZE SUB DUP2 ADD SWAP1 PUSH2 0xAC SWAP2 SWAP1 PUSH2 0x88A JUMP JUMPDEST PUSH2 0x20E JUMP JUMPDEST PUSH1 0x40 MLOAD PUSH2 0xBE SWAP2 SWAP1 PUSH2 0xADB JUMP JUMPDEST PUSH1 0x40 MLOAD DUP1 SWAP2 SUB SWAP1 RETURN JUMPDEST PUSH2 0xE1 PUSH1 0x4 DUP1 CALLDATASIZE SUB DUP2 ADD SWAP1 PUSH2 0xDC SWAP2 SWAP1 PUSH2 0xD18 JUMP JUMPDEST PUSH2 0x3CB JUMP JUMPDEST STOP JUMPDEST PUSH2 0xFD PUSH1 0x4 DUP1 CALLDATASIZE SUB DUP2 ADD SWAP1 PUSH2 0xF8 SWAP2 SWAP1 PUSH2 0xDD3 JUMP JUMPDEST PUSH2 0x472 JUMP JUMPDEST STOP JUMPDEST PUSH2 0x119 PUSH1 0x4 DUP1 CALLDATASIZE SUB DUP2 ADD SWAP1 PUSH2 0x114 SWAP2 SWAP1 PUSH2 0xE42 JUMP JUMPDEST PUSH2 0x4C9 JUMP JUMPDEST PUSH1 0x40 MLOAD PUSH2 0x126 SWAP2 SWAP1 PUSH2 0xFA4 JUMP JUMPDEST PUSH1 0x40 MLOAD DUP1 SWAP2 SUB SWAP1 RETURN JUMPDEST PUSH2 0x149 PUSH1 0x4 DUP1 CALLDATASIZE SUB DUP2 ADD SWAP1 PUSH2 0x144 SWAP2 SWAP1 PUSH2 0xFC6 JUMP JUMPDEST PUSH2 0x6BB JUMP JUMPDEST STOP JUMPDEST PUSH1 0x60 PUSH1 0x0 PUSH1 0x1 DUP4 PUSH2 0x15C SWAP2 SWAP1 PUSH2 0x1080 JUMP JUMPDEST DUP2 SLOAD DUP2 LT PUSH2 0x16D JUMPI PUSH2 0x16C PUSH2 0x10B4 JUMP JUMPDEST JUMPDEST SWAP1 PUSH1 0x0 MSTORE PUSH1 0x20 PUSH1 0x0 KECCAK256 SWAP1 PUSH1 0x3 MUL ADD PUSH1 0x0 ADD DUP1 SLOAD PUSH2 0x189 SWAP1 PUSH2 0x1112 JUMP JUMPDEST DUP1 PUSH1 0x1F ADD PUSH1 0x20 DUP1 SWAP2 DIV MUL PUSH1 0x20 ADD PUSH1 0x40 MLOAD SWAP1 DUP2 ADD PUSH1 0x40 MSTORE DUP1 SWAP3 SWAP2 SWAP1 DUP2 DUP2 MSTORE PUSH1 0x20 ADD DUP3 DUP1 SLOAD PUSH2 0x1B5 SWAP1 PUSH2 0x1112 JUMP JUMPDEST DUP1 ISZERO PUSH2 0x202 JUMPI DUP1 PUSH1 0x1F LT PUSH2 0x1D7 JUMPI PUSH2 0x100 DUP1 DUP4 SLOAD DIV MUL DUP4 MSTORE SWAP2 PUSH1 0x20 ADD SWAP2 PUSH2 0x202 JUMP JUMPDEST DUP3 ADD SWAP2 SWAP1 PUSH1 0x0 MSTORE PUSH1 0x20 PUSH1 0x0 KECCAK256 SWAP1 JUMPDEST DUP2 SLOAD DUP2 MSTORE SWAP1 PUSH1 0x1 ADD SWAP1 PUSH1 0x20 ADD DUP1 DUP4 GT PUSH2 0x1E5 JUMPI DUP3 SWAP1 SUB PUSH1 0x1F AND DUP3 ADD SWAP2 JUMPDEST POP POP POP POP POP SWAP1 POP SWAP2 SWAP1 POP JUMP JUMPDEST PUSH2 0x216 PUSH2 0x745 JUMP JUMPDEST PUSH1 0x0 PUSH1 0x1 DUP4 PUSH2 0x225 SWAP2 SWAP1 PUSH2 0x1080 JUMP JUMPDEST DUP2 SLOAD DUP2 LT PUSH2 0x236 JUMPI PUSH2 0x235 PUSH2 0x10B4 JUMP JUMPDEST JUMPDEST SWAP1 PUSH1 0x0 MSTORE PUSH1 0x20 PUSH1 0x0 KECCAK256 SWAP1 PUSH1 0x3 MUL ADD PUSH1 0x40 MLOAD DUP1 PUSH1 0x60 ADD PUSH1 0x40 MSTORE SWAP1 DUP2 PUSH1 0x0 DUP3 ADD DUP1 SLOAD PUSH2 0x25F SWAP1 PUSH2 0x1112 JUMP JUMPDEST DUP1 PUSH1 0x1F ADD PUSH1 0x20 DUP1 SWAP2 DIV MUL PUSH1 0x20 ADD PUSH1 0x40 MLOAD SWAP1 DUP2 ADD PUSH1 0x40 MSTORE DUP1 SWAP3 SWAP2 SWAP1 DUP2 DUP2 MSTORE PUSH1 0x20 ADD DUP3 DUP1 SLOAD PUSH2 0x28B SWAP1 PUSH2 0x1112 JUMP JUMPDEST DUP1 ISZERO PUSH2 0x2D8 JUMPI DUP1 PUSH1 0x1F LT PUSH2 0x2AD JUMPI PUSH2 0x100 DUP1 DUP4 SLOAD DIV MUL DUP4 MSTORE SWAP2 PUSH1 0x20 ADD SWAP2 PUSH2 0x2D8 JUMP JUMPDEST DUP3 ADD SWAP2 SWAP1 PUSH1 0x0 MSTORE PUSH1 0x20 PUSH1 0x0 KECCAK256 SWAP1 JUMPDEST DUP2 SLOAD DUP2 MSTORE SWAP1 PUSH1 0x1 ADD SWAP1 PUSH1 0x20 ADD DUP1 DUP4 GT PUSH2 0x2BB JUMPI DUP3 SWAP1 SUB PUSH1 0x1F AND DUP3 ADD SWAP2 JUMPDEST POP POP POP POP POP DUP2 MSTORE PUSH1 0x20 ADD PUSH1 0x1 DUP3 ADD SLOAD DUP2 MSTORE PUSH1 0x20 ADD PUSH1 0x2 DUP3 ADD DUP1 SLOAD DUP1 PUSH1 0x20 MUL PUSH1 0x20 ADD PUSH1 0x40 MLOAD SWAP1 DUP2 ADD PUSH1 0x40 MSTORE DUP1 SWAP3 SWAP2 SWAP1 DUP2 DUP2 MSTORE PUSH1 0x20 ADD PUSH1 0x0 SWAP1 JUMPDEST DUP3 DUP3 LT ISZERO PUSH2 0x3BC JUMPI DUP4 DUP3 SWAP1 PUSH1 0x0 MSTORE PUSH1 0x20 PUSH1 0x0 KECCAK256 ADD DUP1 SLOAD PUSH2 0x32F SWAP1 PUSH2 0x1112 JUMP JUMPDEST DUP1 PUSH1 0x1F ADD PUSH1 0x20 DUP1 SWAP2 DIV MUL PUSH1 0x20 ADD PUSH1 0x40 MLOAD SWAP1 DUP2 ADD PUSH1 0x40 MSTORE DUP1 SWAP3 SWAP2 SWAP1 DUP2 DUP2 MSTORE PUSH1 0x20 ADD DUP3 DUP1 SLOAD PUSH2 0x35B SWAP1 PUSH2 0x1112 JUMP JUMPDEST DUP1 ISZERO PUSH2 0x3A8 JUMPI DUP1 PUSH1 0x1F LT PUSH2 0x37D JUMPI PUSH2 0x100 DUP1 DUP4 SLOAD DIV MUL DUP4 MSTORE SWAP2 PUSH1 0x20 ADD SWAP2 PUSH2 0x3A8 JUMP JUMPDEST DUP3 ADD SWAP2 SWAP1 PUSH1 0x0 MSTORE PUSH1 0x20 PUSH1 0x0 KECCAK256 SWAP1 JUMPDEST DUP2 SLOAD DUP2 MSTORE SWAP1 PUSH1 0x1 ADD SWAP1 PUSH1 0x20 ADD DUP1 DUP4 GT PUSH2 0x38B JUMPI DUP3 SWAP1 SUB PUSH1 0x1F AND DUP3 ADD SWAP2 JUMPDEST POP POP POP POP POP DUP2 MSTORE PUSH1 0x20 ADD SWAP1 PUSH1 0x1 ADD SWAP1 PUSH2 0x310 JUMP JUMPDEST POP POP POP POP DUP2 MSTORE POP POP SWAP1 POP SWAP2 SWAP1 POP JUMP JUMPDEST PUSH1 0x1 DUP5 PUSH1 0x40 MLOAD PUSH2 0x3DB SWAP2 SWAP1 PUSH2 0x117F JUMP JUMPDEST SWAP1 DUP2 MSTORE PUSH1 0x20 ADD PUSH1 0x40 MLOAD DUP1 SWAP2 SUB SWAP1 KECCAK256 PUSH1 0x40 MLOAD DUP1 PUSH1 0x60 ADD PUSH1 0x40 MSTORE DUP1 DUP6 DUP2 MSTORE PUSH1 0x20 ADD DUP5 DUP2 MSTORE PUSH1 0x20 ADD DUP4 DUP2 MSTORE POP SWAP1 DUP1 PUSH1 0x1 DUP2 SLOAD ADD DUP1 DUP3 SSTORE DUP1 SWAP2 POP POP PUSH1 0x1 SWAP1 SUB SWAP1 PUSH1 0x0 MSTORE PUSH1 0x20 PUSH1 0x0 KECCAK256 SWAP1 PUSH1 0x3 MUL ADD PUSH1 0x0 SWAP1 SWAP2 SWAP1 SWAP2 SWAP1 SWAP2 POP PUSH1 0x0 DUP3 ADD MLOAD DUP2 PUSH1 0x0 ADD SWAP1 DUP2 PUSH2 0x442 SWAP2 SWAP1 PUSH2 0x1342 JUMP JUMPDEST POP PUSH1 0x20 DUP3 ADD MLOAD DUP2 PUSH1 0x1 ADD SSTORE PUSH1 0x40 DUP3 ADD MLOAD DUP2 PUSH1 0x2 ADD SWAP1 DUP1 MLOAD SWAP1 PUSH1 0x20 ADD SWAP1 PUSH2 0x469 SWAP3 SWAP2 SWAP1 PUSH2 0x766 JUMP JUMPDEST POP POP POP POP POP POP POP JUMP JUMPDEST DUP1 PUSH1 0x1 DUP5 PUSH1 0x40 MLOAD PUSH2 0x483 SWAP2 SWAP1 PUSH2 0x117F JUMP JUMPDEST SWAP1 DUP2 MSTORE PUSH1 0x20 ADD PUSH1 0x40 MLOAD DUP1 SWAP2 SUB SWAP1 KECCAK256 PUSH1 0x1 DUP5 PUSH2 0x49E SWAP2 SWAP1 PUSH2 0x1080 JUMP JUMPDEST DUP2 SLOAD DUP2 LT PUSH2 0x4AF JUMPI PUSH2 0x4AE PUSH2 0x10B4 JUMP JUMPDEST JUMPDEST SWAP1 PUSH1 0x0 MSTORE PUSH1 0x20 PUSH1 0x0 KECCAK256 SWAP1 PUSH1 0x3 MUL ADD PUSH1 0x1 ADD DUP2 SWAP1 SSTORE POP POP POP POP JUMP JUMPDEST PUSH1 0x60 PUSH1 0x1 DUP3 PUSH1 0x40 MLOAD PUSH2 0x4DB SWAP2 SWAP1 PUSH2 0x117F JUMP JUMPDEST SWAP1 DUP2 MSTORE PUSH1 0x20 ADD PUSH1 0x40 MLOAD DUP1 SWAP2 SUB SWAP1 KECCAK256 DUP1 SLOAD DUP1 PUSH1 0x20 MUL PUSH1 0x20 ADD PUSH1 0x40 MLOAD SWAP1 DUP2 ADD PUSH1 0x40 MSTORE DUP1 SWAP3 SWAP2 SWAP1 DUP2 DUP2 MSTORE PUSH1 0x20 ADD PUSH1 0x0 SWAP1 JUMPDEST DUP3 DUP3 LT ISZERO PUSH2 0x6B0 JUMPI DUP4 DUP3 SWAP1 PUSH1 0x0 MSTORE PUSH1 0x20 PUSH1 0x0 KECCAK256 SWAP1 PUSH1 0x3 MUL ADD PUSH1 0x40 MLOAD DUP1 PUSH1 0x60 ADD PUSH1 0x40 MSTORE SWAP1 DUP2 PUSH1 0x0 DUP3 ADD DUP1 SLOAD PUSH2 0x53C SWAP1 PUSH2 0x1112 JUMP JUMPDEST DUP1 PUSH1 0x1F ADD PUSH1 0x20 DUP1 SWAP2 DIV MUL PUSH1 0x20 ADD PUSH1 0x40 MLOAD SWAP1 DUP2 ADD PUSH1 0x40 MSTORE DUP1 SWAP3 SWAP2 SWAP1 DUP2 DUP2 MSTORE PUSH1 0x20 ADD DUP3 DUP1 SLOAD PUSH2 0x568 SWAP1 PUSH2 0x1112 JUMP JUMPDEST DUP1 ISZERO PUSH2 0x5B5 JUMPI DUP1 PUSH1 0x1F LT PUSH2 0x58A JUMPI PUSH2 0x100 DUP1 DUP4 SLOAD DIV MUL DUP4 MSTORE SWAP2 PUSH1 0x20 ADD SWAP2 PUSH2 0x5B5 JUMP JUMPDEST DUP3 ADD SWAP2 SWAP1 PUSH1 0x0 MSTORE PUSH1 0x20 PUSH1 0x0 KECCAK256 SWAP1 JUMPDEST DUP2 SLOAD DUP2 MSTORE SWAP1 PUSH1 0x1 ADD SWAP1 PUSH1 0x20 ADD DUP1 DUP4 GT PUSH2 0x598 JUMPI DUP3 SWAP1 SUB PUSH1 0x1F AND DUP3 ADD SWAP2 JUMPDEST POP POP POP POP POP DUP2 MSTORE PUSH1 0x20 ADD PUSH1 0x1 DUP3 ADD SLOAD DUP2 MSTORE PUSH1 0x20 ADD PUSH1 0x2 DUP3 ADD DUP1 SLOAD DUP1 PUSH1 0x20 MUL PUSH1 0x20 ADD PUSH1 0x40 MLOAD SWAP1 DUP2 ADD PUSH1 0x40 MSTORE DUP1 SWAP3 SWAP2 SWAP1 DUP2 DUP2 MSTORE PUSH1 0x20 ADD PUSH1 0x0 SWAP1 JUMPDEST DUP3 DUP3 LT ISZERO PUSH2 0x699 JUMPI DUP4 DUP3 SWAP1 PUSH1 0x0 MSTORE PUSH1 0x20 PUSH1 0x0 KECCAK256 ADD DUP1 SLOAD PUSH2 0x60C SWAP1 PUSH2 0x1112 JUMP JUMPDEST DUP1 PUSH1 0x1F ADD PUSH1 0x20 DUP1 SWAP2 DIV MUL PUSH1 0x20 ADD PUSH1 0x40 MLOAD SWAP1 DUP2 ADD PUSH1 0x40 MSTORE DUP1 SWAP3 SWAP2 SWAP1 DUP2 DUP2 MSTORE PUSH1 0x20 ADD DUP3 DUP1 SLOAD PUSH2 0x638 SWAP1 PUSH2 0x1112 JUMP JUMPDEST DUP1 ISZERO PUSH2 0x685 JUMPI DUP1 PUSH1 0x1F LT PUSH2 0x65A JUMPI PUSH2 0x100 DUP1 DUP4 SLOAD DIV MUL DUP4 MSTORE SWAP2 PUSH1 0x20 ADD SWAP2 PUSH2 0x685 JUMP JUMPDEST DUP3 ADD SWAP2 SWAP1 PUSH1 0x0 MSTORE PUSH1 0x20 PUSH1 0x0 KECCAK256 SWAP1 JUMPDEST DUP2 SLOAD DUP2 MSTORE SWAP1 PUSH1 0x1 ADD SWAP1 PUSH1 0x20 ADD DUP1 DUP4 GT PUSH2 0x668 JUMPI DUP3 SWAP1 SUB PUSH1 0x1F AND DUP3 ADD SWAP2 JUMPDEST POP POP POP POP POP DUP2 MSTORE PUSH1 0x20 ADD SWAP1 PUSH1 0x1 ADD SWAP1 PUSH2 0x5ED JUMP JUMPDEST POP POP POP POP DUP2 MSTORE POP POP DUP2 MSTORE PUSH1 0x20 ADD SWAP1 PUSH1 0x1 ADD SWAP1 PUSH2 0x509 JUMP JUMPDEST POP POP POP POP SWAP1 POP SWAP2 SWAP1 POP JUMP JUMPDEST PUSH1 0x0 PUSH1 0x40 MLOAD DUP1 PUSH1 0x60 ADD PUSH1 0x40 MSTORE DUP1 DUP6 DUP2 MSTORE PUSH1 0x20 ADD DUP5 DUP2 MSTORE PUSH1 0x20 ADD DUP4 DUP2 MSTORE POP SWAP1 DUP1 PUSH1 0x1 DUP2 SLOAD ADD DUP1 DUP3 SSTORE DUP1 SWAP2 POP POP PUSH1 0x1 SWAP1 SUB SWAP1 PUSH1 0x0 MSTORE PUSH1 0x20 PUSH1 0x0 KECCAK256 SWAP1 PUSH1 0x3 MUL ADD PUSH1 0x0 SWAP1 SWAP2 SWAP1 SWAP2 SWAP1 SWAP2 POP PUSH1 0x0 DUP3 ADD MLOAD DUP2 PUSH1 0x0 ADD SWAP1 DUP2 PUSH2 0x716 SWAP2 SWAP1 PUSH2 0x1342 JUMP JUMPDEST POP PUSH1 0x20 DUP3 ADD MLOAD DUP2 PUSH1 0x1 ADD SSTORE PUSH1 0x40 DUP3 ADD MLOAD DUP2 PUSH1 0x2 ADD SWAP1 DUP1 MLOAD SWAP1 PUSH1 0x20 ADD SWAP1 PUSH2 0x73D SWAP3 SWAP2 SWAP1 PUSH2 0x766 JUMP JUMPDEST POP POP POP POP POP POP JUMP JUMPDEST PUSH1 0x40 MLOAD DUP1 PUSH1 0x60 ADD PUSH1 0x40 MSTORE DUP1 PUSH1 0x60 DUP2 MSTORE PUSH1 0x20 ADD PUSH1 0x0 DUP2 MSTORE PUSH1 0x20 ADD PUSH1 0x60 DUP2 MSTORE POP SWAP1 JUMP JUMPDEST DUP3 DUP1 SLOAD DUP3 DUP3 SSTORE SWAP1 PUSH1 0x0 MSTORE PUSH1 0x20 PUSH1 0x0 KECCAK256 SWAP1 DUP2 ADD SWAP3 DUP3 ISZERO PUSH2 0x7AE JUMPI SWAP2 PUSH1 0x20 MUL DUP3 ADD JUMPDEST DUP3 DUP2 GT ISZERO PUSH2 0x7AD JUMPI DUP3 MLOAD DUP3 SWAP1 DUP2 PUSH2 0x79D SWAP2 SWAP1 PUSH2 0x1342 JUMP JUMPDEST POP SWAP2 PUSH1 0x20 ADD SWAP2 SWAP1 PUSH1 0x1 ADD SWAP1 PUSH2 0x786 JUMP JUMPDEST JUMPDEST POP SWAP1 POP PUSH2 0x7BB SWAP2 SWAP1 PUSH2 0x7BF JUMP JUMPDEST POP SWAP1 JUMP JUMPDEST JUMPDEST DUP1 DUP3 GT ISZERO PUSH2 0x7DF JUMPI PUSH1 0x0 DUP2 DUP2 PUSH2 0x7D6 SWAP2 SWAP1 PUSH2 0x7E3 JUMP JUMPDEST POP PUSH1 0x1 ADD PUSH2 0x7C0 JUMP JUMPDEST POP SWAP1 JUMP JUMPDEST POP DUP1 SLOAD PUSH2 0x7EF SWAP1 PUSH2 0x1112 JUMP JUMPDEST PUSH1 0x0 DUP3 SSTORE DUP1 PUSH1 0x1F LT PUSH2 0x801 JUMPI POP PUSH2 0x820 JUMP JUMPDEST PUSH1 0x1F ADD PUSH1 0x20 SWAP1 DIV SWAP1 PUSH1 0x0 MSTORE PUSH1 0x20 PUSH1 0x0 KECCAK256 SWAP1 DUP2 ADD SWAP1 PUSH2 0x81F SWAP2 SWAP1 PUSH2 0x823 JUMP JUMPDEST JUMPDEST POP JUMP JUMPDEST JUMPDEST DUP1 DUP3 GT ISZERO PUSH2 0x83C JUMPI PUSH1 0x0 DUP2 PUSH1 0x0 SWAP1 SSTORE POP PUSH1 0x1 ADD PUSH2 0x824 JUMP JUMPDEST POP SWAP1 JUMP JUMPDEST PUSH1 0x0 PUSH1 0x40 MLOAD SWAP1 POP SWAP1 JUMP JUMPDEST PUSH1 0x0 DUP1 REVERT JUMPDEST PUSH1 0x0 DUP1 REVERT JUMPDEST PUSH1 0x0 DUP2 SWAP1 POP SWAP2 SWAP1 POP JUMP JUMPDEST PUSH2 0x867 DUP2 PUSH2 0x854 JUMP JUMPDEST DUP2 EQ PUSH2 0x872 JUMPI PUSH1 0x0 DUP1 REVERT JUMPDEST POP JUMP JUMPDEST PUSH1 0x0 DUP2 CALLDATALOAD SWAP1 POP PUSH2 0x884 DUP2 PUSH2 0x85E JUMP JUMPDEST SWAP3 SWAP2 POP POP JUMP JUMPDEST PUSH1 0x0 PUSH1 0x20 DUP3 DUP5 SUB SLT ISZERO PUSH2 0x8A0 JUMPI PUSH2 0x89F PUSH2 0x84A JUMP JUMPDEST JUMPDEST PUSH1 0x0 PUSH2 0x8AE DUP5 DUP3 DUP6 ADD PUSH2 0x875 JUMP JUMPDEST SWAP2 POP POP SWAP3 SWAP2 POP POP JUMP JUMPDEST PUSH1 0x0 DUP2 MLOAD SWAP1 POP SWAP2 SWAP1 POP JUMP JUMPDEST PUSH1 0x0 DUP3 DUP3 MSTORE PUSH1 0x20 DUP3 ADD SWAP1 POP SWAP3 SWAP2 POP POP JUMP JUMPDEST PUSH1 0x0 JUMPDEST DUP4 DUP2 LT ISZERO PUSH2 0x8F1 JUMPI DUP1 DUP3 ADD MLOAD DUP2 DUP5 ADD MSTORE PUSH1 0x20 DUP2 ADD SWAP1 POP PUSH2 0x8D6 JUMP JUMPDEST PUSH1 0x0 DUP5 DUP5 ADD MSTORE POP POP POP POP JUMP JUMPDEST PUSH1 0x0 PUSH1 0x1F NOT PUSH1 0x1F DUP4 ADD AND SWAP1 POP SWAP2 SWAP1 POP JUMP JUMPDEST PUSH1 0x0 PUSH2 0x919 DUP3 PUSH2 0x8B7 JUMP JUMPDEST PUSH2 0x923 DUP2 DUP6 PUSH2 0x8C2 JUMP JUMPDEST SWAP4 POP PUSH2 0x933 DUP2 DUP6 PUSH1 0x20 DUP7 ADD PUSH2 0x8D3 JUMP JUMPDEST PUSH2 0x93C DUP2 PUSH2 0x8FD JUMP JUMPDEST DUP5 ADD SWAP2 POP POP SWAP3 SWAP2 POP POP JUMP JUMPDEST PUSH1 0x0 PUSH1 0x20 DUP3 ADD SWAP1 POP DUP2 DUP2 SUB PUSH1 0x0 DUP4 ADD MSTORE PUSH2 0x961 DUP2 DUP5 PUSH2 0x90E JUMP JUMPDEST SWAP1 POP SWAP3 SWAP2 POP POP JUMP JUMPDEST PUSH1 0x0 DUP3 DUP3 MSTORE PUSH1 0x20 DUP3 ADD SWAP1 POP SWAP3 SWAP2 POP POP JUMP JUMPDEST PUSH1 0x0 PUSH2 0x985 DUP3 PUSH2 0x8B7 JUMP JUMPDEST PUSH2 0x98F DUP2 DUP6 PUSH2 0x969 JUMP JUMPDEST SWAP4 POP PUSH2 0x99F DUP2 DUP6 PUSH1 0x20 DUP7 ADD PUSH2 0x8D3 JUMP JUMPDEST PUSH2 0x9A8 DUP2 PUSH2 0x8FD JUMP JUMPDEST DUP5 ADD SWAP2 POP POP SWAP3 SWAP2 POP POP JUMP JUMPDEST PUSH2 0x9BC DUP2 PUSH2 0x854 JUMP JUMPDEST DUP3 MSTORE POP POP JUMP JUMPDEST PUSH1 0x0 DUP2 MLOAD SWAP1 POP SWAP2 SWAP1 POP JUMP JUMPDEST PUSH1 0x0 DUP3 DUP3 MSTORE PUSH1 0x20 DUP3 ADD SWAP1 POP SWAP3 SWAP2 POP POP JUMP JUMPDEST PUSH1 0x0 DUP2 SWAP1 POP PUSH1 0x20 DUP3 ADD SWAP1 POP SWAP2 SWAP1 POP JUMP JUMPDEST PUSH1 0x0 PUSH2 0x9FA DUP4 DUP4 PUSH2 0x97A JUMP JUMPDEST SWAP1 POP SWAP3 SWAP2 POP POP JUMP JUMPDEST PUSH1 0x0 PUSH1 0x20 DUP3 ADD SWAP1 POP SWAP2 SWAP1 POP JUMP JUMPDEST PUSH1 0x0 PUSH2 0xA1A DUP3 PUSH2 0x9C2 JUMP JUMPDEST PUSH2 0xA24 DUP2 DUP6 PUSH2 0x9CD JUMP JUMPDEST SWAP4 POP DUP4 PUSH1 0x20 DUP3 MUL DUP6 ADD PUSH2 0xA36 DUP6 PUSH2 0x9DE JUMP JUMPDEST DUP1 PUSH1 0x0 JUMPDEST DUP6 DUP2 LT ISZERO PUSH2 0xA72 JUMPI DUP5 DUP5 SUB DUP10 MSTORE DUP2 MLOAD PUSH2 0xA53 DUP6 DUP3 PUSH2 0x9EE JUMP JUMPDEST SWAP5 POP PUSH2 0xA5E DUP4 PUSH2 0xA02 JUMP JUMPDEST SWAP3 POP PUSH1 0x20 DUP11 ADD SWAP10 POP POP PUSH1 0x1 DUP2 ADD SWAP1 POP PUSH2 0xA3A JUMP JUMPDEST POP DUP3 SWAP8 POP DUP8 SWAP6 POP POP POP POP POP POP SWAP3 SWAP2 POP POP JUMP JUMPDEST PUSH1 0x0 PUSH1 0x60 DUP4 ADD PUSH1 0x0 DUP4 ADD MLOAD DUP5 DUP3 SUB PUSH1 0x0 DUP7 ADD MSTORE PUSH2 0xAA1 DUP3 DUP3 PUSH2 0x97A JUMP JUMPDEST SWAP2 POP POP PUSH1 0x20 DUP4 ADD MLOAD PUSH2 0xAB6 PUSH1 0x20 DUP7 ADD DUP3 PUSH2 0x9B3 JUMP JUMPDEST POP PUSH1 0x40 DUP4 ADD MLOAD DUP5 DUP3 SUB PUSH1 0x40 DUP7 ADD MSTORE PUSH2 0xACE DUP3 DUP3 PUSH2 0xA0F JUMP JUMPDEST SWAP2 POP POP DUP1 SWAP2 POP POP SWAP3 SWAP2 POP POP JUMP JUMPDEST PUSH1 0x0 PUSH1 0x20 DUP3 ADD SWAP1 POP DUP2 DUP2 SUB PUSH1 0x0 DUP4 ADD MSTORE PUSH2 0xAF5 DUP2 DUP5 PUSH2 0xA84 JUMP JUMPDEST SWAP1 POP SWAP3 SWAP2 POP POP JUMP JUMPDEST PUSH1 0x0 DUP1 REVERT JUMPDEST PUSH1 0x0 DUP1 REVERT JUMPDEST PUSH32 0x4E487B7100000000000000000000000000000000000000000000000000000000 PUSH1 0x0 MSTORE PUSH1 0x41 PUSH1 0x4 MSTORE PUSH1 0x24 PUSH1 0x0 REVERT JUMPDEST PUSH2 0xB3F DUP3 PUSH2 0x8FD JUMP JUMPDEST DUP2 ADD DUP2 DUP2 LT PUSH8 0xFFFFFFFFFFFFFFFF DUP3 GT OR ISZERO PUSH2 0xB5E JUMPI PUSH2 0xB5D PUSH2 0xB07 JUMP JUMPDEST JUMPDEST DUP1 PUSH1 0x40 MSTORE POP POP POP JUMP JUMPDEST PUSH1 0x0 PUSH2 0xB71 PUSH2 0x840 JUMP JUMPDEST SWAP1 POP PUSH2 0xB7D DUP3 DUP3 PUSH2 0xB36 JUMP JUMPDEST SWAP2 SWAP1 POP JUMP JUMPDEST PUSH1 0x0 PUSH8 0xFFFFFFFFFFFFFFFF DUP3 GT ISZERO PUSH2 0xB9D JUMPI PUSH2 0xB9C PUSH2 0xB07 JUMP JUMPDEST JUMPDEST PUSH2 0xBA6 DUP3 PUSH2 0x8FD JUMP JUMPDEST SWAP1 POP PUSH1 0x20 DUP2 ADD SWAP1 POP SWAP2 SWAP1 POP JUMP JUMPDEST DUP3 DUP2 DUP4 CALLDATACOPY PUSH1 0x0 DUP4 DUP4 ADD MSTORE POP POP POP JUMP JUMPDEST PUSH1 0x0 PUSH2 0xBD5 PUSH2 0xBD0 DUP5 PUSH2 0xB82 JUMP JUMPDEST PUSH2 0xB67 JUMP JUMPDEST SWAP1 POP DUP3 DUP2 MSTORE PUSH1 0x20 DUP2 ADD DUP5 DUP5 DUP5 ADD GT ISZERO PUSH2 0xBF1 JUMPI PUSH2 0xBF0 PUSH2 0xB02 JUMP JUMPDEST JUMPDEST PUSH2 0xBFC DUP5 DUP3 DUP6 PUSH2 0xBB3 JUMP JUMPDEST POP SWAP4 SWAP3 POP POP POP JUMP JUMPDEST PUSH1 0x0 DUP3 PUSH1 0x1F DUP4 ADD SLT PUSH2 0xC19 JUMPI PUSH2 0xC18 PUSH2 0xAFD JUMP JUMPDEST JUMPDEST DUP2 CALLDATALOAD PUSH2 0xC29 DUP5 DUP3 PUSH1 0x20 DUP7 ADD PUSH2 0xBC2 JUMP JUMPDEST SWAP2 POP POP SWAP3 SWAP2 POP POP JUMP JUMPDEST PUSH1 0x0 PUSH8 0xFFFFFFFFFFFFFFFF DUP3 GT ISZERO PUSH2 0xC4D JUMPI PUSH2 0xC4C PUSH2 0xB07 JUMP JUMPDEST JUMPDEST PUSH1 0x20 DUP3 MUL SWAP1 POP PUSH1 0x20 DUP2 ADD SWAP1 POP SWAP2 SWAP1 POP JUMP JUMPDEST PUSH1 0x0 DUP1 REVERT JUMPDEST PUSH1 0x0 PUSH2 0xC76 PUSH2 0xC71 DUP5 PUSH2 0xC32 JUMP JUMPDEST PUSH2 0xB67 JUMP JUMPDEST SWAP1 POP DUP1 DUP4 DUP3 MSTORE PUSH1 0x20 DUP3 ADD SWAP1 POP PUSH1 0x20 DUP5 MUL DUP4 ADD DUP6 DUP2 GT ISZERO PUSH2 0xC99 JUMPI PUSH2 0xC98 PUSH2 0xC5E JUMP JUMPDEST JUMPDEST DUP4 JUMPDEST DUP2 DUP2 LT ISZERO PUSH2 0xCE0 JUMPI DUP1 CALLDATALOAD PUSH8 0xFFFFFFFFFFFFFFFF DUP2 GT ISZERO PUSH2 0xCBE JUMPI PUSH2 0xCBD PUSH2 0xAFD JUMP JUMPDEST JUMPDEST DUP1 DUP7 ADD PUSH2 0xCCB DUP10 DUP3 PUSH2 0xC04 JUMP JUMPDEST DUP6 MSTORE PUSH1 0x20 DUP6 ADD SWAP5 POP POP POP PUSH1 0x20 DUP2 ADD SWAP1 POP PUSH2 0xC9B JUMP JUMPDEST POP POP POP SWAP4 SWAP3 POP POP POP JUMP JUMPDEST PUSH1 0x0 DUP3 PUSH1 0x1F DUP4 ADD SLT PUSH2 0xCFF JUMPI PUSH2 0xCFE PUSH2 0xAFD JUMP JUMPDEST JUMPDEST DUP2 CALLDATALOAD PUSH2 0xD0F DUP5 DUP3 PUSH1 0x20 DUP7 ADD PUSH2 0xC63 JUMP JUMPDEST SWAP2 POP POP SWAP3 SWAP2 POP POP JUMP JUMPDEST PUSH1 0x0 DUP1 PUSH1 0x0 DUP1 PUSH1 0x80 DUP6 DUP8 SUB SLT ISZERO PUSH2 0xD32 JUMPI PUSH2 0xD31 PUSH2 0x84A JUMP JUMPDEST JUMPDEST PUSH1 0x0 DUP6 ADD CALLDATALOAD PUSH8 0xFFFFFFFFFFFFFFFF DUP2 GT ISZERO PUSH2 0xD50 JUMPI PUSH2 0xD4F PUSH2 0x84F JUMP JUMPDEST JUMPDEST PUSH2 0xD5C DUP8 DUP3 DUP9 ADD PUSH2 0xC04 JUMP JUMPDEST SWAP5 POP POP PUSH1 0x20 DUP6 ADD CALLDATALOAD PUSH8 0xFFFFFFFFFFFFFFFF DUP2 GT ISZERO PUSH2 0xD7D JUMPI PUSH2 0xD7C PUSH2 0x84F JUMP JUMPDEST JUMPDEST PUSH2 0xD89 DUP8 DUP3 DUP9 ADD PUSH2 0xC04 JUMP JUMPDEST SWAP4 POP POP PUSH1 0x40 PUSH2 0xD9A DUP8 DUP3 DUP9 ADD PUSH2 0x875 JUMP JUMPDEST SWAP3 POP POP PUSH1 0x60 DUP6 ADD CALLDATALOAD PUSH8 0xFFFFFFFFFFFFFFFF DUP2 GT ISZERO PUSH2 0xDBB JUMPI PUSH2 0xDBA PUSH2 0x84F JUMP JUMPDEST JUMPDEST PUSH2 0xDC7 DUP8 DUP3 DUP9 ADD PUSH2 0xCEA JUMP JUMPDEST SWAP2 POP POP SWAP3 SWAP6 SWAP2 SWAP5 POP SWAP3 POP JUMP JUMPDEST PUSH1 0x0 DUP1 PUSH1 0x0 PUSH1 0x60 DUP5 DUP7 SUB SLT ISZERO PUSH2 0xDEC JUMPI PUSH2 0xDEB PUSH2 0x84A JUMP JUMPDEST JUMPDEST PUSH1 0x0 DUP5 ADD CALLDATALOAD PUSH8 0xFFFFFFFFFFFFFFFF DUP2 GT ISZERO PUSH2 0xE0A JUMPI PUSH2 0xE09 PUSH2 0x84F JUMP JUMPDEST JUMPDEST PUSH2 0xE16 DUP7 DUP3 DUP8 ADD PUSH2 0xC04 JUMP JUMPDEST SWAP4 POP POP PUSH1 0x20 PUSH2 0xE27 DUP7 DUP3 DUP8 ADD PUSH2 0x875 JUMP JUMPDEST SWAP3 POP POP PUSH1 0x40 PUSH2 0xE38 DUP7 DUP3 DUP8 ADD PUSH2 0x875 JUMP JUMPDEST SWAP2 POP POP SWAP3 POP SWAP3 POP SWAP3 JUMP JUMPDEST PUSH1 0x0 PUSH1 0x20 DUP3 DUP5 SUB SLT ISZERO PUSH2 0xE58 JUMPI PUSH2 0xE57 PUSH2 0x84A JUMP JUMPDEST JUMPDEST PUSH1 0x0 DUP3 ADD CALLDATALOAD PUSH8 0xFFFFFFFFFFFFFFFF DUP2 GT ISZERO PUSH2 0xE76 JUMPI PUSH2 0xE75 PUSH2 0x84F JUMP JUMPDEST JUMPDEST PUSH2 0xE82 DUP5 DUP3 DUP6 ADD PUSH2 0xC04 JUMP JUMPDEST SWAP2 POP POP SWAP3 SWAP2 POP POP JUMP JUMPDEST PUSH1 0x0 DUP2 MLOAD SWAP1 POP SWAP2 SWAP1 POP JUMP JUMPDEST PUSH1 0x0 DUP3 DUP3 MSTORE PUSH1 0x20 DUP3 ADD SWAP1 POP SWAP3 SWAP2 POP POP JUMP JUMPDEST PUSH1 0x0 DUP2 SWAP1 POP PUSH1 0x20 DUP3 ADD SWAP1 POP SWAP2 SWAP1 POP JUMP JUMPDEST PUSH1 0x0 PUSH1 0x60 DUP4 ADD PUSH1 0x0 DUP4 ADD MLOAD DUP5 DUP3 SUB PUSH1 0x0 DUP7 ADD MSTORE PUSH2 0xED4 DUP3 DUP3 PUSH2 0x97A JUMP JUMPDEST SWAP2 POP POP PUSH1 0x20 DUP4 ADD MLOAD PUSH2 0xEE9 PUSH1 0x20 DUP7 ADD DUP3 PUSH2 0x9B3 JUMP JUMPDEST POP PUSH1 0x40 DUP4 ADD MLOAD DUP5 DUP3 SUB PUSH1 0x40 DUP7 ADD MSTORE PUSH2 0xF01 DUP3 DUP3 PUSH2 0xA0F JUMP JUMPDEST SWAP2 POP POP DUP1 SWAP2 POP POP SWAP3 SWAP2 POP POP JUMP JUMPDEST PUSH1 0x0 PUSH2 0xF1A DUP4 DUP4 PUSH2 0xEB7 JUMP JUMPDEST SWAP1 POP SWAP3 SWAP2 POP POP JUMP JUMPDEST PUSH1 0x0 PUSH1 0x20 DUP3 ADD SWAP1 POP SWAP2 SWAP1 POP JUMP JUMPDEST PUSH1 0x0 PUSH2 0xF3A DUP3 PUSH2 0xE8B JUMP JUMPDEST PUSH2 0xF44 DUP2 DUP6 PUSH2 0xE96 JUMP JUMPDEST SWAP4 POP DUP4 PUSH1 0x20 DUP3 MUL DUP6 ADD PUSH2 0xF56 DUP6 PUSH2 0xEA7 JUMP JUMPDEST DUP1 PUSH1 0x0 JUMPDEST DUP6 DUP2 LT ISZERO PUSH2 0xF92 JUMPI DUP5 DUP5 SUB DUP10 MSTORE DUP2 MLOAD PUSH2 0xF73 DUP6 DUP3 PUSH2 0xF0E JUMP JUMPDEST SWAP5 POP PUSH2 0xF7E DUP4 PUSH2 0xF22 JUMP JUMPDEST SWAP3 POP PUSH1 0x20 DUP11 ADD SWAP10 POP POP PUSH1 0x1 DUP2 ADD SWAP1 POP PUSH2 0xF5A JUMP JUMPDEST POP DUP3 SWAP8 POP DUP8 SWAP6 POP POP POP POP POP POP SWAP3 SWAP2 POP POP JUMP JUMPDEST PUSH1 0x0 PUSH1 0x20 DUP3 ADD SWAP1 POP DUP2 DUP2 SUB PUSH1 0x0 DUP4 ADD MSTORE PUSH2 0xFBE DUP2 DUP5 PUSH2 0xF2F JUMP JUMPDEST SWAP1 POP SWAP3 SWAP2 POP POP JUMP JUMPDEST PUSH1 0x0 DUP1 PUSH1 0x0 PUSH1 0x60 DUP5 DUP7 SUB SLT ISZERO PUSH2 0xFDF JUMPI PUSH2 0xFDE PUSH2 0x84A JUMP JUMPDEST JUMPDEST PUSH1 0x0 DUP5 ADD CALLDATALOAD PUSH8 0xFFFFFFFFFFFFFFFF DUP2 GT ISZERO PUSH2 0xFFD JUMPI PUSH2 0xFFC PUSH2 0x84F JUMP JUMPDEST JUMPDEST PUSH2 0x1009 DUP7 DUP3 DUP8 ADD PUSH2 0xC04 JUMP JUMPDEST SWAP4 POP POP PUSH1 0x20 PUSH2 0x101A DUP7 DUP3 DUP8 ADD PUSH2 0x875 JUMP JUMPDEST SWAP3 POP POP PUSH1 0x40 DUP5 ADD CALLDATALOAD PUSH8 0xFFFFFFFFFFFFFFFF DUP2 GT ISZERO PUSH2 0x103B JUMPI PUSH2 0x103A PUSH2 0x84F JUMP JUMPDEST JUMPDEST PUSH2 0x1047 DUP7 DUP3 DUP8 ADD PUSH2 0xCEA JUMP JUMPDEST SWAP2 POP POP SWAP3 POP SWAP3 POP SWAP3 JUMP JUMPDEST PUSH32 0x4E487B7100000000000000000000000000000000000000000000000000000000 PUSH1 0x0 MSTORE PUSH1 0x11 PUSH1 0x4 MSTORE PUSH1 0x24 PUSH1 0x0 REVERT JUMPDEST PUSH1 0x0 PUSH2 0x108B DUP3 PUSH2 0x854 JUMP JUMPDEST SWAP2 POP PUSH2 0x1096 DUP4 PUSH2 0x854 JUMP JUMPDEST SWAP3 POP DUP3 DUP3 SUB SWAP1 POP DUP2 DUP2 GT ISZERO PUSH2 0x10AE JUMPI PUSH2 0x10AD PUSH2 0x1051 JUMP JUMPDEST JUMPDEST SWAP3 SWAP2 POP POP JUMP JUMPDEST PUSH32 0x4E487B7100000000000000000000000000000000000000000000000000000000 PUSH1 0x0 MSTORE PUSH1 0x32 PUSH1 0x4 MSTORE PUSH1 0x24 PUSH1 0x0 REVERT JUMPDEST PUSH32 0x4E487B7100000000000000000000000000000000000000000000000000000000 PUSH1 0x0 MSTORE PUSH1 0x22 PUSH1 0x4 MSTORE PUSH1 0x24 PUSH1 0x0 REVERT JUMPDEST PUSH1 0x0 PUSH1 0x2 DUP3 DIV SWAP1 POP PUSH1 0x1 DUP3 AND DUP1 PUSH2 0x112A JUMPI PUSH1 0x7F DUP3 AND SWAP2 POP JUMPDEST PUSH1 0x20 DUP3 LT DUP2 SUB PUSH2 0x113D JUMPI PUSH2 0x113C PUSH2 0x10E3 JUMP JUMPDEST JUMPDEST POP SWAP2 SWAP1 POP JUMP JUMPDEST PUSH1 0x0 DUP2 SWAP1 POP SWAP3 SWAP2 POP POP JUMP JUMPDEST PUSH1 0x0 PUSH2 0x1159 DUP3 PUSH2 0x8B7 JUMP JUMPDEST PUSH2 0x1163 DUP2 DUP6 PUSH2 0x1143 JUMP JUMPDEST SWAP4 POP PUSH2 0x1173 DUP2 DUP6 PUSH1 0x20 DUP7 ADD PUSH2 0x8D3 JUMP JUMPDEST DUP1 DUP5 ADD SWAP2 POP POP SWAP3 SWAP2 POP POP JUMP JUMPDEST PUSH1 0x0 PUSH2 0x118B DUP3 DUP5 PUSH2 0x114E JUMP JUMPDEST SWAP2 POP DUP2 SWAP1 POP SWAP3 SWAP2 POP POP JUMP JUMPDEST PUSH1 0x0 DUP2 SWAP1 POP DUP2 PUSH1 0x0 MSTORE PUSH1 0x20 PUSH1 0x0 KECCAK256 SWAP1 POP SWAP2 SWAP1 POP JUMP JUMPDEST PUSH1 0x0 PUSH1 0x20 PUSH1 0x1F DUP4 ADD DIV SWAP1 POP SWAP2 SWAP1 POP JUMP JUMPDEST PUSH1 0x0 DUP3 DUP3 SHL SWAP1 POP SWAP3 SWAP2 POP POP JUMP JUMPDEST PUSH1 0x0 PUSH1 0x8 DUP4 MUL PUSH2 0x11F8 PUSH32 0xFFFFFFFFFFFFFFFFFFFFFFFFFFFFFFFFFFFFFFFFFFFFFFFFFFFFFFFFFFFFFFFF DUP3 PUSH2 0x11BB JUMP JUMPDEST PUSH2 0x1202 DUP7 DUP4 PUSH2 0x11BB JUMP JUMPDEST SWAP6 POP DUP1 NOT DUP5 AND SWAP4 POP DUP1 DUP7 AND DUP5 OR SWAP3 POP POP POP SWAP4 SWAP3 POP POP POP JUMP JUMPDEST PUSH1 0x0 DUP2 SWAP1 POP SWAP2 SWAP1 POP JUMP JUMPDEST PUSH1 0x0 PUSH2 0x123F PUSH2 0x123A PUSH2 0x1235 DUP5 PUSH2 0x854 JUMP JUMPDEST PUSH2 0x121A JUMP JUMPDEST PUSH2 0x854 JUMP JUMPDEST SWAP1 POP SWAP2 SWAP1 POP JUMP JUMPDEST PUSH1 0x0 DUP2 SWAP1 POP SWAP2 SWAP1 POP JUMP JUMPDEST PUSH2 0x1259 DUP4 PUSH2 0x1224 JUMP JUMPDEST PUSH2 0x126D PUSH2 0x1265 DUP3 PUSH2 0x1246 JUMP JUMPDEST DUP5 DUP5 SLOAD PUSH2 0x11C8 JUMP JUMPDEST DUP3 SSTORE POP POP POP POP JUMP JUMPDEST PUSH1 0x0 SWAP1 JUMP JUMPDEST PUSH2 0x1282 PUSH2 0x1275 JUMP JUMPDEST PUSH2 0x128D DUP2 DUP5 DUP5 PUSH2 0x1250 JUMP JUMPDEST POP POP POP JUMP JUMPDEST JUMPDEST DUP2 DUP2 LT ISZERO PUSH2 0x12B1 JUMPI PUSH2 0x12A6 PUSH1 0x0 DUP3 PUSH2 0x127A JUMP JUMPDEST PUSH1 0x1 DUP2 ADD SWAP1 POP PUSH2 0x1293 JUMP JUMPDEST POP POP JUMP JUMPDEST PUSH1 0x1F DUP3 GT ISZERO PUSH2 0x12F6 JUMPI PUSH2 0x12C7 DUP2 PUSH2 0x1196 JUMP JUMPDEST PUSH2 0x12D0 DUP5 PUSH2 0x11AB JUMP JUMPDEST DUP2 ADD PUSH1 0x20 DUP6 LT ISZERO PUSH2 0x12DF JUMPI DUP2 SWAP1 POP JUMPDEST PUSH2 0x12F3 PUSH2 0x12EB DUP6 PUSH2 0x11AB JUMP JUMPDEST DUP4 ADD DUP3 PUSH2 0x1292 JUMP JUMPDEST POP POP JUMPDEST POP POP POP JUMP JUMPDEST PUSH1 0x0 DUP3 DUP3 SHR SWAP1 POP SWAP3 SWAP2 POP POP JUMP JUMPDEST PUSH1 0x0 PUSH2 0x1319 PUSH1 0x0 NOT DUP5 PUSH1 0x8 MUL PUSH2 0x12FB JUMP JUMPDEST NOT DUP1 DUP4 AND SWAP2 POP POP SWAP3 SWAP2 POP POP JUMP JUMPDEST PUSH1 0x0 PUSH2 0x1332 DUP4 DUP4 PUSH2 0x1308 JUMP JUMPDEST SWAP2 POP DUP3 PUSH1 0x2 MUL DUP3 OR SWAP1 POP SWAP3 SWAP2 POP POP JUMP JUMPDEST PUSH2 0x134B DUP3 PUSH2 0x8B7 JUMP JUMPDEST PUSH8 0xFFFFFFFFFFFFFFFF DUP2 GT ISZERO PUSH2 0x1364 JUMPI PUSH2 0x1363 PUSH2 0xB07 JUMP JUMPDEST JUMPDEST PUSH2 0x136E DUP3 SLOAD PUSH2 0x1112 JUMP JUMPDEST PUSH2 0x1379 DUP3 DUP3 DUP6 PUSH2 0x12B5 JUMP JUMPDEST PUSH1 0x0 PUSH1 0x20 SWAP1 POP PUSH1 0x1F DUP4 GT PUSH1 0x1 DUP2 EQ PUSH2 0x13AC JUMPI PUSH1 0x0 DUP5 ISZERO PUSH2 0x139A JUMPI DUP3 DUP8 ADD MLOAD SWAP1 POP JUMPDEST PUSH2 0x13A4 DUP6 DUP3 PUSH2 0x1326 JUMP JUMPDEST DUP7 SSTORE POP PUSH2 0x140C JUMP JUMPDEST PUSH1 0x1F NOT DUP5 AND PUSH2 0x13BA DUP7 PUSH2 0x1196 JUMP JUMPDEST PUSH1 0x0 JUMPDEST DUP3 DUP2 LT ISZERO PUSH2 0x13E2 JUMPI DUP5 DUP10 ADD MLOAD DUP3 SSTORE PUSH1 0x1 DUP3 ADD SWAP2 POP PUSH1 0x20 DUP6 ADD SWAP5 POP PUSH1 0x20 DUP2 ADD SWAP1 POP PUSH2 0x13BD JUMP JUMPDEST DUP7 DUP4 LT ISZERO PUSH2 0x13FF JUMPI DUP5 DUP10 ADD MLOAD PUSH2 0x13FB PUSH1 0x1F DUP10 AND DUP3 PUSH2 0x1308 JUMP JUMPDEST DUP4 SSTORE POP JUMPDEST PUSH1 0x1 PUSH1 0x2 DUP9 MUL ADD DUP9 SSTORE POP POP POP JUMPDEST POP POP POP POP POP POP JUMP INVALID LOG2 PUSH5 0x6970667358 0x22 SLT KECCAK256 DUP14 PUSH30 0x628EE512238A93A705BCEAA8E0388F043124F406A61A54D64A6E648CDEB9 PUSH5 0x736F6C6343 STOP ADDMOD SLT STOP CALLER "
				},
				"gasEstimates": {
					"creation": {
						"codeDepositCost": "1038800",
						"executionCost": "1080",
						"totalCost": "1039880"
					},
					"external": {
						"getName(uint256)": "infinite",
						"getStudents(uint256)": "infinite",
						"getTeacher_Student(string)": "infinite",
						"set2(string,uint256,uint256)": "infinite",
						"setStudents(string,uint256,string[])": "infinite",
						"setTeacher_Student(string,string,uint256,string[])": "infinite"
					}
				},
				"methodIdentifiers": {
					"getName(uint256)": "6b8ff574",
					"getStudents(uint256)": "75c2f8f0",
					"getTeacher_Student(string)": "c013118f",
					"set2(string,uint256,uint256)": "a26a427f",
					"setStudents(string,uint256,string[])": "ebb76d68",
					"setTeacher_Student(string,string,uint256,string[])": "9570defc"
				}
			},
			"storageLayout": {
				"storage": [
					{
						"astId": 13,
						"contract": "contracts/1_note.sol:note",
						"label": "students",
						"offset": 0,
						"slot": "0",
						"type": "t_array(t_struct(Student)9_storage)dyn_storage"
					},
					{
						"astId": 19,
						"contract": "contracts/1_note.sol:note",
						"label": "Teacher_Student",
						"offset": 0,
						"slot": "1",
						"type": "t_mapping(t_string_memory_ptr,t_array(t_struct(Student)9_storage)dyn_storage)"
					}
				],
				"types": {
					"t_array(t_string_storage)dyn_storage": {
						"base": "t_string_storage",
						"encoding": "dynamic_array",
						"label": "string[]",
						"numberOfBytes": "32"
					},
					"t_array(t_struct(Student)9_storage)dyn_storage": {
						"base": "t_struct(Student)9_storage",
						"encoding": "dynamic_array",
						"label": "struct note.Student[]",
						"numberOfBytes": "32"
					},
					"t_mapping(t_string_memory_ptr,t_array(t_struct(Student)9_storage)dyn_storage)": {
						"encoding": "mapping",
						"key": "t_string_memory_ptr",
						"label": "mapping(string => struct note.Student[])",
						"numberOfBytes": "32",
						"value": "t_array(t_struct(Student)9_storage)dyn_storage"
					},
					"t_string_memory_ptr": {
						"encoding": "bytes",
						"label": "string",
						"numberOfBytes": "32"
					},
					"t_string_storage": {
						"encoding": "bytes",
						"label": "string",
						"numberOfBytes": "32"
					},
					"t_struct(Student)9_storage": {
						"encoding": "inplace",
						"label": "struct note.Student",
						"members": [
							{
								"astId": 3,
								"contract": "contracts/1_note.sol:note",
								"label": "name",
								"offset": 0,
								"slot": "0",
								"type": "t_string_storage"
							},
							{
								"astId": 5,
								"contract": "contracts/1_note.sol:note",
								"label": "number",
								"offset": 0,
								"slot": "1",
								"type": "t_uint256"
							},
							{
								"astId": 8,
								"contract": "contracts/1_note.sol:note",
								"label": "classes",
								"offset": 0,
								"slot": "2",
								"type": "t_array(t_string_storage)dyn_storage"
							}
						],
						"numberOfBytes": "96"
					},
					"t_uint256": {
						"encoding": "inplace",
						"label": "uint256",
						"numberOfBytes": "32"
					}
				}
			},
			"userdoc": {
				"kind": "user",
				"methods": {},
				"version": 1
			}
		}
	}
}