{
	"data": {
		"bytecode": {
			"linkReferences": {},
			"object": "608060405234801561001057600080fd5b50611be6806100206000396000f3fe608060405234801561001057600080fd5b50600436106100cf5760003560e01c80639db1e7da1161008c578063b0c7a93c11610066578063b0c7a93c146101fe578063b6e52cb11461021c578063c1846f5114610238578063f1d064b314610268576100cf565b80639db1e7da146101aa5780639fec8626146101c6578063ad8364a4146101e2576100cf565b8063159c10ee146100d45780633b4598b1146100f2578063422beeba1461010e578063448e1bed1461013e578063674271cd1461015e57806398105d8d1461018e575b600080fd5b6100dc610286565b6040516100e9919061133f565b60405180910390f35b61010c600480360381019061010791906114e7565b6102de565b005b61012860048036038101906101239190611556565b61047e565b6040516101359190611602565b60405180910390f35b610146610503565b604051610155939291906116d8565b60405180910390f35b61017860048036038101906101739190611556565b6108fe565b6040516101859190611602565b60405180910390f35b6101a860048036038101906101a39190611556565b610a0d565b005b6101c460048036038101906101bf91906114e7565b610abf565b005b6101e060048036038101906101db91906114e7565b610c37565b005b6101fc60048036038101906101f791906114e7565b610daf565b005b610206610f27565b604051610213919061133f565b60405180910390f35b61023660048036038101906102319190611556565b610f7f565b005b610252600480360381019061024d9190611556565b610fee565b60405161025f9190611602565b60405180910390f35b6102706110b8565b60405161027d9190611850565b60405180910390f35b606060018054806020026020016040519081016040528092919081815260200182805480156102d457602002820191906000526020600020905b8154815260200190600101908083116102c0575b5050505050905090565b6060605a8210610325576040518060400160405280600181526020017f410000000000000000000000000000000000000000000000000000000000000081525090506103ea565b6050821061036a576040518060400160405280600181526020017f420000000000000000000000000000000000000000000000000000000000000081525090506103e9565b604682106103af576040518060400160405280600181526020017f430000000000000000000000000000000000000000000000000000000000000081525090506103e8565b6040518060400160405280600181526020017f460000000000000000000000000000000000000000000000000000000000000081525090505b5b5b601160405180608001604052808681526020018581526020018481526020018381525090806001815401808255809150506001900390600052602060002090600402016000909190919091506000820151816000015560208201518160010190816104559190611a7e565b506040820151816002015560608201518160030190816104759190611a7e565b50505050505050565b6060603282106104c5576040518060400160405280600481526020017f504153530000000000000000000000000000000000000000000000000000000081525090506104fe565b6040518060400160405280600481526020017f4641494c0000000000000000000000000000000000000000000000000000000081525090505b919050565b61050b61124f565b61051361124f565b61051b61124f565b60056009600d8260405180608001604052908160008201548152602001600182018054610547906118a1565b80601f0160208091040260200160405190810160405280929190818152602001828054610573906118a1565b80156105c05780601f10610595576101008083540402835291602001916105c0565b820191906000526020600020905b8154815290600101906020018083116105a357829003601f168201915b50505050508152602001600282015481526020016003820180546105e3906118a1565b80601f016020809104026020016040519081016040528092919081815260200182805461060f906118a1565b801561065c5780601f106106315761010080835404028352916020019161065c565b820191906000526020600020905b81548152906001019060200180831161063f57829003601f168201915b5050505050815250509250816040518060800160405290816000820154815260200160018201805461068d906118a1565b80601f01602080910402602001604051908101604052809291908181526020018280546106b9906118a1565b80156107065780601f106106db57610100808354040283529160200191610706565b820191906000526020600020905b8154815290600101906020018083116106e957829003601f168201915b5050505050815260200160028201548152602001600382018054610729906118a1565b80601f0160208091040260200160405190810160405280929190818152602001828054610755906118a1565b80156107a25780601f10610777576101008083540402835291602001916107a2565b820191906000526020600020905b81548152906001019060200180831161078557829003601f168201915b505050505081525050915080604051806080016040529081600082015481526020016001820180546107d3906118a1565b80601f01602080910402602001604051908101604052809291908181526020018280546107ff906118a1565b801561084c5780601f106108215761010080835404028352916020019161084c565b820191906000526020600020905b81548152906001019060200180831161082f57829003601f168201915b505050505081526020016002820154815260200160038201805461086f906118a1565b80601f016020809104026020016040519081016040528092919081815260200182805461089b906118a1565b80156108e85780601f106108bd576101008083540402835291602001916108e8565b820191906000526020600020905b8154815290600101906020018083116108cb57829003601f168201915b5050505050815250509050925092509250909192565b6060605a8210610945576040518060400160405280600181526020017f41000000000000000000000000000000000000000000000000000000000000008152509050610a08565b6050821061098a576040518060400160405280600181526020017f42000000000000000000000000000000000000000000000000000000000000008152509050610a08565b604682106109cf576040518060400160405280600181526020017f43000000000000000000000000000000000000000000000000000000000000008152509050610a08565b6040518060400160405280600181526020017f460000000000000000000000000000000000000000000000000000000000000081525090505b919050565b6001600382610a1c9190611b7f565b03610a4f576002819080600181540180825580915050600190039060005260206000200160009091909190915055610abc565b6002600382610a5e9190611b7f565b03610a91576003819080600181540180825580915050600190039060005260206000200160009091909190915055610abb565b60048190806001815401808255809150506001900390600052602060002001600090919091909150555b5b50565b6060605a8210610b06576040518060400160405280600181526020017f41000000000000000000000000000000000000000000000000000000000000008152509050610bcb565b60508210610b4b576040518060400160405280600181526020017f42000000000000000000000000000000000000000000000000000000000000008152509050610bca565b60468210610b90576040518060400160405280600181526020017f43000000000000000000000000000000000000000000000000000000000000008152509050610bc9565b6040518060400160405280600181526020017f460000000000000000000000000000000000000000000000000000000000000081525090505b5b5b6040518060800160405280858152602001848152602001838152602001828152506009600082015181600001556020820151816001019081610c0d9190611a7e565b50604082015181600201556060820151816003019081610c2d9190611a7e565b5090505050505050565b6060605a8210610c7e576040518060400160405280600181526020017f41000000000000000000000000000000000000000000000000000000000000008152509050610d43565b60508210610cc3576040518060400160405280600181526020017f42000000000000000000000000000000000000000000000000000000000000008152509050610d42565b60468210610d08576040518060400160405280600181526020017f43000000000000000000000000000000000000000000000000000000000000008152509050610d41565b6040518060400160405280600181526020017f460000000000000000000000000000000000000000000000000000000000000081525090505b5b5b6040518060800160405280858152602001848152602001838152602001828152506005600082015181600001556020820151816001019081610d859190611a7e565b50604082015181600201556060820151816003019081610da59190611a7e565b5090505050505050565b6060605a8210610df6576040518060400160405280600181526020017f41000000000000000000000000000000000000000000000000000000000000008152509050610ebb565b60508210610e3b576040518060400160405280600181526020017f42000000000000000000000000000000000000000000000000000000000000008152509050610eba565b60468210610e80576040518060400160405280600181526020017f43000000000000000000000000000000000000000000000000000000000000008152509050610eb9565b6040518060400160405280600181526020017f460000000000000000000000000000000000000000000000000000000000000081525090505b5b5b604051806080016040528085815260200184815260200183815260200182815250600d600082015181600001556020820151816001019081610efd9190611a7e565b50604082015181600201556060820151816003019081610f1d9190611a7e565b5090505050505050565b60606000805480602002602001604051908101604052809291908181526020018280548015610f7557602002820191906000526020600020905b815481526020019060010190808311610f61575b5050505050905090565b6000600282610f8e9190611b7f565b03610fc1576000819080600181540180825580915050600190039060005260206000200160009091909190915055610feb565b60018190806001815401808255809150506001900390600052602060002001600090919091909150555b50565b606060468210611035576040518060400160405280600781526020017f436c61737320410000000000000000000000000000000000000000000000000081525090506110b3565b6032821061107a576040518060400160405280600781526020017f436c61737320420000000000000000000000000000000000000000000000000081525090506110b3565b6040518060400160405280600781526020017f436c61737320430000000000000000000000000000000000000000000000000081525090505b919050565b60606011805480602002602001604051908101604052809291908181526020016000905b82821015611246578382906000526020600020906004020160405180608001604052908160008201548152602001600182018054611119906118a1565b80601f0160208091040260200160405190810160405280929190818152602001828054611145906118a1565b80156111925780601f1061116757610100808354040283529160200191611192565b820191906000526020600020905b81548152906001019060200180831161117557829003601f168201915b50505050508152602001600282015481526020016003820180546111b5906118a1565b80601f01602080910402602001604051908101604052809291908181526020018280546111e1906118a1565b801561122e5780601f106112035761010080835404028352916020019161122e565b820191906000526020600020905b81548152906001019060200180831161121157829003601f168201915b505050505081525050815260200190600101906110dc565b50505050905090565b6040518060800160405280600081526020016060815260200160008152602001606081525090565b600081519050919050565b600082825260208201905092915050565b6000819050602082019050919050565b6000819050919050565b6112b6816112a3565b82525050565b60006112c883836112ad565b60208301905092915050565b6000602082019050919050565b60006112ec82611277565b6112f68185611282565b935061130183611293565b8060005b8381101561133257815161131988826112bc565b9750611324836112d4565b925050600181019050611305565b5085935050505092915050565b6000602082019050818103600083015261135981846112e1565b905092915050565b6000604051905090565b600080fd5b600080fd5b61137e816112a3565b811461138957600080fd5b50565b60008135905061139b81611375565b92915050565b600080fd5b600080fd5b6000601f19601f8301169050919050565b7f4e487b7100000000000000000000000000000000000000000000000000000000600052604160045260246000fd5b6113f4826113ab565b810181811067ffffffffffffffff82111715611413576114126113bc565b5b80604052505050565b6000611426611361565b905061143282826113eb565b919050565b600067ffffffffffffffff821115611452576114516113bc565b5b61145b826113ab565b9050602081019050919050565b82818337600083830152505050565b600061148a61148584611437565b61141c565b9050828152602081018484840111156114a6576114a56113a6565b5b6114b1848285611468565b509392505050565b600082601f8301126114ce576114cd6113a1565b5b81356114de848260208601611477565b91505092915050565b600080600060608486031215611500576114ff61136b565b5b600061150e8682870161138c565b935050602084013567ffffffffffffffff81111561152f5761152e611370565b5b61153b868287016114b9565b925050604061154c8682870161138c565b9150509250925092565b60006020828403121561156c5761156b61136b565b5b600061157a8482850161138c565b91505092915050565b600081519050919050565b600082825260208201905092915050565b60005b838110156115bd5780820151818401526020810190506115a2565b60008484015250505050565b60006115d482611583565b6115de818561158e565b93506115ee81856020860161159f565b6115f7816113ab565b840191505092915050565b6000602082019050818103600083015261161c81846115c9565b905092915050565b600082825260208201905092915050565b600061164082611583565b61164a8185611624565b935061165a81856020860161159f565b611663816113ab565b840191505092915050565b600060808301600083015161168660008601826112ad565b506020830151848203602086015261169e8282611635565b91505060408301516116b360408601826112ad565b50606083015184820360608601526116cb8282611635565b9150508091505092915050565b600060608201905081810360008301526116f2818661166e565b90508181036020830152611706818561166e565b9050818103604083015261171a818461166e565b9050949350505050565b600081519050919050565b600082825260208201905092915050565b6000819050602082019050919050565b600060808301600083015161176860008601826112ad565b50602083015184820360208601526117808282611635565b915050604083015161179560408601826112ad565b50606083015184820360608601526117ad8282611635565b9150508091505092915050565b60006117c68383611750565b905092915050565b6000602082019050919050565b60006117e682611724565b6117f0818561172f565b93508360208202850161180285611740565b8060005b8581101561183e578484038952815161181f85826117ba565b945061182a836117ce565b925060208a01995050600181019050611806565b50829750879550505050505092915050565b6000602082019050818103600083015261186a81846117db565b905092915050565b7f4e487b7100000000000000000000000000000000000000000000000000000000600052602260045260246000fd5b600060028204905060018216806118b957607f821691505b6020821081036118cc576118cb611872565b5b50919050565b60008190508160005260206000209050919050565b60006020601f8301049050919050565b600082821b905092915050565b6000600883026119347fffffffffffffffffffffffffffffffffffffffffffffffffffffffffffffffff826118f7565b61193e86836118f7565b95508019841693508086168417925050509392505050565b6000819050919050565b600061197b611976611971846112a3565b611956565b6112a3565b9050919050565b6000819050919050565b61199583611960565b6119a96119a182611982565b848454611904565b825550505050565b600090565b6119be6119b1565b6119c981848461198c565b505050565b5b818110156119ed576119e26000826119b6565b6001810190506119cf565b5050565b601f821115611a3257611a03816118d2565b611a0c846118e7565b81016020851015611a1b578190505b611a2f611a27856118e7565b8301826119ce565b50505b505050565b600082821c905092915050565b6000611a5560001984600802611a37565b1980831691505092915050565b6000611a6e8383611a44565b9150826002028217905092915050565b611a8782611583565b67ffffffffffffffff811115611aa057611a9f6113bc565b5b611aaa82546118a1565b611ab58282856119f1565b600060209050601f831160018114611ae85760008415611ad6578287015190505b611ae08582611a62565b865550611b48565b601f198416611af6866118d2565b60005b82811015611b1e57848901518255600182019150602085019450602081019050611af9565b86831015611b3b5784890151611b37601f891682611a44565b8355505b6001600288020188555050505b505050505050565b7f4e487b7100000000000000000000000000000000000000000000000000000000600052601260045260246000fd5b6000611b8a826112a3565b9150611b95836112a3565b925082611ba557611ba4611b50565b5b82820690509291505056fea2646970667358221220045600404d6fbac3e52f92b8da75a0925bbefcff3aee217b658e982bed5f52ba64736f6c63430008120033",
			"opcodes": "PUSH1 0x80 PUSH1 0x40 MSTORE CALLVALUE DUP1 ISZERO PUSH2 0x10 JUMPI PUSH1 0x0 DUP1 REVERT JUMPDEST POP PUSH2 0x1BE6 DUP1 PUSH2 0x20 PUSH1 0x0 CODECOPY PUSH1 0x0 RETURN INVALID PUSH1 0x80 PUSH1 0x40 MSTORE CALLVALUE DUP1 ISZERO PUSH2 0x10 JUMPI PUSH1 0x0 DUP1 REVERT JUMPDEST POP PUSH1 0x4 CALLDATASIZE LT PUSH2 0xCF JUMPI PUSH1 0x0 CALLDATALOAD PUSH1 0xE0 SHR DUP1 PUSH4 0x9DB1E7DA GT PUSH2 0x8C JUMPI DUP1 PUSH4 0xB0C7A93C GT PUSH2 0x66 JUMPI DUP1 PUSH4 0xB0C7A93C EQ PUSH2 0x1FE JUMPI DUP1 PUSH4 0xB6E52CB1 EQ PUSH2 0x21C JUMPI DUP1 PUSH4 0xC1846F51 EQ PUSH2 0x238 JUMPI DUP1 PUSH4 0xF1D064B3 EQ PUSH2 0x268 JUMPI PUSH2 0xCF JUMP JUMPDEST DUP1 PUSH4 0x9DB1E7DA EQ PUSH2 0x1AA JUMPI DUP1 PUSH4 0x9FEC8626 EQ PUSH2 0x1C6 JUMPI DUP1 PUSH4 0xAD8364A4 EQ PUSH2 0x1E2 JUMPI PUSH2 0xCF JUMP JUMPDEST DUP1 PUSH4 0x159C10EE EQ PUSH2 0xD4 JUMPI DUP1 PUSH4 0x3B4598B1 EQ PUSH2 0xF2 JUMPI DUP1 PUSH4 0x422BEEBA EQ PUSH2 0x10E JUMPI DUP1 PUSH4 0x448E1BED EQ PUSH2 0x13E JUMPI DUP1 PUSH4 0x674271CD EQ PUSH2 0x15E JUMPI DUP1 PUSH4 0x98105D8D EQ PUSH2 0x18E JUMPI JUMPDEST PUSH1 0x0 DUP1 REVERT JUMPDEST PUSH2 0xDC PUSH2 0x286 JUMP JUMPDEST PUSH1 0x40 MLOAD PUSH2 0xE9 SWAP2 SWAP1 PUSH2 0x133F JUMP JUMPDEST PUSH1 0x40 MLOAD DUP1 SWAP2 SUB SWAP1 RETURN JUMPDEST PUSH2 0x10C PUSH1 0x4 DUP1 CALLDATASIZE SUB DUP2 ADD SWAP1 PUSH2 0x107 SWAP2 SWAP1 PUSH2 0x14E7 JUMP JUMPDEST PUSH2 0x2DE JUMP JUMPDEST STOP JUMPDEST PUSH2 0x128 PUSH1 0x4 DUP1 CALLDATASIZE SUB DUP2 ADD SWAP1 PUSH2 0x123 SWAP2 SWAP1 PUSH2 0x1556 JUMP JUMPDEST PUSH2 0x47E JUMP JUMPDEST PUSH1 0x40 MLOAD PUSH2 0x135 SWAP2 SWAP1 PUSH2 0x1602 JUMP JUMPDEST PUSH1 0x40 MLOAD DUP1 SWAP2 SUB SWAP1 RETURN JUMPDEST PUSH2 0x146 PUSH2 0x503 JUMP JUMPDEST PUSH1 0x40 MLOAD PUSH2 0x155 SWAP4 SWAP3 SWAP2 SWAP1 PUSH2 0x16D8 JUMP JUMPDEST PUSH1 0x40 MLOAD DUP1 SWAP2 SUB SWAP1 RETURN JUMPDEST PUSH2 0x178 PUSH1 0x4 DUP1 CALLDATASIZE SUB DUP2 ADD SWAP1 PUSH2 0x173 SWAP2 SWAP1 PUSH2 0x1556 JUMP JUMPDEST PUSH2 0x8FE JUMP JUMPDEST PUSH1 0x40 MLOAD PUSH2 0x185 SWAP2 SWAP1 PUSH2 0x1602 JUMP JUMPDEST PUSH1 0x40 MLOAD DUP1 SWAP2 SUB SWAP1 RETURN JUMPDEST PUSH2 0x1A8 PUSH1 0x4 DUP1 CALLDATASIZE SUB DUP2 ADD SWAP1 PUSH2 0x1A3 SWAP2 SWAP1 PUSH2 0x1556 JUMP JUMPDEST PUSH2 0xA0D JUMP JUMPDEST STOP JUMPDEST PUSH2 0x1C4 PUSH1 0x4 DUP1 CALLDATASIZE SUB DUP2 ADD SWAP1 PUSH2 0x1BF SWAP2 SWAP1 PUSH2 0x14E7 JUMP JUMPDEST PUSH2 0xABF JUMP JUMPDEST STOP JUMPDEST PUSH2 0x1E0 PUSH1 0x4 DUP1 CALLDATASIZE SUB DUP2 ADD SWAP1 PUSH2 0x1DB SWAP2 SWAP1 PUSH2 0x14E7 JUMP JUMPDEST PUSH2 0xC37 JUMP JUMPDEST STOP JUMPDEST PUSH2 0x1FC PUSH1 0x4 DUP1 CALLDATASIZE SUB DUP2 ADD SWAP1 PUSH2 0x1F7 SWAP2 SWAP1 PUSH2 0x14E7 JUMP JUMPDEST PUSH2 0xDAF JUMP JUMPDEST STOP JUMPDEST PUSH2 0x206 PUSH2 0xF27 JUMP JUMPDEST PUSH1 0x40 MLOAD PUSH2 0x213 SWAP2 SWAP1 PUSH2 0x133F JUMP JUMPDEST PUSH1 0x40 MLOAD DUP1 SWAP2 SUB SWAP1 RETURN JUMPDEST PUSH2 0x236 PUSH1 0x4 DUP1 CALLDATASIZE SUB DUP2 ADD SWAP1 PUSH2 0x231 SWAP2 SWAP1 PUSH2 0x1556 JUMP JUMPDEST PUSH2 0xF7F JUMP JUMPDEST STOP JUMPDEST PUSH2 0x252 PUSH1 0x4 DUP1 CALLDATASIZE SUB DUP2 ADD SWAP1 PUSH2 0x24D SWAP2 SWAP1 PUSH2 0x1556 JUMP JUMPDEST PUSH2 0xFEE JUMP JUMPDEST PUSH1 0x40 MLOAD PUSH2 0x25F SWAP2 SWAP1 PUSH2 0x1602 JUMP JUMPDEST PUSH1 0x40 MLOAD DUP1 SWAP2 SUB SWAP1 RETURN JUMPDEST PUSH2 0x270 PUSH2 0x10B8 JUMP JUMPDEST PUSH1 0x40 MLOAD PUSH2 0x27D SWAP2 SWAP1 PUSH2 0x1850 JUMP JUMPDEST PUSH1 0x40 MLOAD DUP1 SWAP2 SUB SWAP1 RETURN JUMPDEST PUSH1 0x60 PUSH1 0x1 DUP1 SLOAD DUP1 PUSH1 0x20 MUL PUSH1 0x20 ADD PUSH1 0x40 MLOAD SWAP1 DUP2 ADD PUSH1 0x40 MSTORE DUP1 SWAP3 SWAP2 SWAP1 DUP2 DUP2 MSTORE PUSH1 0x20 ADD DUP3 DUP1 SLOAD DUP1 ISZERO PUSH2 0x2D4 JUMPI PUSH1 0x20 MUL DUP3 ADD SWAP2 SWAP1 PUSH1 0x0 MSTORE PUSH1 0x20 PUSH1 0x0 KECCAK256 SWAP1 JUMPDEST DUP2 SLOAD DUP2 MSTORE PUSH1 0x20 ADD SWAP1 PUSH1 0x1 ADD SWAP1 DUP1 DUP4 GT PUSH2 0x2C0 JUMPI JUMPDEST POP POP POP POP POP SWAP1 POP SWAP1 JUMP JUMPDEST PUSH1 0x60 PUSH1 0x5A DUP3 LT PUSH2 0x325 JUMPI PUSH1 0x40 MLOAD DUP1 PUSH1 0x40 ADD PUSH1 0x40 MSTORE DUP1 PUSH1 0x1 DUP2 MSTORE PUSH1 0x20 ADD PUSH32 0x4100000000000000000000000000000000000000000000000000000000000000 DUP2 MSTORE POP SWAP1 POP PUSH2 0x3EA JUMP JUMPDEST PUSH1 0x50 DUP3 LT PUSH2 0x36A JUMPI PUSH1 0x40 MLOAD DUP1 PUSH1 0x40 ADD PUSH1 0x40 MSTORE DUP1 PUSH1 0x1 DUP2 MSTORE PUSH1 0x20 ADD PUSH32 0x4200000000000000000000000000000000000000000000000000000000000000 DUP2 MSTORE POP SWAP1 POP PUSH2 0x3E9 JUMP JUMPDEST PUSH1 0x46 DUP3 LT PUSH2 0x3AF JUMPI PUSH1 0x40 MLOAD DUP1 PUSH1 0x40 ADD PUSH1 0x40 MSTORE DUP1 PUSH1 0x1 DUP2 MSTORE PUSH1 0x20 ADD PUSH32 0x4300000000000000000000000000000000000000000000000000000000000000 DUP2 MSTORE POP SWAP1 POP PUSH2 0x3E8 JUMP JUMPDEST PUSH1 0x40 MLOAD DUP1 PUSH1 0x40 ADD PUSH1 0x40 MSTORE DUP1 PUSH1 0x1 DUP2 MSTORE PUSH1 0x20 ADD PUSH32 0x4600000000000000000000000000000000000000000000000000000000000000 DUP2 MSTORE POP SWAP1 POP JUMPDEST JUMPDEST JUMPDEST PUSH1 0x11 PUSH1 0x40 MLOAD DUP1 PUSH1 0x80 ADD PUSH1 0x40 MSTORE DUP1 DUP7 DUP2 MSTORE PUSH1 0x20 ADD DUP6 DUP2 MSTORE PUSH1 0x20 ADD DUP5 DUP2 MSTORE PUSH1 0x20 ADD DUP4 DUP2 MSTORE POP SWAP1 DUP1 PUSH1 0x1 DUP2 SLOAD ADD DUP1 DUP3 SSTORE DUP1 SWAP2 POP POP PUSH1 0x1 SWAP1 SUB SWAP1 PUSH1 0x0 MSTORE PUSH1 0x20 PUSH1 0x0 KECCAK256 SWAP1 PUSH1 0x4 MUL ADD PUSH1 0x0 SWAP1 SWAP2 SWAP1 SWAP2 SWAP1 SWAP2 POP PUSH1 0x0 DUP3 ADD MLOAD DUP2 PUSH1 0x0 ADD SSTORE PUSH1 0x20 DUP3 ADD MLOAD DUP2 PUSH1 0x1 ADD SWAP1 DUP2 PUSH2 0x455 SWAP2 SWAP1 PUSH2 0x1A7E JUMP JUMPDEST POP PUSH1 0x40 DUP3 ADD MLOAD DUP2 PUSH1 0x2 ADD SSTORE PUSH1 0x60 DUP3 ADD MLOAD DUP2 PUSH1 0x3 ADD SWAP1 DUP2 PUSH2 0x475 SWAP2 SWAP1 PUSH2 0x1A7E JUMP JUMPDEST POP POP POP POP POP POP POP JUMP JUMPDEST PUSH1 0x60 PUSH1 0x32 DUP3 LT PUSH2 0x4C5 JUMPI PUSH1 0x40 MLOAD DUP1 PUSH1 0x40 ADD PUSH1 0x40 MSTORE DUP1 PUSH1 0x4 DUP2 MSTORE PUSH1 0x20 ADD PUSH32 0x5041535300000000000000000000000000000000000000000000000000000000 DUP2 MSTORE POP SWAP1 POP PUSH2 0x4FE JUMP JUMPDEST PUSH1 0x40 MLOAD DUP1 PUSH1 0x40 ADD PUSH1 0x40 MSTORE DUP1 PUSH1 0x4 DUP2 MSTORE PUSH1 0x20 ADD PUSH32 0x4641494C00000000000000000000000000000000000000000000000000000000 DUP2 MSTORE POP SWAP1 POP JUMPDEST SWAP2 SWAP1 POP JUMP JUMPDEST PUSH2 0x50B PUSH2 0x124F JUMP JUMPDEST PUSH2 0x513 PUSH2 0x124F JUMP JUMPDEST PUSH2 0x51B PUSH2 0x124F JUMP JUMPDEST PUSH1 0x5 PUSH1 0x9 PUSH1 0xD DUP3 PUSH1 0x40 MLOAD DUP1 PUSH1 0x80 ADD PUSH1 0x40 MSTORE SWAP1 DUP2 PUSH1 0x0 DUP3 ADD SLOAD DUP2 MSTORE PUSH1 0x20 ADD PUSH1 0x1 DUP3 ADD DUP1 SLOAD PUSH2 0x547 SWAP1 PUSH2 0x18A1 JUMP JUMPDEST DUP1 PUSH1 0x1F ADD PUSH1 0x20 DUP1 SWAP2 DIV MUL PUSH1 0x20 ADD PUSH1 0x40 MLOAD SWAP1 DUP2 ADD PUSH1 0x40 MSTORE DUP1 SWAP3 SWAP2 SWAP1 DUP2 DUP2 MSTORE PUSH1 0x20 ADD DUP3 DUP1 SLOAD PUSH2 0x573 SWAP1 PUSH2 0x18A1 JUMP JUMPDEST DUP1 ISZERO PUSH2 0x5C0 JUMPI DUP1 PUSH1 0x1F LT PUSH2 0x595 JUMPI PUSH2 0x100 DUP1 DUP4 SLOAD DIV MUL DUP4 MSTORE SWAP2 PUSH1 0x20 ADD SWAP2 PUSH2 0x5C0 JUMP JUMPDEST DUP3 ADD SWAP2 SWAP1 PUSH1 0x0 MSTORE PUSH1 0x20 PUSH1 0x0 KECCAK256 SWAP1 JUMPDEST DUP2 SLOAD DUP2 MSTORE SWAP1 PUSH1 0x1 ADD SWAP1 PUSH1 0x20 ADD DUP1 DUP4 GT PUSH2 0x5A3 JUMPI DUP3 SWAP1 SUB PUSH1 0x1F AND DUP3 ADD SWAP2 JUMPDEST POP POP POP POP POP DUP2 MSTORE PUSH1 0x20 ADD PUSH1 0x2 DUP3 ADD SLOAD DUP2 MSTORE PUSH1 0x20 ADD PUSH1 0x3 DUP3 ADD DUP1 SLOAD PUSH2 0x5E3 SWAP1 PUSH2 0x18A1 JUMP JUMPDEST DUP1 PUSH1 0x1F ADD PUSH1 0x20 DUP1 SWAP2 DIV MUL PUSH1 0x20 ADD PUSH1 0x40 MLOAD SWAP1 DUP2 ADD PUSH1 0x40 MSTORE DUP1 SWAP3 SWAP2 SWAP1 DUP2 DUP2 MSTORE PUSH1 0x20 ADD DUP3 DUP1 SLOAD PUSH2 0x60F SWAP1 PUSH2 0x18A1 JUMP JUMPDEST DUP1 ISZERO PUSH2 0x65C JUMPI DUP1 PUSH1 0x1F LT PUSH2 0x631 JUMPI PUSH2 0x100 DUP1 DUP4 SLOAD DIV MUL DUP4 MSTORE SWAP2 PUSH1 0x20 ADD SWAP2 PUSH2 0x65C JUMP JUMPDEST DUP3 ADD SWAP2 SWAP1 PUSH1 0x0 MSTORE PUSH1 0x20 PUSH1 0x0 KECCAK256 SWAP1 JUMPDEST DUP2 SLOAD DUP2 MSTORE SWAP1 PUSH1 0x1 ADD SWAP1 PUSH1 0x20 ADD DUP1 DUP4 GT PUSH2 0x63F JUMPI DUP3 SWAP1 SUB PUSH1 0x1F AND DUP3 ADD SWAP2 JUMPDEST POP POP POP POP POP DUP2 MSTORE POP POP SWAP3 POP DUP2 PUSH1 0x40 MLOAD DUP1 PUSH1 0x80 ADD PUSH1 0x40 MSTORE SWAP1 DUP2 PUSH1 0x0 DUP3 ADD SLOAD DUP2 MSTORE PUSH1 0x20 ADD PUSH1 0x1 DUP3 ADD DUP1 SLOAD PUSH2 0x68D SWAP1 PUSH2 0x18A1 JUMP JUMPDEST DUP1 PUSH1 0x1F ADD PUSH1 0x20 DUP1 SWAP2 DIV MUL PUSH1 0x20 ADD PUSH1 0x40 MLOAD SWAP1 DUP2 ADD PUSH1 0x40 MSTORE DUP1 SWAP3 SWAP2 SWAP1 DUP2 DUP2 MSTORE PUSH1 0x20 ADD DUP3 DUP1 SLOAD PUSH2 0x6B9 SWAP1 PUSH2 0x18A1 JUMP JUMPDEST DUP1 ISZERO PUSH2 0x706 JUMPI DUP1 PUSH1 0x1F LT PUSH2 0x6DB JUMPI PUSH2 0x100 DUP1 DUP4 SLOAD DIV MUL DUP4 MSTORE SWAP2 PUSH1 0x20 ADD SWAP2 PUSH2 0x706 JUMP JUMPDEST DUP3 ADD SWAP2 SWAP1 PUSH1 0x0 MSTORE PUSH1 0x20 PUSH1 0x0 KECCAK256 SWAP1 JUMPDEST DUP2 SLOAD DUP2 MSTORE SWAP1 PUSH1 0x1 ADD SWAP1 PUSH1 0x20 ADD DUP1 DUP4 GT PUSH2 0x6E9 JUMPI DUP3 SWAP1 SUB PUSH1 0x1F AND DUP3 ADD SWAP2 JUMPDEST POP POP POP POP POP DUP2 MSTORE PUSH1 0x20 ADD PUSH1 0x2 DUP3 ADD SLOAD DUP2 MSTORE PUSH1 0x20 ADD PUSH1 0x3 DUP3 ADD DUP1 SLOAD PUSH2 0x729 SWAP1 PUSH2 0x18A1 JUMP JUMPDEST DUP1 PUSH1 0x1F ADD PUSH1 0x20 DUP1 SWAP2 DIV MUL PUSH1 0x20 ADD PUSH1 0x40 MLOAD SWAP1 DUP2 ADD PUSH1 0x40 MSTORE DUP1 SWAP3 SWAP2 SWAP1 DUP2 DUP2 MSTORE PUSH1 0x20 ADD DUP3 DUP1 SLOAD PUSH2 0x755 SWAP1 PUSH2 0x18A1 JUMP JUMPDEST DUP1 ISZERO PUSH2 0x7A2 JUMPI DUP1 PUSH1 0x1F LT PUSH2 0x777 JUMPI PUSH2 0x100 DUP1 DUP4 SLOAD DIV MUL DUP4 MSTORE SWAP2 PUSH1 0x20 ADD SWAP2 PUSH2 0x7A2 JUMP JUMPDEST DUP3 ADD SWAP2 SWAP1 PUSH1 0x0 MSTORE PUSH1 0x20 PUSH1 0x0 KECCAK256 SWAP1 JUMPDEST DUP2 SLOAD DUP2 MSTORE SWAP1 PUSH1 0x1 ADD SWAP1 PUSH1 0x20 ADD DUP1 DUP4 GT PUSH2 0x785 JUMPI DUP3 SWAP1 SUB PUSH1 0x1F AND DUP3 ADD SWAP2 JUMPDEST POP POP POP POP POP DUP2 MSTORE POP POP SWAP2 POP DUP1 PUSH1 0x40 MLOAD DUP1 PUSH1 0x80 ADD PUSH1 0x40 MSTORE SWAP1 DUP2 PUSH1 0x0 DUP3 ADD SLOAD DUP2 MSTORE PUSH1 0x20 ADD PUSH1 0x1 DUP3 ADD DUP1 SLOAD PUSH2 0x7D3 SWAP1 PUSH2 0x18A1 JUMP JUMPDEST DUP1 PUSH1 0x1F ADD PUSH1 0x20 DUP1 SWAP2 DIV MUL PUSH1 0x20 ADD PUSH1 0x40 MLOAD SWAP1 DUP2 ADD PUSH1 0x40 MSTORE DUP1 SWAP3 SWAP2 SWAP1 DUP2 DUP2 MSTORE PUSH1 0x20 ADD DUP3 DUP1 SLOAD PUSH2 0x7FF SWAP1 PUSH2 0x18A1 JUMP JUMPDEST DUP1 ISZERO PUSH2 0x84C JUMPI DUP1 PUSH1 0x1F LT PUSH2 0x821 JUMPI PUSH2 0x100 DUP1 DUP4 SLOAD DIV MUL DUP4 MSTORE SWAP2 PUSH1 0x20 ADD SWAP2 PUSH2 0x84C JUMP JUMPDEST DUP3 ADD SWAP2 SWAP1 PUSH1 0x0 MSTORE PUSH1 0x20 PUSH1 0x0 KECCAK256 SWAP1 JUMPDEST DUP2 SLOAD DUP2 MSTORE SWAP1 PUSH1 0x1 ADD SWAP1 PUSH1 0x20 ADD DUP1 DUP4 GT PUSH2 0x82F JUMPI DUP3 SWAP1 SUB PUSH1 0x1F AND DUP3 ADD SWAP2 JUMPDEST POP POP POP POP POP DUP2 MSTORE PUSH1 0x20 ADD PUSH1 0x2 DUP3 ADD SLOAD DUP2 MSTORE PUSH1 0x20 ADD PUSH1 0x3 DUP3 ADD DUP1 SLOAD PUSH2 0x86F SWAP1 PUSH2 0x18A1 JUMP JUMPDEST DUP1 PUSH1 0x1F ADD PUSH1 0x20 DUP1 SWAP2 DIV MUL PUSH1 0x20 ADD PUSH1 0x40 MLOAD SWAP1 DUP2 ADD PUSH1 0x40 MSTORE DUP1 SWAP3 SWAP2 SWAP1 DUP2 DUP2 MSTORE PUSH1 0x20 ADD DUP3 DUP1 SLOAD PUSH2 0x89B SWAP1 PUSH2 0x18A1 JUMP JUMPDEST DUP1 ISZERO PUSH2 0x8E8 JUMPI DUP1 PUSH1 0x1F LT PUSH2 0x8BD JUMPI PUSH2 0x100 DUP1 DUP4 SLOAD DIV MUL DUP4 MSTORE SWAP2 PUSH1 0x20 ADD SWAP2 PUSH2 0x8E8 JUMP JUMPDEST DUP3 ADD SWAP2 SWAP1 PUSH1 0x0 MSTORE PUSH1 0x20 PUSH1 0x0 KECCAK256 SWAP1 JUMPDEST DUP2 SLOAD DUP2 MSTORE SWAP1 PUSH1 0x1 ADD SWAP1 PUSH1 0x20 ADD DUP1 DUP4 GT PUSH2 0x8CB JUMPI DUP3 SWAP1 SUB PUSH1 0x1F AND DUP3 ADD SWAP2 JUMPDEST POP POP POP POP POP DUP2 MSTORE POP POP SWAP1 POP SWAP3 POP SWAP3 POP SWAP3 POP SWAP1 SWAP2 SWAP3 JUMP JUMPDEST PUSH1 0x60 PUSH1 0x5A DUP3 LT PUSH2 0x945 JUMPI PUSH1 0x40 MLOAD DUP1 PUSH1 0x40 ADD PUSH1 0x40 MSTORE DUP1 PUSH1 0x1 DUP2 MSTORE PUSH1 0x20 ADD PUSH32 0x4100000000000000000000000000000000000000000000000000000000000000 DUP2 MSTORE POP SWAP1 POP PUSH2 0xA08 JUMP JUMPDEST PUSH1 0x50 DUP3 LT PUSH2 0x98A JUMPI PUSH1 0x40 MLOAD DUP1 PUSH1 0x40 ADD PUSH1 0x40 MSTORE DUP1 PUSH1 0x1 DUP2 MSTORE PUSH1 0x20 ADD PUSH32 0x4200000000000000000000000000000000000000000000000000000000000000 DUP2 MSTORE POP SWAP1 POP PUSH2 0xA08 JUMP JUMPDEST PUSH1 0x46 DUP3 LT PUSH2 0x9CF JUMPI PUSH1 0x40 MLOAD DUP1 PUSH1 0x40 ADD PUSH1 0x40 MSTORE DUP1 PUSH1 0x1 DUP2 MSTORE PUSH1 0x20 ADD PUSH32 0x4300000000000000000000000000000000000000000000000000000000000000 DUP2 MSTORE POP SWAP1 POP PUSH2 0xA08 JUMP JUMPDEST PUSH1 0x40 MLOAD DUP1 PUSH1 0x40 ADD PUSH1 0x40 MSTORE DUP1 PUSH1 0x1 DUP2 MSTORE PUSH1 0x20 ADD PUSH32 0x4600000000000000000000000000000000000000000000000000000000000000 DUP2 MSTORE POP SWAP1 POP JUMPDEST SWAP2 SWAP1 POP JUMP JUMPDEST PUSH1 0x1 PUSH1 0x3 DUP3 PUSH2 0xA1C SWAP2 SWAP1 PUSH2 0x1B7F JUMP JUMPDEST SUB PUSH2 0xA4F JUMPI PUSH1 0x2 DUP2 SWAP1 DUP1 PUSH1 0x1 DUP2 SLOAD ADD DUP1 DUP3 SSTORE DUP1 SWAP2 POP POP PUSH1 0x1 SWAP1 SUB SWAP1 PUSH1 0x0 MSTORE PUSH1 0x20 PUSH1 0x0 KECCAK256 ADD PUSH1 0x0 SWAP1 SWAP2 SWAP1 SWAP2 SWAP1 SWAP2 POP SSTORE PUSH2 0xABC JUMP JUMPDEST PUSH1 0x2 PUSH1 0x3 DUP3 PUSH2 0xA5E SWAP2 SWAP1 PUSH2 0x1B7F JUMP JUMPDEST SUB PUSH2 0xA91 JUMPI PUSH1 0x3 DUP2 SWAP1 DUP1 PUSH1 0x1 DUP2 SLOAD ADD DUP1 DUP3 SSTORE DUP1 SWAP2 POP POP PUSH1 0x1 SWAP1 SUB SWAP1 PUSH1 0x0 MSTORE PUSH1 0x20 PUSH1 0x0 KECCAK256 ADD PUSH1 0x0 SWAP1 SWAP2 SWAP1 SWAP2 SWAP1 SWAP2 POP SSTORE PUSH2 0xABB JUMP JUMPDEST PUSH1 0x4 DUP2 SWAP1 DUP1 PUSH1 0x1 DUP2 SLOAD ADD DUP1 DUP3 SSTORE DUP1 SWAP2 POP POP PUSH1 0x1 SWAP1 SUB SWAP1 PUSH1 0x0 MSTORE PUSH1 0x20 PUSH1 0x0 KECCAK256 ADD PUSH1 0x0 SWAP1 SWAP2 SWAP1 SWAP2 SWAP1 SWAP2 POP SSTORE JUMPDEST JUMPDEST POP JUMP JUMPDEST PUSH1 0x60 PUSH1 0x5A DUP3 LT PUSH2 0xB06 JUMPI PUSH1 0x40 MLOAD DUP1 PUSH1 0x40 ADD PUSH1 0x40 MSTORE DUP1 PUSH1 0x1 DUP2 MSTORE PUSH1 0x20 ADD PUSH32 0x4100000000000000000000000000000000000000000000000000000000000000 DUP2 MSTORE POP SWAP1 POP PUSH2 0xBCB JUMP JUMPDEST PUSH1 0x50 DUP3 LT PUSH2 0xB4B JUMPI PUSH1 0x40 MLOAD DUP1 PUSH1 0x40 ADD PUSH1 0x40 MSTORE DUP1 PUSH1 0x1 DUP2 MSTORE PUSH1 0x20 ADD PUSH32 0x4200000000000000000000000000000000000000000000000000000000000000 DUP2 MSTORE POP SWAP1 POP PUSH2 0xBCA JUMP JUMPDEST PUSH1 0x46 DUP3 LT PUSH2 0xB90 JUMPI PUSH1 0x40 MLOAD DUP1 PUSH1 0x40 ADD PUSH1 0x40 MSTORE DUP1 PUSH1 0x1 DUP2 MSTORE PUSH1 0x20 ADD PUSH32 0x4300000000000000000000000000000000000000000000000000000000000000 DUP2 MSTORE POP SWAP1 POP PUSH2 0xBC9 JUMP JUMPDEST PUSH1 0x40 MLOAD DUP1 PUSH1 0x40 ADD PUSH1 0x40 MSTORE DUP1 PUSH1 0x1 DUP2 MSTORE PUSH1 0x20 ADD PUSH32 0x4600000000000000000000000000000000000000000000000000000000000000 DUP2 MSTORE POP SWAP1 POP JUMPDEST JUMPDEST JUMPDEST PUSH1 0x40 MLOAD DUP1 PUSH1 0x80 ADD PUSH1 0x40 MSTORE DUP1 DUP6 DUP2 MSTORE PUSH1 0x20 ADD DUP5 DUP2 MSTORE PUSH1 0x20 ADD DUP4 DUP2 MSTORE PUSH1 0x20 ADD DUP3 DUP2 MSTORE POP PUSH1 0x9 PUSH1 0x0 DUP3 ADD MLOAD DUP2 PUSH1 0x0 ADD SSTORE PUSH1 0x20 DUP3 ADD MLOAD DUP2 PUSH1 0x1 ADD SWAP1 DUP2 PUSH2 0xC0D SWAP2 SWAP1 PUSH2 0x1A7E JUMP JUMPDEST POP PUSH1 0x40 DUP3 ADD MLOAD DUP2 PUSH1 0x2 ADD SSTORE PUSH1 0x60 DUP3 ADD MLOAD DUP2 PUSH1 0x3 ADD SWAP1 DUP2 PUSH2 0xC2D SWAP2 SWAP1 PUSH2 0x1A7E JUMP JUMPDEST POP SWAP1 POP POP POP POP POP POP JUMP JUMPDEST PUSH1 0x60 PUSH1 0x5A DUP3 LT PUSH2 0xC7E JUMPI PUSH1 0x40 MLOAD DUP1 PUSH1 0x40 ADD PUSH1 0x40 MSTORE DUP1 PUSH1 0x1 DUP2 MSTORE PUSH1 0x20 ADD PUSH32 0x4100000000000000000000000000000000000000000000000000000000000000 DUP2 MSTORE POP SWAP1 POP PUSH2 0xD43 JUMP JUMPDEST PUSH1 0x50 DUP3 LT PUSH2 0xCC3 JUMPI PUSH1 0x40 MLOAD DUP1 PUSH1 0x40 ADD PUSH1 0x40 MSTORE DUP1 PUSH1 0x1 DUP2 MSTORE PUSH1 0x20 ADD PUSH32 0x4200000000000000000000000000000000000000000000000000000000000000 DUP2 MSTORE POP SWAP1 POP PUSH2 0xD42 JUMP JUMPDEST PUSH1 0x46 DUP3 LT PUSH2 0xD08 JUMPI PUSH1 0x40 MLOAD DUP1 PUSH1 0x40 ADD PUSH1 0x40 MSTORE DUP1 PUSH1 0x1 DUP2 MSTORE PUSH1 0x20 ADD PUSH32 0x4300000000000000000000000000000000000000000000000000000000000000 DUP2 MSTORE POP SWAP1 POP PUSH2 0xD41 JUMP JUMPDEST PUSH1 0x40 MLOAD DUP1 PUSH1 0x40 ADD PUSH1 0x40 MSTORE DUP1 PUSH1 0x1 DUP2 MSTORE PUSH1 0x20 ADD PUSH32 0x4600000000000000000000000000000000000000000000000000000000000000 DUP2 MSTORE POP SWAP1 POP JUMPDEST JUMPDEST JUMPDEST PUSH1 0x40 MLOAD DUP1 PUSH1 0x80 ADD PUSH1 0x40 MSTORE DUP1 DUP6 DUP2 MSTORE PUSH1 0x20 ADD DUP5 DUP2 MSTORE PUSH1 0x20 ADD DUP4 DUP2 MSTORE PUSH1 0x20 ADD DUP3 DUP2 MSTORE POP PUSH1 0x5 PUSH1 0x0 DUP3 ADD MLOAD DUP2 PUSH1 0x0 ADD SSTORE PUSH1 0x20 DUP3 ADD MLOAD DUP2 PUSH1 0x1 ADD SWAP1 DUP2 PUSH2 0xD85 SWAP2 SWAP1 PUSH2 0x1A7E JUMP JUMPDEST POP PUSH1 0x40 DUP3 ADD MLOAD DUP2 PUSH1 0x2 ADD SSTORE PUSH1 0x60 DUP3 ADD MLOAD DUP2 PUSH1 0x3 ADD SWAP1 DUP2 PUSH2 0xDA5 SWAP2 SWAP1 PUSH2 0x1A7E JUMP JUMPDEST POP SWAP1 POP POP POP POP POP POP JUMP JUMPDEST PUSH1 0x60 PUSH1 0x5A DUP3 LT PUSH2 0xDF6 JUMPI PUSH1 0x40 MLOAD DUP1 PUSH1 0x40 ADD PUSH1 0x40 MSTORE DUP1 PUSH1 0x1 DUP2 MSTORE PUSH1 0x20 ADD PUSH32 0x4100000000000000000000000000000000000000000000000000000000000000 DUP2 MSTORE POP SWAP1 POP PUSH2 0xEBB JUMP JUMPDEST PUSH1 0x50 DUP3 LT PUSH2 0xE3B JUMPI PUSH1 0x40 MLOAD DUP1 PUSH1 0x40 ADD PUSH1 0x40 MSTORE DUP1 PUSH1 0x1 DUP2 MSTORE PUSH1 0x20 ADD PUSH32 0x4200000000000000000000000000000000000000000000000000000000000000 DUP2 MSTORE POP SWAP1 POP PUSH2 0xEBA JUMP JUMPDEST PUSH1 0x46 DUP3 LT PUSH2 0xE80 JUMPI PUSH1 0x40 MLOAD DUP1 PUSH1 0x40 ADD PUSH1 0x40 MSTORE DUP1 PUSH1 0x1 DUP2 MSTORE PUSH1 0x20 ADD PUSH32 0x4300000000000000000000000000000000000000000000000000000000000000 DUP2 MSTORE POP SWAP1 POP PUSH2 0xEB9 JUMP JUMPDEST PUSH1 0x40 MLOAD DUP1 PUSH1 0x40 ADD PUSH1 0x40 MSTORE DUP1 PUSH1 0x1 DUP2 MSTORE PUSH1 0x20 ADD PUSH32 0x4600000000000000000000000000000000000000000000000000000000000000 DUP2 MSTORE POP SWAP1 POP JUMPDEST JUMPDEST JUMPDEST PUSH1 0x40 MLOAD DUP1 PUSH1 0x80 ADD PUSH1 0x40 MSTORE DUP1 DUP6 DUP2 MSTORE PUSH1 0x20 ADD DUP5 DUP2 MSTORE PUSH1 0x20 ADD DUP4 DUP2 MSTORE PUSH1 0x20 ADD DUP3 DUP2 MSTORE POP PUSH1 0xD PUSH1 0x0 DUP3 ADD MLOAD DUP2 PUSH1 0x0 ADD SSTORE PUSH1 0x20 DUP3 ADD MLOAD DUP2 PUSH1 0x1 ADD SWAP1 DUP2 PUSH2 0xEFD SWAP2 SWAP1 PUSH2 0x1A7E JUMP JUMPDEST POP PUSH1 0x40 DUP3 ADD MLOAD DUP2 PUSH1 0x2 ADD SSTORE PUSH1 0x60 DUP3 ADD MLOAD DUP2 PUSH1 0x3 ADD SWAP1 DUP2 PUSH2 0xF1D SWAP2 SWAP1 PUSH2 0x1A7E JUMP JUMPDEST POP SWAP1 POP POP POP POP POP POP JUMP JUMPDEST PUSH1 0x60 PUSH1 0x0 DUP1 SLOAD DUP1 PUSH1 0x20 MUL PUSH1 0x20 ADD PUSH1 0x40 MLOAD SWAP1 DUP2 ADD PUSH1 0x40 MSTORE DUP1 SWAP3 SWAP2 SWAP1 DUP2 DUP2 MSTORE PUSH1 0x20 ADD DUP3 DUP1 SLOAD DUP1 ISZERO PUSH2 0xF75 JUMPI PUSH1 0x20 MUL DUP3 ADD SWAP2 SWAP1 PUSH1 0x0 MSTORE PUSH1 0x20 PUSH1 0x0 KECCAK256 SWAP1 JUMPDEST DUP2 SLOAD DUP2 MSTORE PUSH1 0x20 ADD SWAP1 PUSH1 0x1 ADD SWAP1 DUP1 DUP4 GT PUSH2 0xF61 JUMPI JUMPDEST POP POP POP POP POP SWAP1 POP SWAP1 JUMP JUMPDEST PUSH1 0x0 PUSH1 0x2 DUP3 PUSH2 0xF8E SWAP2 SWAP1 PUSH2 0x1B7F JUMP JUMPDEST SUB PUSH2 0xFC1 JUMPI PUSH1 0x0 DUP2 SWAP1 DUP1 PUSH1 0x1 DUP2 SLOAD ADD DUP1 DUP3 SSTORE DUP1 SWAP2 POP POP PUSH1 0x1 SWAP1 SUB SWAP1 PUSH1 0x0 MSTORE PUSH1 0x20 PUSH1 0x0 KECCAK256 ADD PUSH1 0x0 SWAP1 SWAP2 SWAP1 SWAP2 SWAP1 SWAP2 POP SSTORE PUSH2 0xFEB JUMP JUMPDEST PUSH1 0x1 DUP2 SWAP1 DUP1 PUSH1 0x1 DUP2 SLOAD ADD DUP1 DUP3 SSTORE DUP1 SWAP2 POP POP PUSH1 0x1 SWAP1 SUB SWAP1 PUSH1 0x0 MSTORE PUSH1 0x20 PUSH1 0x0 KECCAK256 ADD PUSH1 0x0 SWAP1 SWAP2 SWAP1 SWAP2 SWAP1 SWAP2 POP SSTORE JUMPDEST POP JUMP JUMPDEST PUSH1 0x60 PUSH1 0x46 DUP3 LT PUSH2 0x1035 JUMPI PUSH1 0x40 MLOAD DUP1 PUSH1 0x40 ADD PUSH1 0x40 MSTORE DUP1 PUSH1 0x7 DUP2 MSTORE PUSH1 0x20 ADD PUSH32 0x436C617373204100000000000000000000000000000000000000000000000000 DUP2 MSTORE POP SWAP1 POP PUSH2 0x10B3 JUMP JUMPDEST PUSH1 0x32 DUP3 LT PUSH2 0x107A JUMPI PUSH1 0x40 MLOAD DUP1 PUSH1 0x40 ADD PUSH1 0x40 MSTORE DUP1 PUSH1 0x7 DUP2 MSTORE PUSH1 0x20 ADD PUSH32 0x436C617373204200000000000000000000000000000000000000000000000000 DUP2 MSTORE POP SWAP1 POP PUSH2 0x10B3 JUMP JUMPDEST PUSH1 0x40 MLOAD DUP1 PUSH1 0x40 ADD PUSH1 0x40 MSTORE DUP1 PUSH1 0x7 DUP2 MSTORE PUSH1 0x20 ADD PUSH32 0x436C617373204300000000000000000000000000000000000000000000000000 DUP2 MSTORE POP SWAP1 POP JUMPDEST SWAP2 SWAP1 POP JUMP JUMPDEST PUSH1 0x60 PUSH1 0x11 DUP1 SLOAD DUP1 PUSH1 0x20 MUL PUSH1 0x20 ADD PUSH1 0x40 MLOAD SWAP1 DUP2 ADD PUSH1 0x40 MSTORE DUP1 SWAP3 SWAP2 SWAP1 DUP2 DUP2 MSTORE PUSH1 0x20 ADD PUSH1 0x0 SWAP1 JUMPDEST DUP3 DUP3 LT ISZERO PUSH2 0x1246 JUMPI DUP4 DUP3 SWAP1 PUSH1 0x0 MSTORE PUSH1 0x20 PUSH1 0x0 KECCAK256 SWAP1 PUSH1 0x4 MUL ADD PUSH1 0x40 MLOAD DUP1 PUSH1 0x80 ADD PUSH1 0x40 MSTORE SWAP1 DUP2 PUSH1 0x0 DUP3 ADD SLOAD DUP2 MSTORE PUSH1 0x20 ADD PUSH1 0x1 DUP3 ADD DUP1 SLOAD PUSH2 0x1119 SWAP1 PUSH2 0x18A1 JUMP JUMPDEST DUP1 PUSH1 0x1F ADD PUSH1 0x20 DUP1 SWAP2 DIV MUL PUSH1 0x20 ADD PUSH1 0x40 MLOAD SWAP1 DUP2 ADD PUSH1 0x40 MSTORE DUP1 SWAP3 SWAP2 SWAP1 DUP2 DUP2 MSTORE PUSH1 0x20 ADD DUP3 DUP1 SLOAD PUSH2 0x1145 SWAP1 PUSH2 0x18A1 JUMP JUMPDEST DUP1 ISZERO PUSH2 0x1192 JUMPI DUP1 PUSH1 0x1F LT PUSH2 0x1167 JUMPI PUSH2 0x100 DUP1 DUP4 SLOAD DIV MUL DUP4 MSTORE SWAP2 PUSH1 0x20 ADD SWAP2 PUSH2 0x1192 JUMP JUMPDEST DUP3 ADD SWAP2 SWAP1 PUSH1 0x0 MSTORE PUSH1 0x20 PUSH1 0x0 KECCAK256 SWAP1 JUMPDEST DUP2 SLOAD DUP2 MSTORE SWAP1 PUSH1 0x1 ADD SWAP1 PUSH1 0x20 ADD DUP1 DUP4 GT PUSH2 0x1175 JUMPI DUP3 SWAP1 SUB PUSH1 0x1F AND DUP3 ADD SWAP2 JUMPDEST POP POP POP POP POP DUP2 MSTORE PUSH1 0x20 ADD PUSH1 0x2 DUP3 ADD SLOAD DUP2 MSTORE PUSH1 0x20 ADD PUSH1 0x3 DUP3 ADD DUP1 SLOAD PUSH2 0x11B5 SWAP1 PUSH2 0x18A1 JUMP JUMPDEST DUP1 PUSH1 0x1F ADD PUSH1 0x20 DUP1 SWAP2 DIV MUL PUSH1 0x20 ADD PUSH1 0x40 MLOAD SWAP1 DUP2 ADD PUSH1 0x40 MSTORE DUP1 SWAP3 SWAP2 SWAP1 DUP2 DUP2 MSTORE PUSH1 0x20 ADD DUP3 DUP1 SLOAD PUSH2 0x11E1 SWAP1 PUSH2 0x18A1 JUMP JUMPDEST DUP1 ISZERO PUSH2 0x122E JUMPI DUP1 PUSH1 0x1F LT PUSH2 0x1203 JUMPI PUSH2 0x100 DUP1 DUP4 SLOAD DIV MUL DUP4 MSTORE SWAP2 PUSH1 0x20 ADD SWAP2 PUSH2 0x122E JUMP JUMPDEST DUP3 ADD SWAP2 SWAP1 PUSH1 0x0 MSTORE PUSH1 0x20 PUSH1 0x0 KECCAK256 SWAP1 JUMPDEST DUP2 SLOAD DUP2 MSTORE SWAP1 PUSH1 0x1 ADD SWAP1 PUSH1 0x20 ADD DUP1 DUP4 GT PUSH2 0x1211 JUMPI DUP3 SWAP1 SUB PUSH1 0x1F AND DUP3 ADD SWAP2 JUMPDEST POP POP POP POP POP DUP2 MSTORE POP POP DUP2 MSTORE PUSH1 0x20 ADD SWAP1 PUSH1 0x1 ADD SWAP1 PUSH2 0x10DC JUMP JUMPDEST POP POP POP POP SWAP1 POP SWAP1 JUMP JUMPDEST PUSH1 0x40 MLOAD DUP1 PUSH1 0x80 ADD PUSH1 0x40 MSTORE DUP1 PUSH1 0x0 DUP2 MSTORE PUSH1 0x20 ADD PUSH1 0x60 DUP2 MSTORE PUSH1 0x20 ADD PUSH1 0x0 DUP2 MSTORE PUSH1 0x20 ADD PUSH1 0x60 DUP2 MSTORE POP SWAP1 JUMP JUMPDEST PUSH1 0x0 DUP2 MLOAD SWAP1 POP SWAP2 SWAP1 POP JUMP JUMPDEST PUSH1 0x0 DUP3 DUP3 MSTORE PUSH1 0x20 DUP3 ADD SWAP1 POP SWAP3 SWAP2 POP POP JUMP JUMPDEST PUSH1 0x0 DUP2 SWAP1 POP PUSH1 0x20 DUP3 ADD SWAP1 POP SWAP2 SWAP1 POP JUMP JUMPDEST PUSH1 0x0 DUP2 SWAP1 POP SWAP2 SWAP1 POP JUMP JUMPDEST PUSH2 0x12B6 DUP2 PUSH2 0x12A3 JUMP JUMPDEST DUP3 MSTORE POP POP JUMP JUMPDEST PUSH1 0x0 PUSH2 0x12C8 DUP4 DUP4 PUSH2 0x12AD JUMP JUMPDEST PUSH1 0x20 DUP4 ADD SWAP1 POP SWAP3 SWAP2 POP POP JUMP JUMPDEST PUSH1 0x0 PUSH1 0x20 DUP3 ADD SWAP1 POP SWAP2 SWAP1 POP JUMP JUMPDEST PUSH1 0x0 PUSH2 0x12EC DUP3 PUSH2 0x1277 JUMP JUMPDEST PUSH2 0x12F6 DUP2 DUP6 PUSH2 0x1282 JUMP JUMPDEST SWAP4 POP PUSH2 0x1301 DUP4 PUSH2 0x1293 JUMP JUMPDEST DUP1 PUSH1 0x0 JUMPDEST DUP4 DUP2 LT ISZERO PUSH2 0x1332 JUMPI DUP2 MLOAD PUSH2 0x1319 DUP9 DUP3 PUSH2 0x12BC JUMP JUMPDEST SWAP8 POP PUSH2 0x1324 DUP4 PUSH2 0x12D4 JUMP JUMPDEST SWAP3 POP POP PUSH1 0x1 DUP2 ADD SWAP1 POP PUSH2 0x1305 JUMP JUMPDEST POP DUP6 SWAP4 POP POP POP POP SWAP3 SWAP2 POP POP JUMP JUMPDEST PUSH1 0x0 PUSH1 0x20 DUP3 ADD SWAP1 POP DUP2 DUP2 SUB PUSH1 0x0 DUP4 ADD MSTORE PUSH2 0x1359 DUP2 DUP5 PUSH2 0x12E1 JUMP JUMPDEST SWAP1 POP SWAP3 SWAP2 POP POP JUMP JUMPDEST PUSH1 0x0 PUSH1 0x40 MLOAD SWAP1 POP SWAP1 JUMP JUMPDEST PUSH1 0x0 DUP1 REVERT JUMPDEST PUSH1 0x0 DUP1 REVERT JUMPDEST PUSH2 0x137E DUP2 PUSH2 0x12A3 JUMP JUMPDEST DUP2 EQ PUSH2 0x1389 JUMPI PUSH1 0x0 DUP1 REVERT JUMPDEST POP JUMP JUMPDEST PUSH1 0x0 DUP2 CALLDATALOAD SWAP1 POP PUSH2 0x139B DUP2 PUSH2 0x1375 JUMP JUMPDEST SWAP3 SWAP2 POP POP JUMP JUMPDEST PUSH1 0x0 DUP1 REVERT JUMPDEST PUSH1 0x0 DUP1 REVERT JUMPDEST PUSH1 0x0 PUSH1 0x1F NOT PUSH1 0x1F DUP4 ADD AND SWAP1 POP SWAP2 SWAP1 POP JUMP JUMPDEST PUSH32 0x4E487B7100000000000000000000000000000000000000000000000000000000 PUSH1 0x0 MSTORE PUSH1 0x41 PUSH1 0x4 MSTORE PUSH1 0x24 PUSH1 0x0 REVERT JUMPDEST PUSH2 0x13F4 DUP3 PUSH2 0x13AB JUMP JUMPDEST DUP2 ADD DUP2 DUP2 LT PUSH8 0xFFFFFFFFFFFFFFFF DUP3 GT OR ISZERO PUSH2 0x1413 JUMPI PUSH2 0x1412 PUSH2 0x13BC JUMP JUMPDEST JUMPDEST DUP1 PUSH1 0x40 MSTORE POP POP POP JUMP JUMPDEST PUSH1 0x0 PUSH2 0x1426 PUSH2 0x1361 JUMP JUMPDEST SWAP1 POP PUSH2 0x1432 DUP3 DUP3 PUSH2 0x13EB JUMP JUMPDEST SWAP2 SWAP1 POP JUMP JUMPDEST PUSH1 0x0 PUSH8 0xFFFFFFFFFFFFFFFF DUP3 GT ISZERO PUSH2 0x1452 JUMPI PUSH2 0x1451 PUSH2 0x13BC JUMP JUMPDEST JUMPDEST PUSH2 0x145B DUP3 PUSH2 0x13AB JUMP JUMPDEST SWAP1 POP PUSH1 0x20 DUP2 ADD SWAP1 POP SWAP2 SWAP1 POP JUMP JUMPDEST DUP3 DUP2 DUP4 CALLDATACOPY PUSH1 0x0 DUP4 DUP4 ADD MSTORE POP POP POP JUMP JUMPDEST PUSH1 0x0 PUSH2 0x148A PUSH2 0x1485 DUP5 PUSH2 0x1437 JUMP JUMPDEST PUSH2 0x141C JUMP JUMPDEST SWAP1 POP DUP3 DUP2 MSTORE PUSH1 0x20 DUP2 ADD DUP5 DUP5 DUP5 ADD GT ISZERO PUSH2 0x14A6 JUMPI PUSH2 0x14A5 PUSH2 0x13A6 JUMP JUMPDEST JUMPDEST PUSH2 0x14B1 DUP5 DUP3 DUP6 PUSH2 0x1468 JUMP JUMPDEST POP SWAP4 SWAP3 POP POP POP JUMP JUMPDEST PUSH1 0x0 DUP3 PUSH1 0x1F DUP4 ADD SLT PUSH2 0x14CE JUMPI PUSH2 0x14CD PUSH2 0x13A1 JUMP JUMPDEST JUMPDEST DUP2 CALLDATALOAD PUSH2 0x14DE DUP5 DUP3 PUSH1 0x20 DUP7 ADD PUSH2 0x1477 JUMP JUMPDEST SWAP2 POP POP SWAP3 SWAP2 POP POP JUMP JUMPDEST PUSH1 0x0 DUP1 PUSH1 0x0 PUSH1 0x60 DUP5 DUP7 SUB SLT ISZERO PUSH2 0x1500 JUMPI PUSH2 0x14FF PUSH2 0x136B JUMP JUMPDEST JUMPDEST PUSH1 0x0 PUSH2 0x150E DUP7 DUP3 DUP8 ADD PUSH2 0x138C JUMP JUMPDEST SWAP4 POP POP PUSH1 0x20 DUP5 ADD CALLDATALOAD PUSH8 0xFFFFFFFFFFFFFFFF DUP2 GT ISZERO PUSH2 0x152F JUMPI PUSH2 0x152E PUSH2 0x1370 JUMP JUMPDEST JUMPDEST PUSH2 0x153B DUP7 DUP3 DUP8 ADD PUSH2 0x14B9 JUMP JUMPDEST SWAP3 POP POP PUSH1 0x40 PUSH2 0x154C DUP7 DUP3 DUP8 ADD PUSH2 0x138C JUMP JUMPDEST SWAP2 POP POP SWAP3 POP SWAP3 POP SWAP3 JUMP JUMPDEST PUSH1 0x0 PUSH1 0x20 DUP3 DUP5 SUB SLT ISZERO PUSH2 0x156C JUMPI PUSH2 0x156B PUSH2 0x136B JUMP JUMPDEST JUMPDEST PUSH1 0x0 PUSH2 0x157A DUP5 DUP3 DUP6 ADD PUSH2 0x138C JUMP JUMPDEST SWAP2 POP POP SWAP3 SWAP2 POP POP JUMP JUMPDEST PUSH1 0x0 DUP2 MLOAD SWAP1 POP SWAP2 SWAP1 POP JUMP JUMPDEST PUSH1 0x0 DUP3 DUP3 MSTORE PUSH1 0x20 DUP3 ADD SWAP1 POP SWAP3 SWAP2 POP POP JUMP JUMPDEST PUSH1 0x0 JUMPDEST DUP4 DUP2 LT ISZERO PUSH2 0x15BD JUMPI DUP1 DUP3 ADD MLOAD DUP2 DUP5 ADD MSTORE PUSH1 0x20 DUP2 ADD SWAP1 POP PUSH2 0x15A2 JUMP JUMPDEST PUSH1 0x0 DUP5 DUP5 ADD MSTORE POP POP POP POP JUMP JUMPDEST PUSH1 0x0 PUSH2 0x15D4 DUP3 PUSH2 0x1583 JUMP JUMPDEST PUSH2 0x15DE DUP2 DUP6 PUSH2 0x158E JUMP JUMPDEST SWAP4 POP PUSH2 0x15EE DUP2 DUP6 PUSH1 0x20 DUP7 ADD PUSH2 0x159F JUMP JUMPDEST PUSH2 0x15F7 DUP2 PUSH2 0x13AB JUMP JUMPDEST DUP5 ADD SWAP2 POP POP SWAP3 SWAP2 POP POP JUMP JUMPDEST PUSH1 0x0 PUSH1 0x20 DUP3 ADD SWAP1 POP DUP2 DUP2 SUB PUSH1 0x0 DUP4 ADD MSTORE PUSH2 0x161C DUP2 DUP5 PUSH2 0x15C9 JUMP JUMPDEST SWAP1 POP SWAP3 SWAP2 POP POP JUMP JUMPDEST PUSH1 0x0 DUP3 DUP3 MSTORE PUSH1 0x20 DUP3 ADD SWAP1 POP SWAP3 SWAP2 POP POP JUMP JUMPDEST PUSH1 0x0 PUSH2 0x1640 DUP3 PUSH2 0x1583 JUMP JUMPDEST PUSH2 0x164A DUP2 DUP6 PUSH2 0x1624 JUMP JUMPDEST SWAP4 POP PUSH2 0x165A DUP2 DUP6 PUSH1 0x20 DUP7 ADD PUSH2 0x159F JUMP JUMPDEST PUSH2 0x1663 DUP2 PUSH2 0x13AB JUMP JUMPDEST DUP5 ADD SWAP2 POP POP SWAP3 SWAP2 POP POP JUMP JUMPDEST PUSH1 0x0 PUSH1 0x80 DUP4 ADD PUSH1 0x0 DUP4 ADD MLOAD PUSH2 0x1686 PUSH1 0x0 DUP7 ADD DUP3 PUSH2 0x12AD JUMP JUMPDEST POP PUSH1 0x20 DUP4 ADD MLOAD DUP5 DUP3 SUB PUSH1 0x20 DUP7 ADD MSTORE PUSH2 0x169E DUP3 DUP3 PUSH2 0x1635 JUMP JUMPDEST SWAP2 POP POP PUSH1 0x40 DUP4 ADD MLOAD PUSH2 0x16B3 PUSH1 0x40 DUP7 ADD DUP3 PUSH2 0x12AD JUMP JUMPDEST POP PUSH1 0x60 DUP4 ADD MLOAD DUP5 DUP3 SUB PUSH1 0x60 DUP7 ADD MSTORE PUSH2 0x16CB DUP3 DUP3 PUSH2 0x1635 JUMP JUMPDEST SWAP2 POP POP DUP1 SWAP2 POP POP SWAP3 SWAP2 POP POP JUMP JUMPDEST PUSH1 0x0 PUSH1 0x60 DUP3 ADD SWAP1 POP DUP2 DUP2 SUB PUSH1 0x0 DUP4 ADD MSTORE PUSH2 0x16F2 DUP2 DUP7 PUSH2 0x166E JUMP JUMPDEST SWAP1 POP DUP2 DUP2 SUB PUSH1 0x20 DUP4 ADD MSTORE PUSH2 0x1706 DUP2 DUP6 PUSH2 0x166E JUMP JUMPDEST SWAP1 POP DUP2 DUP2 SUB PUSH1 0x40 DUP4 ADD MSTORE PUSH2 0x171A DUP2 DUP5 PUSH2 0x166E JUMP JUMPDEST SWAP1 POP SWAP5 SWAP4 POP POP POP POP JUMP JUMPDEST PUSH1 0x0 DUP2 MLOAD SWAP1 POP SWAP2 SWAP1 POP JUMP JUMPDEST PUSH1 0x0 DUP3 DUP3 MSTORE PUSH1 0x20 DUP3 ADD SWAP1 POP SWAP3 SWAP2 POP POP JUMP JUMPDEST PUSH1 0x0 DUP2 SWAP1 POP PUSH1 0x20 DUP3 ADD SWAP1 POP SWAP2 SWAP1 POP JUMP JUMPDEST PUSH1 0x0 PUSH1 0x80 DUP4 ADD PUSH1 0x0 DUP4 ADD MLOAD PUSH2 0x1768 PUSH1 0x0 DUP7 ADD DUP3 PUSH2 0x12AD JUMP JUMPDEST POP PUSH1 0x20 DUP4 ADD MLOAD DUP5 DUP3 SUB PUSH1 0x20 DUP7 ADD MSTORE PUSH2 0x1780 DUP3 DUP3 PUSH2 0x1635 JUMP JUMPDEST SWAP2 POP POP PUSH1 0x40 DUP4 ADD MLOAD PUSH2 0x1795 PUSH1 0x40 DUP7 ADD DUP3 PUSH2 0x12AD JUMP JUMPDEST POP PUSH1 0x60 DUP4 ADD MLOAD DUP5 DUP3 SUB PUSH1 0x60 DUP7 ADD MSTORE PUSH2 0x17AD DUP3 DUP3 PUSH2 0x1635 JUMP JUMPDEST SWAP2 POP POP DUP1 SWAP2 POP POP SWAP3 SWAP2 POP POP JUMP JUMPDEST PUSH1 0x0 PUSH2 0x17C6 DUP4 DUP4 PUSH2 0x1750 JUMP JUMPDEST SWAP1 POP SWAP3 SWAP2 POP POP JUMP JUMPDEST PUSH1 0x0 PUSH1 0x20 DUP3 ADD SWAP1 POP SWAP2 SWAP1 POP JUMP JUMPDEST PUSH1 0x0 PUSH2 0x17E6 DUP3 PUSH2 0x1724 JUMP JUMPDEST PUSH2 0x17F0 DUP2 DUP6 PUSH2 0x172F JUMP JUMPDEST SWAP4 POP DUP4 PUSH1 0x20 DUP3 MUL DUP6 ADD PUSH2 0x1802 DUP6 PUSH2 0x1740 JUMP JUMPDEST DUP1 PUSH1 0x0 JUMPDEST DUP6 DUP2 LT ISZERO PUSH2 0x183E JUMPI DUP5 DUP5 SUB DUP10 MSTORE DUP2 MLOAD PUSH2 0x181F DUP6 DUP3 PUSH2 0x17BA JUMP JUMPDEST SWAP5 POP PUSH2 0x182A DUP4 PUSH2 0x17CE JUMP JUMPDEST SWAP3 POP PUSH1 0x20 DUP11 ADD SWAP10 POP POP PUSH1 0x1 DUP2 ADD SWAP1 POP PUSH2 0x1806 JUMP JUMPDEST POP DUP3 SWAP8 POP DUP8 SWAP6 POP POP POP POP POP POP SWAP3 SWAP2 POP POP JUMP JUMPDEST PUSH1 0x0 PUSH1 0x20 DUP3 ADD SWAP1 POP DUP2 DUP2 SUB PUSH1 0x0 DUP4 ADD MSTORE PUSH2 0x186A DUP2 DUP5 PUSH2 0x17DB JUMP JUMPDEST SWAP1 POP SWAP3 SWAP2 POP POP JUMP JUMPDEST PUSH32 0x4E487B7100000000000000000000000000000000000000000000000000000000 PUSH1 0x0 MSTORE PUSH1 0x22 PUSH1 0x4 MSTORE PUSH1 0x24 PUSH1 0x0 REVERT JUMPDEST PUSH1 0x0 PUSH1 0x2 DUP3 DIV SWAP1 POP PUSH1 0x1 DUP3 AND DUP1 PUSH2 0x18B9 JUMPI PUSH1 0x7F DUP3 AND SWAP2 POP JUMPDEST PUSH1 0x20 DUP3 LT DUP2 SUB PUSH2 0x18CC JUMPI PUSH2 0x18CB PUSH2 0x1872 JUMP JUMPDEST JUMPDEST POP SWAP2 SWAP1 POP JUMP JUMPDEST PUSH1 0x0 DUP2 SWAP1 POP DUP2 PUSH1 0x0 MSTORE PUSH1 0x20 PUSH1 0x0 KECCAK256 SWAP1 POP SWAP2 SWAP1 POP JUMP JUMPDEST PUSH1 0x0 PUSH1 0x20 PUSH1 0x1F DUP4 ADD DIV SWAP1 POP SWAP2 SWAP1 POP JUMP JUMPDEST PUSH1 0x0 DUP3 DUP3 SHL SWAP1 POP SWAP3 SWAP2 POP POP JUMP JUMPDEST PUSH1 0x0 PUSH1 0x8 DUP4 MUL PUSH2 0x1934 PUSH32 0xFFFFFFFFFFFFFFFFFFFFFFFFFFFFFFFFFFFFFFFFFFFFFFFFFFFFFFFFFFFFFFFF DUP3 PUSH2 0x18F7 JUMP JUMPDEST PUSH2 0x193E DUP7 DUP4 PUSH2 0x18F7 JUMP JUMPDEST SWAP6 POP DUP1 NOT DUP5 AND SWAP4 POP DUP1 DUP7 AND DUP5 OR SWAP3 POP POP POP SWAP4 SWAP3 POP POP POP JUMP JUMPDEST PUSH1 0x0 DUP2 SWAP1 POP SWAP2 SWAP1 POP JUMP JUMPDEST PUSH1 0x0 PUSH2 0x197B PUSH2 0x1976 PUSH2 0x1971 DUP5 PUSH2 0x12A3 JUMP JUMPDEST PUSH2 0x1956 JUMP JUMPDEST PUSH2 0x12A3 JUMP JUMPDEST SWAP1 POP SWAP2 SWAP1 POP JUMP JUMPDEST PUSH1 0x0 DUP2 SWAP1 POP SWAP2 SWAP1 POP JUMP JUMPDEST PUSH2 0x1995 DUP4 PUSH2 0x1960 JUMP JUMPDEST PUSH2 0x19A9 PUSH2 0x19A1 DUP3 PUSH2 0x1982 JUMP JUMPDEST DUP5 DUP5 SLOAD PUSH2 0x1904 JUMP JUMPDEST DUP3 SSTORE POP POP POP POP JUMP JUMPDEST PUSH1 0x0 SWAP1 JUMP JUMPDEST PUSH2 0x19BE PUSH2 0x19B1 JUMP JUMPDEST PUSH2 0x19C9 DUP2 DUP5 DUP5 PUSH2 0x198C JUMP JUMPDEST POP POP POP JUMP JUMPDEST JUMPDEST DUP2 DUP2 LT ISZERO PUSH2 0x19ED JUMPI PUSH2 0x19E2 PUSH1 0x0 DUP3 PUSH2 0x19B6 JUMP JUMPDEST PUSH1 0x1 DUP2 ADD SWAP1 POP PUSH2 0x19CF JUMP JUMPDEST POP POP JUMP JUMPDEST PUSH1 0x1F DUP3 GT ISZERO PUSH2 0x1A32 JUMPI PUSH2 0x1A03 DUP2 PUSH2 0x18D2 JUMP JUMPDEST PUSH2 0x1A0C DUP5 PUSH2 0x18E7 JUMP JUMPDEST DUP2 ADD PUSH1 0x20 DUP6 LT ISZERO PUSH2 0x1A1B JUMPI DUP2 SWAP1 POP JUMPDEST PUSH2 0x1A2F PUSH2 0x1A27 DUP6 PUSH2 0x18E7 JUMP JUMPDEST DUP4 ADD DUP3 PUSH2 0x19CE JUMP JUMPDEST POP POP JUMPDEST POP POP POP JUMP JUMPDEST PUSH1 0x0 DUP3 DUP3 SHR SWAP1 POP SWAP3 SWAP2 POP POP JUMP JUMPDEST PUSH1 0x0 PUSH2 0x1A55 PUSH1 0x0 NOT DUP5 PUSH1 0x8 MUL PUSH2 0x1A37 JUMP JUMPDEST NOT DUP1 DUP4 AND SWAP2 POP POP SWAP3 SWAP2 POP POP JUMP JUMPDEST PUSH1 0x0 PUSH2 0x1A6E DUP4 DUP4 PUSH2 0x1A44 JUMP JUMPDEST SWAP2 POP DUP3 PUSH1 0x2 MUL DUP3 OR SWAP1 POP SWAP3 SWAP2 POP POP JUMP JUMPDEST PUSH2 0x1A87 DUP3 PUSH2 0x1583 JUMP JUMPDEST PUSH8 0xFFFFFFFFFFFFFFFF DUP2 GT ISZERO PUSH2 0x1AA0 JUMPI PUSH2 0x1A9F PUSH2 0x13BC JUMP JUMPDEST JUMPDEST PUSH2 0x1AAA DUP3 SLOAD PUSH2 0x18A1 JUMP JUMPDEST PUSH2 0x1AB5 DUP3 DUP3 DUP6 PUSH2 0x19F1 JUMP JUMPDEST PUSH1 0x0 PUSH1 0x20 SWAP1 POP PUSH1 0x1F DUP4 GT PUSH1 0x1 DUP2 EQ PUSH2 0x1AE8 JUMPI PUSH1 0x0 DUP5 ISZERO PUSH2 0x1AD6 JUMPI DUP3 DUP8 ADD MLOAD SWAP1 POP JUMPDEST PUSH2 0x1AE0 DUP6 DUP3 PUSH2 0x1A62 JUMP JUMPDEST DUP7 SSTORE POP PUSH2 0x1B48 JUMP JUMPDEST PUSH1 0x1F NOT DUP5 AND PUSH2 0x1AF6 DUP7 PUSH2 0x18D2 JUMP JUMPDEST PUSH1 0x0 JUMPDEST DUP3 DUP2 LT ISZERO PUSH2 0x1B1E JUMPI DUP5 DUP10 ADD MLOAD DUP3 SSTORE PUSH1 0x1 DUP3 ADD SWAP2 POP PUSH1 0x20 DUP6 ADD SWAP5 POP PUSH1 0x20 DUP2 ADD SWAP1 POP PUSH2 0x1AF9 JUMP JUMPDEST DUP7 DUP4 LT ISZERO PUSH2 0x1B3B JUMPI DUP5 DUP10 ADD MLOAD PUSH2 0x1B37 PUSH1 0x1F DUP10 AND DUP3 PUSH2 0x1A44 JUMP JUMPDEST DUP4 SSTORE POP JUMPDEST PUSH1 0x1 PUSH1 0x2 DUP9 MUL ADD DUP9 SSTORE POP POP POP JUMPDEST POP POP POP POP POP POP JUMP JUMPDEST PUSH32 0x4E487B7100000000000000000000000000000000000000000000000000000000 PUSH1 0x0 MSTORE PUSH1 0x12 PUSH1 0x4 MSTORE PUSH1 0x24 PUSH1 0x0 REVERT JUMPDEST PUSH1 0x0 PUSH2 0x1B8A DUP3 PUSH2 0x12A3 JUMP JUMPDEST SWAP2 POP PUSH2 0x1B95 DUP4 PUSH2 0x12A3 JUMP JUMPDEST SWAP3 POP DUP3 PUSH2 0x1BA5 JUMPI PUSH2 0x1BA4 PUSH2 0x1B50 JUMP JUMPDEST JUMPDEST DUP3 DUP3 MOD SWAP1 POP SWAP3 SWAP2 POP POP JUMP INVALID LOG2 PUSH5 0x6970667358 0x22 SLT KECCAK256 DIV JUMP STOP BLOCKHASH 0x4D PUSH16 0xBAC3E52F92B8DA75A0925BBEFCFF3AEE 0x21 PUSH28 0x658E982BED5F52BA64736F6C63430008120033000000000000000000 "
		},
		"gasEstimates": {
			"creation": {
				"codeDepositCost": "1428400",
				"executionCost": "1493",
				"totalCost": "1429893"
			},
			"external": {
				"evenORodd(uint256)": "infinite",
				"getABC(uint256)": "infinite",
				"getEven()": "infinite",
				"getOdd()": "infinite",
				"getStudents()": "infinite",
				"getStudentsABC()": "infinite",
				"pushStudent(uint256,string,uint256)": "infinite",
				"setAlice(uint256,string,uint256)": "infinite",
				"setBob(uint256,string,uint256)": "infinite",
				"setCharlie(uint256,string,uint256)": "infinite",
				"setClass(uint256)": "infinite",
				"setGrade(uint256)": "infinite",
				"setScore(uint256)": "infinite"
			}
		},
		"methodIdentifiers": {
			"evenORodd(uint256)": "b6e52cb1",
			"getABC(uint256)": "98105d8d",
			"getEven()": "b0c7a93c",
			"getOdd()": "159c10ee",
			"getStudents()": "f1d064b3",
			"getStudentsABC()": "448e1bed",
			"pushStudent(uint256,string,uint256)": "3b4598b1",
			"setAlice(uint256,string,uint256)": "9fec8626",
			"setBob(uint256,string,uint256)": "9db1e7da",
			"setCharlie(uint256,string,uint256)": "ad8364a4",
			"setClass(uint256)": "c1846f51",
			"setGrade(uint256)": "674271cd",
			"setScore(uint256)": "422beeba"
		}
	},
	"abi": [
		{
			"inputs": [
				{
					"internalType": "uint256",
					"name": "_number",
					"type": "uint256"
				}
			],
			"name": "evenORodd",
			"outputs": [],
			"stateMutability": "nonpayable",
			"type": "function"
		},
		{
			"inputs": [
				{
					"internalType": "uint256",
					"name": "_number",
					"type": "uint256"
				}
			],
			"name": "getABC",
			"outputs": [],
			"stateMutability": "nonpayable",
			"type": "function"
		},
		{
			"inputs": [],
			"name": "getEven",
			"outputs": [
				{
					"internalType": "uint256[]",
					"name": "",
					"type": "uint256[]"
				}
			],
			"stateMutability": "view",
			"type": "function"
		},
		{
			"inputs": [],
			"name": "getOdd",
			"outputs": [
				{
					"internalType": "uint256[]",
					"name": "",
					"type": "uint256[]"
				}
			],
			"stateMutability": "view",
			"type": "function"
		},
		{
			"inputs": [],
			"name": "getStudents",
			"outputs": [
				{
					"components": [
						{
							"internalType": "uint256",
							"name": "number",
							"type": "uint256"
						},
						{
							"internalType": "string",
							"name": "name",
							"type": "string"
						},
						{
							"internalType": "uint256",
							"name": "score",
							"type": "uint256"
						},
						{
							"internalType": "string",
							"name": "credit",
							"type": "string"
						}
					],
					"internalType": "struct IF.student[]",
					"name": "",
					"type": "tuple[]"
				}
			],
			"stateMutability": "view",
			"type": "function"
		},
		{
			"inputs": [],
			"name": "getStudentsABC",
			"outputs": [
				{
					"components": [
						{
							"internalType": "uint256",
							"name": "number",
							"type": "uint256"
						},
						{
							"internalType": "string",
							"name": "name",
							"type": "string"
						},
						{
							"internalType": "uint256",
							"name": "score",
							"type": "uint256"
						},
						{
							"internalType": "string",
							"name": "credit",
							"type": "string"
						}
					],
					"internalType": "struct IF.student",
					"name": "",
					"type": "tuple"
				},
				{
					"components": [
						{
							"internalType": "uint256",
							"name": "number",
							"type": "uint256"
						},
						{
							"internalType": "string",
							"name": "name",
							"type": "string"
						},
						{
							"internalType": "uint256",
							"name": "score",
							"type": "uint256"
						},
						{
							"internalType": "string",
							"name": "credit",
							"type": "string"
						}
					],
					"internalType": "struct IF.student",
					"name": "",
					"type": "tuple"
				},
				{
					"components": [
						{
							"internalType": "uint256",
							"name": "number",
							"type": "uint256"
						},
						{
							"internalType": "string",
							"name": "name",
							"type": "string"
						},
						{
							"internalType": "uint256",
							"name": "score",
							"type": "uint256"
						},
						{
							"internalType": "string",
							"name": "credit",
							"type": "string"
						}
					],
					"internalType": "struct IF.student",
					"name": "",
					"type": "tuple"
				}
			],
			"stateMutability": "view",
			"type": "function"
		},
		{
			"inputs": [
				{
					"internalType": "uint256",
					"name": "_number",
					"type": "uint256"
				},
				{
					"internalType": "string",
					"name": "_name",
					"type": "string"
				},
				{
					"internalType": "uint256",
					"name": "_score",
					"type": "uint256"
				}
			],
			"name": "pushStudent",
			"outputs": [],
			"stateMutability": "nonpayable",
			"type": "function"
		},
		{
			"inputs": [
				{
					"internalType": "uint256",
					"name": "_number",
					"type": "uint256"
				},
				{
					"internalType": "string",
					"name": "_name",
					"type": "string"
				},
				{
					"internalType": "uint256",
					"name": "_score",
					"type": "uint256"
				}
			],
			"name": "setAlice",
			"outputs": [],
			"stateMutability": "nonpayable",
			"type": "function"
		},
		{
			"inputs": [
				{
					"internalType": "uint256",
					"name": "_number",
					"type": "uint256"
				},
				{
					"internalType": "string",
					"name": "_name",
					"type": "string"
				},
				{
					"internalType": "uint256",
					"name": "_score",
					"type": "uint256"
				}
			],
			"name": "setBob",
			"outputs": [],
			"stateMutability": "nonpayable",
			"type": "function"
		},
		{
			"inputs": [
				{
					"internalType": "uint256",
					"name": "_number",
					"type": "uint256"
				},
				{
					"internalType": "string",
					"name": "_name",
					"type": "string"
				},
				{
					"internalType": "uint256",
					"name": "_score",
					"type": "uint256"
				}
			],
			"name": "setCharlie",
			"outputs": [],
			"stateMutability": "nonpayable",
			"type": "function"
		},
		{
			"inputs": [
				{
					"internalType": "uint256",
					"name": "_score",
					"type": "uint256"
				}
			],
			"name": "setClass",
			"outputs": [
				{
					"internalType": "string",
					"name": "",
					"type": "string"
				}
			],
			"stateMutability": "pure",
			"type": "function"
		},
		{
			"inputs": [
				{
					"internalType": "uint256",
					"name": "_score",
					"type": "uint256"
				}
			],
			"name": "setGrade",
			"outputs": [
				{
					"internalType": "string",
					"name": "",
					"type": "string"
				}
			],
			"stateMutability": "pure",
			"type": "function"
		},
		{
			"inputs": [
				{
					"internalType": "uint256",
					"name": "_score",
					"type": "uint256"
				}
			],
			"name": "setScore",
			"outputs": [
				{
					"internalType": "string",
					"name": "",
					"type": "string"
				}
			],
			"stateMutability": "pure",
			"type": "function"
		}
	]
}